{
	"contracts/SupplyChainDataManagement.sol": {
		"SupplyChainDataManagement": {
			"abi": [
				{
					"anonymous": false,
					"inputs": [
						{
							"indexed": false,
							"internalType": "uint256",
							"name": "A",
							"type": "uint256"
						},
						{
							"indexed": false,
							"internalType": "uint256",
							"name": "B",
							"type": "uint256"
						},
						{
							"indexed": false,
							"internalType": "uint256",
							"name": "C",
							"type": "uint256"
						},
						{
							"indexed": false,
							"internalType": "uint256",
							"name": "D",
							"type": "uint256"
						},
						{
							"indexed": false,
							"internalType": "uint256",
							"name": "E",
							"type": "uint256"
						}
					],
					"name": "log",
					"type": "event"
				},
				{
					"inputs": [
						{
							"internalType": "int256",
							"name": "a",
							"type": "int256"
						}
					],
					"name": "ABS",
					"outputs": [
						{
							"internalType": "int256",
							"name": "",
							"type": "int256"
						}
					],
					"stateMutability": "view",
					"type": "function"
				},
				{
					"inputs": [
						{
							"internalType": "string",
							"name": "_batchCode",
							"type": "string"
						},
						{
							"internalType": "string",
							"name": "_medicineName",
							"type": "string"
						},
						{
							"internalType": "uint256",
							"name": "_medicineQuantity",
							"type": "uint256"
						},
						{
							"internalType": "string",
							"name": "_userID",
							"type": "string"
						},
						{
							"components": [
								{
									"internalType": "uint256",
									"name": "day",
									"type": "uint256"
								},
								{
									"internalType": "int256",
									"name": "month",
									"type": "int256"
								},
								{
									"internalType": "uint256",
									"name": "year",
									"type": "uint256"
								}
							],
							"internalType": "struct SupplyChainDataManagement.Time",
							"name": "_timeOfSell",
							"type": "tuple"
						},
						{
							"components": [
								{
									"internalType": "uint256",
									"name": "day",
									"type": "uint256"
								},
								{
									"internalType": "int256",
									"name": "month",
									"type": "int256"
								},
								{
									"internalType": "uint256",
									"name": "year",
									"type": "uint256"
								}
							],
							"internalType": "struct SupplyChainDataManagement.Time",
							"name": "_mfdDate",
							"type": "tuple"
						},
						{
							"components": [
								{
									"internalType": "uint256",
									"name": "day",
									"type": "uint256"
								},
								{
									"internalType": "int256",
									"name": "month",
									"type": "int256"
								},
								{
									"internalType": "uint256",
									"name": "year",
									"type": "uint256"
								}
							],
							"internalType": "struct SupplyChainDataManagement.Time",
							"name": "_expDate",
							"type": "tuple"
						}
					],
					"name": "addMedicine",
					"outputs": [
						{
							"internalType": "int256",
							"name": "",
							"type": "int256"
						}
					],
					"stateMutability": "nonpayable",
					"type": "function"
				},
				{
					"inputs": [
						{
							"internalType": "string",
							"name": "a",
							"type": "string"
						},
						{
							"internalType": "string",
							"name": "b",
							"type": "string"
						}
					],
					"name": "compareStrings",
					"outputs": [
						{
							"internalType": "bool",
							"name": "",
							"type": "bool"
						}
					],
					"stateMutability": "view",
					"type": "function"
				},
				{
					"inputs": [
						{
							"internalType": "string",
							"name": "_batchcode",
							"type": "string"
						}
					],
					"name": "deleteMedicine",
					"outputs": [
						{
							"internalType": "bool",
							"name": "",
							"type": "bool"
						}
					],
					"stateMutability": "nonpayable",
					"type": "function"
				},
				{
					"inputs": [
						{
							"internalType": "string",
							"name": "_userID",
							"type": "string"
						}
					],
					"name": "findStakeHolderByUserID",
					"outputs": [
						{
							"internalType": "string",
							"name": "",
							"type": "string"
						}
					],
					"stateMutability": "view",
					"type": "function"
				},
				{
					"inputs": [
						{
							"internalType": "int256",
							"name": "k",
							"type": "int256"
						},
						{
							"internalType": "int256",
							"name": "startMonth",
							"type": "int256"
						},
						{
							"internalType": "int256",
							"name": "endMonth",
							"type": "int256"
						},
						{
							"internalType": "string",
							"name": "medicineName",
							"type": "string"
						},
						{
							"internalType": "string",
							"name": "level",
							"type": "string"
						}
					],
					"name": "getMovingAvgForecast",
					"outputs": [
						{
							"internalType": "int256[]",
							"name": "",
							"type": "int256[]"
						}
					],
					"stateMutability": "nonpayable",
					"type": "function"
				},
				{
					"inputs": [
						{
							"internalType": "int256",
							"name": "startMonth",
							"type": "int256"
						},
						{
							"internalType": "int256",
							"name": "endMonth",
							"type": "int256"
						},
						{
							"internalType": "string",
							"name": "medicineName",
							"type": "string"
						},
						{
							"internalType": "string",
							"name": "level",
							"type": "string"
						}
					],
					"name": "getSeasonalForecast",
					"outputs": [
						{
							"internalType": "uint256[]",
							"name": "",
							"type": "uint256[]"
						}
					],
					"stateMutability": "nonpayable",
					"type": "function"
				},
				{
					"inputs": [],
					"name": "letters",
					"outputs": [
						{
							"internalType": "string",
							"name": "",
							"type": "string"
						}
					],
					"stateMutability": "view",
					"type": "function"
				},
				{
					"inputs": [
						{
							"internalType": "uint256",
							"name": "",
							"type": "uint256"
						}
					],
					"name": "medicines",
					"outputs": [
						{
							"internalType": "string",
							"name": "batchCode",
							"type": "string"
						},
						{
							"internalType": "string",
							"name": "medicineName",
							"type": "string"
						},
						{
							"internalType": "string",
							"name": "idOfUser",
							"type": "string"
						},
						{
							"internalType": "uint256",
							"name": "quantitySoldInNumbers",
							"type": "uint256"
						},
						{
							"components": [
								{
									"internalType": "uint256",
									"name": "day",
									"type": "uint256"
								},
								{
									"internalType": "int256",
									"name": "month",
									"type": "int256"
								},
								{
									"internalType": "uint256",
									"name": "year",
									"type": "uint256"
								}
							],
							"internalType": "struct SupplyChainDataManagement.Time",
							"name": "timeOfSelling",
							"type": "tuple"
						},
						{
							"internalType": "string",
							"name": "addedByStakeHolderType",
							"type": "string"
						},
						{
							"components": [
								{
									"internalType": "uint256",
									"name": "day",
									"type": "uint256"
								},
								{
									"internalType": "int256",
									"name": "month",
									"type": "int256"
								},
								{
									"internalType": "uint256",
									"name": "year",
									"type": "uint256"
								}
							],
							"internalType": "struct SupplyChainDataManagement.Time",
							"name": "mfdDate",
							"type": "tuple"
						},
						{
							"components": [
								{
									"internalType": "uint256",
									"name": "day",
									"type": "uint256"
								},
								{
									"internalType": "int256",
									"name": "month",
									"type": "int256"
								},
								{
									"internalType": "uint256",
									"name": "year",
									"type": "uint256"
								}
							],
							"internalType": "struct SupplyChainDataManagement.Time",
							"name": "expDate",
							"type": "tuple"
						}
					],
					"stateMutability": "view",
					"type": "function"
				},
				{
					"inputs": [],
					"name": "random",
					"outputs": [
						{
							"internalType": "uint256",
							"name": "",
							"type": "uint256"
						}
					],
					"stateMutability": "view",
					"type": "function"
				},
				{
					"inputs": [
						{
							"internalType": "uint256",
							"name": "number",
							"type": "uint256"
						}
					],
					"name": "random2",
					"outputs": [
						{
							"internalType": "uint256",
							"name": "",
							"type": "uint256"
						}
					],
					"stateMutability": "payable",
					"type": "function"
				},
				{
					"inputs": [],
					"name": "randomString",
					"outputs": [
						{
							"internalType": "string",
							"name": "",
							"type": "string"
						}
					],
					"stateMutability": "payable",
					"type": "function"
				},
				{
					"inputs": [
						{
							"internalType": "string",
							"name": "_aadharID",
							"type": "string"
						},
						{
							"internalType": "string",
							"name": "_name",
							"type": "string"
						},
						{
							"internalType": "string",
							"name": "_stakeholderType",
							"type": "string"
						}
					],
					"name": "registerUser",
					"outputs": [
						{
							"internalType": "string",
							"name": "",
							"type": "string"
						}
					],
					"stateMutability": "nonpayable",
					"type": "function"
				},
				{
					"inputs": [],
					"name": "test",
					"outputs": [
						{
							"components": [
								{
									"internalType": "string",
									"name": "batchCode",
									"type": "string"
								},
								{
									"internalType": "string",
									"name": "medicineName",
									"type": "string"
								},
								{
									"internalType": "string",
									"name": "idOfUser",
									"type": "string"
								},
								{
									"internalType": "uint256",
									"name": "quantitySoldInNumbers",
									"type": "uint256"
								},
								{
									"components": [
										{
											"internalType": "uint256",
											"name": "day",
											"type": "uint256"
										},
										{
											"internalType": "int256",
											"name": "month",
											"type": "int256"
										},
										{
											"internalType": "uint256",
											"name": "year",
											"type": "uint256"
										}
									],
									"internalType": "struct SupplyChainDataManagement.Time",
									"name": "timeOfSelling",
									"type": "tuple"
								},
								{
									"internalType": "string",
									"name": "addedByStakeHolderType",
									"type": "string"
								},
								{
									"components": [
										{
											"internalType": "uint256",
											"name": "day",
											"type": "uint256"
										},
										{
											"internalType": "int256",
											"name": "month",
											"type": "int256"
										},
										{
											"internalType": "uint256",
											"name": "year",
											"type": "uint256"
										}
									],
									"internalType": "struct SupplyChainDataManagement.Time",
									"name": "mfdDate",
									"type": "tuple"
								},
								{
									"components": [
										{
											"internalType": "uint256",
											"name": "day",
											"type": "uint256"
										},
										{
											"internalType": "int256",
											"name": "month",
											"type": "int256"
										},
										{
											"internalType": "uint256",
											"name": "year",
											"type": "uint256"
										}
									],
									"internalType": "struct SupplyChainDataManagement.Time",
									"name": "expDate",
									"type": "tuple"
								}
							],
							"internalType": "struct SupplyChainDataManagement.Medicine[]",
							"name": "",
							"type": "tuple[]"
						}
					],
					"stateMutability": "view",
					"type": "function"
				},
				{
					"inputs": [
						{
							"internalType": "int256",
							"name": "k",
							"type": "int256"
						},
						{
							"internalType": "int256",
							"name": "startMonth",
							"type": "int256"
						},
						{
							"internalType": "int256",
							"name": "endMonth",
							"type": "int256"
						},
						{
							"internalType": "string",
							"name": "medicineName",
							"type": "string"
						},
						{
							"internalType": "string",
							"name": "level",
							"type": "string"
						}
					],
					"name": "weightedMovingAverageMethod",
					"outputs": [
						{
							"internalType": "int256[]",
							"name": "",
							"type": "int256[]"
						}
					],
					"stateMutability": "nonpayable",
					"type": "function"
				}
			],
			"devdoc": {
				"kind": "dev",
				"methods": {},
				"version": 1
			},
			"evm": {
				"assembly": "    /* \"contracts/SupplyChainDataManagement.sol\":36:9790  contract SupplyChainDataManagement {... */\n  mstore(0x40, 0x80)\n    /* \"contracts/SupplyChainDataManagement.sol\":945:946  0 */\n  0x00\n    /* \"contracts/SupplyChainDataManagement.sol\":936:946  uint i = 0 */\n  0x02\n  sstore\n    /* \"contracts/SupplyChainDataManagement.sol\":1030:1082  string public letters = \"abcdefghijklmnopqrstuvwxyz\" */\n  mload(0x40)\n  dup1\n  0x40\n  add\n  0x40\n  mstore\n  dup1\n  0x1a\n  dup2\n  mstore\n  0x20\n  add\n  0x6162636465666768696a6b6c6d6e6f707172737475767778797a000000000000\n  dup2\n  mstore\n  pop\n  0x03\n  swap1\n  dup2\n  tag_1\n  swap2\n  swap1\n  tag_2\n  jump\t// in\ntag_1:\n  pop\n    /* \"contracts/SupplyChainDataManagement.sol\":1193:1194  1 */\n  0x01\n    /* \"contracts/SupplyChainDataManagement.sol\":1179:1194  uint counter =1 */\n  0x04\n  sstore\n    /* \"contracts/SupplyChainDataManagement.sol\":36:9790  contract SupplyChainDataManagement {... */\n  callvalue\n  dup1\n  iszero\n  tag_3\n  jumpi\n  0x00\n  dup1\n  revert\ntag_3:\n  pop\n  jump(tag_4)\n    /* \"#utility.yul\":7:106   */\ntag_5:\n    /* \"#utility.yul\":59:65   */\n  0x00\n    /* \"#utility.yul\":93:98   */\n  dup2\n    /* \"#utility.yul\":87:99   */\n  mload\n    /* \"#utility.yul\":77:99   */\n  swap1\n  pop\n    /* \"#utility.yul\":7:106   */\n  swap2\n  swap1\n  pop\n  jump\t// out\n    /* \"#utility.yul\":112:292   */\ntag_6:\n    /* \"#utility.yul\":160:237   */\n  0x4e487b7100000000000000000000000000000000000000000000000000000000\n    /* \"#utility.yul\":157:158   */\n  0x00\n    /* \"#utility.yul\":150:238   */\n  mstore\n    /* \"#utility.yul\":257:261   */\n  0x41\n    /* \"#utility.yul\":254:255   */\n  0x04\n    /* \"#utility.yul\":247:262   */\n  mstore\n    /* \"#utility.yul\":281:285   */\n  0x24\n    /* \"#utility.yul\":278:279   */\n  0x00\n    /* \"#utility.yul\":271:286   */\n  revert\n    /* \"#utility.yul\":298:478   */\ntag_7:\n    /* \"#utility.yul\":346:423   */\n  0x4e487b7100000000000000000000000000000000000000000000000000000000\n    /* \"#utility.yul\":343:344   */\n  0x00\n    /* \"#utility.yul\":336:424   */\n  mstore\n    /* \"#utility.yul\":443:447   */\n  0x22\n    /* \"#utility.yul\":440:441   */\n  0x04\n    /* \"#utility.yul\":433:448   */\n  mstore\n    /* \"#utility.yul\":467:471   */\n  0x24\n    /* \"#utility.yul\":464:465   */\n  0x00\n    /* \"#utility.yul\":457:472   */\n  revert\n    /* \"#utility.yul\":484:804   */\ntag_8:\n    /* \"#utility.yul\":528:534   */\n  0x00\n    /* \"#utility.yul\":565:566   */\n  0x02\n    /* \"#utility.yul\":559:563   */\n  dup3\n    /* \"#utility.yul\":555:567   */\n  div\n    /* \"#utility.yul\":545:567   */\n  swap1\n  pop\n    /* \"#utility.yul\":612:613   */\n  0x01\n    /* \"#utility.yul\":606:610   */\n  dup3\n    /* \"#utility.yul\":602:614   */\n  and\n    /* \"#utility.yul\":633:651   */\n  dup1\n    /* \"#utility.yul\":623:704   */\n  tag_30\n  jumpi\n    /* \"#utility.yul\":689:693   */\n  0x7f\n    /* \"#utility.yul\":681:687   */\n  dup3\n    /* \"#utility.yul\":677:694   */\n  and\n    /* \"#utility.yul\":667:694   */\n  swap2\n  pop\n    /* \"#utility.yul\":623:704   */\ntag_30:\n    /* \"#utility.yul\":751:753   */\n  0x20\n    /* \"#utility.yul\":743:749   */\n  dup3\n    /* \"#utility.yul\":740:754   */\n  lt\n    /* \"#utility.yul\":720:738   */\n  dup2\n    /* \"#utility.yul\":717:755   */\n  sub\n    /* \"#utility.yul\":714:798   */\n  tag_31\n  jumpi\n    /* \"#utility.yul\":770:788   */\n  tag_32\n  tag_7\n  jump\t// in\ntag_32:\n    /* \"#utility.yul\":714:798   */\ntag_31:\n    /* \"#utility.yul\":535:804   */\n  pop\n    /* \"#utility.yul\":484:804   */\n  swap2\n  swap1\n  pop\n  jump\t// out\n    /* \"#utility.yul\":810:951   */\ntag_9:\n    /* \"#utility.yul\":859:863   */\n  0x00\n    /* \"#utility.yul\":882:885   */\n  dup2\n    /* \"#utility.yul\":874:885   */\n  swap1\n  pop\n    /* \"#utility.yul\":905:908   */\n  dup2\n    /* \"#utility.yul\":902:903   */\n  0x00\n    /* \"#utility.yul\":895:909   */\n  mstore\n    /* \"#utility.yul\":939:943   */\n  0x20\n    /* \"#utility.yul\":936:937   */\n  0x00\n    /* \"#utility.yul\":926:944   */\n  keccak256\n    /* \"#utility.yul\":918:944   */\n  swap1\n  pop\n    /* \"#utility.yul\":810:951   */\n  swap2\n  swap1\n  pop\n  jump\t// out\n    /* \"#utility.yul\":957:1050   */\ntag_10:\n    /* \"#utility.yul\":994:1000   */\n  0x00\n    /* \"#utility.yul\":1041:1043   */\n  0x20\n    /* \"#utility.yul\":1036:1038   */\n  0x1f\n    /* \"#utility.yul\":1029:1034   */\n  dup4\n    /* \"#utility.yul\":1025:1039   */\n  add\n    /* \"#utility.yul\":1021:1044   */\n  div\n    /* \"#utility.yul\":1011:1044   */\n  swap1\n  pop\n    /* \"#utility.yul\":957:1050   */\n  swap2\n  swap1\n  pop\n  jump\t// out\n    /* \"#utility.yul\":1056:1163   */\ntag_11:\n    /* \"#utility.yul\":1100:1108   */\n  0x00\n    /* \"#utility.yul\":1150:1155   */\n  dup3\n    /* \"#utility.yul\":1144:1148   */\n  dup3\n    /* \"#utility.yul\":1140:1156   */\n  shl\n    /* \"#utility.yul\":1119:1156   */\n  swap1\n  pop\n    /* \"#utility.yul\":1056:1163   */\n  swap3\n  swap2\n  pop\n  pop\n  jump\t// out\n    /* \"#utility.yul\":1169:1562   */\ntag_12:\n    /* \"#utility.yul\":1238:1244   */\n  0x00\n    /* \"#utility.yul\":1288:1289   */\n  0x08\n    /* \"#utility.yul\":1276:1286   */\n  dup4\n    /* \"#utility.yul\":1272:1290   */\n  mul\n    /* \"#utility.yul\":1311:1408   */\n  tag_37\n    /* \"#utility.yul\":1341:1407   */\n  0xffffffffffffffffffffffffffffffffffffffffffffffffffffffffffffffff\n    /* \"#utility.yul\":1330:1339   */\n  dup3\n    /* \"#utility.yul\":1311:1408   */\n  tag_11\n  jump\t// in\ntag_37:\n    /* \"#utility.yul\":1429:1468   */\n  tag_38\n    /* \"#utility.yul\":1459:1467   */\n  dup7\n    /* \"#utility.yul\":1448:1457   */\n  dup4\n    /* \"#utility.yul\":1429:1468   */\n  tag_11\n  jump\t// in\ntag_38:\n    /* \"#utility.yul\":1417:1468   */\n  swap6\n  pop\n    /* \"#utility.yul\":1501:1505   */\n  dup1\n    /* \"#utility.yul\":1497:1506   */\n  not\n    /* \"#utility.yul\":1490:1495   */\n  dup5\n    /* \"#utility.yul\":1486:1507   */\n  and\n    /* \"#utility.yul\":1477:1507   */\n  swap4\n  pop\n    /* \"#utility.yul\":1550:1554   */\n  dup1\n    /* \"#utility.yul\":1540:1548   */\n  dup7\n    /* \"#utility.yul\":1536:1555   */\n  and\n    /* \"#utility.yul\":1529:1534   */\n  dup5\n    /* \"#utility.yul\":1526:1556   */\n  or\n    /* \"#utility.yul\":1516:1556   */\n  swap3\n  pop\n    /* \"#utility.yul\":1245:1562   */\n  pop\n  pop\n    /* \"#utility.yul\":1169:1562   */\n  swap4\n  swap3\n  pop\n  pop\n  pop\n  jump\t// out\n    /* \"#utility.yul\":1568:1645   */\ntag_13:\n    /* \"#utility.yul\":1605:1612   */\n  0x00\n    /* \"#utility.yul\":1634:1639   */\n  dup2\n    /* \"#utility.yul\":1623:1639   */\n  swap1\n  pop\n    /* \"#utility.yul\":1568:1645   */\n  swap2\n  swap1\n  pop\n  jump\t// out\n    /* \"#utility.yul\":1651:1711   */\ntag_14:\n    /* \"#utility.yul\":1679:1682   */\n  0x00\n    /* \"#utility.yul\":1700:1705   */\n  dup2\n    /* \"#utility.yul\":1693:1705   */\n  swap1\n  pop\n    /* \"#utility.yul\":1651:1711   */\n  swap2\n  swap1\n  pop\n  jump\t// out\n    /* \"#utility.yul\":1717:1859   */\ntag_15:\n    /* \"#utility.yul\":1767:1776   */\n  0x00\n    /* \"#utility.yul\":1800:1853   */\n  tag_42\n    /* \"#utility.yul\":1818:1852   */\n  tag_43\n    /* \"#utility.yul\":1827:1851   */\n  tag_44\n    /* \"#utility.yul\":1845:1850   */\n  dup5\n    /* \"#utility.yul\":1827:1851   */\n  tag_13\n  jump\t// in\ntag_44:\n    /* \"#utility.yul\":1818:1852   */\n  tag_14\n  jump\t// in\ntag_43:\n    /* \"#utility.yul\":1800:1853   */\n  tag_13\n  jump\t// in\ntag_42:\n    /* \"#utility.yul\":1787:1853   */\n  swap1\n  pop\n    /* \"#utility.yul\":1717:1859   */\n  swap2\n  swap1\n  pop\n  jump\t// out\n    /* \"#utility.yul\":1865:1940   */\ntag_16:\n    /* \"#utility.yul\":1908:1911   */\n  0x00\n    /* \"#utility.yul\":1929:1934   */\n  dup2\n    /* \"#utility.yul\":1922:1934   */\n  swap1\n  pop\n    /* \"#utility.yul\":1865:1940   */\n  swap2\n  swap1\n  pop\n  jump\t// out\n    /* \"#utility.yul\":1946:2215   */\ntag_17:\n    /* \"#utility.yul\":2056:2095   */\n  tag_47\n    /* \"#utility.yul\":2087:2094   */\n  dup4\n    /* \"#utility.yul\":2056:2095   */\n  tag_15\n  jump\t// in\ntag_47:\n    /* \"#utility.yul\":2117:2208   */\n  tag_48\n    /* \"#utility.yul\":2166:2207   */\n  tag_49\n    /* \"#utility.yul\":2190:2206   */\n  dup3\n    /* \"#utility.yul\":2166:2207   */\n  tag_16\n  jump\t// in\ntag_49:\n    /* \"#utility.yul\":2158:2164   */\n  dup5\n    /* \"#utility.yul\":2151:2155   */\n  dup5\n    /* \"#utility.yul\":2145:2156   */\n  sload\n    /* \"#utility.yul\":2117:2208   */\n  tag_12\n  jump\t// in\ntag_48:\n    /* \"#utility.yul\":2111:2115   */\n  dup3\n    /* \"#utility.yul\":2104:2209   */\n  sstore\n    /* \"#utility.yul\":2022:2215   */\n  pop\n    /* \"#utility.yul\":1946:2215   */\n  pop\n  pop\n  pop\n  jump\t// out\n    /* \"#utility.yul\":2221:2294   */\ntag_18:\n    /* \"#utility.yul\":2266:2269   */\n  0x00\n    /* \"#utility.yul\":2221:2294   */\n  swap1\n  jump\t// out\n    /* \"#utility.yul\":2300:2489   */\ntag_19:\n    /* \"#utility.yul\":2377:2409   */\n  tag_52\n  tag_18\n  jump\t// in\ntag_52:\n    /* \"#utility.yul\":2418:2483   */\n  tag_53\n    /* \"#utility.yul\":2476:2482   */\n  dup2\n    /* \"#utility.yul\":2468:2474   */\n  dup5\n    /* \"#utility.yul\":2462:2466   */\n  dup5\n    /* \"#utility.yul\":2418:2483   */\n  tag_17\n  jump\t// in\ntag_53:\n    /* \"#utility.yul\":2353:2489   */\n  pop\n    /* \"#utility.yul\":2300:2489   */\n  pop\n  pop\n  jump\t// out\n    /* \"#utility.yul\":2495:2681   */\ntag_20:\n    /* \"#utility.yul\":2555:2675   */\ntag_55:\n    /* \"#utility.yul\":2572:2575   */\n  dup2\n    /* \"#utility.yul\":2565:2570   */\n  dup2\n    /* \"#utility.yul\":2562:2576   */\n  lt\n    /* \"#utility.yul\":2555:2675   */\n  iszero\n  tag_57\n  jumpi\n    /* \"#utility.yul\":2626:2665   */\n  tag_58\n    /* \"#utility.yul\":2663:2664   */\n  0x00\n    /* \"#utility.yul\":2656:2661   */\n  dup3\n    /* \"#utility.yul\":2626:2665   */\n  tag_19\n  jump\t// in\ntag_58:\n    /* \"#utility.yul\":2599:2600   */\n  0x01\n    /* \"#utility.yul\":2592:2597   */\n  dup2\n    /* \"#utility.yul\":2588:2601   */\n  add\n    /* \"#utility.yul\":2579:2601   */\n  swap1\n  pop\n    /* \"#utility.yul\":2555:2675   */\n  jump(tag_55)\ntag_57:\n    /* \"#utility.yul\":2495:2681   */\n  pop\n  pop\n  jump\t// out\n    /* \"#utility.yul\":2687:3230   */\ntag_21:\n    /* \"#utility.yul\":2788:2790   */\n  0x1f\n    /* \"#utility.yul\":2783:2786   */\n  dup3\n    /* \"#utility.yul\":2780:2791   */\n  gt\n    /* \"#utility.yul\":2777:3223   */\n  iszero\n  tag_60\n  jumpi\n    /* \"#utility.yul\":2822:2860   */\n  tag_61\n    /* \"#utility.yul\":2854:2859   */\n  dup2\n    /* \"#utility.yul\":2822:2860   */\n  tag_9\n  jump\t// in\ntag_61:\n    /* \"#utility.yul\":2906:2935   */\n  tag_62\n    /* \"#utility.yul\":2924:2934   */\n  dup5\n    /* \"#utility.yul\":2906:2935   */\n  tag_10\n  jump\t// in\ntag_62:\n    /* \"#utility.yul\":2896:2904   */\n  dup2\n    /* \"#utility.yul\":2892:2936   */\n  add\n    /* \"#utility.yul\":3089:3091   */\n  0x20\n    /* \"#utility.yul\":3077:3087   */\n  dup6\n    /* \"#utility.yul\":3074:3092   */\n  lt\n    /* \"#utility.yul\":3071:3120   */\n  iszero\n  tag_63\n  jumpi\n    /* \"#utility.yul\":3110:3118   */\n  dup2\n    /* \"#utility.yul\":3095:3118   */\n  swap1\n  pop\n    /* \"#utility.yul\":3071:3120   */\ntag_63:\n    /* \"#utility.yul\":3133:3213   */\n  tag_64\n    /* \"#utility.yul\":3189:3211   */\n  tag_65\n    /* \"#utility.yul\":3207:3210   */\n  dup6\n    /* \"#utility.yul\":3189:3211   */\n  tag_10\n  jump\t// in\ntag_65:\n    /* \"#utility.yul\":3179:3187   */\n  dup4\n    /* \"#utility.yul\":3175:3212   */\n  add\n    /* \"#utility.yul\":3162:3173   */\n  dup3\n    /* \"#utility.yul\":3133:3213   */\n  tag_20\n  jump\t// in\ntag_64:\n    /* \"#utility.yul\":2792:3223   */\n  pop\n  pop\n    /* \"#utility.yul\":2777:3223   */\ntag_60:\n    /* \"#utility.yul\":2687:3230   */\n  pop\n  pop\n  pop\n  jump\t// out\n    /* \"#utility.yul\":3236:3353   */\ntag_22:\n    /* \"#utility.yul\":3290:3298   */\n  0x00\n    /* \"#utility.yul\":3340:3345   */\n  dup3\n    /* \"#utility.yul\":3334:3338   */\n  dup3\n    /* \"#utility.yul\":3330:3346   */\n  shr\n    /* \"#utility.yul\":3309:3346   */\n  swap1\n  pop\n    /* \"#utility.yul\":3236:3353   */\n  swap3\n  swap2\n  pop\n  pop\n  jump\t// out\n    /* \"#utility.yul\":3359:3528   */\ntag_23:\n    /* \"#utility.yul\":3403:3409   */\n  0x00\n    /* \"#utility.yul\":3436:3487   */\n  tag_68\n    /* \"#utility.yul\":3484:3485   */\n  0x00\n    /* \"#utility.yul\":3480:3486   */\n  not\n    /* \"#utility.yul\":3472:3477   */\n  dup5\n    /* \"#utility.yul\":3469:3470   */\n  0x08\n    /* \"#utility.yul\":3465:3478   */\n  mul\n    /* \"#utility.yul\":3436:3487   */\n  tag_22\n  jump\t// in\ntag_68:\n    /* \"#utility.yul\":3432:3488   */\n  not\n    /* \"#utility.yul\":3517:3521   */\n  dup1\n    /* \"#utility.yul\":3511:3515   */\n  dup4\n    /* \"#utility.yul\":3507:3522   */\n  and\n    /* \"#utility.yul\":3497:3522   */\n  swap2\n  pop\n    /* \"#utility.yul\":3410:3528   */\n  pop\n    /* \"#utility.yul\":3359:3528   */\n  swap3\n  swap2\n  pop\n  pop\n  jump\t// out\n    /* \"#utility.yul\":3533:3828   */\ntag_24:\n    /* \"#utility.yul\":3609:3613   */\n  0x00\n    /* \"#utility.yul\":3755:3784   */\n  tag_70\n    /* \"#utility.yul\":3780:3783   */\n  dup4\n    /* \"#utility.yul\":3774:3778   */\n  dup4\n    /* \"#utility.yul\":3755:3784   */\n  tag_23\n  jump\t// in\ntag_70:\n    /* \"#utility.yul\":3747:3784   */\n  swap2\n  pop\n    /* \"#utility.yul\":3817:3820   */\n  dup3\n    /* \"#utility.yul\":3814:3815   */\n  0x02\n    /* \"#utility.yul\":3810:3821   */\n  mul\n    /* \"#utility.yul\":3804:3808   */\n  dup3\n    /* \"#utility.yul\":3801:3822   */\n  or\n    /* \"#utility.yul\":3793:3822   */\n  swap1\n  pop\n    /* \"#utility.yul\":3533:3828   */\n  swap3\n  swap2\n  pop\n  pop\n  jump\t// out\n    /* \"#utility.yul\":3833:5228   */\ntag_2:\n    /* \"#utility.yul\":3950:3987   */\n  tag_72\n    /* \"#utility.yul\":3983:3986   */\n  dup3\n    /* \"#utility.yul\":3950:3987   */\n  tag_5\n  jump\t// in\ntag_72:\n    /* \"#utility.yul\":4052:4070   */\n  0xffffffffffffffff\n    /* \"#utility.yul\":4044:4050   */\n  dup2\n    /* \"#utility.yul\":4041:4071   */\n  gt\n    /* \"#utility.yul\":4038:4094   */\n  iszero\n  tag_73\n  jumpi\n    /* \"#utility.yul\":4074:4092   */\n  tag_74\n  tag_6\n  jump\t// in\ntag_74:\n    /* \"#utility.yul\":4038:4094   */\ntag_73:\n    /* \"#utility.yul\":4118:4156   */\n  tag_75\n    /* \"#utility.yul\":4150:4154   */\n  dup3\n    /* \"#utility.yul\":4144:4155   */\n  sload\n    /* \"#utility.yul\":4118:4156   */\n  tag_8\n  jump\t// in\ntag_75:\n    /* \"#utility.yul\":4203:4270   */\n  tag_76\n    /* \"#utility.yul\":4263:4269   */\n  dup3\n    /* \"#utility.yul\":4255:4261   */\n  dup3\n    /* \"#utility.yul\":4249:4253   */\n  dup6\n    /* \"#utility.yul\":4203:4270   */\n  tag_21\n  jump\t// in\ntag_76:\n    /* \"#utility.yul\":4297:4298   */\n  0x00\n    /* \"#utility.yul\":4321:4325   */\n  0x20\n    /* \"#utility.yul\":4308:4325   */\n  swap1\n  pop\n    /* \"#utility.yul\":4353:4355   */\n  0x1f\n    /* \"#utility.yul\":4345:4351   */\n  dup4\n    /* \"#utility.yul\":4342:4356   */\n  gt\n    /* \"#utility.yul\":4370:4371   */\n  0x01\n    /* \"#utility.yul\":4365:4983   */\n  dup2\n  eq\n  tag_78\n  jumpi\n    /* \"#utility.yul\":5027:5028   */\n  0x00\n    /* \"#utility.yul\":5044:5050   */\n  dup5\n    /* \"#utility.yul\":5041:5118   */\n  iszero\n  tag_79\n  jumpi\n    /* \"#utility.yul\":5093:5102   */\n  dup3\n    /* \"#utility.yul\":5088:5091   */\n  dup8\n    /* \"#utility.yul\":5084:5103   */\n  add\n    /* \"#utility.yul\":5078:5104   */\n  mload\n    /* \"#utility.yul\":5069:5104   */\n  swap1\n  pop\n    /* \"#utility.yul\":5041:5118   */\ntag_79:\n    /* \"#utility.yul\":5144:5211   */\n  tag_80\n    /* \"#utility.yul\":5204:5210   */\n  dup6\n    /* \"#utility.yul\":5197:5202   */\n  dup3\n    /* \"#utility.yul\":5144:5211   */\n  tag_24\n  jump\t// in\ntag_80:\n    /* \"#utility.yul\":5138:5142   */\n  dup7\n    /* \"#utility.yul\":5131:5212   */\n  sstore\n    /* \"#utility.yul\":5000:5222   */\n  pop\n    /* \"#utility.yul\":4335:5222   */\n  jump(tag_77)\n    /* \"#utility.yul\":4365:4983   */\ntag_78:\n    /* \"#utility.yul\":4417:4421   */\n  0x1f\n    /* \"#utility.yul\":4413:4422   */\n  not\n    /* \"#utility.yul\":4405:4411   */\n  dup5\n    /* \"#utility.yul\":4401:4423   */\n  and\n    /* \"#utility.yul\":4451:4488   */\n  tag_81\n    /* \"#utility.yul\":4483:4487   */\n  dup7\n    /* \"#utility.yul\":4451:4488   */\n  tag_9\n  jump\t// in\ntag_81:\n    /* \"#utility.yul\":4510:4511   */\n  0x00\n    /* \"#utility.yul\":4524:4732   */\ntag_82:\n    /* \"#utility.yul\":4538:4545   */\n  dup3\n    /* \"#utility.yul\":4535:4536   */\n  dup2\n    /* \"#utility.yul\":4532:4546   */\n  lt\n    /* \"#utility.yul\":4524:4732   */\n  iszero\n  tag_84\n  jumpi\n    /* \"#utility.yul\":4617:4626   */\n  dup5\n    /* \"#utility.yul\":4612:4615   */\n  dup10\n    /* \"#utility.yul\":4608:4627   */\n  add\n    /* \"#utility.yul\":4602:4628   */\n  mload\n    /* \"#utility.yul\":4594:4600   */\n  dup3\n    /* \"#utility.yul\":4587:4629   */\n  sstore\n    /* \"#utility.yul\":4668:4669   */\n  0x01\n    /* \"#utility.yul\":4660:4666   */\n  dup3\n    /* \"#utility.yul\":4656:4670   */\n  add\n    /* \"#utility.yul\":4646:4670   */\n  swap2\n  pop\n    /* \"#utility.yul\":4715:4717   */\n  0x20\n    /* \"#utility.yul\":4704:4713   */\n  dup6\n    /* \"#utility.yul\":4700:4718   */\n  add\n    /* \"#utility.yul\":4687:4718   */\n  swap5\n  pop\n    /* \"#utility.yul\":4561:4565   */\n  0x20\n    /* \"#utility.yul\":4558:4559   */\n  dup2\n    /* \"#utility.yul\":4554:4566   */\n  add\n    /* \"#utility.yul\":4549:4566   */\n  swap1\n  pop\n    /* \"#utility.yul\":4524:4732   */\n  jump(tag_82)\ntag_84:\n    /* \"#utility.yul\":4760:4766   */\n  dup7\n    /* \"#utility.yul\":4751:4758   */\n  dup4\n    /* \"#utility.yul\":4748:4767   */\n  lt\n    /* \"#utility.yul\":4745:4924   */\n  iszero\n  tag_85\n  jumpi\n    /* \"#utility.yul\":4818:4827   */\n  dup5\n    /* \"#utility.yul\":4813:4816   */\n  dup10\n    /* \"#utility.yul\":4809:4828   */\n  add\n    /* \"#utility.yul\":4803:4829   */\n  mload\n    /* \"#utility.yul\":4861:4909   */\n  tag_86\n    /* \"#utility.yul\":4903:4907   */\n  0x1f\n    /* \"#utility.yul\":4895:4901   */\n  dup10\n    /* \"#utility.yul\":4891:4908   */\n  and\n    /* \"#utility.yul\":4880:4889   */\n  dup3\n    /* \"#utility.yul\":4861:4909   */\n  tag_23\n  jump\t// in\ntag_86:\n    /* \"#utility.yul\":4853:4859   */\n  dup4\n    /* \"#utility.yul\":4846:4910   */\n  sstore\n    /* \"#utility.yul\":4768:4924   */\n  pop\n    /* \"#utility.yul\":4745:4924   */\ntag_85:\n    /* \"#utility.yul\":4970:4971   */\n  0x01\n    /* \"#utility.yul\":4966:4967   */\n  0x02\n    /* \"#utility.yul\":4958:4964   */\n  dup9\n    /* \"#utility.yul\":4954:4968   */\n  mul\n    /* \"#utility.yul\":4950:4972   */\n  add\n    /* \"#utility.yul\":4944:4948   */\n  dup9\n    /* \"#utility.yul\":4937:4973   */\n  sstore\n    /* \"#utility.yul\":4372:4983   */\n  pop\n  pop\n  pop\n    /* \"#utility.yul\":4335:5222   */\ntag_77:\n  pop\n    /* \"#utility.yul\":3925:5228   */\n  pop\n  pop\n  pop\n    /* \"#utility.yul\":3833:5228   */\n  pop\n  pop\n  jump\t// out\n    /* \"contracts/SupplyChainDataManagement.sol\":36:9790  contract SupplyChainDataManagement {... */\ntag_4:\n  dataSize(sub_0)\n  dup1\n  dataOffset(sub_0)\n  0x00\n  codecopy\n  0x00\n  return\nstop\n\nsub_0: assembly {\n        /* \"contracts/SupplyChainDataManagement.sol\":36:9790  contract SupplyChainDataManagement {... */\n      mstore(0x40, 0x80)\n      jumpi(tag_1, lt(calldatasize, 0x04))\n      shr(0xe0, calldataload(0x00))\n      dup1\n      0x8cb85623\n      gt\n      tag_17\n      jumpi\n      dup1\n      0xc85e766d\n      gt\n      tag_18\n      jumpi\n      dup1\n      0xc85e766d\n      eq\n      tag_13\n      jumpi\n      dup1\n      0xd637dcfa\n      eq\n      tag_14\n      jumpi\n      dup1\n      0xe8b16603\n      eq\n      tag_15\n      jumpi\n      dup1\n      0xf8a8fd6d\n      eq\n      tag_16\n      jumpi\n      jump(tag_1)\n    tag_18:\n      dup1\n      0x8cb85623\n      eq\n      tag_9\n      jumpi\n      dup1\n      0x98a5f87c\n      eq\n      tag_10\n      jumpi\n      dup1\n      0xbafcd678\n      eq\n      tag_11\n      jumpi\n      dup1\n      0xbed34bba\n      eq\n      tag_12\n      jumpi\n      jump(tag_1)\n    tag_17:\n      dup1\n      0x5ec01e4d\n      gt\n      tag_19\n      jumpi\n      dup1\n      0x5ec01e4d\n      eq\n      tag_5\n      jumpi\n      dup1\n      0x61b299d5\n      eq\n      tag_6\n      jumpi\n      dup1\n      0x62e9f4a2\n      eq\n      tag_7\n      jumpi\n      dup1\n      0x6817329f\n      eq\n      tag_8\n      jumpi\n      jump(tag_1)\n    tag_19:\n      dup1\n      0x2040a465\n      eq\n      tag_2\n      jumpi\n      dup1\n      0x20987a65\n      eq\n      tag_3\n      jumpi\n      dup1\n      0x585e3305\n      eq\n      tag_4\n      jumpi\n    tag_1:\n      0x00\n      dup1\n      revert\n        /* \"contracts/SupplyChainDataManagement.sol\":1030:1082  string public letters = \"abcdefghijklmnopqrstuvwxyz\" */\n    tag_2:\n      callvalue\n      dup1\n      iszero\n      tag_20\n      jumpi\n      0x00\n      dup1\n      revert\n    tag_20:\n      pop\n      tag_21\n      tag_22\n      jump\t// in\n    tag_21:\n      mload(0x40)\n      tag_23\n      swap2\n      swap1\n      tag_24\n      jump\t// in\n    tag_23:\n      mload(0x40)\n      dup1\n      swap2\n      sub\n      swap1\n      return\n        /* \"contracts/SupplyChainDataManagement.sol\":2925:3239  function findStakeHolderByUserID(string memory _userID) public view returns(string memory){... */\n    tag_3:\n      callvalue\n      dup1\n      iszero\n      tag_25\n      jumpi\n      0x00\n      dup1\n      revert\n    tag_25:\n      pop\n      tag_26\n      0x04\n      dup1\n      calldatasize\n      sub\n      dup2\n      add\n      swap1\n      tag_27\n      swap2\n      swap1\n      tag_28\n      jump\t// in\n    tag_27:\n      tag_29\n      jump\t// in\n    tag_26:\n      mload(0x40)\n      tag_30\n      swap2\n      swap1\n      tag_24\n      jump\t// in\n    tag_30:\n      mload(0x40)\n      dup1\n      swap2\n      sub\n      swap1\n      return\n        /* \"contracts/SupplyChainDataManagement.sol\":2121:2917  function addMedicine(string memory _batchCode, string calldata _medicineName, uint256 _medicineQuantity, string calldata _userID ,... */\n    tag_4:\n      callvalue\n      dup1\n      iszero\n      tag_31\n      jumpi\n      0x00\n      dup1\n      revert\n    tag_31:\n      pop\n      tag_32\n      0x04\n      dup1\n      calldatasize\n      sub\n      dup2\n      add\n      swap1\n      tag_33\n      swap2\n      swap1\n      tag_34\n      jump\t// in\n    tag_33:\n      tag_35\n      jump\t// in\n    tag_32:\n      mload(0x40)\n      tag_36\n      swap2\n      swap1\n      tag_37\n      jump\t// in\n    tag_36:\n      mload(0x40)\n      dup1\n      swap2\n      sub\n      swap1\n      return\n        /* \"contracts/SupplyChainDataManagement.sol\":8840:9028  function random() public view returns (uint) {... */\n    tag_5:\n      callvalue\n      dup1\n      iszero\n      tag_38\n      jumpi\n      0x00\n      dup1\n      revert\n    tag_38:\n      pop\n      tag_39\n      tag_40\n      jump\t// in\n    tag_39:\n      mload(0x40)\n      tag_41\n      swap2\n      swap1\n      tag_42\n      jump\t// in\n    tag_41:\n      mload(0x40)\n      dup1\n      swap2\n      sub\n      swap1\n      return\n        /* \"contracts/SupplyChainDataManagement.sol\":9566:9777  function random2(uint number) public payable returns(uint){... */\n    tag_6:\n      tag_43\n      0x04\n      dup1\n      calldatasize\n      sub\n      dup2\n      add\n      swap1\n      tag_44\n      swap2\n      swap1\n      tag_45\n      jump\t// in\n    tag_44:\n      tag_46\n      jump\t// in\n    tag_43:\n      mload(0x40)\n      tag_47\n      swap2\n      swap1\n      tag_42\n      jump\t// in\n    tag_47:\n      mload(0x40)\n      dup1\n      swap2\n      sub\n      swap1\n      return\n        /* \"contracts/SupplyChainDataManagement.sol\":6525:6856  function deleteMedicine(string memory _batchcode) external returns (bool){... */\n    tag_7:\n      callvalue\n      dup1\n      iszero\n      tag_48\n      jumpi\n      0x00\n      dup1\n      revert\n    tag_48:\n      pop\n      tag_49\n      0x04\n      dup1\n      calldatasize\n      sub\n      dup2\n      add\n      swap1\n      tag_50\n      swap2\n      swap1\n      tag_28\n      jump\t// in\n    tag_50:\n      tag_51\n      jump\t// in\n    tag_49:\n      mload(0x40)\n      tag_52\n      swap2\n      swap1\n      tag_53\n      jump\t// in\n    tag_52:\n      mload(0x40)\n      dup1\n      swap2\n      sub\n      swap1\n      return\n        /* \"contracts/SupplyChainDataManagement.sol\":4762:6417  function getMovingAvgForecast(int k, int startMonth, int endMonth, string memory medicineName , string memory level) external returns (int256[] memory) {... */\n    tag_8:\n      callvalue\n      dup1\n      iszero\n      tag_54\n      jumpi\n      0x00\n      dup1\n      revert\n    tag_54:\n      pop\n      tag_55\n      0x04\n      dup1\n      calldatasize\n      sub\n      dup2\n      add\n      swap1\n      tag_56\n      swap2\n      swap1\n      tag_57\n      jump\t// in\n    tag_56:\n      tag_58\n      jump\t// in\n    tag_55:\n      mload(0x40)\n      tag_59\n      swap2\n      swap1\n      tag_60\n      jump\t// in\n    tag_59:\n      mload(0x40)\n      dup1\n      swap2\n      sub\n      swap1\n      return\n        /* \"contracts/SupplyChainDataManagement.sol\":3316:4754  function getSeasonalForecast(int startMonth , int endMonth , string memory medicineName , string memory level) external returns (uint256[] memory) {... */\n    tag_9:\n      callvalue\n      dup1\n      iszero\n      tag_61\n      jumpi\n      0x00\n      dup1\n      revert\n    tag_61:\n      pop\n      tag_62\n      0x04\n      dup1\n      calldatasize\n      sub\n      dup2\n      add\n      swap1\n      tag_63\n      swap2\n      swap1\n      tag_64\n      jump\t// in\n    tag_63:\n      tag_65\n      jump\t// in\n    tag_62:\n      mload(0x40)\n      tag_66\n      swap2\n      swap1\n      tag_67\n      jump\t// in\n    tag_66:\n      mload(0x40)\n      dup1\n      swap2\n      sub\n      swap1\n      return\n        /* \"contracts/SupplyChainDataManagement.sol\":7012:8832  function weightedMovingAverageMethod(int k, int startMonth, int endMonth, string memory medicineName , string memory level) external returns (int256[] memory){... */\n    tag_10:\n      callvalue\n      dup1\n      iszero\n      tag_68\n      jumpi\n      0x00\n      dup1\n      revert\n    tag_68:\n      pop\n      tag_69\n      0x04\n      dup1\n      calldatasize\n      sub\n      dup2\n      add\n      swap1\n      tag_70\n      swap2\n      swap1\n      tag_57\n      jump\t// in\n    tag_70:\n      tag_71\n      jump\t// in\n    tag_69:\n      mload(0x40)\n      tag_72\n      swap2\n      swap1\n      tag_60\n      jump\t// in\n    tag_72:\n      mload(0x40)\n      dup1\n      swap2\n      sub\n      swap1\n      return\n        /* \"contracts/SupplyChainDataManagement.sol\":9044:9558  function randomString() public  payable returns(string memory){... */\n    tag_11:\n      tag_73\n      tag_74\n      jump\t// in\n    tag_73:\n      mload(0x40)\n      tag_75\n      swap2\n      swap1\n      tag_24\n      jump\t// in\n    tag_75:\n      mload(0x40)\n      dup1\n      swap2\n      sub\n      swap1\n      return\n        /* \"contracts/SupplyChainDataManagement.sol\":1209:1390  function compareStrings(string memory a, string memory b) public view returns (bool) {... */\n    tag_12:\n      callvalue\n      dup1\n      iszero\n      tag_76\n      jumpi\n      0x00\n      dup1\n      revert\n    tag_76:\n      pop\n      tag_77\n      0x04\n      dup1\n      calldatasize\n      sub\n      dup2\n      add\n      swap1\n      tag_78\n      swap2\n      swap1\n      tag_79\n      jump\t// in\n    tag_78:\n      tag_80\n      jump\t// in\n    tag_77:\n      mload(0x40)\n      tag_81\n      swap2\n      swap1\n      tag_53\n      jump\t// in\n    tag_81:\n      mload(0x40)\n      dup1\n      swap2\n      sub\n      swap1\n      return\n        /* \"contracts/SupplyChainDataManagement.sol\":901:929  Medicine[] public  medicines */\n    tag_13:\n      callvalue\n      dup1\n      iszero\n      tag_82\n      jumpi\n      0x00\n      dup1\n      revert\n    tag_82:\n      pop\n      tag_83\n      0x04\n      dup1\n      calldatasize\n      sub\n      dup2\n      add\n      swap1\n      tag_84\n      swap2\n      swap1\n      tag_45\n      jump\t// in\n    tag_84:\n      tag_85\n      jump\t// in\n    tag_83:\n      mload(0x40)\n      tag_86\n      swap9\n      swap8\n      swap7\n      swap6\n      swap5\n      swap4\n      swap3\n      swap2\n      swap1\n      tag_87\n      jump\t// in\n    tag_86:\n      mload(0x40)\n      dup1\n      swap2\n      sub\n      swap1\n      return\n        /* \"contracts/SupplyChainDataManagement.sol\":1440:2084  function registerUser(string calldata _aadharID, string calldata _name, string calldata _stakeholderType) public returns (string memory) {... */\n    tag_14:\n      callvalue\n      dup1\n      iszero\n      tag_88\n      jumpi\n      0x00\n      dup1\n      revert\n    tag_88:\n      pop\n      tag_89\n      0x04\n      dup1\n      calldatasize\n      sub\n      dup2\n      add\n      swap1\n      tag_90\n      swap2\n      swap1\n      tag_91\n      jump\t// in\n    tag_90:\n      tag_92\n      jump\t// in\n    tag_89:\n      mload(0x40)\n      tag_93\n      swap2\n      swap1\n      tag_24\n      jump\t// in\n    tag_93:\n      mload(0x40)\n      dup1\n      swap2\n      sub\n      swap1\n      return\n        /* \"contracts/SupplyChainDataManagement.sol\":6864:7004  function ABS(int256 a) public view returns (int256){... */\n    tag_15:\n      callvalue\n      dup1\n      iszero\n      tag_94\n      jumpi\n      0x00\n      dup1\n      revert\n    tag_94:\n      pop\n      tag_95\n      0x04\n      dup1\n      calldatasize\n      sub\n      dup2\n      add\n      swap1\n      tag_96\n      swap2\n      swap1\n      tag_97\n      jump\t// in\n    tag_96:\n      tag_98\n      jump\t// in\n    tag_95:\n      mload(0x40)\n      tag_99\n      swap2\n      swap1\n      tag_37\n      jump\t// in\n    tag_99:\n      mload(0x40)\n      dup1\n      swap2\n      sub\n      swap1\n      return\n        /* \"contracts/SupplyChainDataManagement.sol\":6426:6517  function test() public view returns (Medicine[] memory) {... */\n    tag_16:\n      callvalue\n      dup1\n      iszero\n      tag_100\n      jumpi\n      0x00\n      dup1\n      revert\n    tag_100:\n      pop\n      tag_101\n      tag_102\n      jump\t// in\n    tag_101:\n      mload(0x40)\n      tag_103\n      swap2\n      swap1\n      tag_104\n      jump\t// in\n    tag_103:\n      mload(0x40)\n      dup1\n      swap2\n      sub\n      swap1\n      return\n        /* \"contracts/SupplyChainDataManagement.sol\":1030:1082  string public letters = \"abcdefghijklmnopqrstuvwxyz\" */\n    tag_22:\n      0x03\n      dup1\n      sload\n      tag_105\n      swap1\n      tag_106\n      jump\t// in\n    tag_105:\n      dup1\n      0x1f\n      add\n      0x20\n      dup1\n      swap2\n      div\n      mul\n      0x20\n      add\n      mload(0x40)\n      swap1\n      dup2\n      add\n      0x40\n      mstore\n      dup1\n      swap3\n      swap2\n      swap1\n      dup2\n      dup2\n      mstore\n      0x20\n      add\n      dup3\n      dup1\n      sload\n      tag_107\n      swap1\n      tag_106\n      jump\t// in\n    tag_107:\n      dup1\n      iszero\n      tag_108\n      jumpi\n      dup1\n      0x1f\n      lt\n      tag_109\n      jumpi\n      0x0100\n      dup1\n      dup4\n      sload\n      div\n      mul\n      dup4\n      mstore\n      swap2\n      0x20\n      add\n      swap2\n      jump(tag_108)\n    tag_109:\n      dup3\n      add\n      swap2\n      swap1\n      0x00\n      mstore\n      keccak256(0x00, 0x20)\n      swap1\n    tag_110:\n      dup2\n      sload\n      dup2\n      mstore\n      swap1\n      0x01\n      add\n      swap1\n      0x20\n      add\n      dup1\n      dup4\n      gt\n      tag_110\n      jumpi\n      dup3\n      swap1\n      sub\n      0x1f\n      and\n      dup3\n      add\n      swap2\n    tag_108:\n      pop\n      pop\n      pop\n      pop\n      pop\n      dup2\n      jump\t// out\n        /* \"contracts/SupplyChainDataManagement.sol\":2925:3239  function findStakeHolderByUserID(string memory _userID) public view returns(string memory){... */\n    tag_29:\n        /* \"contracts/SupplyChainDataManagement.sol\":3001:3014  string memory */\n      0x60\n        /* \"contracts/SupplyChainDataManagement.sol\":3030:3036  uint i */\n      0x00\n        /* \"contracts/SupplyChainDataManagement.sol\":3026:3204  for(uint i = 0 ; i < users.length ; i++) {... */\n    tag_112:\n        /* \"contracts/SupplyChainDataManagement.sol\":3047:3052  users */\n      0x00\n        /* \"contracts/SupplyChainDataManagement.sol\":3047:3059  users.length */\n      dup1\n      sload\n      swap1\n      pop\n        /* \"contracts/SupplyChainDataManagement.sol\":3043:3044  i */\n      dup2\n        /* \"contracts/SupplyChainDataManagement.sol\":3043:3059  i < users.length */\n      lt\n        /* \"contracts/SupplyChainDataManagement.sol\":3026:3204  for(uint i = 0 ; i < users.length ; i++) {... */\n      iszero\n      tag_113\n      jumpi\n        /* \"contracts/SupplyChainDataManagement.sol\":3085:3125  compareStrings(_userID, users[i].userID) */\n      tag_115\n        /* \"contracts/SupplyChainDataManagement.sol\":3100:3107  _userID */\n      dup4\n        /* \"contracts/SupplyChainDataManagement.sol\":3109:3114  users */\n      0x00\n        /* \"contracts/SupplyChainDataManagement.sol\":3115:3116  i */\n      dup4\n        /* \"contracts/SupplyChainDataManagement.sol\":3109:3117  users[i] */\n      dup2\n      sload\n      dup2\n      lt\n      tag_116\n      jumpi\n      tag_117\n      tag_118\n      jump\t// in\n    tag_117:\n    tag_116:\n      swap1\n      0x00\n      mstore\n      keccak256(0x00, 0x20)\n      swap1\n      0x04\n      mul\n      add\n        /* \"contracts/SupplyChainDataManagement.sol\":3109:3124  users[i].userID */\n      0x00\n      add\n        /* \"contracts/SupplyChainDataManagement.sol\":3085:3125  compareStrings(_userID, users[i].userID) */\n      dup1\n      sload\n      tag_120\n      swap1\n      tag_106\n      jump\t// in\n    tag_120:\n      dup1\n      0x1f\n      add\n      0x20\n      dup1\n      swap2\n      div\n      mul\n      0x20\n      add\n      mload(0x40)\n      swap1\n      dup2\n      add\n      0x40\n      mstore\n      dup1\n      swap3\n      swap2\n      swap1\n      dup2\n      dup2\n      mstore\n      0x20\n      add\n      dup3\n      dup1\n      sload\n      tag_121\n      swap1\n      tag_106\n      jump\t// in\n    tag_121:\n      dup1\n      iszero\n      tag_122\n      jumpi\n      dup1\n      0x1f\n      lt\n      tag_123\n      jumpi\n      0x0100\n      dup1\n      dup4\n      sload\n      div\n      mul\n      dup4\n      mstore\n      swap2\n      0x20\n      add\n      swap2\n      jump(tag_122)\n    tag_123:\n      dup3\n      add\n      swap2\n      swap1\n      0x00\n      mstore\n      keccak256(0x00, 0x20)\n      swap1\n    tag_124:\n      dup2\n      sload\n      dup2\n      mstore\n      swap1\n      0x01\n      add\n      swap1\n      0x20\n      add\n      dup1\n      dup4\n      gt\n      tag_124\n      jumpi\n      dup3\n      swap1\n      sub\n      0x1f\n      and\n      dup3\n      add\n      swap2\n    tag_122:\n      pop\n      pop\n      pop\n      pop\n      pop\n        /* \"contracts/SupplyChainDataManagement.sol\":3085:3099  compareStrings */\n      tag_80\n        /* \"contracts/SupplyChainDataManagement.sol\":3085:3125  compareStrings(_userID, users[i].userID) */\n      jump\t// in\n    tag_115:\n        /* \"contracts/SupplyChainDataManagement.sol\":3082:3193  if(compareStrings(_userID, users[i].userID)) {... */\n      iszero\n      tag_125\n      jumpi\n        /* \"contracts/SupplyChainDataManagement.sol\":3153:3158  users */\n      0x00\n        /* \"contracts/SupplyChainDataManagement.sol\":3159:3160  i */\n      dup2\n        /* \"contracts/SupplyChainDataManagement.sol\":3153:3161  users[i] */\n      dup2\n      sload\n      dup2\n      lt\n      tag_126\n      jumpi\n      tag_127\n      tag_118\n      jump\t// in\n    tag_127:\n    tag_126:\n      swap1\n      0x00\n      mstore\n      keccak256(0x00, 0x20)\n      swap1\n      0x04\n      mul\n      add\n        /* \"contracts/SupplyChainDataManagement.sol\":3153:3177  users[i].stakeholderType */\n      0x03\n      add\n        /* \"contracts/SupplyChainDataManagement.sol\":3146:3177  return users[i].stakeholderType */\n      dup1\n      sload\n      tag_129\n      swap1\n      tag_106\n      jump\t// in\n    tag_129:\n      dup1\n      0x1f\n      add\n      0x20\n      dup1\n      swap2\n      div\n      mul\n      0x20\n      add\n      mload(0x40)\n      swap1\n      dup2\n      add\n      0x40\n      mstore\n      dup1\n      swap3\n      swap2\n      swap1\n      dup2\n      dup2\n      mstore\n      0x20\n      add\n      dup3\n      dup1\n      sload\n      tag_130\n      swap1\n      tag_106\n      jump\t// in\n    tag_130:\n      dup1\n      iszero\n      tag_131\n      jumpi\n      dup1\n      0x1f\n      lt\n      tag_132\n      jumpi\n      0x0100\n      dup1\n      dup4\n      sload\n      div\n      mul\n      dup4\n      mstore\n      swap2\n      0x20\n      add\n      swap2\n      jump(tag_131)\n    tag_132:\n      dup3\n      add\n      swap2\n      swap1\n      0x00\n      mstore\n      keccak256(0x00, 0x20)\n      swap1\n    tag_133:\n      dup2\n      sload\n      dup2\n      mstore\n      swap1\n      0x01\n      add\n      swap1\n      0x20\n      add\n      dup1\n      dup4\n      gt\n      tag_133\n      jumpi\n      dup3\n      swap1\n      sub\n      0x1f\n      and\n      dup3\n      add\n      swap2\n    tag_131:\n      pop\n      pop\n      pop\n      pop\n      pop\n      swap2\n      pop\n      pop\n      jump(tag_111)\n        /* \"contracts/SupplyChainDataManagement.sol\":3082:3193  if(compareStrings(_userID, users[i].userID)) {... */\n    tag_125:\n        /* \"contracts/SupplyChainDataManagement.sol\":3062:3065  i++ */\n      dup1\n      dup1\n      0x01\n      add\n      swap2\n      pop\n      pop\n        /* \"contracts/SupplyChainDataManagement.sol\":3026:3204  for(uint i = 0 ; i < users.length ; i++) {... */\n      jump(tag_112)\n    tag_113:\n      pop\n        /* \"contracts/SupplyChainDataManagement.sol\":3214:3231  return \"Retailer\" */\n      mload(0x40)\n      dup1\n      0x40\n      add\n      0x40\n      mstore\n      dup1\n      0x08\n      dup2\n      mstore\n      0x20\n      add\n      0x52657461696c6572000000000000000000000000000000000000000000000000\n      dup2\n      mstore\n      pop\n      swap1\n      pop\n        /* \"contracts/SupplyChainDataManagement.sol\":2925:3239  function findStakeHolderByUserID(string memory _userID) public view returns(string memory){... */\n    tag_111:\n      swap2\n      swap1\n      pop\n      jump\t// out\n        /* \"contracts/SupplyChainDataManagement.sol\":2121:2917  function addMedicine(string memory _batchCode, string calldata _medicineName, uint256 _medicineQuantity, string calldata _userID ,... */\n    tag_35:\n        /* \"contracts/SupplyChainDataManagement.sol\":2348:2354  int256 */\n      0x00\n        /* \"contracts/SupplyChainDataManagement.sol\":2367:2399  string memory _typeOfStakeHolder */\n      dup1\n        /* \"contracts/SupplyChainDataManagement.sol\":2402:2434  findStakeHolderByUserID(_userID) */\n      tag_135\n        /* \"contracts/SupplyChainDataManagement.sol\":2426:2433  _userID */\n      dup8\n      dup8\n        /* \"contracts/SupplyChainDataManagement.sol\":2402:2434  findStakeHolderByUserID(_userID) */\n      dup1\n      dup1\n      0x1f\n      add\n      0x20\n      dup1\n      swap2\n      div\n      mul\n      0x20\n      add\n      mload(0x40)\n      swap1\n      dup2\n      add\n      0x40\n      mstore\n      dup1\n      swap4\n      swap3\n      swap2\n      swap1\n      dup2\n      dup2\n      mstore\n      0x20\n      add\n      dup4\n      dup4\n      dup1\n      dup3\n      dup5\n      calldatacopy\n      0x00\n      dup2\n      dup5\n      add\n      mstore\n      not(0x1f)\n      0x1f\n      dup3\n      add\n      and\n      swap1\n      pop\n      dup1\n      dup4\n      add\n      swap3\n      pop\n      pop\n      pop\n      pop\n      pop\n      pop\n      pop\n        /* \"contracts/SupplyChainDataManagement.sol\":2402:2425  findStakeHolderByUserID */\n      tag_29\n        /* \"contracts/SupplyChainDataManagement.sol\":2402:2434  findStakeHolderByUserID(_userID) */\n      jump\t// in\n    tag_135:\n        /* \"contracts/SupplyChainDataManagement.sol\":2367:2434  string memory _typeOfStakeHolder = findStakeHolderByUserID(_userID) */\n      swap1\n      pop\n        /* \"contracts/SupplyChainDataManagement.sol\":2445:2469  Medicine memory medicine */\n      0x00\n        /* \"contracts/SupplyChainDataManagement.sol\":2472:2602  Medicine(_batchCode, ... */\n      mload(0x40)\n      dup1\n      0x0100\n      add\n      0x40\n      mstore\n      dup1\n        /* \"contracts/SupplyChainDataManagement.sol\":2481:2491  _batchCode */\n      dup14\n        /* \"contracts/SupplyChainDataManagement.sol\":2472:2602  Medicine(_batchCode, ... */\n      dup2\n      mstore\n      0x20\n      add\n        /* \"contracts/SupplyChainDataManagement.sol\":2503:2516  _medicineName */\n      dup13\n      dup13\n        /* \"contracts/SupplyChainDataManagement.sol\":2472:2602  Medicine(_batchCode, ... */\n      dup1\n      dup1\n      0x1f\n      add\n      0x20\n      dup1\n      swap2\n      div\n      mul\n      0x20\n      add\n      mload(0x40)\n      swap1\n      dup2\n      add\n      0x40\n      mstore\n      dup1\n      swap4\n      swap3\n      swap2\n      swap1\n      dup2\n      dup2\n      mstore\n      0x20\n      add\n      dup4\n      dup4\n      dup1\n      dup3\n      dup5\n      calldatacopy\n      0x00\n      dup2\n      dup5\n      add\n      mstore\n      not(0x1f)\n      0x1f\n      dup3\n      add\n      and\n      swap1\n      pop\n      dup1\n      dup4\n      add\n      swap3\n      pop\n      pop\n      pop\n      pop\n      pop\n      pop\n      pop\n      dup2\n      mstore\n      0x20\n      add\n        /* \"contracts/SupplyChainDataManagement.sol\":2519:2526  _userID */\n      dup10\n      dup10\n        /* \"contracts/SupplyChainDataManagement.sol\":2472:2602  Medicine(_batchCode, ... */\n      dup1\n      dup1\n      0x1f\n      add\n      0x20\n      dup1\n      swap2\n      div\n      mul\n      0x20\n      add\n      mload(0x40)\n      swap1\n      dup2\n      add\n      0x40\n      mstore\n      dup1\n      swap4\n      swap3\n      swap2\n      swap1\n      dup2\n      dup2\n      mstore\n      0x20\n      add\n      dup4\n      dup4\n      dup1\n      dup3\n      dup5\n      calldatacopy\n      0x00\n      dup2\n      dup5\n      add\n      mstore\n      not(0x1f)\n      0x1f\n      dup3\n      add\n      and\n      swap1\n      pop\n      dup1\n      dup4\n      add\n      swap3\n      pop\n      pop\n      pop\n      pop\n      pop\n      pop\n      pop\n      dup2\n      mstore\n      0x20\n      add\n        /* \"contracts/SupplyChainDataManagement.sol\":2528:2545  _medicineQuantity */\n      dup11\n        /* \"contracts/SupplyChainDataManagement.sol\":2472:2602  Medicine(_batchCode, ... */\n      dup2\n      mstore\n      0x20\n      add\n        /* \"contracts/SupplyChainDataManagement.sol\":2547:2558  _timeOfSell */\n      dup8\n        /* \"contracts/SupplyChainDataManagement.sol\":2472:2602  Medicine(_batchCode, ... */\n      dup1\n      calldatasize\n      sub\n      dup2\n      add\n      swap1\n      tag_136\n      swap2\n      swap1\n      tag_137\n      jump\t// in\n    tag_136:\n      dup2\n      mstore\n      0x20\n      add\n        /* \"contracts/SupplyChainDataManagement.sol\":2561:2579  _typeOfStakeHolder */\n      dup4\n        /* \"contracts/SupplyChainDataManagement.sol\":2472:2602  Medicine(_batchCode, ... */\n      dup2\n      mstore\n      0x20\n      add\n        /* \"contracts/SupplyChainDataManagement.sol\":2582:2590  _mfdDate */\n      dup7\n        /* \"contracts/SupplyChainDataManagement.sol\":2472:2602  Medicine(_batchCode, ... */\n      dup1\n      calldatasize\n      sub\n      dup2\n      add\n      swap1\n      tag_138\n      swap2\n      swap1\n      tag_137\n      jump\t// in\n    tag_138:\n      dup2\n      mstore\n      0x20\n      add\n        /* \"contracts/SupplyChainDataManagement.sol\":2593:2601  _expDate */\n      dup6\n        /* \"contracts/SupplyChainDataManagement.sol\":2472:2602  Medicine(_batchCode, ... */\n      dup1\n      calldatasize\n      sub\n      dup2\n      add\n      swap1\n      tag_139\n      swap2\n      swap1\n      tag_137\n      jump\t// in\n    tag_139:\n      dup2\n      mstore\n      pop\n        /* \"contracts/SupplyChainDataManagement.sol\":2445:2602  Medicine memory medicine = Medicine(_batchCode, ... */\n      swap1\n      pop\n        /* \"contracts/SupplyChainDataManagement.sol\":2675:2681  uint i */\n      0x00\n        /* \"contracts/SupplyChainDataManagement.sol\":2671:2842  for(uint i = 0 ; i < medicines.length ; i++) {... */\n    tag_140:\n        /* \"contracts/SupplyChainDataManagement.sol\":2692:2701  medicines */\n      0x01\n        /* \"contracts/SupplyChainDataManagement.sol\":2692:2708  medicines.length */\n      dup1\n      sload\n      swap1\n      pop\n        /* \"contracts/SupplyChainDataManagement.sol\":2688:2689  i */\n      dup2\n        /* \"contracts/SupplyChainDataManagement.sol\":2688:2708  i < medicines.length */\n      lt\n        /* \"contracts/SupplyChainDataManagement.sol\":2671:2842  for(uint i = 0 ; i < medicines.length ; i++) {... */\n      iszero\n      tag_141\n      jumpi\n        /* \"contracts/SupplyChainDataManagement.sol\":2734:2785  compareStrings(medicines[i].batchCode , _batchCode) */\n      tag_143\n        /* \"contracts/SupplyChainDataManagement.sol\":2749:2758  medicines */\n      0x01\n        /* \"contracts/SupplyChainDataManagement.sol\":2759:2760  i */\n      dup3\n        /* \"contracts/SupplyChainDataManagement.sol\":2749:2761  medicines[i] */\n      dup2\n      sload\n      dup2\n      lt\n      tag_144\n      jumpi\n      tag_145\n      tag_118\n      jump\t// in\n    tag_145:\n    tag_144:\n      swap1\n      0x00\n      mstore\n      keccak256(0x00, 0x20)\n      swap1\n      0x0e\n      mul\n      add\n        /* \"contracts/SupplyChainDataManagement.sol\":2749:2771  medicines[i].batchCode */\n      0x00\n      add\n        /* \"contracts/SupplyChainDataManagement.sol\":2734:2785  compareStrings(medicines[i].batchCode , _batchCode) */\n      dup1\n      sload\n      tag_147\n      swap1\n      tag_106\n      jump\t// in\n    tag_147:\n      dup1\n      0x1f\n      add\n      0x20\n      dup1\n      swap2\n      div\n      mul\n      0x20\n      add\n      mload(0x40)\n      swap1\n      dup2\n      add\n      0x40\n      mstore\n      dup1\n      swap3\n      swap2\n      swap1\n      dup2\n      dup2\n      mstore\n      0x20\n      add\n      dup3\n      dup1\n      sload\n      tag_148\n      swap1\n      tag_106\n      jump\t// in\n    tag_148:\n      dup1\n      iszero\n      tag_149\n      jumpi\n      dup1\n      0x1f\n      lt\n      tag_150\n      jumpi\n      0x0100\n      dup1\n      dup4\n      sload\n      div\n      mul\n      dup4\n      mstore\n      swap2\n      0x20\n      add\n      swap2\n      jump(tag_149)\n    tag_150:\n      dup3\n      add\n      swap2\n      swap1\n      0x00\n      mstore\n      keccak256(0x00, 0x20)\n      swap1\n    tag_151:\n      dup2\n      sload\n      dup2\n      mstore\n      swap1\n      0x01\n      add\n      swap1\n      0x20\n      add\n      dup1\n      dup4\n      gt\n      tag_151\n      jumpi\n      dup3\n      swap1\n      sub\n      0x1f\n      and\n      dup3\n      add\n      swap2\n    tag_149:\n      pop\n      pop\n      pop\n      pop\n      pop\n        /* \"contracts/SupplyChainDataManagement.sol\":2774:2784  _batchCode */\n      dup15\n        /* \"contracts/SupplyChainDataManagement.sol\":2734:2748  compareStrings */\n      tag_80\n        /* \"contracts/SupplyChainDataManagement.sol\":2734:2785  compareStrings(medicines[i].batchCode , _batchCode) */\n      jump\t// in\n    tag_143:\n        /* \"contracts/SupplyChainDataManagement.sol\":2731:2831  if(compareStrings(medicines[i].batchCode , _batchCode)) {... */\n      iszero\n      tag_152\n      jumpi\n        /* \"contracts/SupplyChainDataManagement.sol\":2813:2815  -1 */\n      0xffffffffffffffffffffffffffffffffffffffffffffffffffffffffffffffff\n        /* \"contracts/SupplyChainDataManagement.sol\":2806:2815  return -1 */\n      swap4\n      pop\n      pop\n      pop\n      pop\n      jump(tag_134)\n        /* \"contracts/SupplyChainDataManagement.sol\":2731:2831  if(compareStrings(medicines[i].batchCode , _batchCode)) {... */\n    tag_152:\n        /* \"contracts/SupplyChainDataManagement.sol\":2711:2714  i++ */\n      dup1\n      dup1\n      0x01\n      add\n      swap2\n      pop\n      pop\n        /* \"contracts/SupplyChainDataManagement.sol\":2671:2842  for(uint i = 0 ; i < medicines.length ; i++) {... */\n      jump(tag_140)\n    tag_141:\n      pop\n        /* \"contracts/SupplyChainDataManagement.sol\":2852:2861  medicines */\n      0x01\n        /* \"contracts/SupplyChainDataManagement.sol\":2867:2875  medicine */\n      dup2\n        /* \"contracts/SupplyChainDataManagement.sol\":2852:2876  medicines.push(medicine) */\n      swap1\n      dup1\n      0x01\n      dup2\n      sload\n      add\n      dup1\n      dup3\n      sstore\n      dup1\n      swap2\n      pop\n      pop\n      0x01\n      swap1\n      sub\n      swap1\n      0x00\n      mstore\n      keccak256(0x00, 0x20)\n      swap1\n      0x0e\n      mul\n      add\n      0x00\n      swap1\n      swap2\n      swap1\n      swap2\n      swap1\n      swap2\n      pop\n      0x00\n      dup3\n      add\n      mload\n      dup2\n      0x00\n      add\n      swap1\n      dup2\n      tag_154\n      swap2\n      swap1\n      tag_155\n      jump\t// in\n    tag_154:\n      pop\n      0x20\n      dup3\n      add\n      mload\n      dup2\n      0x01\n      add\n      swap1\n      dup2\n      tag_156\n      swap2\n      swap1\n      tag_155\n      jump\t// in\n    tag_156:\n      pop\n      0x40\n      dup3\n      add\n      mload\n      dup2\n      0x02\n      add\n      swap1\n      dup2\n      tag_157\n      swap2\n      swap1\n      tag_155\n      jump\t// in\n    tag_157:\n      pop\n      0x60\n      dup3\n      add\n      mload\n      dup2\n      0x03\n      add\n      sstore\n      0x80\n      dup3\n      add\n      mload\n      dup2\n      0x04\n      add\n      0x00\n      dup3\n      add\n      mload\n      dup2\n      0x00\n      add\n      sstore\n      0x20\n      dup3\n      add\n      mload\n      dup2\n      0x01\n      add\n      sstore\n      0x40\n      dup3\n      add\n      mload\n      dup2\n      0x02\n      add\n      sstore\n      pop\n      pop\n      0xa0\n      dup3\n      add\n      mload\n      dup2\n      0x07\n      add\n      swap1\n      dup2\n      tag_158\n      swap2\n      swap1\n      tag_155\n      jump\t// in\n    tag_158:\n      pop\n      0xc0\n      dup3\n      add\n      mload\n      dup2\n      0x08\n      add\n      0x00\n      dup3\n      add\n      mload\n      dup2\n      0x00\n      add\n      sstore\n      0x20\n      dup3\n      add\n      mload\n      dup2\n      0x01\n      add\n      sstore\n      0x40\n      dup3\n      add\n      mload\n      dup2\n      0x02\n      add\n      sstore\n      pop\n      pop\n      0xe0\n      dup3\n      add\n      mload\n      dup2\n      0x0b\n      add\n      0x00\n      dup3\n      add\n      mload\n      dup2\n      0x00\n      add\n      sstore\n      0x20\n      dup3\n      add\n      mload\n      dup2\n      0x01\n      add\n      sstore\n      0x40\n      dup3\n      add\n      mload\n      dup2\n      0x02\n      add\n      sstore\n      pop\n      pop\n      pop\n      pop\n        /* \"contracts/SupplyChainDataManagement.sol\":2894:2895  1 */\n      0x01\n        /* \"contracts/SupplyChainDataManagement.sol\":2887:2895  return 1 */\n      swap3\n      pop\n      pop\n      pop\n        /* \"contracts/SupplyChainDataManagement.sol\":2121:2917  function addMedicine(string memory _batchCode, string calldata _medicineName, uint256 _medicineQuantity, string calldata _userID ,... */\n    tag_134:\n      swap10\n      swap9\n      pop\n      pop\n      pop\n      pop\n      pop\n      pop\n      pop\n      pop\n      pop\n      jump\t// out\n        /* \"contracts/SupplyChainDataManagement.sol\":8840:9028  function random() public view returns (uint) {... */\n    tag_40:\n        /* \"contracts/SupplyChainDataManagement.sol\":8879:8883  uint */\n      0x00\n        /* \"contracts/SupplyChainDataManagement.sol\":8896:8907  uint random */\n      dup1\n        /* \"contracts/SupplyChainDataManagement.sol\":8993:8996  100 */\n      0x64\n        /* \"contracts/SupplyChainDataManagement.sol\":8942:8957  block.timestamp */\n      timestamp\n        /* \"contracts/SupplyChainDataManagement.sol\":8959:8969  msg.sender */\n      caller\n        /* \"contracts/SupplyChainDataManagement.sol\":8971:8987  block.difficulty */\n      prevrandao\n        /* \"contracts/SupplyChainDataManagement.sol\":8925:8988  abi.encodePacked(block.timestamp, msg.sender, block.difficulty) */\n      add(0x20, mload(0x40))\n      tag_160\n      swap4\n      swap3\n      swap2\n      swap1\n      tag_161\n      jump\t// in\n    tag_160:\n      mload(0x40)\n      0x20\n      dup2\n      dup4\n      sub\n      sub\n      dup2\n      mstore\n      swap1\n      0x40\n      mstore\n        /* \"contracts/SupplyChainDataManagement.sol\":8915:8989  keccak256(abi.encodePacked(block.timestamp, msg.sender, block.difficulty)) */\n      dup1\n      mload\n      swap1\n      0x20\n      add\n      keccak256\n        /* \"contracts/SupplyChainDataManagement.sol\":8910:8990  uint(keccak256(abi.encodePacked(block.timestamp, msg.sender, block.difficulty))) */\n      0x00\n      shr\n        /* \"contracts/SupplyChainDataManagement.sol\":8910:8996  uint(keccak256(abi.encodePacked(block.timestamp, msg.sender, block.difficulty))) % 100 */\n      tag_162\n      swap2\n      swap1\n      tag_163\n      jump\t// in\n    tag_162:\n        /* \"contracts/SupplyChainDataManagement.sol\":8896:8996  uint random = uint(keccak256(abi.encodePacked(block.timestamp, msg.sender, block.difficulty))) % 100 */\n      swap1\n      pop\n        /* \"contracts/SupplyChainDataManagement.sol\":9014:9020  random */\n      dup1\n        /* \"contracts/SupplyChainDataManagement.sol\":9007:9020  return random */\n      swap2\n      pop\n      pop\n        /* \"contracts/SupplyChainDataManagement.sol\":8840:9028  function random() public view returns (uint) {... */\n      swap1\n      jump\t// out\n        /* \"contracts/SupplyChainDataManagement.sol\":9566:9777  function random2(uint number) public payable returns(uint){... */\n    tag_46:\n        /* \"contracts/SupplyChainDataManagement.sol\":9619:9623  uint */\n      0x00\n        /* \"contracts/SupplyChainDataManagement.sol\":9635:9642  counter */\n      0x04\n      0x00\n        /* \"contracts/SupplyChainDataManagement.sol\":9635:9644  counter++ */\n      dup2\n      sload\n      dup1\n      swap3\n      swap2\n      swap1\n      tag_165\n      swap1\n      tag_166\n      jump\t// in\n    tag_165:\n      swap2\n      swap1\n      pop\n      sstore\n      pop\n        /* \"contracts/SupplyChainDataManagement.sol\":9763:9769  number */\n      dup2\n        /* \"contracts/SupplyChainDataManagement.sol\":9694:9709  block.timestamp */\n      timestamp\n        /* \"contracts/SupplyChainDataManagement.sol\":9710:9726  block.difficulty */\n      prevrandao\n        /* \"contracts/SupplyChainDataManagement.sol\":9739:9749  msg.sender */\n      caller\n        /* \"contracts/SupplyChainDataManagement.sol\":9750:9757  counter */\n      sload(0x04)\n        /* \"contracts/SupplyChainDataManagement.sol\":9677:9758  abi.encodePacked(block.timestamp,block.difficulty,  ... */\n      add(0x20, mload(0x40))\n      tag_167\n      swap5\n      swap4\n      swap3\n      swap2\n      swap1\n      tag_168\n      jump\t// in\n    tag_167:\n      mload(0x40)\n      0x20\n      dup2\n      dup4\n      sub\n      sub\n      dup2\n      mstore\n      swap1\n      0x40\n      mstore\n        /* \"contracts/SupplyChainDataManagement.sol\":9667:9759  keccak256(abi.encodePacked(block.timestamp,block.difficulty,  ... */\n      dup1\n      mload\n      swap1\n      0x20\n      add\n      keccak256\n        /* \"contracts/SupplyChainDataManagement.sol\":9662:9760  uint(keccak256(abi.encodePacked(block.timestamp,block.difficulty,  ... */\n      0x00\n      shr\n        /* \"contracts/SupplyChainDataManagement.sol\":9662:9769  uint(keccak256(abi.encodePacked(block.timestamp,block.difficulty,  ... */\n      tag_169\n      swap2\n      swap1\n      tag_163\n      jump\t// in\n    tag_169:\n        /* \"contracts/SupplyChainDataManagement.sol\":9655:9769  return uint(keccak256(abi.encodePacked(block.timestamp,block.difficulty,  ... */\n      swap1\n      pop\n        /* \"contracts/SupplyChainDataManagement.sol\":9566:9777  function random2(uint number) public payable returns(uint){... */\n      swap2\n      swap1\n      pop\n      jump\t// out\n        /* \"contracts/SupplyChainDataManagement.sol\":6525:6856  function deleteMedicine(string memory _batchcode) external returns (bool){... */\n    tag_51:\n        /* \"contracts/SupplyChainDataManagement.sol\":6593:6597  bool */\n      0x00\n        /* \"contracts/SupplyChainDataManagement.sol\":6613:6619  uint i */\n      dup1\n        /* \"contracts/SupplyChainDataManagement.sol\":6622:6623  0 */\n      0x00\n        /* \"contracts/SupplyChainDataManagement.sol\":6613:6623  uint i = 0 */\n      swap1\n      pop\n        /* \"contracts/SupplyChainDataManagement.sol\":6609:6822  for(uint i = 0 ; i < medicines.length ; i++) {... */\n    tag_171:\n        /* \"contracts/SupplyChainDataManagement.sol\":6630:6639  medicines */\n      0x01\n        /* \"contracts/SupplyChainDataManagement.sol\":6630:6646  medicines.length */\n      dup1\n      sload\n      swap1\n      pop\n        /* \"contracts/SupplyChainDataManagement.sol\":6626:6627  i */\n      dup2\n        /* \"contracts/SupplyChainDataManagement.sol\":6626:6646  i < medicines.length */\n      lt\n        /* \"contracts/SupplyChainDataManagement.sol\":6609:6822  for(uint i = 0 ; i < medicines.length ; i++) {... */\n      iszero\n      tag_172\n      jumpi\n        /* \"contracts/SupplyChainDataManagement.sol\":6672:6723  compareStrings(medicines[i].batchCode , _batchcode) */\n      tag_174\n        /* \"contracts/SupplyChainDataManagement.sol\":6687:6696  medicines */\n      0x01\n        /* \"contracts/SupplyChainDataManagement.sol\":6697:6698  i */\n      dup3\n        /* \"contracts/SupplyChainDataManagement.sol\":6687:6699  medicines[i] */\n      dup2\n      sload\n      dup2\n      lt\n      tag_175\n      jumpi\n      tag_176\n      tag_118\n      jump\t// in\n    tag_176:\n    tag_175:\n      swap1\n      0x00\n      mstore\n      keccak256(0x00, 0x20)\n      swap1\n      0x0e\n      mul\n      add\n        /* \"contracts/SupplyChainDataManagement.sol\":6687:6709  medicines[i].batchCode */\n      0x00\n      add\n        /* \"contracts/SupplyChainDataManagement.sol\":6672:6723  compareStrings(medicines[i].batchCode , _batchcode) */\n      dup1\n      sload\n      tag_178\n      swap1\n      tag_106\n      jump\t// in\n    tag_178:\n      dup1\n      0x1f\n      add\n      0x20\n      dup1\n      swap2\n      div\n      mul\n      0x20\n      add\n      mload(0x40)\n      swap1\n      dup2\n      add\n      0x40\n      mstore\n      dup1\n      swap3\n      swap2\n      swap1\n      dup2\n      dup2\n      mstore\n      0x20\n      add\n      dup3\n      dup1\n      sload\n      tag_179\n      swap1\n      tag_106\n      jump\t// in\n    tag_179:\n      dup1\n      iszero\n      tag_180\n      jumpi\n      dup1\n      0x1f\n      lt\n      tag_181\n      jumpi\n      0x0100\n      dup1\n      dup4\n      sload\n      div\n      mul\n      dup4\n      mstore\n      swap2\n      0x20\n      add\n      swap2\n      jump(tag_180)\n    tag_181:\n      dup3\n      add\n      swap2\n      swap1\n      0x00\n      mstore\n      keccak256(0x00, 0x20)\n      swap1\n    tag_182:\n      dup2\n      sload\n      dup2\n      mstore\n      swap1\n      0x01\n      add\n      swap1\n      0x20\n      add\n      dup1\n      dup4\n      gt\n      tag_182\n      jumpi\n      dup3\n      swap1\n      sub\n      0x1f\n      and\n      dup3\n      add\n      swap2\n    tag_180:\n      pop\n      pop\n      pop\n      pop\n      pop\n        /* \"contracts/SupplyChainDataManagement.sol\":6712:6722  _batchcode */\n      dup5\n        /* \"contracts/SupplyChainDataManagement.sol\":6672:6686  compareStrings */\n      tag_80\n        /* \"contracts/SupplyChainDataManagement.sol\":6672:6723  compareStrings(medicines[i].batchCode , _batchcode) */\n      jump\t// in\n    tag_174:\n        /* \"contracts/SupplyChainDataManagement.sol\":6669:6811  if(compareStrings(medicines[i].batchCode , _batchcode)) {... */\n      iszero\n      tag_183\n      jumpi\n        /* \"contracts/SupplyChainDataManagement.sol\":6752:6761  medicines */\n      0x01\n        /* \"contracts/SupplyChainDataManagement.sol\":6762:6763  i */\n      dup2\n        /* \"contracts/SupplyChainDataManagement.sol\":6752:6764  medicines[i] */\n      dup2\n      sload\n      dup2\n      lt\n      tag_184\n      jumpi\n      tag_185\n      tag_118\n      jump\t// in\n    tag_185:\n    tag_184:\n      swap1\n      0x00\n      mstore\n      keccak256(0x00, 0x20)\n      swap1\n      0x0e\n      mul\n      add\n      0x00\n        /* \"contracts/SupplyChainDataManagement.sol\":6744:6765  delete (medicines[i]) */\n      dup1\n      dup3\n      add\n      0x00\n      tag_187\n      swap2\n      swap1\n      tag_188\n      jump\t// in\n    tag_187:\n      0x01\n      dup3\n      add\n      0x00\n      tag_189\n      swap2\n      swap1\n      tag_188\n      jump\t// in\n    tag_189:\n      0x02\n      dup3\n      add\n      0x00\n      tag_190\n      swap2\n      swap1\n      tag_188\n      jump\t// in\n    tag_190:\n      0x03\n      dup3\n      add\n      0x00\n      swap1\n      sstore\n      0x04\n      dup3\n      add\n      0x00\n      dup1\n      dup3\n      add\n      0x00\n      swap1\n      sstore\n      0x01\n      dup3\n      add\n      0x00\n      swap1\n      sstore\n      0x02\n      dup3\n      add\n      0x00\n      swap1\n      sstore\n      pop\n      pop\n      0x07\n      dup3\n      add\n      0x00\n      tag_191\n      swap2\n      swap1\n      tag_188\n      jump\t// in\n    tag_191:\n      0x08\n      dup3\n      add\n      0x00\n      dup1\n      dup3\n      add\n      0x00\n      swap1\n      sstore\n      0x01\n      dup3\n      add\n      0x00\n      swap1\n      sstore\n      0x02\n      dup3\n      add\n      0x00\n      swap1\n      sstore\n      pop\n      pop\n      0x0b\n      dup3\n      add\n      0x00\n      dup1\n      dup3\n      add\n      0x00\n      swap1\n      sstore\n      0x01\n      dup3\n      add\n      0x00\n      swap1\n      sstore\n      0x02\n      dup3\n      add\n      0x00\n      swap1\n      sstore\n      pop\n      pop\n      pop\n      pop\n        /* \"contracts/SupplyChainDataManagement.sol\":6791:6795  true */\n      0x01\n        /* \"contracts/SupplyChainDataManagement.sol\":6784:6795  return true */\n      swap2\n      pop\n      pop\n      jump(tag_170)\n        /* \"contracts/SupplyChainDataManagement.sol\":6669:6811  if(compareStrings(medicines[i].batchCode , _batchcode)) {... */\n    tag_183:\n        /* \"contracts/SupplyChainDataManagement.sol\":6649:6652  i++ */\n      dup1\n      dup1\n      0x01\n      add\n      swap2\n      pop\n      pop\n        /* \"contracts/SupplyChainDataManagement.sol\":6609:6822  for(uint i = 0 ; i < medicines.length ; i++) {... */\n      jump(tag_171)\n    tag_172:\n      pop\n        /* \"contracts/SupplyChainDataManagement.sol\":6843:6848  false */\n      0x00\n        /* \"contracts/SupplyChainDataManagement.sol\":6836:6848  return false */\n      swap1\n      pop\n        /* \"contracts/SupplyChainDataManagement.sol\":6525:6856  function deleteMedicine(string memory _batchcode) external returns (bool){... */\n    tag_170:\n      swap2\n      swap1\n      pop\n      jump\t// out\n        /* \"contracts/SupplyChainDataManagement.sol\":4762:6417  function getMovingAvgForecast(int k, int startMonth, int endMonth, string memory medicineName , string memory level) external returns (int256[] memory) {... */\n    tag_58:\n        /* \"contracts/SupplyChainDataManagement.sol\":4897:4912  int256[] memory */\n      0x60\n        /* \"contracts/SupplyChainDataManagement.sol\":5083:5107  int256[] memory quantity */\n      0x00\n        /* \"contracts/SupplyChainDataManagement.sol\":5154:5155  1 */\n      0x01\n        /* \"contracts/SupplyChainDataManagement.sol\":5141:5151  startMonth */\n      dup7\n        /* \"contracts/SupplyChainDataManagement.sol\":5130:5138  endMonth */\n      dup7\n        /* \"contracts/SupplyChainDataManagement.sol\":5130:5151  endMonth - startMonth */\n      tag_193\n      swap2\n      swap1\n      tag_194\n      jump\t// in\n    tag_193:\n        /* \"contracts/SupplyChainDataManagement.sol\":5130:5155  endMonth - startMonth + 1 */\n      tag_195\n      swap2\n      swap1\n      tag_196\n      jump\t// in\n    tag_195:\n        /* \"contracts/SupplyChainDataManagement.sol\":5110:5157  new int256[]((uint)(endMonth - startMonth + 1)) */\n      0xffffffffffffffff\n      dup2\n      gt\n      iszero\n      tag_197\n      jumpi\n      tag_198\n      tag_199\n      jump\t// in\n    tag_198:\n    tag_197:\n      mload(0x40)\n      swap1\n      dup1\n      dup3\n      mstore\n      dup1\n      0x20\n      mul\n      0x20\n      add\n      dup3\n      add\n      0x40\n      mstore\n      dup1\n      iszero\n      tag_200\n      jumpi\n      dup2\n      0x20\n      add\n      0x20\n      dup3\n      mul\n      dup1\n      calldatasize\n      dup4\n      calldatacopy\n      dup1\n      dup3\n      add\n      swap2\n      pop\n      pop\n      swap1\n      pop\n    tag_200:\n      pop\n        /* \"contracts/SupplyChainDataManagement.sol\":5083:5157  int256[] memory quantity = new int256[]((uint)(endMonth - startMonth + 1)) */\n      swap1\n      pop\n        /* \"contracts/SupplyChainDataManagement.sol\":5176:5178  12 */\n      0x0c\n        /* \"contracts/SupplyChainDataManagement.sol\":5171:5172  k */\n      dup8\n        /* \"contracts/SupplyChainDataManagement.sol\":5171:5178  k >= 12 */\n      slt\n        /* \"contracts/SupplyChainDataManagement.sol\":5168:5222  if(k >= 12) {... */\n      tag_201\n      jumpi\n        /* \"contracts/SupplyChainDataManagement.sol\":5202:5210  quantity */\n      dup1\n        /* \"contracts/SupplyChainDataManagement.sol\":5195:5210  return quantity */\n      swap2\n      pop\n      pop\n      jump(tag_192)\n        /* \"contracts/SupplyChainDataManagement.sol\":5168:5222  if(k >= 12) {... */\n    tag_201:\n        /* \"contracts/SupplyChainDataManagement.sol\":5291:5300  int month */\n      0x00\n        /* \"contracts/SupplyChainDataManagement.sol\":5303:5313  startMonth */\n      dup7\n        /* \"contracts/SupplyChainDataManagement.sol\":5291:5313  int month = startMonth */\n      swap1\n      pop\n        /* \"contracts/SupplyChainDataManagement.sol\":5287:6313  for(int month = startMonth ; month <= endMonth ; month++){... */\n    tag_202:\n        /* \"contracts/SupplyChainDataManagement.sol\":5325:5333  endMonth */\n      dup6\n        /* \"contracts/SupplyChainDataManagement.sol\":5316:5321  month */\n      dup2\n        /* \"contracts/SupplyChainDataManagement.sol\":5316:5333  month <= endMonth */\n      sgt\n        /* \"contracts/SupplyChainDataManagement.sol\":5287:6313  for(int month = startMonth ; month <= endMonth ; month++){... */\n      tag_203\n      jumpi\n        /* \"contracts/SupplyChainDataManagement.sol\":5359:5377  int256 sumOfValues */\n      0x00\n        /* \"contracts/SupplyChainDataManagement.sol\":5396:5417  int256 dataPointCount */\n      dup1\n        /* \"contracts/SupplyChainDataManagement.sol\":5449:5458  uint256 i */\n      0x00\n        /* \"contracts/SupplyChainDataManagement.sol\":5444:6169  for (uint256 i = 0; i < medicines.length; i++) {... */\n    tag_205:\n        /* \"contracts/SupplyChainDataManagement.sol\":5468:5477  medicines */\n      0x01\n        /* \"contracts/SupplyChainDataManagement.sol\":5468:5484  medicines.length */\n      dup1\n      sload\n      swap1\n      pop\n        /* \"contracts/SupplyChainDataManagement.sol\":5464:5465  i */\n      dup2\n        /* \"contracts/SupplyChainDataManagement.sol\":5464:5484  i < medicines.length */\n      lt\n        /* \"contracts/SupplyChainDataManagement.sol\":5444:6169  for (uint256 i = 0; i < medicines.length; i++) {... */\n      iszero\n      tag_206\n      jumpi\n        /* \"contracts/SupplyChainDataManagement.sol\":5601:5609  int diff */\n      0x00\n        /* \"contracts/SupplyChainDataManagement.sol\":5612:5657  ABS(medicines[i].timeOfSelling.month - month) */\n      tag_208\n        /* \"contracts/SupplyChainDataManagement.sol\":5651:5656  month */\n      dup6\n        /* \"contracts/SupplyChainDataManagement.sol\":5616:5625  medicines */\n      0x01\n        /* \"contracts/SupplyChainDataManagement.sol\":5626:5627  i */\n      dup5\n        /* \"contracts/SupplyChainDataManagement.sol\":5616:5628  medicines[i] */\n      dup2\n      sload\n      dup2\n      lt\n      tag_209\n      jumpi\n      tag_210\n      tag_118\n      jump\t// in\n    tag_210:\n    tag_209:\n      swap1\n      0x00\n      mstore\n      keccak256(0x00, 0x20)\n      swap1\n      0x0e\n      mul\n      add\n        /* \"contracts/SupplyChainDataManagement.sol\":5616:5642  medicines[i].timeOfSelling */\n      0x04\n      add\n        /* \"contracts/SupplyChainDataManagement.sol\":5616:5648  medicines[i].timeOfSelling.month */\n      0x01\n      add\n      sload\n        /* \"contracts/SupplyChainDataManagement.sol\":5616:5656  medicines[i].timeOfSelling.month - month */\n      tag_212\n      swap2\n      swap1\n      tag_194\n      jump\t// in\n    tag_212:\n        /* \"contracts/SupplyChainDataManagement.sol\":5612:5615  ABS */\n      tag_98\n        /* \"contracts/SupplyChainDataManagement.sol\":5612:5657  ABS(medicines[i].timeOfSelling.month - month) */\n      jump\t// in\n    tag_208:\n        /* \"contracts/SupplyChainDataManagement.sol\":5601:5657  int diff = ABS(medicines[i].timeOfSelling.month - month) */\n      swap1\n      pop\n        /* \"contracts/SupplyChainDataManagement.sol\":5680:5684  true */\n      0x01\n        /* \"contracts/SupplyChainDataManagement.sol\":5680:5761  true &&... */\n      dup1\n      iszero\n      tag_213\n      jumpi\n      pop\n        /* \"contracts/SupplyChainDataManagement.sol\":5706:5761  compareStrings(medicines[i].medicineName, medicineName) */\n      tag_214\n        /* \"contracts/SupplyChainDataManagement.sol\":5721:5730  medicines */\n      0x01\n        /* \"contracts/SupplyChainDataManagement.sol\":5731:5732  i */\n      dup4\n        /* \"contracts/SupplyChainDataManagement.sol\":5721:5733  medicines[i] */\n      dup2\n      sload\n      dup2\n      lt\n      tag_215\n      jumpi\n      tag_216\n      tag_118\n      jump\t// in\n    tag_216:\n    tag_215:\n      swap1\n      0x00\n      mstore\n      keccak256(0x00, 0x20)\n      swap1\n      0x0e\n      mul\n      add\n        /* \"contracts/SupplyChainDataManagement.sol\":5721:5746  medicines[i].medicineName */\n      0x01\n      add\n        /* \"contracts/SupplyChainDataManagement.sol\":5706:5761  compareStrings(medicines[i].medicineName, medicineName) */\n      dup1\n      sload\n      tag_218\n      swap1\n      tag_106\n      jump\t// in\n    tag_218:\n      dup1\n      0x1f\n      add\n      0x20\n      dup1\n      swap2\n      div\n      mul\n      0x20\n      add\n      mload(0x40)\n      swap1\n      dup2\n      add\n      0x40\n      mstore\n      dup1\n      swap3\n      swap2\n      swap1\n      dup2\n      dup2\n      mstore\n      0x20\n      add\n      dup3\n      dup1\n      sload\n      tag_219\n      swap1\n      tag_106\n      jump\t// in\n    tag_219:\n      dup1\n      iszero\n      tag_220\n      jumpi\n      dup1\n      0x1f\n      lt\n      tag_221\n      jumpi\n      0x0100\n      dup1\n      dup4\n      sload\n      div\n      mul\n      dup4\n      mstore\n      swap2\n      0x20\n      add\n      swap2\n      jump(tag_220)\n    tag_221:\n      dup3\n      add\n      swap2\n      swap1\n      0x00\n      mstore\n      keccak256(0x00, 0x20)\n      swap1\n    tag_222:\n      dup2\n      sload\n      dup2\n      mstore\n      swap1\n      0x01\n      add\n      swap1\n      0x20\n      add\n      dup1\n      dup4\n      gt\n      tag_222\n      jumpi\n      dup3\n      swap1\n      sub\n      0x1f\n      and\n      dup3\n      add\n      swap2\n    tag_220:\n      pop\n      pop\n      pop\n      pop\n      pop\n        /* \"contracts/SupplyChainDataManagement.sol\":5748:5760  medicineName */\n      dup11\n        /* \"contracts/SupplyChainDataManagement.sol\":5706:5720  compareStrings */\n      tag_80\n        /* \"contracts/SupplyChainDataManagement.sol\":5706:5761  compareStrings(medicines[i].medicineName, medicineName) */\n      jump\t// in\n    tag_214:\n        /* \"contracts/SupplyChainDataManagement.sol\":5680:5761  true &&... */\n    tag_213:\n        /* \"contracts/SupplyChainDataManagement.sol\":5680:5823  true &&... */\n      dup1\n      iszero\n      tag_223\n      jumpi\n      pop\n        /* \"contracts/SupplyChainDataManagement.sol\":5765:5823  compareStrings(level, medicines[i].addedByStakeHolderType) */\n      tag_224\n        /* \"contracts/SupplyChainDataManagement.sol\":5780:5785  level */\n      dup9\n        /* \"contracts/SupplyChainDataManagement.sol\":5787:5796  medicines */\n      0x01\n        /* \"contracts/SupplyChainDataManagement.sol\":5797:5798  i */\n      dup5\n        /* \"contracts/SupplyChainDataManagement.sol\":5787:5799  medicines[i] */\n      dup2\n      sload\n      dup2\n      lt\n      tag_225\n      jumpi\n      tag_226\n      tag_118\n      jump\t// in\n    tag_226:\n    tag_225:\n      swap1\n      0x00\n      mstore\n      keccak256(0x00, 0x20)\n      swap1\n      0x0e\n      mul\n      add\n        /* \"contracts/SupplyChainDataManagement.sol\":5787:5822  medicines[i].addedByStakeHolderType */\n      0x07\n      add\n        /* \"contracts/SupplyChainDataManagement.sol\":5765:5823  compareStrings(level, medicines[i].addedByStakeHolderType) */\n      dup1\n      sload\n      tag_228\n      swap1\n      tag_106\n      jump\t// in\n    tag_228:\n      dup1\n      0x1f\n      add\n      0x20\n      dup1\n      swap2\n      div\n      mul\n      0x20\n      add\n      mload(0x40)\n      swap1\n      dup2\n      add\n      0x40\n      mstore\n      dup1\n      swap3\n      swap2\n      swap1\n      dup2\n      dup2\n      mstore\n      0x20\n      add\n      dup3\n      dup1\n      sload\n      tag_229\n      swap1\n      tag_106\n      jump\t// in\n    tag_229:\n      dup1\n      iszero\n      tag_230\n      jumpi\n      dup1\n      0x1f\n      lt\n      tag_231\n      jumpi\n      0x0100\n      dup1\n      dup4\n      sload\n      div\n      mul\n      dup4\n      mstore\n      swap2\n      0x20\n      add\n      swap2\n      jump(tag_230)\n    tag_231:\n      dup3\n      add\n      swap2\n      swap1\n      0x00\n      mstore\n      keccak256(0x00, 0x20)\n      swap1\n    tag_232:\n      dup2\n      sload\n      dup2\n      mstore\n      swap1\n      0x01\n      add\n      swap1\n      0x20\n      add\n      dup1\n      dup4\n      gt\n      tag_232\n      jumpi\n      dup3\n      swap1\n      sub\n      0x1f\n      and\n      dup3\n      add\n      swap2\n    tag_230:\n      pop\n      pop\n      pop\n      pop\n      pop\n        /* \"contracts/SupplyChainDataManagement.sol\":5765:5779  compareStrings */\n      tag_80\n        /* \"contracts/SupplyChainDataManagement.sol\":5765:5823  compareStrings(level, medicines[i].addedByStakeHolderType) */\n      jump\t// in\n    tag_224:\n        /* \"contracts/SupplyChainDataManagement.sol\":5680:5823  true &&... */\n    tag_223:\n        /* \"contracts/SupplyChainDataManagement.sol\":5680:5855  true &&... */\n      dup1\n      iszero\n      tag_233\n      jumpi\n      pop\n        /* \"contracts/SupplyChainDataManagement.sol\":5854:5855  k */\n      dup12\n        /* \"contracts/SupplyChainDataManagement.sol\":5846:5850  diff */\n      dup2\n        /* \"contracts/SupplyChainDataManagement.sol\":5846:5855  diff <= k */\n      sgt\n      iszero\n        /* \"contracts/SupplyChainDataManagement.sol\":5680:5855  true &&... */\n    tag_233:\n        /* \"contracts/SupplyChainDataManagement.sol\":5676:6154  if (true &&... */\n      iszero\n      tag_234\n      jumpi\n        /* \"contracts/SupplyChainDataManagement.sol\":6004:6013  medicines */\n      0x01\n        /* \"contracts/SupplyChainDataManagement.sol\":6014:6015  i */\n      dup3\n        /* \"contracts/SupplyChainDataManagement.sol\":6004:6016  medicines[i] */\n      dup2\n      sload\n      dup2\n      lt\n      tag_235\n      jumpi\n      tag_236\n      tag_118\n      jump\t// in\n    tag_236:\n    tag_235:\n      swap1\n      0x00\n      mstore\n      keccak256(0x00, 0x20)\n      swap1\n      0x0e\n      mul\n      add\n        /* \"contracts/SupplyChainDataManagement.sol\":6004:6038  medicines[i].quantitySoldInNumbers */\n      0x03\n      add\n      sload\n        /* \"contracts/SupplyChainDataManagement.sol\":5981:5992  sumOfValues */\n      dup5\n        /* \"contracts/SupplyChainDataManagement.sol\":5981:6039  sumOfValues + (int256)(medicines[i].quantitySoldInNumbers) */\n      tag_238\n      swap2\n      swap1\n      tag_196\n      jump\t// in\n    tag_238:\n        /* \"contracts/SupplyChainDataManagement.sol\":5967:6039  sumOfValues = sumOfValues + (int256)(medicines[i].quantitySoldInNumbers) */\n      swap4\n      pop\n        /* \"contracts/SupplyChainDataManagement.sol\":6070:6086  dataPointCount++ */\n      dup3\n      dup1\n      tag_239\n      swap1\n      tag_240\n      jump\t// in\n    tag_239:\n      swap4\n      pop\n      pop\n        /* \"contracts/SupplyChainDataManagement.sol\":5676:6154  if (true &&... */\n    tag_234:\n        /* \"contracts/SupplyChainDataManagement.sol\":5491:6169  {... */\n      pop\n        /* \"contracts/SupplyChainDataManagement.sol\":5486:5489  i++ */\n      dup1\n      dup1\n      0x01\n      add\n      swap2\n      pop\n      pop\n        /* \"contracts/SupplyChainDataManagement.sol\":5444:6169  for (uint256 i = 0; i < medicines.length; i++) {... */\n      jump(tag_205)\n    tag_206:\n      pop\n        /* \"contracts/SupplyChainDataManagement.sol\":6183:6202  int256 averageValue */\n      0x00\n        /* \"contracts/SupplyChainDataManagement.sol\":6219:6233  dataPointCount */\n      dup2\n        /* \"contracts/SupplyChainDataManagement.sol\":6205:6216  sumOfValues */\n      dup4\n        /* \"contracts/SupplyChainDataManagement.sol\":6205:6233  sumOfValues / dataPointCount */\n      tag_241\n      swap2\n      swap1\n      tag_242\n      jump\t// in\n    tag_241:\n        /* \"contracts/SupplyChainDataManagement.sol\":6183:6233  int256 averageValue = sumOfValues / dataPointCount */\n      swap1\n      pop\n        /* \"contracts/SupplyChainDataManagement.sol\":6288:6300  averageValue */\n      dup1\n        /* \"contracts/SupplyChainDataManagement.sol\":6248:6256  quantity */\n      dup6\n        /* \"contracts/SupplyChainDataManagement.sol\":6272:6282  startMonth */\n      dup12\n        /* \"contracts/SupplyChainDataManagement.sol\":6264:6269  month */\n      dup7\n        /* \"contracts/SupplyChainDataManagement.sol\":6264:6282  month - startMonth */\n      tag_243\n      swap2\n      swap1\n      tag_194\n      jump\t// in\n    tag_243:\n        /* \"contracts/SupplyChainDataManagement.sol\":6248:6284  quantity[(uint)(month - startMonth)] */\n      dup2\n      mload\n      dup2\n      lt\n      tag_244\n      jumpi\n      tag_245\n      tag_118\n      jump\t// in\n    tag_245:\n    tag_244:\n      0x20\n      mul\n      0x20\n      add\n      add\n        /* \"contracts/SupplyChainDataManagement.sol\":6248:6301  quantity[(uint)(month - startMonth)] = (averageValue) */\n      dup2\n      dup2\n      mstore\n      pop\n      pop\n        /* \"contracts/SupplyChainDataManagement.sol\":5344:6313  {... */\n      pop\n      pop\n      pop\n        /* \"contracts/SupplyChainDataManagement.sol\":5336:5343  month++ */\n      dup1\n      dup1\n      tag_246\n      swap1\n      tag_240\n      jump\t// in\n    tag_246:\n      swap2\n      pop\n      pop\n        /* \"contracts/SupplyChainDataManagement.sol\":5287:6313  for(int month = startMonth ; month <= endMonth ; month++){... */\n      jump(tag_202)\n    tag_203:\n      pop\n        /* \"contracts/SupplyChainDataManagement.sol\":6401:6409  quantity */\n      dup1\n        /* \"contracts/SupplyChainDataManagement.sol\":6394:6409  return quantity */\n      swap2\n      pop\n      pop\n        /* \"contracts/SupplyChainDataManagement.sol\":4762:6417  function getMovingAvgForecast(int k, int startMonth, int endMonth, string memory medicineName , string memory level) external returns (int256[] memory) {... */\n    tag_192:\n      swap6\n      swap5\n      pop\n      pop\n      pop\n      pop\n      pop\n      jump\t// out\n        /* \"contracts/SupplyChainDataManagement.sol\":3316:4754  function getSeasonalForecast(int startMonth , int endMonth , string memory medicineName , string memory level) external returns (uint256[] memory) {... */\n    tag_65:\n        /* \"contracts/SupplyChainDataManagement.sol\":3445:3461  uint256[] memory */\n      0x60\n        /* \"contracts/SupplyChainDataManagement.sol\":3577:3602  uint256[] memory quantity */\n      0x00\n        /* \"contracts/SupplyChainDataManagement.sol\":3650:3651  1 */\n      0x01\n        /* \"contracts/SupplyChainDataManagement.sol\":3637:3647  startMonth */\n      dup7\n        /* \"contracts/SupplyChainDataManagement.sol\":3626:3634  endMonth */\n      dup7\n        /* \"contracts/SupplyChainDataManagement.sol\":3626:3647  endMonth - startMonth */\n      tag_248\n      swap2\n      swap1\n      tag_194\n      jump\t// in\n    tag_248:\n        /* \"contracts/SupplyChainDataManagement.sol\":3626:3651  endMonth - startMonth + 1 */\n      tag_249\n      swap2\n      swap1\n      tag_196\n      jump\t// in\n    tag_249:\n        /* \"contracts/SupplyChainDataManagement.sol\":3605:3653  new uint256[]((uint)(endMonth - startMonth + 1)) */\n      0xffffffffffffffff\n      dup2\n      gt\n      iszero\n      tag_250\n      jumpi\n      tag_251\n      tag_199\n      jump\t// in\n    tag_251:\n    tag_250:\n      mload(0x40)\n      swap1\n      dup1\n      dup3\n      mstore\n      dup1\n      0x20\n      mul\n      0x20\n      add\n      dup3\n      add\n      0x40\n      mstore\n      dup1\n      iszero\n      tag_252\n      jumpi\n      dup2\n      0x20\n      add\n      0x20\n      dup3\n      mul\n      dup1\n      calldatasize\n      dup4\n      calldatacopy\n      dup1\n      dup3\n      add\n      swap2\n      pop\n      pop\n      swap1\n      pop\n    tag_252:\n      pop\n        /* \"contracts/SupplyChainDataManagement.sol\":3577:3653  uint256[] memory quantity = new uint256[]((uint)(endMonth - startMonth + 1)) */\n      swap1\n      pop\n        /* \"contracts/SupplyChainDataManagement.sol\":3723:3735  int256 month */\n      0x00\n        /* \"contracts/SupplyChainDataManagement.sol\":3738:3748  startMonth */\n      dup7\n        /* \"contracts/SupplyChainDataManagement.sol\":3723:3748  int256 month = startMonth */\n      swap1\n      pop\n        /* \"contracts/SupplyChainDataManagement.sol\":3719:4650  for(int256 month = startMonth ; month <= endMonth ; month++){... */\n    tag_253:\n        /* \"contracts/SupplyChainDataManagement.sol\":3760:3768  endMonth */\n      dup6\n        /* \"contracts/SupplyChainDataManagement.sol\":3751:3756  month */\n      dup2\n        /* \"contracts/SupplyChainDataManagement.sol\":3751:3768  month <= endMonth */\n      sgt\n        /* \"contracts/SupplyChainDataManagement.sol\":3719:4650  for(int256 month = startMonth ; month <= endMonth ; month++){... */\n      tag_254\n      jumpi\n        /* \"contracts/SupplyChainDataManagement.sol\":3794:3813  uint256 sumOfValues */\n      0x00\n        /* \"contracts/SupplyChainDataManagement.sol\":3832:3854  uint256 dataPointCount */\n      dup1\n        /* \"contracts/SupplyChainDataManagement.sol\":3886:3895  uint256 i */\n      0x00\n        /* \"contracts/SupplyChainDataManagement.sol\":3881:4504  for (uint256 i = 0; i < medicines.length; i++) {... */\n    tag_256:\n        /* \"contracts/SupplyChainDataManagement.sol\":3905:3914  medicines */\n      0x01\n        /* \"contracts/SupplyChainDataManagement.sol\":3905:3921  medicines.length */\n      dup1\n      sload\n      swap1\n      pop\n        /* \"contracts/SupplyChainDataManagement.sol\":3901:3902  i */\n      dup2\n        /* \"contracts/SupplyChainDataManagement.sol\":3901:3921  i < medicines.length */\n      lt\n        /* \"contracts/SupplyChainDataManagement.sol\":3881:4504  for (uint256 i = 0; i < medicines.length; i++) {... */\n      iszero\n      tag_257\n      jumpi\n        /* \"contracts/SupplyChainDataManagement.sol\":4078:4083  month */\n      dup4\n        /* \"contracts/SupplyChainDataManagement.sol\":4042:4051  medicines */\n      0x01\n        /* \"contracts/SupplyChainDataManagement.sol\":4052:4053  i */\n      dup3\n        /* \"contracts/SupplyChainDataManagement.sol\":4042:4054  medicines[i] */\n      dup2\n      sload\n      dup2\n      lt\n      tag_259\n      jumpi\n      tag_260\n      tag_118\n      jump\t// in\n    tag_260:\n    tag_259:\n      swap1\n      0x00\n      mstore\n      keccak256(0x00, 0x20)\n      swap1\n      0x0e\n      mul\n      add\n        /* \"contracts/SupplyChainDataManagement.sol\":4042:4068  medicines[i].timeOfSelling */\n      0x04\n      add\n        /* \"contracts/SupplyChainDataManagement.sol\":4042:4074  medicines[i].timeOfSelling.month */\n      0x01\n      add\n      sload\n        /* \"contracts/SupplyChainDataManagement.sol\":4042:4083  medicines[i].timeOfSelling.month == month */\n      eq\n        /* \"contracts/SupplyChainDataManagement.sol\":4042:4142  medicines[i].timeOfSelling.month == month && compareStrings(medicineName, medicines[i].medicineName) */\n      dup1\n      iszero\n      tag_262\n      jumpi\n      pop\n        /* \"contracts/SupplyChainDataManagement.sol\":4087:4142  compareStrings(medicineName, medicines[i].medicineName) */\n      tag_263\n        /* \"contracts/SupplyChainDataManagement.sol\":4102:4114  medicineName */\n      dup9\n        /* \"contracts/SupplyChainDataManagement.sol\":4116:4125  medicines */\n      0x01\n        /* \"contracts/SupplyChainDataManagement.sol\":4126:4127  i */\n      dup4\n        /* \"contracts/SupplyChainDataManagement.sol\":4116:4128  medicines[i] */\n      dup2\n      sload\n      dup2\n      lt\n      tag_264\n      jumpi\n      tag_265\n      tag_118\n      jump\t// in\n    tag_265:\n    tag_264:\n      swap1\n      0x00\n      mstore\n      keccak256(0x00, 0x20)\n      swap1\n      0x0e\n      mul\n      add\n        /* \"contracts/SupplyChainDataManagement.sol\":4116:4141  medicines[i].medicineName */\n      0x01\n      add\n        /* \"contracts/SupplyChainDataManagement.sol\":4087:4142  compareStrings(medicineName, medicines[i].medicineName) */\n      dup1\n      sload\n      tag_267\n      swap1\n      tag_106\n      jump\t// in\n    tag_267:\n      dup1\n      0x1f\n      add\n      0x20\n      dup1\n      swap2\n      div\n      mul\n      0x20\n      add\n      mload(0x40)\n      swap1\n      dup2\n      add\n      0x40\n      mstore\n      dup1\n      swap3\n      swap2\n      swap1\n      dup2\n      dup2\n      mstore\n      0x20\n      add\n      dup3\n      dup1\n      sload\n      tag_268\n      swap1\n      tag_106\n      jump\t// in\n    tag_268:\n      dup1\n      iszero\n      tag_269\n      jumpi\n      dup1\n      0x1f\n      lt\n      tag_270\n      jumpi\n      0x0100\n      dup1\n      dup4\n      sload\n      div\n      mul\n      dup4\n      mstore\n      swap2\n      0x20\n      add\n      swap2\n      jump(tag_269)\n    tag_270:\n      dup3\n      add\n      swap2\n      swap1\n      0x00\n      mstore\n      keccak256(0x00, 0x20)\n      swap1\n    tag_271:\n      dup2\n      sload\n      dup2\n      mstore\n      swap1\n      0x01\n      add\n      swap1\n      0x20\n      add\n      dup1\n      dup4\n      gt\n      tag_271\n      jumpi\n      dup3\n      swap1\n      sub\n      0x1f\n      and\n      dup3\n      add\n      swap2\n    tag_269:\n      pop\n      pop\n      pop\n      pop\n      pop\n        /* \"contracts/SupplyChainDataManagement.sol\":4087:4101  compareStrings */\n      tag_80\n        /* \"contracts/SupplyChainDataManagement.sol\":4087:4142  compareStrings(medicineName, medicines[i].medicineName) */\n      jump\t// in\n    tag_263:\n        /* \"contracts/SupplyChainDataManagement.sol\":4042:4142  medicines[i].timeOfSelling.month == month && compareStrings(medicineName, medicines[i].medicineName) */\n    tag_262:\n        /* \"contracts/SupplyChainDataManagement.sol\":4042:4222  medicines[i].timeOfSelling.month == month && compareStrings(medicineName, medicines[i].medicineName) && ... */\n      dup1\n      iszero\n      tag_272\n      jumpi\n      pop\n        /* \"contracts/SupplyChainDataManagement.sol\":4164:4222  compareStrings(level, medicines[i].addedByStakeHolderType) */\n      tag_273\n        /* \"contracts/SupplyChainDataManagement.sol\":4179:4184  level */\n      dup8\n        /* \"contracts/SupplyChainDataManagement.sol\":4186:4195  medicines */\n      0x01\n        /* \"contracts/SupplyChainDataManagement.sol\":4196:4197  i */\n      dup4\n        /* \"contracts/SupplyChainDataManagement.sol\":4186:4198  medicines[i] */\n      dup2\n      sload\n      dup2\n      lt\n      tag_274\n      jumpi\n      tag_275\n      tag_118\n      jump\t// in\n    tag_275:\n    tag_274:\n      swap1\n      0x00\n      mstore\n      keccak256(0x00, 0x20)\n      swap1\n      0x0e\n      mul\n      add\n        /* \"contracts/SupplyChainDataManagement.sol\":4186:4221  medicines[i].addedByStakeHolderType */\n      0x07\n      add\n        /* \"contracts/SupplyChainDataManagement.sol\":4164:4222  compareStrings(level, medicines[i].addedByStakeHolderType) */\n      dup1\n      sload\n      tag_277\n      swap1\n      tag_106\n      jump\t// in\n    tag_277:\n      dup1\n      0x1f\n      add\n      0x20\n      dup1\n      swap2\n      div\n      mul\n      0x20\n      add\n      mload(0x40)\n      swap1\n      dup2\n      add\n      0x40\n      mstore\n      dup1\n      swap3\n      swap2\n      swap1\n      dup2\n      dup2\n      mstore\n      0x20\n      add\n      dup3\n      dup1\n      sload\n      tag_278\n      swap1\n      tag_106\n      jump\t// in\n    tag_278:\n      dup1\n      iszero\n      tag_279\n      jumpi\n      dup1\n      0x1f\n      lt\n      tag_280\n      jumpi\n      0x0100\n      dup1\n      dup4\n      sload\n      div\n      mul\n      dup4\n      mstore\n      swap2\n      0x20\n      add\n      swap2\n      jump(tag_279)\n    tag_280:\n      dup3\n      add\n      swap2\n      swap1\n      0x00\n      mstore\n      keccak256(0x00, 0x20)\n      swap1\n    tag_281:\n      dup2\n      sload\n      dup2\n      mstore\n      swap1\n      0x01\n      add\n      swap1\n      0x20\n      add\n      dup1\n      dup4\n      gt\n      tag_281\n      jumpi\n      dup3\n      swap1\n      sub\n      0x1f\n      and\n      dup3\n      add\n      swap2\n    tag_279:\n      pop\n      pop\n      pop\n      pop\n      pop\n        /* \"contracts/SupplyChainDataManagement.sol\":4164:4178  compareStrings */\n      tag_80\n        /* \"contracts/SupplyChainDataManagement.sol\":4164:4222  compareStrings(level, medicines[i].addedByStakeHolderType) */\n      jump\t// in\n    tag_273:\n        /* \"contracts/SupplyChainDataManagement.sol\":4042:4222  medicines[i].timeOfSelling.month == month && compareStrings(medicineName, medicines[i].medicineName) && ... */\n    tag_272:\n        /* \"contracts/SupplyChainDataManagement.sol\":4038:4489  if (medicines[i].timeOfSelling.month == month && compareStrings(medicineName, medicines[i].medicineName) && ... */\n      iszero\n      tag_282\n      jumpi\n        /* \"contracts/SupplyChainDataManagement.sol\":4337:4346  medicines */\n      0x01\n        /* \"contracts/SupplyChainDataManagement.sol\":4347:4348  i */\n      dup2\n        /* \"contracts/SupplyChainDataManagement.sol\":4337:4349  medicines[i] */\n      dup2\n      sload\n      dup2\n      lt\n      tag_283\n      jumpi\n      tag_284\n      tag_118\n      jump\t// in\n    tag_284:\n    tag_283:\n      swap1\n      0x00\n      mstore\n      keccak256(0x00, 0x20)\n      swap1\n      0x0e\n      mul\n      add\n        /* \"contracts/SupplyChainDataManagement.sol\":4337:4371  medicines[i].quantitySoldInNumbers */\n      0x03\n      add\n      sload\n        /* \"contracts/SupplyChainDataManagement.sol\":4322:4371  sumOfValues += medicines[i].quantitySoldInNumbers */\n      dup4\n      tag_286\n      swap2\n      swap1\n      tag_287\n      jump\t// in\n    tag_286:\n      swap3\n      pop\n        /* \"contracts/SupplyChainDataManagement.sol\":4453:4469  dataPointCount++ */\n      dup2\n      dup1\n      tag_288\n      swap1\n      tag_166\n      jump\t// in\n    tag_288:\n      swap3\n      pop\n      pop\n        /* \"contracts/SupplyChainDataManagement.sol\":4038:4489  if (medicines[i].timeOfSelling.month == month && compareStrings(medicineName, medicines[i].medicineName) && ... */\n    tag_282:\n        /* \"contracts/SupplyChainDataManagement.sol\":3923:3926  i++ */\n      dup1\n      dup1\n      0x01\n      add\n      swap2\n      pop\n      pop\n        /* \"contracts/SupplyChainDataManagement.sol\":3881:4504  for (uint256 i = 0; i < medicines.length; i++) {... */\n      jump(tag_256)\n    tag_257:\n      pop\n        /* \"contracts/SupplyChainDataManagement.sol\":4518:4538  uint256 averageValue */\n      0x00\n        /* \"contracts/SupplyChainDataManagement.sol\":4555:4569  dataPointCount */\n      dup2\n        /* \"contracts/SupplyChainDataManagement.sol\":4541:4552  sumOfValues */\n      dup4\n        /* \"contracts/SupplyChainDataManagement.sol\":4541:4569  sumOfValues / dataPointCount */\n      tag_289\n      swap2\n      swap1\n      tag_290\n      jump\t// in\n    tag_289:\n        /* \"contracts/SupplyChainDataManagement.sol\":4518:4569  uint256 averageValue = sumOfValues / dataPointCount */\n      swap1\n      pop\n        /* \"contracts/SupplyChainDataManagement.sol\":4626:4638  averageValue */\n      dup1\n        /* \"contracts/SupplyChainDataManagement.sol\":4584:4592  quantity */\n      dup6\n        /* \"contracts/SupplyChainDataManagement.sol\":4611:4621  startMonth */\n      dup12\n        /* \"contracts/SupplyChainDataManagement.sol\":4603:4608  month */\n      dup7\n        /* \"contracts/SupplyChainDataManagement.sol\":4603:4621  month - startMonth */\n      tag_291\n      swap2\n      swap1\n      tag_194\n      jump\t// in\n    tag_291:\n        /* \"contracts/SupplyChainDataManagement.sol\":4584:4623  quantity[(uint256)(month - startMonth)] */\n      dup2\n      mload\n      dup2\n      lt\n      tag_292\n      jumpi\n      tag_293\n      tag_118\n      jump\t// in\n    tag_293:\n    tag_292:\n      0x20\n      mul\n      0x20\n      add\n      add\n        /* \"contracts/SupplyChainDataManagement.sol\":4584:4638  quantity[(uint256)(month - startMonth)] = averageValue */\n      dup2\n      dup2\n      mstore\n      pop\n      pop\n        /* \"contracts/SupplyChainDataManagement.sol\":3779:4650  {... */\n      pop\n      pop\n      pop\n        /* \"contracts/SupplyChainDataManagement.sol\":3771:3778  month++ */\n      dup1\n      dup1\n      tag_294\n      swap1\n      tag_240\n      jump\t// in\n    tag_294:\n      swap2\n      pop\n      pop\n        /* \"contracts/SupplyChainDataManagement.sol\":3719:4650  for(int256 month = startMonth ; month <= endMonth ; month++){... */\n      jump(tag_253)\n    tag_254:\n      pop\n        /* \"contracts/SupplyChainDataManagement.sol\":4738:4746  quantity */\n      dup1\n        /* \"contracts/SupplyChainDataManagement.sol\":4731:4746  return quantity */\n      swap2\n      pop\n      pop\n        /* \"contracts/SupplyChainDataManagement.sol\":3316:4754  function getSeasonalForecast(int startMonth , int endMonth , string memory medicineName , string memory level) external returns (uint256[] memory) {... */\n      swap5\n      swap4\n      pop\n      pop\n      pop\n      pop\n      jump\t// out\n        /* \"contracts/SupplyChainDataManagement.sol\":7012:8832  function weightedMovingAverageMethod(int k, int startMonth, int endMonth, string memory medicineName , string memory level) external returns (int256[] memory){... */\n    tag_71:\n        /* \"contracts/SupplyChainDataManagement.sol\":7154:7169  int256[] memory */\n      0x60\n        /* \"contracts/SupplyChainDataManagement.sol\":7181:7205  int256[] memory quantity */\n      0x00\n        /* \"contracts/SupplyChainDataManagement.sol\":7252:7253  1 */\n      0x01\n        /* \"contracts/SupplyChainDataManagement.sol\":7239:7249  startMonth */\n      dup7\n        /* \"contracts/SupplyChainDataManagement.sol\":7228:7236  endMonth */\n      dup7\n        /* \"contracts/SupplyChainDataManagement.sol\":7228:7249  endMonth - startMonth */\n      tag_296\n      swap2\n      swap1\n      tag_194\n      jump\t// in\n    tag_296:\n        /* \"contracts/SupplyChainDataManagement.sol\":7228:7253  endMonth - startMonth + 1 */\n      tag_297\n      swap2\n      swap1\n      tag_196\n      jump\t// in\n    tag_297:\n        /* \"contracts/SupplyChainDataManagement.sol\":7208:7255  new int256[]((uint)(endMonth - startMonth + 1)) */\n      0xffffffffffffffff\n      dup2\n      gt\n      iszero\n      tag_298\n      jumpi\n      tag_299\n      tag_199\n      jump\t// in\n    tag_299:\n    tag_298:\n      mload(0x40)\n      swap1\n      dup1\n      dup3\n      mstore\n      dup1\n      0x20\n      mul\n      0x20\n      add\n      dup3\n      add\n      0x40\n      mstore\n      dup1\n      iszero\n      tag_300\n      jumpi\n      dup2\n      0x20\n      add\n      0x20\n      dup3\n      mul\n      dup1\n      calldatasize\n      dup4\n      calldatacopy\n      dup1\n      dup3\n      add\n      swap2\n      pop\n      pop\n      swap1\n      pop\n    tag_300:\n      pop\n        /* \"contracts/SupplyChainDataManagement.sol\":7181:7255  int256[] memory quantity = new int256[]((uint)(endMonth - startMonth + 1)) */\n      swap1\n      pop\n        /* \"contracts/SupplyChainDataManagement.sol\":7329:7352  int256[] memory weights */\n      0x00\n        /* \"contracts/SupplyChainDataManagement.sol\":7368:7370  11 */\n      0x0b\n        /* \"contracts/SupplyChainDataManagement.sol\":7355:7371  new int256[](11) */\n      0xffffffffffffffff\n      dup2\n      gt\n      iszero\n      tag_301\n      jumpi\n      tag_302\n      tag_199\n      jump\t// in\n    tag_302:\n    tag_301:\n      mload(0x40)\n      swap1\n      dup1\n      dup3\n      mstore\n      dup1\n      0x20\n      mul\n      0x20\n      add\n      dup3\n      add\n      0x40\n      mstore\n      dup1\n      iszero\n      tag_303\n      jumpi\n      dup2\n      0x20\n      add\n      0x20\n      dup3\n      mul\n      dup1\n      calldatasize\n      dup4\n      calldatacopy\n      dup1\n      dup3\n      add\n      swap2\n      pop\n      pop\n      swap1\n      pop\n    tag_303:\n      pop\n        /* \"contracts/SupplyChainDataManagement.sol\":7329:7371  int256[] memory weights = new int256[](11) */\n      swap1\n      pop\n        /* \"contracts/SupplyChainDataManagement.sol\":7397:7399  12 */\n      0x0c\n        /* \"contracts/SupplyChainDataManagement.sol\":7392:7393  k */\n      dup9\n        /* \"contracts/SupplyChainDataManagement.sol\":7392:7399  k >= 12 */\n      slt\n        /* \"contracts/SupplyChainDataManagement.sol\":7389:7599  if(k >= 12) {... */\n      tag_304\n      jumpi\n        /* \"contracts/SupplyChainDataManagement.sol\":7423:7431  quantity */\n      dup2\n        /* \"contracts/SupplyChainDataManagement.sol\":7416:7431  return quantity */\n      swap3\n      pop\n      pop\n      pop\n      jump(tag_295)\n        /* \"contracts/SupplyChainDataManagement.sol\":7389:7599  if(k >= 12) {... */\n    tag_304:\n        /* \"contracts/SupplyChainDataManagement.sol\":7477:7482  int i */\n      0x00\n        /* \"contracts/SupplyChainDataManagement.sol\":7473:7576  for(int i = 0 ; i < 11 ; i++) {... */\n    tag_306:\n        /* \"contracts/SupplyChainDataManagement.sol\":7493:7495  11 */\n      0x0b\n        /* \"contracts/SupplyChainDataManagement.sol\":7489:7490  i */\n      dup2\n        /* \"contracts/SupplyChainDataManagement.sol\":7489:7495  i < 11 */\n      slt\n        /* \"contracts/SupplyChainDataManagement.sol\":7473:7576  for(int i = 0 ; i < 11 ; i++) {... */\n      iszero\n      tag_307\n      jumpi\n        /* \"contracts/SupplyChainDataManagement.sol\":7558:7559  1 */\n      0x01\n        /* \"contracts/SupplyChainDataManagement.sol\":7554:7555  i */\n      dup2\n        /* \"contracts/SupplyChainDataManagement.sol\":7554:7559  i + 1 */\n      tag_309\n      swap2\n      swap1\n      tag_196\n      jump\t// in\n    tag_309:\n        /* \"contracts/SupplyChainDataManagement.sol\":7548:7549  1 */\n      0x01\n        /* \"contracts/SupplyChainDataManagement.sol\":7544:7545  i */\n      dup3\n        /* \"contracts/SupplyChainDataManagement.sol\":7544:7549  i + 1 */\n      tag_310\n      swap2\n      swap1\n      tag_196\n      jump\t// in\n    tag_310:\n        /* \"contracts/SupplyChainDataManagement.sol\":7543:7560  (i + 1) * (i + 1) */\n      tag_311\n      swap2\n      swap1\n      tag_312\n      jump\t// in\n    tag_311:\n        /* \"contracts/SupplyChainDataManagement.sol\":7522:7529  weights */\n      dup3\n        /* \"contracts/SupplyChainDataManagement.sol\":7537:7538  i */\n      dup3\n        /* \"contracts/SupplyChainDataManagement.sol\":7522:7540  weights[(uint)(i)] */\n      dup2\n      mload\n      dup2\n      lt\n      tag_313\n      jumpi\n      tag_314\n      tag_118\n      jump\t// in\n    tag_314:\n    tag_313:\n      0x20\n      mul\n      0x20\n      add\n      add\n        /* \"contracts/SupplyChainDataManagement.sol\":7522:7560  weights[(uint)(i)] = (i + 1) * (i + 1) */\n      dup2\n      dup2\n      mstore\n      pop\n      pop\n        /* \"contracts/SupplyChainDataManagement.sol\":7498:7501  i++ */\n      dup1\n      dup1\n      0x01\n      add\n      swap2\n      pop\n      pop\n        /* \"contracts/SupplyChainDataManagement.sol\":7473:7576  for(int i = 0 ; i < 11 ; i++) {... */\n      jump(tag_306)\n    tag_307:\n      pop\n        /* \"contracts/SupplyChainDataManagement.sol\":7613:7622  int month */\n      0x00\n        /* \"contracts/SupplyChainDataManagement.sol\":7625:7635  startMonth */\n      dup8\n        /* \"contracts/SupplyChainDataManagement.sol\":7613:7635  int month = startMonth */\n      swap1\n      pop\n        /* \"contracts/SupplyChainDataManagement.sol\":7609:8728  for(int month = startMonth ; month <= endMonth ; month++){... */\n    tag_315:\n        /* \"contracts/SupplyChainDataManagement.sol\":7647:7655  endMonth */\n      dup7\n        /* \"contracts/SupplyChainDataManagement.sol\":7638:7643  month */\n      dup2\n        /* \"contracts/SupplyChainDataManagement.sol\":7638:7655  month <= endMonth */\n      sgt\n        /* \"contracts/SupplyChainDataManagement.sol\":7609:8728  for(int month = startMonth ; month <= endMonth ; month++){... */\n      tag_316\n      jumpi\n        /* \"contracts/SupplyChainDataManagement.sol\":7681:7699  int256 sumOfValues */\n      0x00\n        /* \"contracts/SupplyChainDataManagement.sol\":7718:7739  int256 dataPointCount */\n      dup1\n        /* \"contracts/SupplyChainDataManagement.sol\":7771:7780  uint256 i */\n      0x00\n        /* \"contracts/SupplyChainDataManagement.sol\":7766:8584  for (uint256 i = 0; i < medicines.length; i++) {... */\n    tag_318:\n        /* \"contracts/SupplyChainDataManagement.sol\":7790:7799  medicines */\n      0x01\n        /* \"contracts/SupplyChainDataManagement.sol\":7790:7806  medicines.length */\n      dup1\n      sload\n      swap1\n      pop\n        /* \"contracts/SupplyChainDataManagement.sol\":7786:7787  i */\n      dup2\n        /* \"contracts/SupplyChainDataManagement.sol\":7786:7806  i < medicines.length */\n      lt\n        /* \"contracts/SupplyChainDataManagement.sol\":7766:8584  for (uint256 i = 0; i < medicines.length; i++) {... */\n      iszero\n      tag_319\n      jumpi\n        /* \"contracts/SupplyChainDataManagement.sol\":7832:7840  int diff */\n      0x00\n        /* \"contracts/SupplyChainDataManagement.sol\":7843:7888  ABS(medicines[i].timeOfSelling.month - month) */\n      tag_321\n        /* \"contracts/SupplyChainDataManagement.sol\":7882:7887  month */\n      dup6\n        /* \"contracts/SupplyChainDataManagement.sol\":7847:7856  medicines */\n      0x01\n        /* \"contracts/SupplyChainDataManagement.sol\":7857:7858  i */\n      dup5\n        /* \"contracts/SupplyChainDataManagement.sol\":7847:7859  medicines[i] */\n      dup2\n      sload\n      dup2\n      lt\n      tag_322\n      jumpi\n      tag_323\n      tag_118\n      jump\t// in\n    tag_323:\n    tag_322:\n      swap1\n      0x00\n      mstore\n      keccak256(0x00, 0x20)\n      swap1\n      0x0e\n      mul\n      add\n        /* \"contracts/SupplyChainDataManagement.sol\":7847:7873  medicines[i].timeOfSelling */\n      0x04\n      add\n        /* \"contracts/SupplyChainDataManagement.sol\":7847:7879  medicines[i].timeOfSelling.month */\n      0x01\n      add\n      sload\n        /* \"contracts/SupplyChainDataManagement.sol\":7847:7887  medicines[i].timeOfSelling.month - month */\n      tag_325\n      swap2\n      swap1\n      tag_194\n      jump\t// in\n    tag_325:\n        /* \"contracts/SupplyChainDataManagement.sol\":7843:7846  ABS */\n      tag_98\n        /* \"contracts/SupplyChainDataManagement.sol\":7843:7888  ABS(medicines[i].timeOfSelling.month - month) */\n      jump\t// in\n    tag_321:\n        /* \"contracts/SupplyChainDataManagement.sol\":7832:7888  int diff = ABS(medicines[i].timeOfSelling.month - month) */\n      swap1\n      pop\n        /* \"contracts/SupplyChainDataManagement.sol\":8038:8039  k */\n      dup13\n        /* \"contracts/SupplyChainDataManagement.sol\":8030:8034  diff */\n      dup2\n        /* \"contracts/SupplyChainDataManagement.sol\":8030:8039  diff <= k */\n      sgt\n      iszero\n        /* \"contracts/SupplyChainDataManagement.sol\":8030:8047  diff <= k && true */\n      dup1\n      iszero\n      tag_326\n      jumpi\n      pop\n        /* \"contracts/SupplyChainDataManagement.sol\":8043:8047  true */\n      0x01\n        /* \"contracts/SupplyChainDataManagement.sol\":8030:8047  diff <= k && true */\n    tag_326:\n        /* \"contracts/SupplyChainDataManagement.sol\":8030:8124  diff <= k && true &&... */\n      dup1\n      iszero\n      tag_327\n      jumpi\n      pop\n        /* \"contracts/SupplyChainDataManagement.sol\":8069:8124  compareStrings(medicines[i].medicineName, medicineName) */\n      tag_328\n        /* \"contracts/SupplyChainDataManagement.sol\":8084:8093  medicines */\n      0x01\n        /* \"contracts/SupplyChainDataManagement.sol\":8094:8095  i */\n      dup4\n        /* \"contracts/SupplyChainDataManagement.sol\":8084:8096  medicines[i] */\n      dup2\n      sload\n      dup2\n      lt\n      tag_329\n      jumpi\n      tag_330\n      tag_118\n      jump\t// in\n    tag_330:\n    tag_329:\n      swap1\n      0x00\n      mstore\n      keccak256(0x00, 0x20)\n      swap1\n      0x0e\n      mul\n      add\n        /* \"contracts/SupplyChainDataManagement.sol\":8084:8109  medicines[i].medicineName */\n      0x01\n      add\n        /* \"contracts/SupplyChainDataManagement.sol\":8069:8124  compareStrings(medicines[i].medicineName, medicineName) */\n      dup1\n      sload\n      tag_332\n      swap1\n      tag_106\n      jump\t// in\n    tag_332:\n      dup1\n      0x1f\n      add\n      0x20\n      dup1\n      swap2\n      div\n      mul\n      0x20\n      add\n      mload(0x40)\n      swap1\n      dup2\n      add\n      0x40\n      mstore\n      dup1\n      swap3\n      swap2\n      swap1\n      dup2\n      dup2\n      mstore\n      0x20\n      add\n      dup3\n      dup1\n      sload\n      tag_333\n      swap1\n      tag_106\n      jump\t// in\n    tag_333:\n      dup1\n      iszero\n      tag_334\n      jumpi\n      dup1\n      0x1f\n      lt\n      tag_335\n      jumpi\n      0x0100\n      dup1\n      dup4\n      sload\n      div\n      mul\n      dup4\n      mstore\n      swap2\n      0x20\n      add\n      swap2\n      jump(tag_334)\n    tag_335:\n      dup3\n      add\n      swap2\n      swap1\n      0x00\n      mstore\n      keccak256(0x00, 0x20)\n      swap1\n    tag_336:\n      dup2\n      sload\n      dup2\n      mstore\n      swap1\n      0x01\n      add\n      swap1\n      0x20\n      add\n      dup1\n      dup4\n      gt\n      tag_336\n      jumpi\n      dup3\n      swap1\n      sub\n      0x1f\n      and\n      dup3\n      add\n      swap2\n    tag_334:\n      pop\n      pop\n      pop\n      pop\n      pop\n        /* \"contracts/SupplyChainDataManagement.sol\":8111:8123  medicineName */\n      dup12\n        /* \"contracts/SupplyChainDataManagement.sol\":8069:8083  compareStrings */\n      tag_80\n        /* \"contracts/SupplyChainDataManagement.sol\":8069:8124  compareStrings(medicines[i].medicineName, medicineName) */\n      jump\t// in\n    tag_328:\n        /* \"contracts/SupplyChainDataManagement.sol\":8030:8124  diff <= k && true &&... */\n    tag_327:\n        /* \"contracts/SupplyChainDataManagement.sol\":8030:8186  diff <= k && true &&... */\n      dup1\n      iszero\n      tag_337\n      jumpi\n      pop\n        /* \"contracts/SupplyChainDataManagement.sol\":8128:8186  compareStrings(level, medicines[i].addedByStakeHolderType) */\n      tag_338\n        /* \"contracts/SupplyChainDataManagement.sol\":8143:8148  level */\n      dup10\n        /* \"contracts/SupplyChainDataManagement.sol\":8150:8159  medicines */\n      0x01\n        /* \"contracts/SupplyChainDataManagement.sol\":8160:8161  i */\n      dup5\n        /* \"contracts/SupplyChainDataManagement.sol\":8150:8162  medicines[i] */\n      dup2\n      sload\n      dup2\n      lt\n      tag_339\n      jumpi\n      tag_340\n      tag_118\n      jump\t// in\n    tag_340:\n    tag_339:\n      swap1\n      0x00\n      mstore\n      keccak256(0x00, 0x20)\n      swap1\n      0x0e\n      mul\n      add\n        /* \"contracts/SupplyChainDataManagement.sol\":8150:8185  medicines[i].addedByStakeHolderType */\n      0x07\n      add\n        /* \"contracts/SupplyChainDataManagement.sol\":8128:8186  compareStrings(level, medicines[i].addedByStakeHolderType) */\n      dup1\n      sload\n      tag_342\n      swap1\n      tag_106\n      jump\t// in\n    tag_342:\n      dup1\n      0x1f\n      add\n      0x20\n      dup1\n      swap2\n      div\n      mul\n      0x20\n      add\n      mload(0x40)\n      swap1\n      dup2\n      add\n      0x40\n      mstore\n      dup1\n      swap3\n      swap2\n      swap1\n      dup2\n      dup2\n      mstore\n      0x20\n      add\n      dup3\n      dup1\n      sload\n      tag_343\n      swap1\n      tag_106\n      jump\t// in\n    tag_343:\n      dup1\n      iszero\n      tag_344\n      jumpi\n      dup1\n      0x1f\n      lt\n      tag_345\n      jumpi\n      0x0100\n      dup1\n      dup4\n      sload\n      div\n      mul\n      dup4\n      mstore\n      swap2\n      0x20\n      add\n      swap2\n      jump(tag_344)\n    tag_345:\n      dup3\n      add\n      swap2\n      swap1\n      0x00\n      mstore\n      keccak256(0x00, 0x20)\n      swap1\n    tag_346:\n      dup2\n      sload\n      dup2\n      mstore\n      swap1\n      0x01\n      add\n      swap1\n      0x20\n      add\n      dup1\n      dup4\n      gt\n      tag_346\n      jumpi\n      dup3\n      swap1\n      sub\n      0x1f\n      and\n      dup3\n      add\n      swap2\n    tag_344:\n      pop\n      pop\n      pop\n      pop\n      pop\n        /* \"contracts/SupplyChainDataManagement.sol\":8128:8142  compareStrings */\n      tag_80\n        /* \"contracts/SupplyChainDataManagement.sol\":8128:8186  compareStrings(level, medicines[i].addedByStakeHolderType) */\n      jump\t// in\n    tag_338:\n        /* \"contracts/SupplyChainDataManagement.sol\":8030:8186  diff <= k && true &&... */\n    tag_337:\n        /* \"contracts/SupplyChainDataManagement.sol\":8026:8569  if (diff <= k && true &&... */\n      iszero\n      tag_347\n      jumpi\n        /* \"contracts/SupplyChainDataManagement.sol\":8392:8401  medicines */\n      0x01\n        /* \"contracts/SupplyChainDataManagement.sol\":8402:8403  i */\n      dup3\n        /* \"contracts/SupplyChainDataManagement.sol\":8392:8404  medicines[i] */\n      dup2\n      sload\n      dup2\n      lt\n      tag_348\n      jumpi\n      tag_349\n      tag_118\n      jump\t// in\n    tag_349:\n    tag_348:\n      swap1\n      0x00\n      mstore\n      keccak256(0x00, 0x20)\n      swap1\n      0x0e\n      mul\n      add\n        /* \"contracts/SupplyChainDataManagement.sol\":8392:8426  medicines[i].quantitySoldInNumbers */\n      0x03\n      add\n      sload\n        /* \"contracts/SupplyChainDataManagement.sol\":8354:8361  weights */\n      dup7\n        /* \"contracts/SupplyChainDataManagement.sol\":8374:8378  diff */\n      dup3\n        /* \"contracts/SupplyChainDataManagement.sol\":8369:8371  10 */\n      0x0a\n        /* \"contracts/SupplyChainDataManagement.sol\":8369:8378  10 - diff */\n      tag_351\n      swap2\n      swap1\n      tag_194\n      jump\t// in\n    tag_351:\n        /* \"contracts/SupplyChainDataManagement.sol\":8354:8380  weights[(uint)(10 - diff)] */\n      dup2\n      mload\n      dup2\n      lt\n      tag_352\n      jumpi\n      tag_353\n      tag_118\n      jump\t// in\n    tag_353:\n    tag_352:\n      0x20\n      mul\n      0x20\n      add\n      add\n      mload\n        /* \"contracts/SupplyChainDataManagement.sol\":8354:8427  weights[(uint)(10 - diff)] * (int256)(medicines[i].quantitySoldInNumbers) */\n      tag_354\n      swap2\n      swap1\n      tag_312\n      jump\t// in\n    tag_354:\n        /* \"contracts/SupplyChainDataManagement.sol\":8338:8428  sumOfValues += (weights[(uint)(10 - diff)] * (int256)(medicines[i].quantitySoldInNumbers)) */\n      dup5\n      tag_355\n      swap2\n      swap1\n      tag_196\n      jump\t// in\n    tag_355:\n      swap4\n      pop\n        /* \"contracts/SupplyChainDataManagement.sol\":8478:8485  weights */\n      dup6\n        /* \"contracts/SupplyChainDataManagement.sol\":8498:8502  diff */\n      dup2\n        /* \"contracts/SupplyChainDataManagement.sol\":8493:8495  10 */\n      0x0a\n        /* \"contracts/SupplyChainDataManagement.sol\":8493:8502  10 - diff */\n      tag_356\n      swap2\n      swap1\n      tag_194\n      jump\t// in\n    tag_356:\n        /* \"contracts/SupplyChainDataManagement.sol\":8478:8504  weights[(uint)(10 - diff)] */\n      dup2\n      mload\n      dup2\n      lt\n      tag_357\n      jumpi\n      tag_358\n      tag_118\n      jump\t// in\n    tag_358:\n    tag_357:\n      0x20\n      mul\n      0x20\n      add\n      add\n      mload\n        /* \"contracts/SupplyChainDataManagement.sol\":8459:8505  dataPointCount += (weights[(uint)(10 - diff)]) */\n      dup4\n      tag_359\n      swap2\n      swap1\n      tag_196\n      jump\t// in\n    tag_359:\n      swap3\n      pop\n        /* \"contracts/SupplyChainDataManagement.sol\":8026:8569  if (diff <= k && true &&... */\n    tag_347:\n        /* \"contracts/SupplyChainDataManagement.sol\":7813:8584  {... */\n      pop\n        /* \"contracts/SupplyChainDataManagement.sol\":7808:7811  i++ */\n      dup1\n      dup1\n      0x01\n      add\n      swap2\n      pop\n      pop\n        /* \"contracts/SupplyChainDataManagement.sol\":7766:8584  for (uint256 i = 0; i < medicines.length; i++) {... */\n      jump(tag_318)\n    tag_319:\n      pop\n        /* \"contracts/SupplyChainDataManagement.sol\":8598:8617  int256 averageValue */\n      0x00\n        /* \"contracts/SupplyChainDataManagement.sol\":8634:8648  dataPointCount */\n      dup2\n        /* \"contracts/SupplyChainDataManagement.sol\":8620:8631  sumOfValues */\n      dup4\n        /* \"contracts/SupplyChainDataManagement.sol\":8620:8648  sumOfValues / dataPointCount */\n      tag_360\n      swap2\n      swap1\n      tag_242\n      jump\t// in\n    tag_360:\n        /* \"contracts/SupplyChainDataManagement.sol\":8598:8648  int256 averageValue = sumOfValues / dataPointCount */\n      swap1\n      pop\n        /* \"contracts/SupplyChainDataManagement.sol\":8703:8715  averageValue */\n      dup1\n        /* \"contracts/SupplyChainDataManagement.sol\":8663:8671  quantity */\n      dup7\n        /* \"contracts/SupplyChainDataManagement.sol\":8687:8697  startMonth */\n      dup13\n        /* \"contracts/SupplyChainDataManagement.sol\":8679:8684  month */\n      dup7\n        /* \"contracts/SupplyChainDataManagement.sol\":8679:8697  month - startMonth */\n      tag_361\n      swap2\n      swap1\n      tag_194\n      jump\t// in\n    tag_361:\n        /* \"contracts/SupplyChainDataManagement.sol\":8663:8699  quantity[(uint)(month - startMonth)] */\n      dup2\n      mload\n      dup2\n      lt\n      tag_362\n      jumpi\n      tag_363\n      tag_118\n      jump\t// in\n    tag_363:\n    tag_362:\n      0x20\n      mul\n      0x20\n      add\n      add\n        /* \"contracts/SupplyChainDataManagement.sol\":8663:8716  quantity[(uint)(month - startMonth)] = (averageValue) */\n      dup2\n      dup2\n      mstore\n      pop\n      pop\n        /* \"contracts/SupplyChainDataManagement.sol\":7666:8728  {... */\n      pop\n      pop\n      pop\n        /* \"contracts/SupplyChainDataManagement.sol\":7658:7665  month++ */\n      dup1\n      dup1\n      tag_364\n      swap1\n      tag_240\n      jump\t// in\n    tag_364:\n      swap2\n      pop\n      pop\n        /* \"contracts/SupplyChainDataManagement.sol\":7609:8728  for(int month = startMonth ; month <= endMonth ; month++){... */\n      jump(tag_315)\n    tag_316:\n      pop\n        /* \"contracts/SupplyChainDataManagement.sol\":8816:8824  quantity */\n      dup2\n        /* \"contracts/SupplyChainDataManagement.sol\":8809:8824  return quantity */\n      swap3\n      pop\n      pop\n      pop\n        /* \"contracts/SupplyChainDataManagement.sol\":7012:8832  function weightedMovingAverageMethod(int k, int startMonth, int endMonth, string memory medicineName , string memory level) external returns (int256[] memory){... */\n    tag_295:\n      swap6\n      swap5\n      pop\n      pop\n      pop\n      pop\n      pop\n      jump\t// out\n        /* \"contracts/SupplyChainDataManagement.sol\":9044:9558  function randomString() public  payable returns(string memory){... */\n    tag_74:\n        /* \"contracts/SupplyChainDataManagement.sol\":9092:9105  string memory */\n      0x60\n        /* \"contracts/SupplyChainDataManagement.sol\":9117:9126  uint size */\n      0x00\n        /* \"contracts/SupplyChainDataManagement.sol\":9129:9131  10 */\n      0x0a\n        /* \"contracts/SupplyChainDataManagement.sol\":9117:9131  uint size = 10 */\n      swap1\n      pop\n        /* \"contracts/SupplyChainDataManagement.sol\":9142:9165  bytes memory randomWord */\n      0x00\n        /* \"contracts/SupplyChainDataManagement.sol\":9176:9180  size */\n      dup2\n        /* \"contracts/SupplyChainDataManagement.sol\":9166:9181  new bytes(size) */\n      0xffffffffffffffff\n      dup2\n      gt\n      iszero\n      tag_366\n      jumpi\n      tag_367\n      tag_199\n      jump\t// in\n    tag_367:\n    tag_366:\n      mload(0x40)\n      swap1\n      dup1\n      dup3\n      mstore\n      dup1\n      0x1f\n      add\n      not(0x1f)\n      and\n      0x20\n      add\n      dup3\n      add\n      0x40\n      mstore\n      dup1\n      iszero\n      tag_368\n      jumpi\n      dup2\n      0x20\n      add\n      0x01\n      dup3\n      mul\n      dup1\n      calldatasize\n      dup4\n      calldatacopy\n      dup1\n      dup3\n      add\n      swap2\n      pop\n      pop\n      swap1\n      pop\n    tag_368:\n      pop\n        /* \"contracts/SupplyChainDataManagement.sol\":9142:9181  bytes memory randomWord=new bytes(size) */\n      swap1\n      pop\n        /* \"contracts/SupplyChainDataManagement.sol\":9229:9247  bytes memory chars */\n      0x00\n        /* \"contracts/SupplyChainDataManagement.sol\":9260:9262  35 */\n      0x23\n        /* \"contracts/SupplyChainDataManagement.sol\":9250:9263  new bytes(35) */\n      0xffffffffffffffff\n      dup2\n      gt\n      iszero\n      tag_369\n      jumpi\n      tag_370\n      tag_199\n      jump\t// in\n    tag_370:\n    tag_369:\n      mload(0x40)\n      swap1\n      dup1\n      dup3\n      mstore\n      dup1\n      0x1f\n      add\n      not(0x1f)\n      and\n      0x20\n      add\n      dup3\n      add\n      0x40\n      mstore\n      dup1\n      iszero\n      tag_371\n      jumpi\n      dup2\n      0x20\n      add\n      0x01\n      dup3\n      mul\n      dup1\n      calldatasize\n      dup4\n      calldatacopy\n      dup1\n      dup3\n      add\n      swap2\n      pop\n      pop\n      swap1\n      pop\n    tag_371:\n      pop\n        /* \"contracts/SupplyChainDataManagement.sol\":9229:9263  bytes memory chars = new bytes(35) */\n      swap1\n      pop\n        /* \"contracts/SupplyChainDataManagement.sol\":9274:9317  chars=\"abcdefghijklmnopqrstuvwxyz123456789\" */\n      mload(0x40)\n      dup1\n      0x60\n      add\n      0x40\n      mstore\n      dup1\n      0x23\n      dup2\n      mstore\n      0x20\n      add\n      data_aea4f6927ea33467ca61411b72c5beee6f8d359515a97019be07e038950b279f\n      0x23\n      swap2\n      codecopy\n      swap1\n      pop\n        /* \"contracts/SupplyChainDataManagement.sol\":9333:9339  uint i */\n      0x00\n        /* \"contracts/SupplyChainDataManagement.sol\":9328:9515  for (uint i=0;i<size;i++){... */\n    tag_372:\n        /* \"contracts/SupplyChainDataManagement.sol\":9344:9348  size */\n      dup4\n        /* \"contracts/SupplyChainDataManagement.sol\":9342:9343  i */\n      dup2\n        /* \"contracts/SupplyChainDataManagement.sol\":9342:9348  i<size */\n      lt\n        /* \"contracts/SupplyChainDataManagement.sol\":9328:9515  for (uint i=0;i<size;i++){... */\n      iszero\n      tag_373\n      jumpi\n        /* \"contracts/SupplyChainDataManagement.sol\":9368:9385  uint randomNumber */\n      0x00\n        /* \"contracts/SupplyChainDataManagement.sol\":9388:9399  random2(35) */\n      tag_375\n        /* \"contracts/SupplyChainDataManagement.sol\":9396:9398  35 */\n      0x23\n        /* \"contracts/SupplyChainDataManagement.sol\":9388:9395  random2 */\n      tag_46\n        /* \"contracts/SupplyChainDataManagement.sol\":9388:9399  random2(35) */\n      jump\t// in\n    tag_375:\n        /* \"contracts/SupplyChainDataManagement.sol\":9368:9399  uint randomNumber = random2(35) */\n      swap1\n      pop\n        /* \"contracts/SupplyChainDataManagement.sol\":9484:9489  chars */\n      dup3\n        /* \"contracts/SupplyChainDataManagement.sol\":9490:9502  randomNumber */\n      dup2\n        /* \"contracts/SupplyChainDataManagement.sol\":9484:9503  chars[randomNumber] */\n      dup2\n      mload\n      dup2\n      lt\n      tag_376\n      jumpi\n      tag_377\n      tag_118\n      jump\t// in\n    tag_377:\n    tag_376:\n      0x20\n      add\n      add\n      mload\n      0xf8\n      shr\n      0xf8\n      shl\n        /* \"contracts/SupplyChainDataManagement.sol\":9470:9480  randomWord */\n      dup5\n        /* \"contracts/SupplyChainDataManagement.sol\":9481:9482  i */\n      dup4\n        /* \"contracts/SupplyChainDataManagement.sol\":9470:9483  randomWord[i] */\n      dup2\n      mload\n      dup2\n      lt\n      tag_378\n      jumpi\n      tag_379\n      tag_118\n      jump\t// in\n    tag_379:\n    tag_378:\n      0x20\n      add\n      add\n        /* \"contracts/SupplyChainDataManagement.sol\":9470:9503  randomWord[i]=chars[randomNumber] */\n      swap1\n      not(0xffffffffffffffffffffffffffffffffffffffffffffffffffffffffffffff)\n      and\n      swap1\n      dup2\n      0x00\n      byte\n      swap1\n      mstore8\n      pop\n        /* \"contracts/SupplyChainDataManagement.sol\":9353:9515  {... */\n      pop\n        /* \"contracts/SupplyChainDataManagement.sol\":9349:9352  i++ */\n      dup1\n      dup1\n      0x01\n      add\n      swap2\n      pop\n      pop\n        /* \"contracts/SupplyChainDataManagement.sol\":9328:9515  for (uint i=0;i<size;i++){... */\n      jump(tag_372)\n    tag_373:\n      pop\n        /* \"contracts/SupplyChainDataManagement.sol\":9539:9549  randomWord */\n      dup2\n        /* \"contracts/SupplyChainDataManagement.sol\":9525:9550  return string(randomWord) */\n      swap4\n      pop\n      pop\n      pop\n      pop\n        /* \"contracts/SupplyChainDataManagement.sol\":9044:9558  function randomString() public  payable returns(string memory){... */\n      swap1\n      jump\t// out\n        /* \"contracts/SupplyChainDataManagement.sol\":1209:1390  function compareStrings(string memory a, string memory b) public view returns (bool) {... */\n    tag_80:\n        /* \"contracts/SupplyChainDataManagement.sol\":1288:1292  bool */\n      0x00\n        /* \"contracts/SupplyChainDataManagement.sol\":1377:1378  b */\n      dup2\n        /* \"contracts/SupplyChainDataManagement.sol\":1359:1380  abi.encodePacked((b)) */\n      add(0x20, mload(0x40))\n      tag_381\n      swap2\n      swap1\n      tag_382\n      jump\t// in\n    tag_381:\n      mload(0x40)\n      0x20\n      dup2\n      dup4\n      sub\n      sub\n      dup2\n      mstore\n      swap1\n      0x40\n      mstore\n        /* \"contracts/SupplyChainDataManagement.sol\":1349:1381  keccak256(abi.encodePacked((b))) */\n      dup1\n      mload\n      swap1\n      0x20\n      add\n      keccak256\n        /* \"contracts/SupplyChainDataManagement.sol\":1341:1342  a */\n      dup4\n        /* \"contracts/SupplyChainDataManagement.sol\":1323:1344  abi.encodePacked((a)) */\n      add(0x20, mload(0x40))\n      tag_383\n      swap2\n      swap1\n      tag_382\n      jump\t// in\n    tag_383:\n      mload(0x40)\n      0x20\n      dup2\n      dup4\n      sub\n      sub\n      dup2\n      mstore\n      swap1\n      0x40\n      mstore\n        /* \"contracts/SupplyChainDataManagement.sol\":1313:1345  keccak256(abi.encodePacked((a))) */\n      dup1\n      mload\n      swap1\n      0x20\n      add\n      keccak256\n        /* \"contracts/SupplyChainDataManagement.sol\":1313:1381  keccak256(abi.encodePacked((a))) == keccak256(abi.encodePacked((b))) */\n      eq\n        /* \"contracts/SupplyChainDataManagement.sol\":1305:1382  return (keccak256(abi.encodePacked((a))) == keccak256(abi.encodePacked((b)))) */\n      swap1\n      pop\n        /* \"contracts/SupplyChainDataManagement.sol\":1209:1390  function compareStrings(string memory a, string memory b) public view returns (bool) {... */\n      swap3\n      swap2\n      pop\n      pop\n      jump\t// out\n        /* \"contracts/SupplyChainDataManagement.sol\":901:929  Medicine[] public  medicines */\n    tag_85:\n      0x01\n      dup2\n      dup2\n      sload\n      dup2\n      lt\n      tag_384\n      jumpi\n      0x00\n      dup1\n      revert\n    tag_384:\n      swap1\n      0x00\n      mstore\n      keccak256(0x00, 0x20)\n      swap1\n      0x0e\n      mul\n      add\n      0x00\n      swap2\n      pop\n      swap1\n      pop\n      dup1\n      0x00\n      add\n      dup1\n      sload\n      tag_386\n      swap1\n      tag_106\n      jump\t// in\n    tag_386:\n      dup1\n      0x1f\n      add\n      0x20\n      dup1\n      swap2\n      div\n      mul\n      0x20\n      add\n      mload(0x40)\n      swap1\n      dup2\n      add\n      0x40\n      mstore\n      dup1\n      swap3\n      swap2\n      swap1\n      dup2\n      dup2\n      mstore\n      0x20\n      add\n      dup3\n      dup1\n      sload\n      tag_387\n      swap1\n      tag_106\n      jump\t// in\n    tag_387:\n      dup1\n      iszero\n      tag_388\n      jumpi\n      dup1\n      0x1f\n      lt\n      tag_389\n      jumpi\n      0x0100\n      dup1\n      dup4\n      sload\n      div\n      mul\n      dup4\n      mstore\n      swap2\n      0x20\n      add\n      swap2\n      jump(tag_388)\n    tag_389:\n      dup3\n      add\n      swap2\n      swap1\n      0x00\n      mstore\n      keccak256(0x00, 0x20)\n      swap1\n    tag_390:\n      dup2\n      sload\n      dup2\n      mstore\n      swap1\n      0x01\n      add\n      swap1\n      0x20\n      add\n      dup1\n      dup4\n      gt\n      tag_390\n      jumpi\n      dup3\n      swap1\n      sub\n      0x1f\n      and\n      dup3\n      add\n      swap2\n    tag_388:\n      pop\n      pop\n      pop\n      pop\n      pop\n      swap1\n      dup1\n      0x01\n      add\n      dup1\n      sload\n      tag_391\n      swap1\n      tag_106\n      jump\t// in\n    tag_391:\n      dup1\n      0x1f\n      add\n      0x20\n      dup1\n      swap2\n      div\n      mul\n      0x20\n      add\n      mload(0x40)\n      swap1\n      dup2\n      add\n      0x40\n      mstore\n      dup1\n      swap3\n      swap2\n      swap1\n      dup2\n      dup2\n      mstore\n      0x20\n      add\n      dup3\n      dup1\n      sload\n      tag_392\n      swap1\n      tag_106\n      jump\t// in\n    tag_392:\n      dup1\n      iszero\n      tag_393\n      jumpi\n      dup1\n      0x1f\n      lt\n      tag_394\n      jumpi\n      0x0100\n      dup1\n      dup4\n      sload\n      div\n      mul\n      dup4\n      mstore\n      swap2\n      0x20\n      add\n      swap2\n      jump(tag_393)\n    tag_394:\n      dup3\n      add\n      swap2\n      swap1\n      0x00\n      mstore\n      keccak256(0x00, 0x20)\n      swap1\n    tag_395:\n      dup2\n      sload\n      dup2\n      mstore\n      swap1\n      0x01\n      add\n      swap1\n      0x20\n      add\n      dup1\n      dup4\n      gt\n      tag_395\n      jumpi\n      dup3\n      swap1\n      sub\n      0x1f\n      and\n      dup3\n      add\n      swap2\n    tag_393:\n      pop\n      pop\n      pop\n      pop\n      pop\n      swap1\n      dup1\n      0x02\n      add\n      dup1\n      sload\n      tag_396\n      swap1\n      tag_106\n      jump\t// in\n    tag_396:\n      dup1\n      0x1f\n      add\n      0x20\n      dup1\n      swap2\n      div\n      mul\n      0x20\n      add\n      mload(0x40)\n      swap1\n      dup2\n      add\n      0x40\n      mstore\n      dup1\n      swap3\n      swap2\n      swap1\n      dup2\n      dup2\n      mstore\n      0x20\n      add\n      dup3\n      dup1\n      sload\n      tag_397\n      swap1\n      tag_106\n      jump\t// in\n    tag_397:\n      dup1\n      iszero\n      tag_398\n      jumpi\n      dup1\n      0x1f\n      lt\n      tag_399\n      jumpi\n      0x0100\n      dup1\n      dup4\n      sload\n      div\n      mul\n      dup4\n      mstore\n      swap2\n      0x20\n      add\n      swap2\n      jump(tag_398)\n    tag_399:\n      dup3\n      add\n      swap2\n      swap1\n      0x00\n      mstore\n      keccak256(0x00, 0x20)\n      swap1\n    tag_400:\n      dup2\n      sload\n      dup2\n      mstore\n      swap1\n      0x01\n      add\n      swap1\n      0x20\n      add\n      dup1\n      dup4\n      gt\n      tag_400\n      jumpi\n      dup3\n      swap1\n      sub\n      0x1f\n      and\n      dup3\n      add\n      swap2\n    tag_398:\n      pop\n      pop\n      pop\n      pop\n      pop\n      swap1\n      dup1\n      0x03\n      add\n      sload\n      swap1\n      dup1\n      0x04\n      add\n      mload(0x40)\n      dup1\n      0x60\n      add\n      0x40\n      mstore\n      swap1\n      dup2\n      0x00\n      dup3\n      add\n      sload\n      dup2\n      mstore\n      0x20\n      add\n      0x01\n      dup3\n      add\n      sload\n      dup2\n      mstore\n      0x20\n      add\n      0x02\n      dup3\n      add\n      sload\n      dup2\n      mstore\n      pop\n      pop\n      swap1\n      dup1\n      0x07\n      add\n      dup1\n      sload\n      tag_401\n      swap1\n      tag_106\n      jump\t// in\n    tag_401:\n      dup1\n      0x1f\n      add\n      0x20\n      dup1\n      swap2\n      div\n      mul\n      0x20\n      add\n      mload(0x40)\n      swap1\n      dup2\n      add\n      0x40\n      mstore\n      dup1\n      swap3\n      swap2\n      swap1\n      dup2\n      dup2\n      mstore\n      0x20\n      add\n      dup3\n      dup1\n      sload\n      tag_402\n      swap1\n      tag_106\n      jump\t// in\n    tag_402:\n      dup1\n      iszero\n      tag_403\n      jumpi\n      dup1\n      0x1f\n      lt\n      tag_404\n      jumpi\n      0x0100\n      dup1\n      dup4\n      sload\n      div\n      mul\n      dup4\n      mstore\n      swap2\n      0x20\n      add\n      swap2\n      jump(tag_403)\n    tag_404:\n      dup3\n      add\n      swap2\n      swap1\n      0x00\n      mstore\n      keccak256(0x00, 0x20)\n      swap1\n    tag_405:\n      dup2\n      sload\n      dup2\n      mstore\n      swap1\n      0x01\n      add\n      swap1\n      0x20\n      add\n      dup1\n      dup4\n      gt\n      tag_405\n      jumpi\n      dup3\n      swap1\n      sub\n      0x1f\n      and\n      dup3\n      add\n      swap2\n    tag_403:\n      pop\n      pop\n      pop\n      pop\n      pop\n      swap1\n      dup1\n      0x08\n      add\n      mload(0x40)\n      dup1\n      0x60\n      add\n      0x40\n      mstore\n      swap1\n      dup2\n      0x00\n      dup3\n      add\n      sload\n      dup2\n      mstore\n      0x20\n      add\n      0x01\n      dup3\n      add\n      sload\n      dup2\n      mstore\n      0x20\n      add\n      0x02\n      dup3\n      add\n      sload\n      dup2\n      mstore\n      pop\n      pop\n      swap1\n      dup1\n      0x0b\n      add\n      mload(0x40)\n      dup1\n      0x60\n      add\n      0x40\n      mstore\n      swap1\n      dup2\n      0x00\n      dup3\n      add\n      sload\n      dup2\n      mstore\n      0x20\n      add\n      0x01\n      dup3\n      add\n      sload\n      dup2\n      mstore\n      0x20\n      add\n      0x02\n      dup3\n      add\n      sload\n      dup2\n      mstore\n      pop\n      pop\n      swap1\n      pop\n      dup9\n      jump\t// out\n        /* \"contracts/SupplyChainDataManagement.sol\":1440:2084  function registerUser(string calldata _aadharID, string calldata _name, string calldata _stakeholderType) public returns (string memory) {... */\n    tag_92:\n        /* \"contracts/SupplyChainDataManagement.sol\":1562:1575  string memory */\n      0x60\n        /* \"contracts/SupplyChainDataManagement.sol\":1667:1688  string memory _userID */\n      0x00\n        /* \"contracts/SupplyChainDataManagement.sol\":1691:1705  randomString() */\n      tag_407\n        /* \"contracts/SupplyChainDataManagement.sol\":1691:1703  randomString */\n      tag_74\n        /* \"contracts/SupplyChainDataManagement.sol\":1691:1705  randomString() */\n      jump\t// in\n    tag_407:\n        /* \"contracts/SupplyChainDataManagement.sol\":1667:1705  string memory _userID = randomString() */\n      swap1\n      pop\n        /* \"contracts/SupplyChainDataManagement.sol\":1716:1732  User memory user */\n      0x00\n        /* \"contracts/SupplyChainDataManagement.sol\":1735:1785  User(_userID, _aadharID, _name , _stakeholderType) */\n      mload(0x40)\n      dup1\n      0x80\n      add\n      0x40\n      mstore\n      dup1\n        /* \"contracts/SupplyChainDataManagement.sol\":1740:1747  _userID */\n      dup4\n        /* \"contracts/SupplyChainDataManagement.sol\":1735:1785  User(_userID, _aadharID, _name , _stakeholderType) */\n      dup2\n      mstore\n      0x20\n      add\n        /* \"contracts/SupplyChainDataManagement.sol\":1749:1758  _aadharID */\n      dup11\n      dup11\n        /* \"contracts/SupplyChainDataManagement.sol\":1735:1785  User(_userID, _aadharID, _name , _stakeholderType) */\n      dup1\n      dup1\n      0x1f\n      add\n      0x20\n      dup1\n      swap2\n      div\n      mul\n      0x20\n      add\n      mload(0x40)\n      swap1\n      dup2\n      add\n      0x40\n      mstore\n      dup1\n      swap4\n      swap3\n      swap2\n      swap1\n      dup2\n      dup2\n      mstore\n      0x20\n      add\n      dup4\n      dup4\n      dup1\n      dup3\n      dup5\n      calldatacopy\n      0x00\n      dup2\n      dup5\n      add\n      mstore\n      not(0x1f)\n      0x1f\n      dup3\n      add\n      and\n      swap1\n      pop\n      dup1\n      dup4\n      add\n      swap3\n      pop\n      pop\n      pop\n      pop\n      pop\n      pop\n      pop\n      dup2\n      mstore\n      0x20\n      add\n        /* \"contracts/SupplyChainDataManagement.sol\":1760:1765  _name */\n      dup9\n      dup9\n        /* \"contracts/SupplyChainDataManagement.sol\":1735:1785  User(_userID, _aadharID, _name , _stakeholderType) */\n      dup1\n      dup1\n      0x1f\n      add\n      0x20\n      dup1\n      swap2\n      div\n      mul\n      0x20\n      add\n      mload(0x40)\n      swap1\n      dup2\n      add\n      0x40\n      mstore\n      dup1\n      swap4\n      swap3\n      swap2\n      swap1\n      dup2\n      dup2\n      mstore\n      0x20\n      add\n      dup4\n      dup4\n      dup1\n      dup3\n      dup5\n      calldatacopy\n      0x00\n      dup2\n      dup5\n      add\n      mstore\n      not(0x1f)\n      0x1f\n      dup3\n      add\n      and\n      swap1\n      pop\n      dup1\n      dup4\n      add\n      swap3\n      pop\n      pop\n      pop\n      pop\n      pop\n      pop\n      pop\n      dup2\n      mstore\n      0x20\n      add\n        /* \"contracts/SupplyChainDataManagement.sol\":1768:1784  _stakeholderType */\n      dup7\n      dup7\n        /* \"contracts/SupplyChainDataManagement.sol\":1735:1785  User(_userID, _aadharID, _name , _stakeholderType) */\n      dup1\n      dup1\n      0x1f\n      add\n      0x20\n      dup1\n      swap2\n      div\n      mul\n      0x20\n      add\n      mload(0x40)\n      swap1\n      dup2\n      add\n      0x40\n      mstore\n      dup1\n      swap4\n      swap3\n      swap2\n      swap1\n      dup2\n      dup2\n      mstore\n      0x20\n      add\n      dup4\n      dup4\n      dup1\n      dup3\n      dup5\n      calldatacopy\n      0x00\n      dup2\n      dup5\n      add\n      mstore\n      not(0x1f)\n      0x1f\n      dup3\n      add\n      and\n      swap1\n      pop\n      dup1\n      dup4\n      add\n      swap3\n      pop\n      pop\n      pop\n      pop\n      pop\n      pop\n      pop\n      dup2\n      mstore\n      pop\n        /* \"contracts/SupplyChainDataManagement.sol\":1716:1785  User memory user = User(_userID, _aadharID, _name , _stakeholderType) */\n      swap1\n      pop\n        /* \"contracts/SupplyChainDataManagement.sol\":1862:1863  0 */\n      0x00\n        /* \"contracts/SupplyChainDataManagement.sol\":1858:1859  i */\n      0x02\n        /* \"contracts/SupplyChainDataManagement.sol\":1858:1863  i = 0 */\n      dup2\n      swap1\n      sstore\n      pop\n        /* \"contracts/SupplyChainDataManagement.sol\":1854:2025  for(i = 0 ; i < users.length ; i++) {... */\n    tag_408:\n        /* \"contracts/SupplyChainDataManagement.sol\":1870:1875  users */\n      0x00\n        /* \"contracts/SupplyChainDataManagement.sol\":1870:1882  users.length */\n      dup1\n      sload\n      swap1\n      pop\n        /* \"contracts/SupplyChainDataManagement.sol\":1866:1867  i */\n      sload(0x02)\n        /* \"contracts/SupplyChainDataManagement.sol\":1866:1882  i < users.length */\n      lt\n        /* \"contracts/SupplyChainDataManagement.sol\":1854:2025  for(i = 0 ; i < users.length ; i++) {... */\n      iszero\n      tag_409\n      jumpi\n        /* \"contracts/SupplyChainDataManagement.sol\":1908:1954  compareStrings(users[i].aadharID , _aadharID ) */\n      tag_411\n        /* \"contracts/SupplyChainDataManagement.sol\":1923:1928  users */\n      0x00\n        /* \"contracts/SupplyChainDataManagement.sol\":1929:1930  i */\n      sload(0x02)\n        /* \"contracts/SupplyChainDataManagement.sol\":1923:1931  users[i] */\n      dup2\n      sload\n      dup2\n      lt\n      tag_412\n      jumpi\n      tag_413\n      tag_118\n      jump\t// in\n    tag_413:\n    tag_412:\n      swap1\n      0x00\n      mstore\n      keccak256(0x00, 0x20)\n      swap1\n      0x04\n      mul\n      add\n        /* \"contracts/SupplyChainDataManagement.sol\":1923:1940  users[i].aadharID */\n      0x01\n      add\n        /* \"contracts/SupplyChainDataManagement.sol\":1908:1954  compareStrings(users[i].aadharID , _aadharID ) */\n      dup1\n      sload\n      tag_415\n      swap1\n      tag_106\n      jump\t// in\n    tag_415:\n      dup1\n      0x1f\n      add\n      0x20\n      dup1\n      swap2\n      div\n      mul\n      0x20\n      add\n      mload(0x40)\n      swap1\n      dup2\n      add\n      0x40\n      mstore\n      dup1\n      swap3\n      swap2\n      swap1\n      dup2\n      dup2\n      mstore\n      0x20\n      add\n      dup3\n      dup1\n      sload\n      tag_416\n      swap1\n      tag_106\n      jump\t// in\n    tag_416:\n      dup1\n      iszero\n      tag_417\n      jumpi\n      dup1\n      0x1f\n      lt\n      tag_418\n      jumpi\n      0x0100\n      dup1\n      dup4\n      sload\n      div\n      mul\n      dup4\n      mstore\n      swap2\n      0x20\n      add\n      swap2\n      jump(tag_417)\n    tag_418:\n      dup3\n      add\n      swap2\n      swap1\n      0x00\n      mstore\n      keccak256(0x00, 0x20)\n      swap1\n    tag_419:\n      dup2\n      sload\n      dup2\n      mstore\n      swap1\n      0x01\n      add\n      swap1\n      0x20\n      add\n      dup1\n      dup4\n      gt\n      tag_419\n      jumpi\n      dup3\n      swap1\n      sub\n      0x1f\n      and\n      dup3\n      add\n      swap2\n    tag_417:\n      pop\n      pop\n      pop\n      pop\n      pop\n        /* \"contracts/SupplyChainDataManagement.sol\":1943:1952  _aadharID */\n      dup11\n      dup11\n        /* \"contracts/SupplyChainDataManagement.sol\":1908:1954  compareStrings(users[i].aadharID , _aadharID ) */\n      dup1\n      dup1\n      0x1f\n      add\n      0x20\n      dup1\n      swap2\n      div\n      mul\n      0x20\n      add\n      mload(0x40)\n      swap1\n      dup2\n      add\n      0x40\n      mstore\n      dup1\n      swap4\n      swap3\n      swap2\n      swap1\n      dup2\n      dup2\n      mstore\n      0x20\n      add\n      dup4\n      dup4\n      dup1\n      dup3\n      dup5\n      calldatacopy\n      0x00\n      dup2\n      dup5\n      add\n      mstore\n      not(0x1f)\n      0x1f\n      dup3\n      add\n      and\n      swap1\n      pop\n      dup1\n      dup4\n      add\n      swap3\n      pop\n      pop\n      pop\n      pop\n      pop\n      pop\n      pop\n        /* \"contracts/SupplyChainDataManagement.sol\":1908:1922  compareStrings */\n      tag_80\n        /* \"contracts/SupplyChainDataManagement.sol\":1908:1954  compareStrings(users[i].aadharID , _aadharID ) */\n      jump\t// in\n    tag_411:\n        /* \"contracts/SupplyChainDataManagement.sol\":1905:2014  if(compareStrings(users[i].aadharID , _aadharID )) {... */\n      iszero\n      tag_420\n      jumpi\n        /* \"contracts/SupplyChainDataManagement.sol\":1975:1998  return \"Already Exists\" */\n      mload(0x40)\n      dup1\n      0x40\n      add\n      0x40\n      mstore\n      dup1\n      0x0e\n      dup2\n      mstore\n      0x20\n      add\n      0x416c726561647920457869737473000000000000000000000000000000000000\n      dup2\n      mstore\n      pop\n      swap3\n      pop\n      pop\n      pop\n      jump(tag_406)\n        /* \"contracts/SupplyChainDataManagement.sol\":1905:2014  if(compareStrings(users[i].aadharID , _aadharID )) {... */\n    tag_420:\n        /* \"contracts/SupplyChainDataManagement.sol\":1885:1886  i */\n      0x02\n      0x00\n        /* \"contracts/SupplyChainDataManagement.sol\":1885:1888  i++ */\n      dup2\n      sload\n      dup1\n      swap3\n      swap2\n      swap1\n      tag_421\n      swap1\n      tag_166\n      jump\t// in\n    tag_421:\n      swap2\n      swap1\n      pop\n      sstore\n      pop\n        /* \"contracts/SupplyChainDataManagement.sol\":1854:2025  for(i = 0 ; i < users.length ; i++) {... */\n      jump(tag_408)\n    tag_409:\n        /* \"contracts/SupplyChainDataManagement.sol\":2035:2040  users */\n      0x00\n        /* \"contracts/SupplyChainDataManagement.sol\":2046:2050  user */\n      dup2\n        /* \"contracts/SupplyChainDataManagement.sol\":2035:2051  users.push(user) */\n      swap1\n      dup1\n      0x01\n      dup2\n      sload\n      add\n      dup1\n      dup3\n      sstore\n      dup1\n      swap2\n      pop\n      pop\n      0x01\n      swap1\n      sub\n      swap1\n      0x00\n      mstore\n      keccak256(0x00, 0x20)\n      swap1\n      0x04\n      mul\n      add\n      0x00\n      swap1\n      swap2\n      swap1\n      swap2\n      swap1\n      swap2\n      pop\n      0x00\n      dup3\n      add\n      mload\n      dup2\n      0x00\n      add\n      swap1\n      dup2\n      tag_423\n      swap2\n      swap1\n      tag_155\n      jump\t// in\n    tag_423:\n      pop\n      0x20\n      dup3\n      add\n      mload\n      dup2\n      0x01\n      add\n      swap1\n      dup2\n      tag_424\n      swap2\n      swap1\n      tag_155\n      jump\t// in\n    tag_424:\n      pop\n      0x40\n      dup3\n      add\n      mload\n      dup2\n      0x02\n      add\n      swap1\n      dup2\n      tag_425\n      swap2\n      swap1\n      tag_155\n      jump\t// in\n    tag_425:\n      pop\n      0x60\n      dup3\n      add\n      mload\n      dup2\n      0x03\n      add\n      swap1\n      dup2\n      tag_426\n      swap2\n      swap1\n      tag_155\n      jump\t// in\n    tag_426:\n      pop\n      pop\n      pop\n        /* \"contracts/SupplyChainDataManagement.sol\":2069:2076  _userID */\n      dup2\n        /* \"contracts/SupplyChainDataManagement.sol\":2062:2076  return _userID */\n      swap3\n      pop\n      pop\n      pop\n        /* \"contracts/SupplyChainDataManagement.sol\":1440:2084  function registerUser(string calldata _aadharID, string calldata _name, string calldata _stakeholderType) public returns (string memory) {... */\n    tag_406:\n      swap7\n      swap6\n      pop\n      pop\n      pop\n      pop\n      pop\n      pop\n      jump\t// out\n        /* \"contracts/SupplyChainDataManagement.sol\":6864:7004  function ABS(int256 a) public view returns (int256){... */\n    tag_98:\n        /* \"contracts/SupplyChainDataManagement.sol\":6908:6914  int256 */\n      0x00\n        /* \"contracts/SupplyChainDataManagement.sol\":6933:6934  0 */\n      dup1\n        /* \"contracts/SupplyChainDataManagement.sol\":6929:6930  a */\n      dup3\n        /* \"contracts/SupplyChainDataManagement.sol\":6929:6934  a < 0 */\n      slt\n        /* \"contracts/SupplyChainDataManagement.sol\":6926:6978  if(a < 0) {... */\n      iszero\n      tag_428\n      jumpi\n        /* \"contracts/SupplyChainDataManagement.sol\":6963:6965  -1 */\n      0xffffffffffffffffffffffffffffffffffffffffffffffffffffffffffffffff\n        /* \"contracts/SupplyChainDataManagement.sol\":6959:6960  a */\n      dup3\n        /* \"contracts/SupplyChainDataManagement.sol\":6959:6965  a * -1 */\n      tag_429\n      swap2\n      swap1\n      tag_312\n      jump\t// in\n    tag_429:\n        /* \"contracts/SupplyChainDataManagement.sol\":6951:6966  return (a * -1) */\n      swap1\n      pop\n      jump(tag_427)\n        /* \"contracts/SupplyChainDataManagement.sol\":6926:6978  if(a < 0) {... */\n    tag_428:\n        /* \"contracts/SupplyChainDataManagement.sol\":6995:6996  a */\n      dup2\n        /* \"contracts/SupplyChainDataManagement.sol\":6988:6996  return a */\n      swap1\n      pop\n        /* \"contracts/SupplyChainDataManagement.sol\":6864:7004  function ABS(int256 a) public view returns (int256){... */\n    tag_427:\n      swap2\n      swap1\n      pop\n      jump\t// out\n        /* \"contracts/SupplyChainDataManagement.sol\":6426:6517  function test() public view returns (Medicine[] memory) {... */\n    tag_102:\n        /* \"contracts/SupplyChainDataManagement.sol\":6463:6480  Medicine[] memory */\n      0x60\n        /* \"contracts/SupplyChainDataManagement.sol\":6500:6509  medicines */\n      0x01\n        /* \"contracts/SupplyChainDataManagement.sol\":6493:6509  return medicines */\n      dup1\n      sload\n      dup1\n      0x20\n      mul\n      0x20\n      add\n      mload(0x40)\n      swap1\n      dup2\n      add\n      0x40\n      mstore\n      dup1\n      swap3\n      swap2\n      swap1\n      dup2\n      dup2\n      mstore\n      0x20\n      add\n      0x00\n      swap1\n    tag_431:\n      dup3\n      dup3\n      lt\n      iszero\n      tag_432\n      jumpi\n      dup4\n      dup3\n      swap1\n      0x00\n      mstore\n      keccak256(0x00, 0x20)\n      swap1\n      0x0e\n      mul\n      add\n      mload(0x40)\n      dup1\n      0x0100\n      add\n      0x40\n      mstore\n      swap1\n      dup2\n      0x00\n      dup3\n      add\n      dup1\n      sload\n      tag_434\n      swap1\n      tag_106\n      jump\t// in\n    tag_434:\n      dup1\n      0x1f\n      add\n      0x20\n      dup1\n      swap2\n      div\n      mul\n      0x20\n      add\n      mload(0x40)\n      swap1\n      dup2\n      add\n      0x40\n      mstore\n      dup1\n      swap3\n      swap2\n      swap1\n      dup2\n      dup2\n      mstore\n      0x20\n      add\n      dup3\n      dup1\n      sload\n      tag_435\n      swap1\n      tag_106\n      jump\t// in\n    tag_435:\n      dup1\n      iszero\n      tag_436\n      jumpi\n      dup1\n      0x1f\n      lt\n      tag_437\n      jumpi\n      0x0100\n      dup1\n      dup4\n      sload\n      div\n      mul\n      dup4\n      mstore\n      swap2\n      0x20\n      add\n      swap2\n      jump(tag_436)\n    tag_437:\n      dup3\n      add\n      swap2\n      swap1\n      0x00\n      mstore\n      keccak256(0x00, 0x20)\n      swap1\n    tag_438:\n      dup2\n      sload\n      dup2\n      mstore\n      swap1\n      0x01\n      add\n      swap1\n      0x20\n      add\n      dup1\n      dup4\n      gt\n      tag_438\n      jumpi\n      dup3\n      swap1\n      sub\n      0x1f\n      and\n      dup3\n      add\n      swap2\n    tag_436:\n      pop\n      pop\n      pop\n      pop\n      pop\n      dup2\n      mstore\n      0x20\n      add\n      0x01\n      dup3\n      add\n      dup1\n      sload\n      tag_439\n      swap1\n      tag_106\n      jump\t// in\n    tag_439:\n      dup1\n      0x1f\n      add\n      0x20\n      dup1\n      swap2\n      div\n      mul\n      0x20\n      add\n      mload(0x40)\n      swap1\n      dup2\n      add\n      0x40\n      mstore\n      dup1\n      swap3\n      swap2\n      swap1\n      dup2\n      dup2\n      mstore\n      0x20\n      add\n      dup3\n      dup1\n      sload\n      tag_440\n      swap1\n      tag_106\n      jump\t// in\n    tag_440:\n      dup1\n      iszero\n      tag_441\n      jumpi\n      dup1\n      0x1f\n      lt\n      tag_442\n      jumpi\n      0x0100\n      dup1\n      dup4\n      sload\n      div\n      mul\n      dup4\n      mstore\n      swap2\n      0x20\n      add\n      swap2\n      jump(tag_441)\n    tag_442:\n      dup3\n      add\n      swap2\n      swap1\n      0x00\n      mstore\n      keccak256(0x00, 0x20)\n      swap1\n    tag_443:\n      dup2\n      sload\n      dup2\n      mstore\n      swap1\n      0x01\n      add\n      swap1\n      0x20\n      add\n      dup1\n      dup4\n      gt\n      tag_443\n      jumpi\n      dup3\n      swap1\n      sub\n      0x1f\n      and\n      dup3\n      add\n      swap2\n    tag_441:\n      pop\n      pop\n      pop\n      pop\n      pop\n      dup2\n      mstore\n      0x20\n      add\n      0x02\n      dup3\n      add\n      dup1\n      sload\n      tag_444\n      swap1\n      tag_106\n      jump\t// in\n    tag_444:\n      dup1\n      0x1f\n      add\n      0x20\n      dup1\n      swap2\n      div\n      mul\n      0x20\n      add\n      mload(0x40)\n      swap1\n      dup2\n      add\n      0x40\n      mstore\n      dup1\n      swap3\n      swap2\n      swap1\n      dup2\n      dup2\n      mstore\n      0x20\n      add\n      dup3\n      dup1\n      sload\n      tag_445\n      swap1\n      tag_106\n      jump\t// in\n    tag_445:\n      dup1\n      iszero\n      tag_446\n      jumpi\n      dup1\n      0x1f\n      lt\n      tag_447\n      jumpi\n      0x0100\n      dup1\n      dup4\n      sload\n      div\n      mul\n      dup4\n      mstore\n      swap2\n      0x20\n      add\n      swap2\n      jump(tag_446)\n    tag_447:\n      dup3\n      add\n      swap2\n      swap1\n      0x00\n      mstore\n      keccak256(0x00, 0x20)\n      swap1\n    tag_448:\n      dup2\n      sload\n      dup2\n      mstore\n      swap1\n      0x01\n      add\n      swap1\n      0x20\n      add\n      dup1\n      dup4\n      gt\n      tag_448\n      jumpi\n      dup3\n      swap1\n      sub\n      0x1f\n      and\n      dup3\n      add\n      swap2\n    tag_446:\n      pop\n      pop\n      pop\n      pop\n      pop\n      dup2\n      mstore\n      0x20\n      add\n      0x03\n      dup3\n      add\n      sload\n      dup2\n      mstore\n      0x20\n      add\n      0x04\n      dup3\n      add\n      mload(0x40)\n      dup1\n      0x60\n      add\n      0x40\n      mstore\n      swap1\n      dup2\n      0x00\n      dup3\n      add\n      sload\n      dup2\n      mstore\n      0x20\n      add\n      0x01\n      dup3\n      add\n      sload\n      dup2\n      mstore\n      0x20\n      add\n      0x02\n      dup3\n      add\n      sload\n      dup2\n      mstore\n      pop\n      pop\n      dup2\n      mstore\n      0x20\n      add\n      0x07\n      dup3\n      add\n      dup1\n      sload\n      tag_449\n      swap1\n      tag_106\n      jump\t// in\n    tag_449:\n      dup1\n      0x1f\n      add\n      0x20\n      dup1\n      swap2\n      div\n      mul\n      0x20\n      add\n      mload(0x40)\n      swap1\n      dup2\n      add\n      0x40\n      mstore\n      dup1\n      swap3\n      swap2\n      swap1\n      dup2\n      dup2\n      mstore\n      0x20\n      add\n      dup3\n      dup1\n      sload\n      tag_450\n      swap1\n      tag_106\n      jump\t// in\n    tag_450:\n      dup1\n      iszero\n      tag_451\n      jumpi\n      dup1\n      0x1f\n      lt\n      tag_452\n      jumpi\n      0x0100\n      dup1\n      dup4\n      sload\n      div\n      mul\n      dup4\n      mstore\n      swap2\n      0x20\n      add\n      swap2\n      jump(tag_451)\n    tag_452:\n      dup3\n      add\n      swap2\n      swap1\n      0x00\n      mstore\n      keccak256(0x00, 0x20)\n      swap1\n    tag_453:\n      dup2\n      sload\n      dup2\n      mstore\n      swap1\n      0x01\n      add\n      swap1\n      0x20\n      add\n      dup1\n      dup4\n      gt\n      tag_453\n      jumpi\n      dup3\n      swap1\n      sub\n      0x1f\n      and\n      dup3\n      add\n      swap2\n    tag_451:\n      pop\n      pop\n      pop\n      pop\n      pop\n      dup2\n      mstore\n      0x20\n      add\n      0x08\n      dup3\n      add\n      mload(0x40)\n      dup1\n      0x60\n      add\n      0x40\n      mstore\n      swap1\n      dup2\n      0x00\n      dup3\n      add\n      sload\n      dup2\n      mstore\n      0x20\n      add\n      0x01\n      dup3\n      add\n      sload\n      dup2\n      mstore\n      0x20\n      add\n      0x02\n      dup3\n      add\n      sload\n      dup2\n      mstore\n      pop\n      pop\n      dup2\n      mstore\n      0x20\n      add\n      0x0b\n      dup3\n      add\n      mload(0x40)\n      dup1\n      0x60\n      add\n      0x40\n      mstore\n      swap1\n      dup2\n      0x00\n      dup3\n      add\n      sload\n      dup2\n      mstore\n      0x20\n      add\n      0x01\n      dup3\n      add\n      sload\n      dup2\n      mstore\n      0x20\n      add\n      0x02\n      dup3\n      add\n      sload\n      dup2\n      mstore\n      pop\n      pop\n      dup2\n      mstore\n      pop\n      pop\n      dup2\n      mstore\n      0x20\n      add\n      swap1\n      0x01\n      add\n      swap1\n      jump(tag_431)\n    tag_432:\n      pop\n      pop\n      pop\n      pop\n      swap1\n      pop\n        /* \"contracts/SupplyChainDataManagement.sol\":6426:6517  function test() public view returns (Medicine[] memory) {... */\n      swap1\n      jump\t// out\n    tag_188:\n      pop\n      dup1\n      sload\n      tag_454\n      swap1\n      tag_106\n      jump\t// in\n    tag_454:\n      0x00\n      dup3\n      sstore\n      dup1\n      0x1f\n      lt\n      tag_456\n      jumpi\n      pop\n      jump(tag_455)\n    tag_456:\n      0x1f\n      add\n      0x20\n      swap1\n      div\n      swap1\n      0x00\n      mstore\n      keccak256(0x00, 0x20)\n      swap1\n      dup2\n      add\n      swap1\n      tag_457\n      swap2\n      swap1\n      tag_458\n      jump\t// in\n    tag_457:\n    tag_455:\n      pop\n      jump\t// out\n    tag_458:\n    tag_459:\n      dup1\n      dup3\n      gt\n      iszero\n      tag_460\n      jumpi\n      0x00\n      dup2\n      0x00\n      swap1\n      sstore\n      pop\n      0x01\n      add\n      jump(tag_459)\n    tag_460:\n      pop\n      swap1\n      jump\t// out\n        /* \"#utility.yul\":7:106   */\n    tag_461:\n        /* \"#utility.yul\":59:65   */\n      0x00\n        /* \"#utility.yul\":93:98   */\n      dup2\n        /* \"#utility.yul\":87:99   */\n      mload\n        /* \"#utility.yul\":77:99   */\n      swap1\n      pop\n        /* \"#utility.yul\":7:106   */\n      swap2\n      swap1\n      pop\n      jump\t// out\n        /* \"#utility.yul\":112:281   */\n    tag_462:\n        /* \"#utility.yul\":196:207   */\n      0x00\n        /* \"#utility.yul\":230:236   */\n      dup3\n        /* \"#utility.yul\":225:228   */\n      dup3\n        /* \"#utility.yul\":218:237   */\n      mstore\n        /* \"#utility.yul\":270:274   */\n      0x20\n        /* \"#utility.yul\":265:268   */\n      dup3\n        /* \"#utility.yul\":261:275   */\n      add\n        /* \"#utility.yul\":246:275   */\n      swap1\n      pop\n        /* \"#utility.yul\":112:281   */\n      swap3\n      swap2\n      pop\n      pop\n      jump\t// out\n        /* \"#utility.yul\":287:533   */\n    tag_463:\n        /* \"#utility.yul\":368:369   */\n      0x00\n        /* \"#utility.yul\":378:491   */\n    tag_552:\n        /* \"#utility.yul\":392:398   */\n      dup4\n        /* \"#utility.yul\":389:390   */\n      dup2\n        /* \"#utility.yul\":386:399   */\n      lt\n        /* \"#utility.yul\":378:491   */\n      iszero\n      tag_554\n      jumpi\n        /* \"#utility.yul\":477:478   */\n      dup1\n        /* \"#utility.yul\":472:475   */\n      dup3\n        /* \"#utility.yul\":468:479   */\n      add\n        /* \"#utility.yul\":462:480   */\n      mload\n        /* \"#utility.yul\":458:459   */\n      dup2\n        /* \"#utility.yul\":453:456   */\n      dup5\n        /* \"#utility.yul\":449:460   */\n      add\n        /* \"#utility.yul\":442:481   */\n      mstore\n        /* \"#utility.yul\":414:416   */\n      0x20\n        /* \"#utility.yul\":411:412   */\n      dup2\n        /* \"#utility.yul\":407:417   */\n      add\n        /* \"#utility.yul\":402:417   */\n      swap1\n      pop\n        /* \"#utility.yul\":378:491   */\n      jump(tag_552)\n    tag_554:\n        /* \"#utility.yul\":525:526   */\n      0x00\n        /* \"#utility.yul\":516:522   */\n      dup5\n        /* \"#utility.yul\":511:514   */\n      dup5\n        /* \"#utility.yul\":507:523   */\n      add\n        /* \"#utility.yul\":500:527   */\n      mstore\n        /* \"#utility.yul\":349:533   */\n      pop\n        /* \"#utility.yul\":287:533   */\n      pop\n      pop\n      pop\n      jump\t// out\n        /* \"#utility.yul\":539:641   */\n    tag_464:\n        /* \"#utility.yul\":580:586   */\n      0x00\n        /* \"#utility.yul\":631:633   */\n      0x1f\n        /* \"#utility.yul\":627:634   */\n      not\n        /* \"#utility.yul\":622:624   */\n      0x1f\n        /* \"#utility.yul\":615:620   */\n      dup4\n        /* \"#utility.yul\":611:625   */\n      add\n        /* \"#utility.yul\":607:635   */\n      and\n        /* \"#utility.yul\":597:635   */\n      swap1\n      pop\n        /* \"#utility.yul\":539:641   */\n      swap2\n      swap1\n      pop\n      jump\t// out\n        /* \"#utility.yul\":647:1024   */\n    tag_465:\n        /* \"#utility.yul\":735:738   */\n      0x00\n        /* \"#utility.yul\":763:802   */\n      tag_557\n        /* \"#utility.yul\":796:801   */\n      dup3\n        /* \"#utility.yul\":763:802   */\n      tag_461\n      jump\t// in\n    tag_557:\n        /* \"#utility.yul\":818:889   */\n      tag_558\n        /* \"#utility.yul\":882:888   */\n      dup2\n        /* \"#utility.yul\":877:880   */\n      dup6\n        /* \"#utility.yul\":818:889   */\n      tag_462\n      jump\t// in\n    tag_558:\n        /* \"#utility.yul\":811:889   */\n      swap4\n      pop\n        /* \"#utility.yul\":898:963   */\n      tag_559\n        /* \"#utility.yul\":956:962   */\n      dup2\n        /* \"#utility.yul\":951:954   */\n      dup6\n        /* \"#utility.yul\":944:948   */\n      0x20\n        /* \"#utility.yul\":937:942   */\n      dup7\n        /* \"#utility.yul\":933:949   */\n      add\n        /* \"#utility.yul\":898:963   */\n      tag_463\n      jump\t// in\n    tag_559:\n        /* \"#utility.yul\":988:1017   */\n      tag_560\n        /* \"#utility.yul\":1010:1016   */\n      dup2\n        /* \"#utility.yul\":988:1017   */\n      tag_464\n      jump\t// in\n    tag_560:\n        /* \"#utility.yul\":983:986   */\n      dup5\n        /* \"#utility.yul\":979:1018   */\n      add\n        /* \"#utility.yul\":972:1018   */\n      swap2\n      pop\n        /* \"#utility.yul\":739:1024   */\n      pop\n        /* \"#utility.yul\":647:1024   */\n      swap3\n      swap2\n      pop\n      pop\n      jump\t// out\n        /* \"#utility.yul\":1030:1343   */\n    tag_24:\n        /* \"#utility.yul\":1143:1147   */\n      0x00\n        /* \"#utility.yul\":1181:1183   */\n      0x20\n        /* \"#utility.yul\":1170:1179   */\n      dup3\n        /* \"#utility.yul\":1166:1184   */\n      add\n        /* \"#utility.yul\":1158:1184   */\n      swap1\n      pop\n        /* \"#utility.yul\":1230:1239   */\n      dup2\n        /* \"#utility.yul\":1224:1228   */\n      dup2\n        /* \"#utility.yul\":1220:1240   */\n      sub\n        /* \"#utility.yul\":1216:1217   */\n      0x00\n        /* \"#utility.yul\":1205:1214   */\n      dup4\n        /* \"#utility.yul\":1201:1218   */\n      add\n        /* \"#utility.yul\":1194:1241   */\n      mstore\n        /* \"#utility.yul\":1258:1336   */\n      tag_562\n        /* \"#utility.yul\":1331:1335   */\n      dup2\n        /* \"#utility.yul\":1322:1328   */\n      dup5\n        /* \"#utility.yul\":1258:1336   */\n      tag_465\n      jump\t// in\n    tag_562:\n        /* \"#utility.yul\":1250:1336   */\n      swap1\n      pop\n        /* \"#utility.yul\":1030:1343   */\n      swap3\n      swap2\n      pop\n      pop\n      jump\t// out\n        /* \"#utility.yul\":1349:1424   */\n    tag_466:\n        /* \"#utility.yul\":1382:1388   */\n      0x00\n        /* \"#utility.yul\":1415:1417   */\n      0x40\n        /* \"#utility.yul\":1409:1418   */\n      mload\n        /* \"#utility.yul\":1399:1418   */\n      swap1\n      pop\n        /* \"#utility.yul\":1349:1424   */\n      swap1\n      jump\t// out\n        /* \"#utility.yul\":1430:1547   */\n    tag_467:\n        /* \"#utility.yul\":1539:1540   */\n      0x00\n        /* \"#utility.yul\":1536:1537   */\n      dup1\n        /* \"#utility.yul\":1529:1541   */\n      revert\n        /* \"#utility.yul\":1553:1670   */\n    tag_468:\n        /* \"#utility.yul\":1662:1663   */\n      0x00\n        /* \"#utility.yul\":1659:1660   */\n      dup1\n        /* \"#utility.yul\":1652:1664   */\n      revert\n        /* \"#utility.yul\":1676:1793   */\n    tag_469:\n        /* \"#utility.yul\":1785:1786   */\n      0x00\n        /* \"#utility.yul\":1782:1783   */\n      dup1\n        /* \"#utility.yul\":1775:1787   */\n      revert\n        /* \"#utility.yul\":1799:1916   */\n    tag_470:\n        /* \"#utility.yul\":1908:1909   */\n      0x00\n        /* \"#utility.yul\":1905:1906   */\n      dup1\n        /* \"#utility.yul\":1898:1910   */\n      revert\n        /* \"#utility.yul\":1922:2102   */\n    tag_199:\n        /* \"#utility.yul\":1970:2047   */\n      0x4e487b7100000000000000000000000000000000000000000000000000000000\n        /* \"#utility.yul\":1967:1968   */\n      0x00\n        /* \"#utility.yul\":1960:2048   */\n      mstore\n        /* \"#utility.yul\":2067:2071   */\n      0x41\n        /* \"#utility.yul\":2064:2065   */\n      0x04\n        /* \"#utility.yul\":2057:2072   */\n      mstore\n        /* \"#utility.yul\":2091:2095   */\n      0x24\n        /* \"#utility.yul\":2088:2089   */\n      0x00\n        /* \"#utility.yul\":2081:2096   */\n      revert\n        /* \"#utility.yul\":2108:2389   */\n    tag_471:\n        /* \"#utility.yul\":2191:2218   */\n      tag_570\n        /* \"#utility.yul\":2213:2217   */\n      dup3\n        /* \"#utility.yul\":2191:2218   */\n      tag_464\n      jump\t// in\n    tag_570:\n        /* \"#utility.yul\":2183:2189   */\n      dup2\n        /* \"#utility.yul\":2179:2219   */\n      add\n        /* \"#utility.yul\":2321:2327   */\n      dup2\n        /* \"#utility.yul\":2309:2319   */\n      dup2\n        /* \"#utility.yul\":2306:2328   */\n      lt\n        /* \"#utility.yul\":2285:2303   */\n      0xffffffffffffffff\n        /* \"#utility.yul\":2273:2283   */\n      dup3\n        /* \"#utility.yul\":2270:2304   */\n      gt\n        /* \"#utility.yul\":2267:2329   */\n      or\n        /* \"#utility.yul\":2264:2352   */\n      iszero\n      tag_571\n      jumpi\n        /* \"#utility.yul\":2332:2350   */\n      tag_572\n      tag_199\n      jump\t// in\n    tag_572:\n        /* \"#utility.yul\":2264:2352   */\n    tag_571:\n        /* \"#utility.yul\":2372:2382   */\n      dup1\n        /* \"#utility.yul\":2368:2370   */\n      0x40\n        /* \"#utility.yul\":2361:2383   */\n      mstore\n        /* \"#utility.yul\":2151:2389   */\n      pop\n        /* \"#utility.yul\":2108:2389   */\n      pop\n      pop\n      jump\t// out\n        /* \"#utility.yul\":2395:2524   */\n    tag_472:\n        /* \"#utility.yul\":2429:2435   */\n      0x00\n        /* \"#utility.yul\":2456:2476   */\n      tag_574\n      tag_466\n      jump\t// in\n    tag_574:\n        /* \"#utility.yul\":2446:2476   */\n      swap1\n      pop\n        /* \"#utility.yul\":2485:2518   */\n      tag_575\n        /* \"#utility.yul\":2513:2517   */\n      dup3\n        /* \"#utility.yul\":2505:2511   */\n      dup3\n        /* \"#utility.yul\":2485:2518   */\n      tag_471\n      jump\t// in\n    tag_575:\n        /* \"#utility.yul\":2395:2524   */\n      swap2\n      swap1\n      pop\n      jump\t// out\n        /* \"#utility.yul\":2530:2838   */\n    tag_473:\n        /* \"#utility.yul\":2592:2596   */\n      0x00\n        /* \"#utility.yul\":2682:2700   */\n      0xffffffffffffffff\n        /* \"#utility.yul\":2674:2680   */\n      dup3\n        /* \"#utility.yul\":2671:2701   */\n      gt\n        /* \"#utility.yul\":2668:2724   */\n      iszero\n      tag_577\n      jumpi\n        /* \"#utility.yul\":2704:2722   */\n      tag_578\n      tag_199\n      jump\t// in\n    tag_578:\n        /* \"#utility.yul\":2668:2724   */\n    tag_577:\n        /* \"#utility.yul\":2742:2771   */\n      tag_579\n        /* \"#utility.yul\":2764:2770   */\n      dup3\n        /* \"#utility.yul\":2742:2771   */\n      tag_464\n      jump\t// in\n    tag_579:\n        /* \"#utility.yul\":2734:2771   */\n      swap1\n      pop\n        /* \"#utility.yul\":2826:2830   */\n      0x20\n        /* \"#utility.yul\":2820:2824   */\n      dup2\n        /* \"#utility.yul\":2816:2831   */\n      add\n        /* \"#utility.yul\":2808:2831   */\n      swap1\n      pop\n        /* \"#utility.yul\":2530:2838   */\n      swap2\n      swap1\n      pop\n      jump\t// out\n        /* \"#utility.yul\":2844:2990   */\n    tag_474:\n        /* \"#utility.yul\":2941:2947   */\n      dup3\n        /* \"#utility.yul\":2936:2939   */\n      dup2\n        /* \"#utility.yul\":2931:2934   */\n      dup4\n        /* \"#utility.yul\":2918:2948   */\n      calldatacopy\n        /* \"#utility.yul\":2982:2983   */\n      0x00\n        /* \"#utility.yul\":2973:2979   */\n      dup4\n        /* \"#utility.yul\":2968:2971   */\n      dup4\n        /* \"#utility.yul\":2964:2980   */\n      add\n        /* \"#utility.yul\":2957:2984   */\n      mstore\n        /* \"#utility.yul\":2844:2990   */\n      pop\n      pop\n      pop\n      jump\t// out\n        /* \"#utility.yul\":2996:3421   */\n    tag_475:\n        /* \"#utility.yul\":3074:3079   */\n      0x00\n        /* \"#utility.yul\":3099:3165   */\n      tag_582\n        /* \"#utility.yul\":3115:3164   */\n      tag_583\n        /* \"#utility.yul\":3157:3163   */\n      dup5\n        /* \"#utility.yul\":3115:3164   */\n      tag_473\n      jump\t// in\n    tag_583:\n        /* \"#utility.yul\":3099:3165   */\n      tag_472\n      jump\t// in\n    tag_582:\n        /* \"#utility.yul\":3090:3165   */\n      swap1\n      pop\n        /* \"#utility.yul\":3188:3194   */\n      dup3\n        /* \"#utility.yul\":3181:3186   */\n      dup2\n        /* \"#utility.yul\":3174:3195   */\n      mstore\n        /* \"#utility.yul\":3226:3230   */\n      0x20\n        /* \"#utility.yul\":3219:3224   */\n      dup2\n        /* \"#utility.yul\":3215:3231   */\n      add\n        /* \"#utility.yul\":3264:3267   */\n      dup5\n        /* \"#utility.yul\":3255:3261   */\n      dup5\n        /* \"#utility.yul\":3250:3253   */\n      dup5\n        /* \"#utility.yul\":3246:3262   */\n      add\n        /* \"#utility.yul\":3243:3268   */\n      gt\n        /* \"#utility.yul\":3240:3352   */\n      iszero\n      tag_584\n      jumpi\n        /* \"#utility.yul\":3271:3350   */\n      tag_585\n      tag_470\n      jump\t// in\n    tag_585:\n        /* \"#utility.yul\":3240:3352   */\n    tag_584:\n        /* \"#utility.yul\":3361:3415   */\n      tag_586\n        /* \"#utility.yul\":3408:3414   */\n      dup5\n        /* \"#utility.yul\":3403:3406   */\n      dup3\n        /* \"#utility.yul\":3398:3401   */\n      dup6\n        /* \"#utility.yul\":3361:3415   */\n      tag_474\n      jump\t// in\n    tag_586:\n        /* \"#utility.yul\":3080:3421   */\n      pop\n        /* \"#utility.yul\":2996:3421   */\n      swap4\n      swap3\n      pop\n      pop\n      pop\n      jump\t// out\n        /* \"#utility.yul\":3441:3781   */\n    tag_476:\n        /* \"#utility.yul\":3497:3502   */\n      0x00\n        /* \"#utility.yul\":3546:3549   */\n      dup3\n        /* \"#utility.yul\":3539:3543   */\n      0x1f\n        /* \"#utility.yul\":3531:3537   */\n      dup4\n        /* \"#utility.yul\":3527:3544   */\n      add\n        /* \"#utility.yul\":3523:3550   */\n      slt\n        /* \"#utility.yul\":3513:3635   */\n      tag_588\n      jumpi\n        /* \"#utility.yul\":3554:3633   */\n      tag_589\n      tag_469\n      jump\t// in\n    tag_589:\n        /* \"#utility.yul\":3513:3635   */\n    tag_588:\n        /* \"#utility.yul\":3671:3677   */\n      dup2\n        /* \"#utility.yul\":3658:3678   */\n      calldataload\n        /* \"#utility.yul\":3696:3775   */\n      tag_590\n        /* \"#utility.yul\":3771:3774   */\n      dup5\n        /* \"#utility.yul\":3763:3769   */\n      dup3\n        /* \"#utility.yul\":3756:3760   */\n      0x20\n        /* \"#utility.yul\":3748:3754   */\n      dup7\n        /* \"#utility.yul\":3744:3761   */\n      add\n        /* \"#utility.yul\":3696:3775   */\n      tag_475\n      jump\t// in\n    tag_590:\n        /* \"#utility.yul\":3687:3775   */\n      swap2\n      pop\n        /* \"#utility.yul\":3503:3781   */\n      pop\n        /* \"#utility.yul\":3441:3781   */\n      swap3\n      swap2\n      pop\n      pop\n      jump\t// out\n        /* \"#utility.yul\":3787:4296   */\n    tag_28:\n        /* \"#utility.yul\":3856:3862   */\n      0x00\n        /* \"#utility.yul\":3905:3907   */\n      0x20\n        /* \"#utility.yul\":3893:3902   */\n      dup3\n        /* \"#utility.yul\":3884:3891   */\n      dup5\n        /* \"#utility.yul\":3880:3903   */\n      sub\n        /* \"#utility.yul\":3876:3908   */\n      slt\n        /* \"#utility.yul\":3873:3992   */\n      iszero\n      tag_592\n      jumpi\n        /* \"#utility.yul\":3911:3990   */\n      tag_593\n      tag_467\n      jump\t// in\n    tag_593:\n        /* \"#utility.yul\":3873:3992   */\n    tag_592:\n        /* \"#utility.yul\":4059:4060   */\n      0x00\n        /* \"#utility.yul\":4048:4057   */\n      dup3\n        /* \"#utility.yul\":4044:4061   */\n      add\n        /* \"#utility.yul\":4031:4062   */\n      calldataload\n        /* \"#utility.yul\":4089:4107   */\n      0xffffffffffffffff\n        /* \"#utility.yul\":4081:4087   */\n      dup2\n        /* \"#utility.yul\":4078:4108   */\n      gt\n        /* \"#utility.yul\":4075:4192   */\n      iszero\n      tag_594\n      jumpi\n        /* \"#utility.yul\":4111:4190   */\n      tag_595\n      tag_468\n      jump\t// in\n    tag_595:\n        /* \"#utility.yul\":4075:4192   */\n    tag_594:\n        /* \"#utility.yul\":4216:4279   */\n      tag_596\n        /* \"#utility.yul\":4271:4278   */\n      dup5\n        /* \"#utility.yul\":4262:4268   */\n      dup3\n        /* \"#utility.yul\":4251:4260   */\n      dup6\n        /* \"#utility.yul\":4247:4269   */\n      add\n        /* \"#utility.yul\":4216:4279   */\n      tag_476\n      jump\t// in\n    tag_596:\n        /* \"#utility.yul\":4206:4279   */\n      swap2\n      pop\n        /* \"#utility.yul\":4002:4289   */\n      pop\n        /* \"#utility.yul\":3787:4296   */\n      swap3\n      swap2\n      pop\n      pop\n      jump\t// out\n        /* \"#utility.yul\":4302:4419   */\n    tag_477:\n        /* \"#utility.yul\":4411:4412   */\n      0x00\n        /* \"#utility.yul\":4408:4409   */\n      dup1\n        /* \"#utility.yul\":4401:4413   */\n      revert\n        /* \"#utility.yul\":4425:4542   */\n    tag_478:\n        /* \"#utility.yul\":4534:4535   */\n      0x00\n        /* \"#utility.yul\":4531:4532   */\n      dup1\n        /* \"#utility.yul\":4524:4536   */\n      revert\n        /* \"#utility.yul\":4562:5115   */\n    tag_479:\n        /* \"#utility.yul\":4620:4628   */\n      0x00\n        /* \"#utility.yul\":4630:4636   */\n      dup1\n        /* \"#utility.yul\":4680:4683   */\n      dup4\n        /* \"#utility.yul\":4673:4677   */\n      0x1f\n        /* \"#utility.yul\":4665:4671   */\n      dup5\n        /* \"#utility.yul\":4661:4678   */\n      add\n        /* \"#utility.yul\":4657:4684   */\n      slt\n        /* \"#utility.yul\":4647:4769   */\n      tag_600\n      jumpi\n        /* \"#utility.yul\":4688:4767   */\n      tag_601\n      tag_469\n      jump\t// in\n    tag_601:\n        /* \"#utility.yul\":4647:4769   */\n    tag_600:\n        /* \"#utility.yul\":4801:4807   */\n      dup3\n        /* \"#utility.yul\":4788:4808   */\n      calldataload\n        /* \"#utility.yul\":4778:4808   */\n      swap1\n      pop\n        /* \"#utility.yul\":4831:4849   */\n      0xffffffffffffffff\n        /* \"#utility.yul\":4823:4829   */\n      dup2\n        /* \"#utility.yul\":4820:4850   */\n      gt\n        /* \"#utility.yul\":4817:4934   */\n      iszero\n      tag_602\n      jumpi\n        /* \"#utility.yul\":4853:4932   */\n      tag_603\n      tag_477\n      jump\t// in\n    tag_603:\n        /* \"#utility.yul\":4817:4934   */\n    tag_602:\n        /* \"#utility.yul\":4967:4971   */\n      0x20\n        /* \"#utility.yul\":4959:4965   */\n      dup4\n        /* \"#utility.yul\":4955:4972   */\n      add\n        /* \"#utility.yul\":4943:4972   */\n      swap2\n      pop\n        /* \"#utility.yul\":5021:5024   */\n      dup4\n        /* \"#utility.yul\":5013:5017   */\n      0x01\n        /* \"#utility.yul\":5005:5011   */\n      dup3\n        /* \"#utility.yul\":5001:5018   */\n      mul\n        /* \"#utility.yul\":4991:4999   */\n      dup4\n        /* \"#utility.yul\":4987:5019   */\n      add\n        /* \"#utility.yul\":4984:5025   */\n      gt\n        /* \"#utility.yul\":4981:5109   */\n      iszero\n      tag_604\n      jumpi\n        /* \"#utility.yul\":5028:5107   */\n      tag_605\n      tag_478\n      jump\t// in\n    tag_605:\n        /* \"#utility.yul\":4981:5109   */\n    tag_604:\n        /* \"#utility.yul\":4562:5115   */\n      swap3\n      pop\n      swap3\n      swap1\n      pop\n      jump\t// out\n        /* \"#utility.yul\":5121:5198   */\n    tag_480:\n        /* \"#utility.yul\":5158:5165   */\n      0x00\n        /* \"#utility.yul\":5187:5192   */\n      dup2\n        /* \"#utility.yul\":5176:5192   */\n      swap1\n      pop\n        /* \"#utility.yul\":5121:5198   */\n      swap2\n      swap1\n      pop\n      jump\t// out\n        /* \"#utility.yul\":5204:5326   */\n    tag_481:\n        /* \"#utility.yul\":5277:5301   */\n      tag_608\n        /* \"#utility.yul\":5295:5300   */\n      dup2\n        /* \"#utility.yul\":5277:5301   */\n      tag_480\n      jump\t// in\n    tag_608:\n        /* \"#utility.yul\":5270:5275   */\n      dup2\n        /* \"#utility.yul\":5267:5302   */\n      eq\n        /* \"#utility.yul\":5257:5320   */\n      tag_609\n      jumpi\n        /* \"#utility.yul\":5316:5317   */\n      0x00\n        /* \"#utility.yul\":5313:5314   */\n      dup1\n        /* \"#utility.yul\":5306:5318   */\n      revert\n        /* \"#utility.yul\":5257:5320   */\n    tag_609:\n        /* \"#utility.yul\":5204:5326   */\n      pop\n      jump\t// out\n        /* \"#utility.yul\":5332:5471   */\n    tag_482:\n        /* \"#utility.yul\":5378:5383   */\n      0x00\n        /* \"#utility.yul\":5416:5422   */\n      dup2\n        /* \"#utility.yul\":5403:5423   */\n      calldataload\n        /* \"#utility.yul\":5394:5423   */\n      swap1\n      pop\n        /* \"#utility.yul\":5432:5465   */\n      tag_611\n        /* \"#utility.yul\":5459:5464   */\n      dup2\n        /* \"#utility.yul\":5432:5465   */\n      tag_481\n      jump\t// in\n    tag_611:\n        /* \"#utility.yul\":5332:5471   */\n      swap3\n      swap2\n      pop\n      pop\n      jump\t// out\n        /* \"#utility.yul\":5477:5594   */\n    tag_483:\n        /* \"#utility.yul\":5586:5587   */\n      0x00\n        /* \"#utility.yul\":5583:5584   */\n      dup1\n        /* \"#utility.yul\":5576:5588   */\n      revert\n        /* \"#utility.yul\":5645:5871   */\n    tag_484:\n        /* \"#utility.yul\":5713:5718   */\n      0x00\n        /* \"#utility.yul\":5754:5756   */\n      0x60\n        /* \"#utility.yul\":5745:5751   */\n      dup3\n        /* \"#utility.yul\":5740:5743   */\n      dup5\n        /* \"#utility.yul\":5736:5752   */\n      sub\n        /* \"#utility.yul\":5732:5757   */\n      slt\n        /* \"#utility.yul\":5729:5841   */\n      iszero\n      tag_614\n      jumpi\n        /* \"#utility.yul\":5760:5839   */\n      tag_615\n      tag_483\n      jump\t// in\n    tag_615:\n        /* \"#utility.yul\":5729:5841   */\n    tag_614:\n        /* \"#utility.yul\":5859:5865   */\n      dup2\n        /* \"#utility.yul\":5850:5865   */\n      swap1\n      pop\n        /* \"#utility.yul\":5645:5871   */\n      swap3\n      swap2\n      pop\n      pop\n      jump\t// out\n        /* \"#utility.yul\":5877:7792   */\n    tag_34:\n        /* \"#utility.yul\":6090:6096   */\n      0x00\n        /* \"#utility.yul\":6098:6104   */\n      dup1\n        /* \"#utility.yul\":6106:6112   */\n      0x00\n        /* \"#utility.yul\":6114:6120   */\n      dup1\n        /* \"#utility.yul\":6122:6128   */\n      0x00\n        /* \"#utility.yul\":6130:6136   */\n      dup1\n        /* \"#utility.yul\":6138:6144   */\n      0x00\n        /* \"#utility.yul\":6146:6152   */\n      dup1\n        /* \"#utility.yul\":6154:6160   */\n      0x00\n        /* \"#utility.yul\":6203:6206   */\n      0x01a0\n        /* \"#utility.yul\":6191:6200   */\n      dup11\n        /* \"#utility.yul\":6182:6189   */\n      dup13\n        /* \"#utility.yul\":6178:6201   */\n      sub\n        /* \"#utility.yul\":6174:6207   */\n      slt\n        /* \"#utility.yul\":6171:6291   */\n      iszero\n      tag_617\n      jumpi\n        /* \"#utility.yul\":6210:6289   */\n      tag_618\n      tag_467\n      jump\t// in\n    tag_618:\n        /* \"#utility.yul\":6171:6291   */\n    tag_617:\n        /* \"#utility.yul\":6358:6359   */\n      0x00\n        /* \"#utility.yul\":6347:6356   */\n      dup11\n        /* \"#utility.yul\":6343:6360   */\n      add\n        /* \"#utility.yul\":6330:6361   */\n      calldataload\n        /* \"#utility.yul\":6388:6406   */\n      0xffffffffffffffff\n        /* \"#utility.yul\":6380:6386   */\n      dup2\n        /* \"#utility.yul\":6377:6407   */\n      gt\n        /* \"#utility.yul\":6374:6491   */\n      iszero\n      tag_619\n      jumpi\n        /* \"#utility.yul\":6410:6489   */\n      tag_620\n      tag_468\n      jump\t// in\n    tag_620:\n        /* \"#utility.yul\":6374:6491   */\n    tag_619:\n        /* \"#utility.yul\":6515:6578   */\n      tag_621\n        /* \"#utility.yul\":6570:6577   */\n      dup13\n        /* \"#utility.yul\":6561:6567   */\n      dup3\n        /* \"#utility.yul\":6550:6559   */\n      dup14\n        /* \"#utility.yul\":6546:6568   */\n      add\n        /* \"#utility.yul\":6515:6578   */\n      tag_476\n      jump\t// in\n    tag_621:\n        /* \"#utility.yul\":6505:6578   */\n      swap10\n      pop\n        /* \"#utility.yul\":6301:6588   */\n      pop\n        /* \"#utility.yul\":6655:6657   */\n      0x20\n        /* \"#utility.yul\":6644:6653   */\n      dup11\n        /* \"#utility.yul\":6640:6658   */\n      add\n        /* \"#utility.yul\":6627:6659   */\n      calldataload\n        /* \"#utility.yul\":6686:6704   */\n      0xffffffffffffffff\n        /* \"#utility.yul\":6678:6684   */\n      dup2\n        /* \"#utility.yul\":6675:6705   */\n      gt\n        /* \"#utility.yul\":6672:6789   */\n      iszero\n      tag_622\n      jumpi\n        /* \"#utility.yul\":6708:6787   */\n      tag_623\n      tag_468\n      jump\t// in\n    tag_623:\n        /* \"#utility.yul\":6672:6789   */\n    tag_622:\n        /* \"#utility.yul\":6821:6886   */\n      tag_624\n        /* \"#utility.yul\":6878:6885   */\n      dup13\n        /* \"#utility.yul\":6869:6875   */\n      dup3\n        /* \"#utility.yul\":6858:6867   */\n      dup14\n        /* \"#utility.yul\":6854:6876   */\n      add\n        /* \"#utility.yul\":6821:6886   */\n      tag_479\n      jump\t// in\n    tag_624:\n        /* \"#utility.yul\":6803:6886   */\n      swap9\n      pop\n      swap9\n      pop\n        /* \"#utility.yul\":6598:6896   */\n      pop\n        /* \"#utility.yul\":6935:6937   */\n      0x40\n        /* \"#utility.yul\":6961:7014   */\n      tag_625\n        /* \"#utility.yul\":7006:7013   */\n      dup13\n        /* \"#utility.yul\":6997:7003   */\n      dup3\n        /* \"#utility.yul\":6986:6995   */\n      dup14\n        /* \"#utility.yul\":6982:7004   */\n      add\n        /* \"#utility.yul\":6961:7014   */\n      tag_482\n      jump\t// in\n    tag_625:\n        /* \"#utility.yul\":6951:7014   */\n      swap7\n      pop\n        /* \"#utility.yul\":6906:7024   */\n      pop\n        /* \"#utility.yul\":7091:7093   */\n      0x60\n        /* \"#utility.yul\":7080:7089   */\n      dup11\n        /* \"#utility.yul\":7076:7094   */\n      add\n        /* \"#utility.yul\":7063:7095   */\n      calldataload\n        /* \"#utility.yul\":7122:7140   */\n      0xffffffffffffffff\n        /* \"#utility.yul\":7114:7120   */\n      dup2\n        /* \"#utility.yul\":7111:7141   */\n      gt\n        /* \"#utility.yul\":7108:7225   */\n      iszero\n      tag_626\n      jumpi\n        /* \"#utility.yul\":7144:7223   */\n      tag_627\n      tag_468\n      jump\t// in\n    tag_627:\n        /* \"#utility.yul\":7108:7225   */\n    tag_626:\n        /* \"#utility.yul\":7257:7322   */\n      tag_628\n        /* \"#utility.yul\":7314:7321   */\n      dup13\n        /* \"#utility.yul\":7305:7311   */\n      dup3\n        /* \"#utility.yul\":7294:7303   */\n      dup14\n        /* \"#utility.yul\":7290:7312   */\n      add\n        /* \"#utility.yul\":7257:7322   */\n      tag_479\n      jump\t// in\n    tag_628:\n        /* \"#utility.yul\":7239:7322   */\n      swap6\n      pop\n      swap6\n      pop\n        /* \"#utility.yul\":7034:7332   */\n      pop\n        /* \"#utility.yul\":7371:7374   */\n      0x80\n        /* \"#utility.yul\":7398:7473   */\n      tag_629\n        /* \"#utility.yul\":7465:7472   */\n      dup13\n        /* \"#utility.yul\":7456:7462   */\n      dup3\n        /* \"#utility.yul\":7445:7454   */\n      dup14\n        /* \"#utility.yul\":7441:7463   */\n      add\n        /* \"#utility.yul\":7398:7473   */\n      tag_484\n      jump\t// in\n    tag_629:\n        /* \"#utility.yul\":7388:7473   */\n      swap4\n      pop\n        /* \"#utility.yul\":7342:7483   */\n      pop\n        /* \"#utility.yul\":7522:7525   */\n      0xe0\n        /* \"#utility.yul\":7549:7624   */\n      tag_630\n        /* \"#utility.yul\":7616:7623   */\n      dup13\n        /* \"#utility.yul\":7607:7613   */\n      dup3\n        /* \"#utility.yul\":7596:7605   */\n      dup14\n        /* \"#utility.yul\":7592:7614   */\n      add\n        /* \"#utility.yul\":7549:7624   */\n      tag_484\n      jump\t// in\n    tag_630:\n        /* \"#utility.yul\":7539:7624   */\n      swap3\n      pop\n        /* \"#utility.yul\":7493:7634   */\n      pop\n        /* \"#utility.yul\":7673:7676   */\n      0x0140\n        /* \"#utility.yul\":7700:7775   */\n      tag_631\n        /* \"#utility.yul\":7767:7774   */\n      dup13\n        /* \"#utility.yul\":7758:7764   */\n      dup3\n        /* \"#utility.yul\":7747:7756   */\n      dup14\n        /* \"#utility.yul\":7743:7765   */\n      add\n        /* \"#utility.yul\":7700:7775   */\n      tag_484\n      jump\t// in\n    tag_631:\n        /* \"#utility.yul\":7690:7775   */\n      swap2\n      pop\n        /* \"#utility.yul\":7644:7785   */\n      pop\n        /* \"#utility.yul\":5877:7792   */\n      swap3\n      swap6\n      swap9\n      pop\n      swap3\n      swap6\n      swap9\n      pop\n      swap3\n      swap6\n      swap9\n      jump\t// out\n        /* \"#utility.yul\":7798:7874   */\n    tag_485:\n        /* \"#utility.yul\":7834:7841   */\n      0x00\n        /* \"#utility.yul\":7863:7868   */\n      dup2\n        /* \"#utility.yul\":7852:7868   */\n      swap1\n      pop\n        /* \"#utility.yul\":7798:7874   */\n      swap2\n      swap1\n      pop\n      jump\t// out\n        /* \"#utility.yul\":7880:7995   */\n    tag_486:\n        /* \"#utility.yul\":7965:7988   */\n      tag_634\n        /* \"#utility.yul\":7982:7987   */\n      dup2\n        /* \"#utility.yul\":7965:7988   */\n      tag_485\n      jump\t// in\n    tag_634:\n        /* \"#utility.yul\":7960:7963   */\n      dup3\n        /* \"#utility.yul\":7953:7989   */\n      mstore\n        /* \"#utility.yul\":7880:7995   */\n      pop\n      pop\n      jump\t// out\n        /* \"#utility.yul\":8001:8219   */\n    tag_37:\n        /* \"#utility.yul\":8092:8096   */\n      0x00\n        /* \"#utility.yul\":8130:8132   */\n      0x20\n        /* \"#utility.yul\":8119:8128   */\n      dup3\n        /* \"#utility.yul\":8115:8133   */\n      add\n        /* \"#utility.yul\":8107:8133   */\n      swap1\n      pop\n        /* \"#utility.yul\":8143:8212   */\n      tag_636\n        /* \"#utility.yul\":8209:8210   */\n      0x00\n        /* \"#utility.yul\":8198:8207   */\n      dup4\n        /* \"#utility.yul\":8194:8211   */\n      add\n        /* \"#utility.yul\":8185:8191   */\n      dup5\n        /* \"#utility.yul\":8143:8212   */\n      tag_486\n      jump\t// in\n    tag_636:\n        /* \"#utility.yul\":8001:8219   */\n      swap3\n      swap2\n      pop\n      pop\n      jump\t// out\n        /* \"#utility.yul\":8225:8343   */\n    tag_487:\n        /* \"#utility.yul\":8312:8336   */\n      tag_638\n        /* \"#utility.yul\":8330:8335   */\n      dup2\n        /* \"#utility.yul\":8312:8336   */\n      tag_480\n      jump\t// in\n    tag_638:\n        /* \"#utility.yul\":8307:8310   */\n      dup3\n        /* \"#utility.yul\":8300:8337   */\n      mstore\n        /* \"#utility.yul\":8225:8343   */\n      pop\n      pop\n      jump\t// out\n        /* \"#utility.yul\":8349:8571   */\n    tag_42:\n        /* \"#utility.yul\":8442:8446   */\n      0x00\n        /* \"#utility.yul\":8480:8482   */\n      0x20\n        /* \"#utility.yul\":8469:8478   */\n      dup3\n        /* \"#utility.yul\":8465:8483   */\n      add\n        /* \"#utility.yul\":8457:8483   */\n      swap1\n      pop\n        /* \"#utility.yul\":8493:8564   */\n      tag_640\n        /* \"#utility.yul\":8561:8562   */\n      0x00\n        /* \"#utility.yul\":8550:8559   */\n      dup4\n        /* \"#utility.yul\":8546:8563   */\n      add\n        /* \"#utility.yul\":8537:8543   */\n      dup5\n        /* \"#utility.yul\":8493:8564   */\n      tag_487\n      jump\t// in\n    tag_640:\n        /* \"#utility.yul\":8349:8571   */\n      swap3\n      swap2\n      pop\n      pop\n      jump\t// out\n        /* \"#utility.yul\":8577:8906   */\n    tag_45:\n        /* \"#utility.yul\":8636:8642   */\n      0x00\n        /* \"#utility.yul\":8685:8687   */\n      0x20\n        /* \"#utility.yul\":8673:8682   */\n      dup3\n        /* \"#utility.yul\":8664:8671   */\n      dup5\n        /* \"#utility.yul\":8660:8683   */\n      sub\n        /* \"#utility.yul\":8656:8688   */\n      slt\n        /* \"#utility.yul\":8653:8772   */\n      iszero\n      tag_642\n      jumpi\n        /* \"#utility.yul\":8691:8770   */\n      tag_643\n      tag_467\n      jump\t// in\n    tag_643:\n        /* \"#utility.yul\":8653:8772   */\n    tag_642:\n        /* \"#utility.yul\":8811:8812   */\n      0x00\n        /* \"#utility.yul\":8836:8889   */\n      tag_644\n        /* \"#utility.yul\":8881:8888   */\n      dup5\n        /* \"#utility.yul\":8872:8878   */\n      dup3\n        /* \"#utility.yul\":8861:8870   */\n      dup6\n        /* \"#utility.yul\":8857:8879   */\n      add\n        /* \"#utility.yul\":8836:8889   */\n      tag_482\n      jump\t// in\n    tag_644:\n        /* \"#utility.yul\":8826:8889   */\n      swap2\n      pop\n        /* \"#utility.yul\":8782:8899   */\n      pop\n        /* \"#utility.yul\":8577:8906   */\n      swap3\n      swap2\n      pop\n      pop\n      jump\t// out\n        /* \"#utility.yul\":8912:9002   */\n    tag_488:\n        /* \"#utility.yul\":8946:8953   */\n      0x00\n        /* \"#utility.yul\":8989:8994   */\n      dup2\n        /* \"#utility.yul\":8982:8995   */\n      iszero\n        /* \"#utility.yul\":8975:8996   */\n      iszero\n        /* \"#utility.yul\":8964:8996   */\n      swap1\n      pop\n        /* \"#utility.yul\":8912:9002   */\n      swap2\n      swap1\n      pop\n      jump\t// out\n        /* \"#utility.yul\":9008:9117   */\n    tag_489:\n        /* \"#utility.yul\":9089:9110   */\n      tag_647\n        /* \"#utility.yul\":9104:9109   */\n      dup2\n        /* \"#utility.yul\":9089:9110   */\n      tag_488\n      jump\t// in\n    tag_647:\n        /* \"#utility.yul\":9084:9087   */\n      dup3\n        /* \"#utility.yul\":9077:9111   */\n      mstore\n        /* \"#utility.yul\":9008:9117   */\n      pop\n      pop\n      jump\t// out\n        /* \"#utility.yul\":9123:9333   */\n    tag_53:\n        /* \"#utility.yul\":9210:9214   */\n      0x00\n        /* \"#utility.yul\":9248:9250   */\n      0x20\n        /* \"#utility.yul\":9237:9246   */\n      dup3\n        /* \"#utility.yul\":9233:9251   */\n      add\n        /* \"#utility.yul\":9225:9251   */\n      swap1\n      pop\n        /* \"#utility.yul\":9261:9326   */\n      tag_649\n        /* \"#utility.yul\":9323:9324   */\n      0x00\n        /* \"#utility.yul\":9312:9321   */\n      dup4\n        /* \"#utility.yul\":9308:9325   */\n      add\n        /* \"#utility.yul\":9299:9305   */\n      dup5\n        /* \"#utility.yul\":9261:9326   */\n      tag_489\n      jump\t// in\n    tag_649:\n        /* \"#utility.yul\":9123:9333   */\n      swap3\n      swap2\n      pop\n      pop\n      jump\t// out\n        /* \"#utility.yul\":9339:9459   */\n    tag_490:\n        /* \"#utility.yul\":9411:9434   */\n      tag_651\n        /* \"#utility.yul\":9428:9433   */\n      dup2\n        /* \"#utility.yul\":9411:9434   */\n      tag_485\n      jump\t// in\n    tag_651:\n        /* \"#utility.yul\":9404:9409   */\n      dup2\n        /* \"#utility.yul\":9401:9435   */\n      eq\n        /* \"#utility.yul\":9391:9453   */\n      tag_652\n      jumpi\n        /* \"#utility.yul\":9449:9450   */\n      0x00\n        /* \"#utility.yul\":9446:9447   */\n      dup1\n        /* \"#utility.yul\":9439:9451   */\n      revert\n        /* \"#utility.yul\":9391:9453   */\n    tag_652:\n        /* \"#utility.yul\":9339:9459   */\n      pop\n      jump\t// out\n        /* \"#utility.yul\":9465:9602   */\n    tag_491:\n        /* \"#utility.yul\":9510:9515   */\n      0x00\n        /* \"#utility.yul\":9548:9554   */\n      dup2\n        /* \"#utility.yul\":9535:9555   */\n      calldataload\n        /* \"#utility.yul\":9526:9555   */\n      swap1\n      pop\n        /* \"#utility.yul\":9564:9596   */\n      tag_654\n        /* \"#utility.yul\":9590:9595   */\n      dup2\n        /* \"#utility.yul\":9564:9596   */\n      tag_490\n      jump\t// in\n    tag_654:\n        /* \"#utility.yul\":9465:9602   */\n      swap3\n      swap2\n      pop\n      pop\n      jump\t// out\n        /* \"#utility.yul\":9608:10873   */\n    tag_57:\n        /* \"#utility.yul\":9720:9726   */\n      0x00\n        /* \"#utility.yul\":9728:9734   */\n      dup1\n        /* \"#utility.yul\":9736:9742   */\n      0x00\n        /* \"#utility.yul\":9744:9750   */\n      dup1\n        /* \"#utility.yul\":9752:9758   */\n      0x00\n        /* \"#utility.yul\":9801:9804   */\n      0xa0\n        /* \"#utility.yul\":9789:9798   */\n      dup7\n        /* \"#utility.yul\":9780:9787   */\n      dup9\n        /* \"#utility.yul\":9776:9799   */\n      sub\n        /* \"#utility.yul\":9772:9805   */\n      slt\n        /* \"#utility.yul\":9769:9889   */\n      iszero\n      tag_656\n      jumpi\n        /* \"#utility.yul\":9808:9887   */\n      tag_657\n      tag_467\n      jump\t// in\n    tag_657:\n        /* \"#utility.yul\":9769:9889   */\n    tag_656:\n        /* \"#utility.yul\":9928:9929   */\n      0x00\n        /* \"#utility.yul\":9953:10005   */\n      tag_658\n        /* \"#utility.yul\":9997:10004   */\n      dup9\n        /* \"#utility.yul\":9988:9994   */\n      dup3\n        /* \"#utility.yul\":9977:9986   */\n      dup10\n        /* \"#utility.yul\":9973:9995   */\n      add\n        /* \"#utility.yul\":9953:10005   */\n      tag_491\n      jump\t// in\n    tag_658:\n        /* \"#utility.yul\":9943:10005   */\n      swap6\n      pop\n        /* \"#utility.yul\":9899:10015   */\n      pop\n        /* \"#utility.yul\":10054:10056   */\n      0x20\n        /* \"#utility.yul\":10080:10132   */\n      tag_659\n        /* \"#utility.yul\":10124:10131   */\n      dup9\n        /* \"#utility.yul\":10115:10121   */\n      dup3\n        /* \"#utility.yul\":10104:10113   */\n      dup10\n        /* \"#utility.yul\":10100:10122   */\n      add\n        /* \"#utility.yul\":10080:10132   */\n      tag_491\n      jump\t// in\n    tag_659:\n        /* \"#utility.yul\":10070:10132   */\n      swap5\n      pop\n        /* \"#utility.yul\":10025:10142   */\n      pop\n        /* \"#utility.yul\":10181:10183   */\n      0x40\n        /* \"#utility.yul\":10207:10259   */\n      tag_660\n        /* \"#utility.yul\":10251:10258   */\n      dup9\n        /* \"#utility.yul\":10242:10248   */\n      dup3\n        /* \"#utility.yul\":10231:10240   */\n      dup10\n        /* \"#utility.yul\":10227:10249   */\n      add\n        /* \"#utility.yul\":10207:10259   */\n      tag_491\n      jump\t// in\n    tag_660:\n        /* \"#utility.yul\":10197:10259   */\n      swap4\n      pop\n        /* \"#utility.yul\":10152:10269   */\n      pop\n        /* \"#utility.yul\":10336:10338   */\n      0x60\n        /* \"#utility.yul\":10325:10334   */\n      dup7\n        /* \"#utility.yul\":10321:10339   */\n      add\n        /* \"#utility.yul\":10308:10340   */\n      calldataload\n        /* \"#utility.yul\":10367:10385   */\n      0xffffffffffffffff\n        /* \"#utility.yul\":10359:10365   */\n      dup2\n        /* \"#utility.yul\":10356:10386   */\n      gt\n        /* \"#utility.yul\":10353:10470   */\n      iszero\n      tag_661\n      jumpi\n        /* \"#utility.yul\":10389:10468   */\n      tag_662\n      tag_468\n      jump\t// in\n    tag_662:\n        /* \"#utility.yul\":10353:10470   */\n    tag_661:\n        /* \"#utility.yul\":10494:10557   */\n      tag_663\n        /* \"#utility.yul\":10549:10556   */\n      dup9\n        /* \"#utility.yul\":10540:10546   */\n      dup3\n        /* \"#utility.yul\":10529:10538   */\n      dup10\n        /* \"#utility.yul\":10525:10547   */\n      add\n        /* \"#utility.yul\":10494:10557   */\n      tag_476\n      jump\t// in\n    tag_663:\n        /* \"#utility.yul\":10484:10557   */\n      swap3\n      pop\n        /* \"#utility.yul\":10279:10567   */\n      pop\n        /* \"#utility.yul\":10634:10637   */\n      0x80\n        /* \"#utility.yul\":10623:10632   */\n      dup7\n        /* \"#utility.yul\":10619:10638   */\n      add\n        /* \"#utility.yul\":10606:10639   */\n      calldataload\n        /* \"#utility.yul\":10666:10684   */\n      0xffffffffffffffff\n        /* \"#utility.yul\":10658:10664   */\n      dup2\n        /* \"#utility.yul\":10655:10685   */\n      gt\n        /* \"#utility.yul\":10652:10769   */\n      iszero\n      tag_664\n      jumpi\n        /* \"#utility.yul\":10688:10767   */\n      tag_665\n      tag_468\n      jump\t// in\n    tag_665:\n        /* \"#utility.yul\":10652:10769   */\n    tag_664:\n        /* \"#utility.yul\":10793:10856   */\n      tag_666\n        /* \"#utility.yul\":10848:10855   */\n      dup9\n        /* \"#utility.yul\":10839:10845   */\n      dup3\n        /* \"#utility.yul\":10828:10837   */\n      dup10\n        /* \"#utility.yul\":10824:10846   */\n      add\n        /* \"#utility.yul\":10793:10856   */\n      tag_476\n      jump\t// in\n    tag_666:\n        /* \"#utility.yul\":10783:10856   */\n      swap2\n      pop\n        /* \"#utility.yul\":10577:10866   */\n      pop\n        /* \"#utility.yul\":9608:10873   */\n      swap3\n      swap6\n      pop\n      swap3\n      swap6\n      swap1\n      swap4\n      pop\n      jump\t// out\n        /* \"#utility.yul\":10879:10992   */\n    tag_492:\n        /* \"#utility.yul\":10945:10951   */\n      0x00\n        /* \"#utility.yul\":10979:10984   */\n      dup2\n        /* \"#utility.yul\":10973:10985   */\n      mload\n        /* \"#utility.yul\":10963:10985   */\n      swap1\n      pop\n        /* \"#utility.yul\":10879:10992   */\n      swap2\n      swap1\n      pop\n      jump\t// out\n        /* \"#utility.yul\":10998:11181   */\n    tag_493:\n        /* \"#utility.yul\":11096:11107   */\n      0x00\n        /* \"#utility.yul\":11130:11136   */\n      dup3\n        /* \"#utility.yul\":11125:11128   */\n      dup3\n        /* \"#utility.yul\":11118:11137   */\n      mstore\n        /* \"#utility.yul\":11170:11174   */\n      0x20\n        /* \"#utility.yul\":11165:11168   */\n      dup3\n        /* \"#utility.yul\":11161:11175   */\n      add\n        /* \"#utility.yul\":11146:11175   */\n      swap1\n      pop\n        /* \"#utility.yul\":10998:11181   */\n      swap3\n      swap2\n      pop\n      pop\n      jump\t// out\n        /* \"#utility.yul\":11187:11318   */\n    tag_494:\n        /* \"#utility.yul\":11253:11257   */\n      0x00\n        /* \"#utility.yul\":11276:11279   */\n      dup2\n        /* \"#utility.yul\":11268:11279   */\n      swap1\n      pop\n        /* \"#utility.yul\":11306:11310   */\n      0x20\n        /* \"#utility.yul\":11301:11304   */\n      dup3\n        /* \"#utility.yul\":11297:11311   */\n      add\n        /* \"#utility.yul\":11289:11311   */\n      swap1\n      pop\n        /* \"#utility.yul\":11187:11318   */\n      swap2\n      swap1\n      pop\n      jump\t// out\n        /* \"#utility.yul\":11324:11429   */\n    tag_495:\n        /* \"#utility.yul\":11399:11422   */\n      tag_671\n        /* \"#utility.yul\":11416:11421   */\n      dup2\n        /* \"#utility.yul\":11399:11422   */\n      tag_485\n      jump\t// in\n    tag_671:\n        /* \"#utility.yul\":11394:11397   */\n      dup3\n        /* \"#utility.yul\":11387:11423   */\n      mstore\n        /* \"#utility.yul\":11324:11429   */\n      pop\n      pop\n      jump\t// out\n        /* \"#utility.yul\":11435:11610   */\n    tag_496:\n        /* \"#utility.yul\":11502:11512   */\n      0x00\n        /* \"#utility.yul\":11523:11567   */\n      tag_673\n        /* \"#utility.yul\":11563:11566   */\n      dup4\n        /* \"#utility.yul\":11555:11561   */\n      dup4\n        /* \"#utility.yul\":11523:11567   */\n      tag_495\n      jump\t// in\n    tag_673:\n        /* \"#utility.yul\":11599:11603   */\n      0x20\n        /* \"#utility.yul\":11594:11597   */\n      dup4\n        /* \"#utility.yul\":11590:11604   */\n      add\n        /* \"#utility.yul\":11576:11604   */\n      swap1\n      pop\n        /* \"#utility.yul\":11435:11610   */\n      swap3\n      swap2\n      pop\n      pop\n      jump\t// out\n        /* \"#utility.yul\":11616:11728   */\n    tag_497:\n        /* \"#utility.yul\":11685:11689   */\n      0x00\n        /* \"#utility.yul\":11717:11721   */\n      0x20\n        /* \"#utility.yul\":11712:11715   */\n      dup3\n        /* \"#utility.yul\":11708:11722   */\n      add\n        /* \"#utility.yul\":11700:11722   */\n      swap1\n      pop\n        /* \"#utility.yul\":11616:11728   */\n      swap2\n      swap1\n      pop\n      jump\t// out\n        /* \"#utility.yul\":11762:12486   */\n    tag_498:\n        /* \"#utility.yul\":11879:11882   */\n      0x00\n        /* \"#utility.yul\":11908:11961   */\n      tag_676\n        /* \"#utility.yul\":11955:11960   */\n      dup3\n        /* \"#utility.yul\":11908:11961   */\n      tag_492\n      jump\t// in\n    tag_676:\n        /* \"#utility.yul\":11977:12062   */\n      tag_677\n        /* \"#utility.yul\":12055:12061   */\n      dup2\n        /* \"#utility.yul\":12050:12053   */\n      dup6\n        /* \"#utility.yul\":11977:12062   */\n      tag_493\n      jump\t// in\n    tag_677:\n        /* \"#utility.yul\":11970:12062   */\n      swap4\n      pop\n        /* \"#utility.yul\":12086:12141   */\n      tag_678\n        /* \"#utility.yul\":12135:12140   */\n      dup4\n        /* \"#utility.yul\":12086:12141   */\n      tag_494\n      jump\t// in\n    tag_678:\n        /* \"#utility.yul\":12164:12171   */\n      dup1\n        /* \"#utility.yul\":12195:12196   */\n      0x00\n        /* \"#utility.yul\":12180:12461   */\n    tag_679:\n        /* \"#utility.yul\":12205:12211   */\n      dup4\n        /* \"#utility.yul\":12202:12203   */\n      dup2\n        /* \"#utility.yul\":12199:12212   */\n      lt\n        /* \"#utility.yul\":12180:12461   */\n      iszero\n      tag_681\n      jumpi\n        /* \"#utility.yul\":12281:12287   */\n      dup2\n        /* \"#utility.yul\":12275:12288   */\n      mload\n        /* \"#utility.yul\":12308:12369   */\n      tag_682\n        /* \"#utility.yul\":12365:12368   */\n      dup9\n        /* \"#utility.yul\":12350:12363   */\n      dup3\n        /* \"#utility.yul\":12308:12369   */\n      tag_496\n      jump\t// in\n    tag_682:\n        /* \"#utility.yul\":12301:12369   */\n      swap8\n      pop\n        /* \"#utility.yul\":12392:12451   */\n      tag_683\n        /* \"#utility.yul\":12444:12450   */\n      dup4\n        /* \"#utility.yul\":12392:12451   */\n      tag_497\n      jump\t// in\n    tag_683:\n        /* \"#utility.yul\":12382:12451   */\n      swap3\n      pop\n        /* \"#utility.yul\":12240:12461   */\n      pop\n        /* \"#utility.yul\":12227:12228   */\n      0x01\n        /* \"#utility.yul\":12224:12225   */\n      dup2\n        /* \"#utility.yul\":12220:12229   */\n      add\n        /* \"#utility.yul\":12215:12229   */\n      swap1\n      pop\n        /* \"#utility.yul\":12180:12461   */\n      jump(tag_679)\n    tag_681:\n        /* \"#utility.yul\":12184:12198   */\n      pop\n        /* \"#utility.yul\":12477:12480   */\n      dup6\n        /* \"#utility.yul\":12470:12480   */\n      swap4\n      pop\n        /* \"#utility.yul\":11884:12486   */\n      pop\n      pop\n      pop\n        /* \"#utility.yul\":11762:12486   */\n      swap3\n      swap2\n      pop\n      pop\n      jump\t// out\n        /* \"#utility.yul\":12492:12861   */\n    tag_60:\n        /* \"#utility.yul\":12633:12637   */\n      0x00\n        /* \"#utility.yul\":12671:12673   */\n      0x20\n        /* \"#utility.yul\":12660:12669   */\n      dup3\n        /* \"#utility.yul\":12656:12674   */\n      add\n        /* \"#utility.yul\":12648:12674   */\n      swap1\n      pop\n        /* \"#utility.yul\":12720:12729   */\n      dup2\n        /* \"#utility.yul\":12714:12718   */\n      dup2\n        /* \"#utility.yul\":12710:12730   */\n      sub\n        /* \"#utility.yul\":12706:12707   */\n      0x00\n        /* \"#utility.yul\":12695:12704   */\n      dup4\n        /* \"#utility.yul\":12691:12708   */\n      add\n        /* \"#utility.yul\":12684:12731   */\n      mstore\n        /* \"#utility.yul\":12748:12854   */\n      tag_685\n        /* \"#utility.yul\":12849:12853   */\n      dup2\n        /* \"#utility.yul\":12840:12846   */\n      dup5\n        /* \"#utility.yul\":12748:12854   */\n      tag_498\n      jump\t// in\n    tag_685:\n        /* \"#utility.yul\":12740:12854   */\n      swap1\n      pop\n        /* \"#utility.yul\":12492:12861   */\n      swap3\n      swap2\n      pop\n      pop\n      jump\t// out\n        /* \"#utility.yul\":12867:13988   */\n    tag_64:\n        /* \"#utility.yul\":12971:12977   */\n      0x00\n        /* \"#utility.yul\":12979:12985   */\n      dup1\n        /* \"#utility.yul\":12987:12993   */\n      0x00\n        /* \"#utility.yul\":12995:13001   */\n      dup1\n        /* \"#utility.yul\":13044:13047   */\n      0x80\n        /* \"#utility.yul\":13032:13041   */\n      dup6\n        /* \"#utility.yul\":13023:13030   */\n      dup8\n        /* \"#utility.yul\":13019:13042   */\n      sub\n        /* \"#utility.yul\":13015:13048   */\n      slt\n        /* \"#utility.yul\":13012:13132   */\n      iszero\n      tag_687\n      jumpi\n        /* \"#utility.yul\":13051:13130   */\n      tag_688\n      tag_467\n      jump\t// in\n    tag_688:\n        /* \"#utility.yul\":13012:13132   */\n    tag_687:\n        /* \"#utility.yul\":13171:13172   */\n      0x00\n        /* \"#utility.yul\":13196:13248   */\n      tag_689\n        /* \"#utility.yul\":13240:13247   */\n      dup8\n        /* \"#utility.yul\":13231:13237   */\n      dup3\n        /* \"#utility.yul\":13220:13229   */\n      dup9\n        /* \"#utility.yul\":13216:13238   */\n      add\n        /* \"#utility.yul\":13196:13248   */\n      tag_491\n      jump\t// in\n    tag_689:\n        /* \"#utility.yul\":13186:13248   */\n      swap5\n      pop\n        /* \"#utility.yul\":13142:13258   */\n      pop\n        /* \"#utility.yul\":13297:13299   */\n      0x20\n        /* \"#utility.yul\":13323:13375   */\n      tag_690\n        /* \"#utility.yul\":13367:13374   */\n      dup8\n        /* \"#utility.yul\":13358:13364   */\n      dup3\n        /* \"#utility.yul\":13347:13356   */\n      dup9\n        /* \"#utility.yul\":13343:13365   */\n      add\n        /* \"#utility.yul\":13323:13375   */\n      tag_491\n      jump\t// in\n    tag_690:\n        /* \"#utility.yul\":13313:13375   */\n      swap4\n      pop\n        /* \"#utility.yul\":13268:13385   */\n      pop\n        /* \"#utility.yul\":13452:13454   */\n      0x40\n        /* \"#utility.yul\":13441:13450   */\n      dup6\n        /* \"#utility.yul\":13437:13455   */\n      add\n        /* \"#utility.yul\":13424:13456   */\n      calldataload\n        /* \"#utility.yul\":13483:13501   */\n      0xffffffffffffffff\n        /* \"#utility.yul\":13475:13481   */\n      dup2\n        /* \"#utility.yul\":13472:13502   */\n      gt\n        /* \"#utility.yul\":13469:13586   */\n      iszero\n      tag_691\n      jumpi\n        /* \"#utility.yul\":13505:13584   */\n      tag_692\n      tag_468\n      jump\t// in\n    tag_692:\n        /* \"#utility.yul\":13469:13586   */\n    tag_691:\n        /* \"#utility.yul\":13610:13673   */\n      tag_693\n        /* \"#utility.yul\":13665:13672   */\n      dup8\n        /* \"#utility.yul\":13656:13662   */\n      dup3\n        /* \"#utility.yul\":13645:13654   */\n      dup9\n        /* \"#utility.yul\":13641:13663   */\n      add\n        /* \"#utility.yul\":13610:13673   */\n      tag_476\n      jump\t// in\n    tag_693:\n        /* \"#utility.yul\":13600:13673   */\n      swap3\n      pop\n        /* \"#utility.yul\":13395:13683   */\n      pop\n        /* \"#utility.yul\":13750:13752   */\n      0x60\n        /* \"#utility.yul\":13739:13748   */\n      dup6\n        /* \"#utility.yul\":13735:13753   */\n      add\n        /* \"#utility.yul\":13722:13754   */\n      calldataload\n        /* \"#utility.yul\":13781:13799   */\n      0xffffffffffffffff\n        /* \"#utility.yul\":13773:13779   */\n      dup2\n        /* \"#utility.yul\":13770:13800   */\n      gt\n        /* \"#utility.yul\":13767:13884   */\n      iszero\n      tag_694\n      jumpi\n        /* \"#utility.yul\":13803:13882   */\n      tag_695\n      tag_468\n      jump\t// in\n    tag_695:\n        /* \"#utility.yul\":13767:13884   */\n    tag_694:\n        /* \"#utility.yul\":13908:13971   */\n      tag_696\n        /* \"#utility.yul\":13963:13970   */\n      dup8\n        /* \"#utility.yul\":13954:13960   */\n      dup3\n        /* \"#utility.yul\":13943:13952   */\n      dup9\n        /* \"#utility.yul\":13939:13961   */\n      add\n        /* \"#utility.yul\":13908:13971   */\n      tag_476\n      jump\t// in\n    tag_696:\n        /* \"#utility.yul\":13898:13971   */\n      swap2\n      pop\n        /* \"#utility.yul\":13693:13981   */\n      pop\n        /* \"#utility.yul\":12867:13988   */\n      swap3\n      swap6\n      swap2\n      swap5\n      pop\n      swap3\n      pop\n      jump\t// out\n        /* \"#utility.yul\":13994:14108   */\n    tag_499:\n        /* \"#utility.yul\":14061:14067   */\n      0x00\n        /* \"#utility.yul\":14095:14100   */\n      dup2\n        /* \"#utility.yul\":14089:14101   */\n      mload\n        /* \"#utility.yul\":14079:14101   */\n      swap1\n      pop\n        /* \"#utility.yul\":13994:14108   */\n      swap2\n      swap1\n      pop\n      jump\t// out\n        /* \"#utility.yul\":14114:14298   */\n    tag_500:\n        /* \"#utility.yul\":14213:14224   */\n      0x00\n        /* \"#utility.yul\":14247:14253   */\n      dup3\n        /* \"#utility.yul\":14242:14245   */\n      dup3\n        /* \"#utility.yul\":14235:14254   */\n      mstore\n        /* \"#utility.yul\":14287:14291   */\n      0x20\n        /* \"#utility.yul\":14282:14285   */\n      dup3\n        /* \"#utility.yul\":14278:14292   */\n      add\n        /* \"#utility.yul\":14263:14292   */\n      swap1\n      pop\n        /* \"#utility.yul\":14114:14298   */\n      swap3\n      swap2\n      pop\n      pop\n      jump\t// out\n        /* \"#utility.yul\":14304:14436   */\n    tag_501:\n        /* \"#utility.yul\":14371:14375   */\n      0x00\n        /* \"#utility.yul\":14394:14397   */\n      dup2\n        /* \"#utility.yul\":14386:14397   */\n      swap1\n      pop\n        /* \"#utility.yul\":14424:14428   */\n      0x20\n        /* \"#utility.yul\":14419:14422   */\n      dup3\n        /* \"#utility.yul\":14415:14429   */\n      add\n        /* \"#utility.yul\":14407:14429   */\n      swap1\n      pop\n        /* \"#utility.yul\":14304:14436   */\n      swap2\n      swap1\n      pop\n      jump\t// out\n        /* \"#utility.yul\":14442:14550   */\n    tag_502:\n        /* \"#utility.yul\":14519:14543   */\n      tag_701\n        /* \"#utility.yul\":14537:14542   */\n      dup2\n        /* \"#utility.yul\":14519:14543   */\n      tag_480\n      jump\t// in\n    tag_701:\n        /* \"#utility.yul\":14514:14517   */\n      dup3\n        /* \"#utility.yul\":14507:14544   */\n      mstore\n        /* \"#utility.yul\":14442:14550   */\n      pop\n      pop\n      jump\t// out\n        /* \"#utility.yul\":14556:14735   */\n    tag_503:\n        /* \"#utility.yul\":14625:14635   */\n      0x00\n        /* \"#utility.yul\":14646:14692   */\n      tag_703\n        /* \"#utility.yul\":14688:14691   */\n      dup4\n        /* \"#utility.yul\":14680:14686   */\n      dup4\n        /* \"#utility.yul\":14646:14692   */\n      tag_502\n      jump\t// in\n    tag_703:\n        /* \"#utility.yul\":14724:14728   */\n      0x20\n        /* \"#utility.yul\":14719:14722   */\n      dup4\n        /* \"#utility.yul\":14715:14729   */\n      add\n        /* \"#utility.yul\":14701:14729   */\n      swap1\n      pop\n        /* \"#utility.yul\":14556:14735   */\n      swap3\n      swap2\n      pop\n      pop\n      jump\t// out\n        /* \"#utility.yul\":14741:14854   */\n    tag_504:\n        /* \"#utility.yul\":14811:14815   */\n      0x00\n        /* \"#utility.yul\":14843:14847   */\n      0x20\n        /* \"#utility.yul\":14838:14841   */\n      dup3\n        /* \"#utility.yul\":14834:14848   */\n      add\n        /* \"#utility.yul\":14826:14848   */\n      swap1\n      pop\n        /* \"#utility.yul\":14741:14854   */\n      swap2\n      swap1\n      pop\n      jump\t// out\n        /* \"#utility.yul\":14890:15622   */\n    tag_505:\n        /* \"#utility.yul\":15009:15012   */\n      0x00\n        /* \"#utility.yul\":15038:15092   */\n      tag_706\n        /* \"#utility.yul\":15086:15091   */\n      dup3\n        /* \"#utility.yul\":15038:15092   */\n      tag_499\n      jump\t// in\n    tag_706:\n        /* \"#utility.yul\":15108:15194   */\n      tag_707\n        /* \"#utility.yul\":15187:15193   */\n      dup2\n        /* \"#utility.yul\":15182:15185   */\n      dup6\n        /* \"#utility.yul\":15108:15194   */\n      tag_500\n      jump\t// in\n    tag_707:\n        /* \"#utility.yul\":15101:15194   */\n      swap4\n      pop\n        /* \"#utility.yul\":15218:15274   */\n      tag_708\n        /* \"#utility.yul\":15268:15273   */\n      dup4\n        /* \"#utility.yul\":15218:15274   */\n      tag_501\n      jump\t// in\n    tag_708:\n        /* \"#utility.yul\":15297:15304   */\n      dup1\n        /* \"#utility.yul\":15328:15329   */\n      0x00\n        /* \"#utility.yul\":15313:15597   */\n    tag_709:\n        /* \"#utility.yul\":15338:15344   */\n      dup4\n        /* \"#utility.yul\":15335:15336   */\n      dup2\n        /* \"#utility.yul\":15332:15345   */\n      lt\n        /* \"#utility.yul\":15313:15597   */\n      iszero\n      tag_711\n      jumpi\n        /* \"#utility.yul\":15414:15420   */\n      dup2\n        /* \"#utility.yul\":15408:15421   */\n      mload\n        /* \"#utility.yul\":15441:15504   */\n      tag_712\n        /* \"#utility.yul\":15500:15503   */\n      dup9\n        /* \"#utility.yul\":15485:15498   */\n      dup3\n        /* \"#utility.yul\":15441:15504   */\n      tag_503\n      jump\t// in\n    tag_712:\n        /* \"#utility.yul\":15434:15504   */\n      swap8\n      pop\n        /* \"#utility.yul\":15527:15587   */\n      tag_713\n        /* \"#utility.yul\":15580:15586   */\n      dup4\n        /* \"#utility.yul\":15527:15587   */\n      tag_504\n      jump\t// in\n    tag_713:\n        /* \"#utility.yul\":15517:15587   */\n      swap3\n      pop\n        /* \"#utility.yul\":15373:15597   */\n      pop\n        /* \"#utility.yul\":15360:15361   */\n      0x01\n        /* \"#utility.yul\":15357:15358   */\n      dup2\n        /* \"#utility.yul\":15353:15362   */\n      add\n        /* \"#utility.yul\":15348:15362   */\n      swap1\n      pop\n        /* \"#utility.yul\":15313:15597   */\n      jump(tag_709)\n    tag_711:\n        /* \"#utility.yul\":15317:15331   */\n      pop\n        /* \"#utility.yul\":15613:15616   */\n      dup6\n        /* \"#utility.yul\":15606:15616   */\n      swap4\n      pop\n        /* \"#utility.yul\":15014:15622   */\n      pop\n      pop\n      pop\n        /* \"#utility.yul\":14890:15622   */\n      swap3\n      swap2\n      pop\n      pop\n      jump\t// out\n        /* \"#utility.yul\":15628:16001   */\n    tag_67:\n        /* \"#utility.yul\":15771:15775   */\n      0x00\n        /* \"#utility.yul\":15809:15811   */\n      0x20\n        /* \"#utility.yul\":15798:15807   */\n      dup3\n        /* \"#utility.yul\":15794:15812   */\n      add\n        /* \"#utility.yul\":15786:15812   */\n      swap1\n      pop\n        /* \"#utility.yul\":15858:15867   */\n      dup2\n        /* \"#utility.yul\":15852:15856   */\n      dup2\n        /* \"#utility.yul\":15848:15868   */\n      sub\n        /* \"#utility.yul\":15844:15845   */\n      0x00\n        /* \"#utility.yul\":15833:15842   */\n      dup4\n        /* \"#utility.yul\":15829:15846   */\n      add\n        /* \"#utility.yul\":15822:15869   */\n      mstore\n        /* \"#utility.yul\":15886:15994   */\n      tag_715\n        /* \"#utility.yul\":15989:15993   */\n      dup2\n        /* \"#utility.yul\":15980:15986   */\n      dup5\n        /* \"#utility.yul\":15886:15994   */\n      tag_505\n      jump\t// in\n    tag_715:\n        /* \"#utility.yul\":15878:15994   */\n      swap1\n      pop\n        /* \"#utility.yul\":15628:16001   */\n      swap3\n      swap2\n      pop\n      pop\n      jump\t// out\n        /* \"#utility.yul\":16007:16841   */\n    tag_79:\n        /* \"#utility.yul\":16095:16101   */\n      0x00\n        /* \"#utility.yul\":16103:16109   */\n      dup1\n        /* \"#utility.yul\":16152:16154   */\n      0x40\n        /* \"#utility.yul\":16140:16149   */\n      dup4\n        /* \"#utility.yul\":16131:16138   */\n      dup6\n        /* \"#utility.yul\":16127:16150   */\n      sub\n        /* \"#utility.yul\":16123:16155   */\n      slt\n        /* \"#utility.yul\":16120:16239   */\n      iszero\n      tag_717\n      jumpi\n        /* \"#utility.yul\":16158:16237   */\n      tag_718\n      tag_467\n      jump\t// in\n    tag_718:\n        /* \"#utility.yul\":16120:16239   */\n    tag_717:\n        /* \"#utility.yul\":16306:16307   */\n      0x00\n        /* \"#utility.yul\":16295:16304   */\n      dup4\n        /* \"#utility.yul\":16291:16308   */\n      add\n        /* \"#utility.yul\":16278:16309   */\n      calldataload\n        /* \"#utility.yul\":16336:16354   */\n      0xffffffffffffffff\n        /* \"#utility.yul\":16328:16334   */\n      dup2\n        /* \"#utility.yul\":16325:16355   */\n      gt\n        /* \"#utility.yul\":16322:16439   */\n      iszero\n      tag_719\n      jumpi\n        /* \"#utility.yul\":16358:16437   */\n      tag_720\n      tag_468\n      jump\t// in\n    tag_720:\n        /* \"#utility.yul\":16322:16439   */\n    tag_719:\n        /* \"#utility.yul\":16463:16526   */\n      tag_721\n        /* \"#utility.yul\":16518:16525   */\n      dup6\n        /* \"#utility.yul\":16509:16515   */\n      dup3\n        /* \"#utility.yul\":16498:16507   */\n      dup7\n        /* \"#utility.yul\":16494:16516   */\n      add\n        /* \"#utility.yul\":16463:16526   */\n      tag_476\n      jump\t// in\n    tag_721:\n        /* \"#utility.yul\":16453:16526   */\n      swap3\n      pop\n        /* \"#utility.yul\":16249:16536   */\n      pop\n        /* \"#utility.yul\":16603:16605   */\n      0x20\n        /* \"#utility.yul\":16592:16601   */\n      dup4\n        /* \"#utility.yul\":16588:16606   */\n      add\n        /* \"#utility.yul\":16575:16607   */\n      calldataload\n        /* \"#utility.yul\":16634:16652   */\n      0xffffffffffffffff\n        /* \"#utility.yul\":16626:16632   */\n      dup2\n        /* \"#utility.yul\":16623:16653   */\n      gt\n        /* \"#utility.yul\":16620:16737   */\n      iszero\n      tag_722\n      jumpi\n        /* \"#utility.yul\":16656:16735   */\n      tag_723\n      tag_468\n      jump\t// in\n    tag_723:\n        /* \"#utility.yul\":16620:16737   */\n    tag_722:\n        /* \"#utility.yul\":16761:16824   */\n      tag_724\n        /* \"#utility.yul\":16816:16823   */\n      dup6\n        /* \"#utility.yul\":16807:16813   */\n      dup3\n        /* \"#utility.yul\":16796:16805   */\n      dup7\n        /* \"#utility.yul\":16792:16814   */\n      add\n        /* \"#utility.yul\":16761:16824   */\n      tag_476\n      jump\t// in\n    tag_724:\n        /* \"#utility.yul\":16751:16824   */\n      swap2\n      pop\n        /* \"#utility.yul\":16546:16834   */\n      pop\n        /* \"#utility.yul\":16007:16841   */\n      swap3\n      pop\n      swap3\n      swap1\n      pop\n      jump\t// out\n        /* \"#utility.yul\":16933:17602   */\n    tag_506:\n        /* \"#utility.yul\":17070:17074   */\n      0x60\n        /* \"#utility.yul\":17065:17068   */\n      dup3\n        /* \"#utility.yul\":17061:17075   */\n      add\n        /* \"#utility.yul\":17156:17160   */\n      0x00\n        /* \"#utility.yul\":17149:17154   */\n      dup3\n        /* \"#utility.yul\":17145:17161   */\n      add\n        /* \"#utility.yul\":17139:17162   */\n      mload\n        /* \"#utility.yul\":17175:17238   */\n      tag_726\n        /* \"#utility.yul\":17232:17236   */\n      0x00\n        /* \"#utility.yul\":17227:17230   */\n      dup6\n        /* \"#utility.yul\":17223:17237   */\n      add\n        /* \"#utility.yul\":17209:17221   */\n      dup3\n        /* \"#utility.yul\":17175:17238   */\n      tag_502\n      jump\t// in\n    tag_726:\n        /* \"#utility.yul\":17085:17248   */\n      pop\n        /* \"#utility.yul\":17331:17335   */\n      0x20\n        /* \"#utility.yul\":17324:17329   */\n      dup3\n        /* \"#utility.yul\":17320:17336   */\n      add\n        /* \"#utility.yul\":17314:17337   */\n      mload\n        /* \"#utility.yul\":17350:17411   */\n      tag_727\n        /* \"#utility.yul\":17405:17409   */\n      0x20\n        /* \"#utility.yul\":17400:17403   */\n      dup6\n        /* \"#utility.yul\":17396:17410   */\n      add\n        /* \"#utility.yul\":17382:17394   */\n      dup3\n        /* \"#utility.yul\":17350:17411   */\n      tag_495\n      jump\t// in\n    tag_727:\n        /* \"#utility.yul\":17258:17421   */\n      pop\n        /* \"#utility.yul\":17503:17507   */\n      0x40\n        /* \"#utility.yul\":17496:17501   */\n      dup3\n        /* \"#utility.yul\":17492:17508   */\n      add\n        /* \"#utility.yul\":17486:17509   */\n      mload\n        /* \"#utility.yul\":17522:17585   */\n      tag_728\n        /* \"#utility.yul\":17579:17583   */\n      0x40\n        /* \"#utility.yul\":17574:17577   */\n      dup6\n        /* \"#utility.yul\":17570:17584   */\n      add\n        /* \"#utility.yul\":17556:17568   */\n      dup3\n        /* \"#utility.yul\":17522:17585   */\n      tag_502\n      jump\t// in\n    tag_728:\n        /* \"#utility.yul\":17431:17595   */\n      pop\n        /* \"#utility.yul\":17039:17602   */\n      pop\n        /* \"#utility.yul\":16933:17602   */\n      pop\n      pop\n      jump\t// out\n        /* \"#utility.yul\":17608:19209   */\n    tag_87:\n        /* \"#utility.yul\":18097:18101   */\n      0x00\n        /* \"#utility.yul\":18135:18138   */\n      0x01c0\n        /* \"#utility.yul\":18124:18133   */\n      dup3\n        /* \"#utility.yul\":18120:18139   */\n      add\n        /* \"#utility.yul\":18112:18139   */\n      swap1\n      pop\n        /* \"#utility.yul\":18185:18194   */\n      dup2\n        /* \"#utility.yul\":18179:18183   */\n      dup2\n        /* \"#utility.yul\":18175:18195   */\n      sub\n        /* \"#utility.yul\":18171:18172   */\n      0x00\n        /* \"#utility.yul\":18160:18169   */\n      dup4\n        /* \"#utility.yul\":18156:18173   */\n      add\n        /* \"#utility.yul\":18149:18196   */\n      mstore\n        /* \"#utility.yul\":18213:18291   */\n      tag_730\n        /* \"#utility.yul\":18286:18290   */\n      dup2\n        /* \"#utility.yul\":18277:18283   */\n      dup12\n        /* \"#utility.yul\":18213:18291   */\n      tag_465\n      jump\t// in\n    tag_730:\n        /* \"#utility.yul\":18205:18291   */\n      swap1\n      pop\n        /* \"#utility.yul\":18338:18347   */\n      dup2\n        /* \"#utility.yul\":18332:18336   */\n      dup2\n        /* \"#utility.yul\":18328:18348   */\n      sub\n        /* \"#utility.yul\":18323:18325   */\n      0x20\n        /* \"#utility.yul\":18312:18321   */\n      dup4\n        /* \"#utility.yul\":18308:18326   */\n      add\n        /* \"#utility.yul\":18301:18349   */\n      mstore\n        /* \"#utility.yul\":18366:18444   */\n      tag_731\n        /* \"#utility.yul\":18439:18443   */\n      dup2\n        /* \"#utility.yul\":18430:18436   */\n      dup11\n        /* \"#utility.yul\":18366:18444   */\n      tag_465\n      jump\t// in\n    tag_731:\n        /* \"#utility.yul\":18358:18444   */\n      swap1\n      pop\n        /* \"#utility.yul\":18491:18500   */\n      dup2\n        /* \"#utility.yul\":18485:18489   */\n      dup2\n        /* \"#utility.yul\":18481:18501   */\n      sub\n        /* \"#utility.yul\":18476:18478   */\n      0x40\n        /* \"#utility.yul\":18465:18474   */\n      dup4\n        /* \"#utility.yul\":18461:18479   */\n      add\n        /* \"#utility.yul\":18454:18502   */\n      mstore\n        /* \"#utility.yul\":18519:18597   */\n      tag_732\n        /* \"#utility.yul\":18592:18596   */\n      dup2\n        /* \"#utility.yul\":18583:18589   */\n      dup10\n        /* \"#utility.yul\":18519:18597   */\n      tag_465\n      jump\t// in\n    tag_732:\n        /* \"#utility.yul\":18511:18597   */\n      swap1\n      pop\n        /* \"#utility.yul\":18607:18679   */\n      tag_733\n        /* \"#utility.yul\":18675:18677   */\n      0x60\n        /* \"#utility.yul\":18664:18673   */\n      dup4\n        /* \"#utility.yul\":18660:18678   */\n      add\n        /* \"#utility.yul\":18651:18657   */\n      dup9\n        /* \"#utility.yul\":18607:18679   */\n      tag_487\n      jump\t// in\n    tag_733:\n        /* \"#utility.yul\":18689:18802   */\n      tag_734\n        /* \"#utility.yul\":18797:18800   */\n      0x80\n        /* \"#utility.yul\":18786:18795   */\n      dup4\n        /* \"#utility.yul\":18782:18801   */\n      add\n        /* \"#utility.yul\":18773:18779   */\n      dup8\n        /* \"#utility.yul\":18689:18802   */\n      tag_506\n      jump\t// in\n    tag_734:\n        /* \"#utility.yul\":18850:18859   */\n      dup2\n        /* \"#utility.yul\":18844:18848   */\n      dup2\n        /* \"#utility.yul\":18840:18860   */\n      sub\n        /* \"#utility.yul\":18834:18837   */\n      0xe0\n        /* \"#utility.yul\":18823:18832   */\n      dup4\n        /* \"#utility.yul\":18819:18838   */\n      add\n        /* \"#utility.yul\":18812:18861   */\n      mstore\n        /* \"#utility.yul\":18878:18956   */\n      tag_735\n        /* \"#utility.yul\":18951:18955   */\n      dup2\n        /* \"#utility.yul\":18942:18948   */\n      dup7\n        /* \"#utility.yul\":18878:18956   */\n      tag_465\n      jump\t// in\n    tag_735:\n        /* \"#utility.yul\":18870:18956   */\n      swap1\n      pop\n        /* \"#utility.yul\":18966:19079   */\n      tag_736\n        /* \"#utility.yul\":19074:19077   */\n      0x0100\n        /* \"#utility.yul\":19063:19072   */\n      dup4\n        /* \"#utility.yul\":19059:19078   */\n      add\n        /* \"#utility.yul\":19050:19056   */\n      dup6\n        /* \"#utility.yul\":18966:19079   */\n      tag_506\n      jump\t// in\n    tag_736:\n        /* \"#utility.yul\":19089:19202   */\n      tag_737\n        /* \"#utility.yul\":19197:19200   */\n      0x0160\n        /* \"#utility.yul\":19186:19195   */\n      dup4\n        /* \"#utility.yul\":19182:19201   */\n      add\n        /* \"#utility.yul\":19173:19179   */\n      dup5\n        /* \"#utility.yul\":19089:19202   */\n      tag_506\n      jump\t// in\n    tag_737:\n        /* \"#utility.yul\":17608:19209   */\n      swap10\n      swap9\n      pop\n      pop\n      pop\n      pop\n      pop\n      pop\n      pop\n      pop\n      pop\n      jump\t// out\n        /* \"#utility.yul\":19215:20434   */\n    tag_91:\n        /* \"#utility.yul\":19328:19334   */\n      0x00\n        /* \"#utility.yul\":19336:19342   */\n      dup1\n        /* \"#utility.yul\":19344:19350   */\n      0x00\n        /* \"#utility.yul\":19352:19358   */\n      dup1\n        /* \"#utility.yul\":19360:19366   */\n      0x00\n        /* \"#utility.yul\":19368:19374   */\n      dup1\n        /* \"#utility.yul\":19417:19419   */\n      0x60\n        /* \"#utility.yul\":19405:19414   */\n      dup8\n        /* \"#utility.yul\":19396:19403   */\n      dup10\n        /* \"#utility.yul\":19392:19415   */\n      sub\n        /* \"#utility.yul\":19388:19420   */\n      slt\n        /* \"#utility.yul\":19385:19504   */\n      iszero\n      tag_739\n      jumpi\n        /* \"#utility.yul\":19423:19502   */\n      tag_740\n      tag_467\n      jump\t// in\n    tag_740:\n        /* \"#utility.yul\":19385:19504   */\n    tag_739:\n        /* \"#utility.yul\":19571:19572   */\n      0x00\n        /* \"#utility.yul\":19560:19569   */\n      dup8\n        /* \"#utility.yul\":19556:19573   */\n      add\n        /* \"#utility.yul\":19543:19574   */\n      calldataload\n        /* \"#utility.yul\":19601:19619   */\n      0xffffffffffffffff\n        /* \"#utility.yul\":19593:19599   */\n      dup2\n        /* \"#utility.yul\":19590:19620   */\n      gt\n        /* \"#utility.yul\":19587:19704   */\n      iszero\n      tag_741\n      jumpi\n        /* \"#utility.yul\":19623:19702   */\n      tag_742\n      tag_468\n      jump\t// in\n    tag_742:\n        /* \"#utility.yul\":19587:19704   */\n    tag_741:\n        /* \"#utility.yul\":19736:19801   */\n      tag_743\n        /* \"#utility.yul\":19793:19800   */\n      dup10\n        /* \"#utility.yul\":19784:19790   */\n      dup3\n        /* \"#utility.yul\":19773:19782   */\n      dup11\n        /* \"#utility.yul\":19769:19791   */\n      add\n        /* \"#utility.yul\":19736:19801   */\n      tag_479\n      jump\t// in\n    tag_743:\n        /* \"#utility.yul\":19718:19801   */\n      swap7\n      pop\n      swap7\n      pop\n        /* \"#utility.yul\":19514:19811   */\n      pop\n        /* \"#utility.yul\":19878:19880   */\n      0x20\n        /* \"#utility.yul\":19867:19876   */\n      dup8\n        /* \"#utility.yul\":19863:19881   */\n      add\n        /* \"#utility.yul\":19850:19882   */\n      calldataload\n        /* \"#utility.yul\":19909:19927   */\n      0xffffffffffffffff\n        /* \"#utility.yul\":19901:19907   */\n      dup2\n        /* \"#utility.yul\":19898:19928   */\n      gt\n        /* \"#utility.yul\":19895:20012   */\n      iszero\n      tag_744\n      jumpi\n        /* \"#utility.yul\":19931:20010   */\n      tag_745\n      tag_468\n      jump\t// in\n    tag_745:\n        /* \"#utility.yul\":19895:20012   */\n    tag_744:\n        /* \"#utility.yul\":20044:20109   */\n      tag_746\n        /* \"#utility.yul\":20101:20108   */\n      dup10\n        /* \"#utility.yul\":20092:20098   */\n      dup3\n        /* \"#utility.yul\":20081:20090   */\n      dup11\n        /* \"#utility.yul\":20077:20099   */\n      add\n        /* \"#utility.yul\":20044:20109   */\n      tag_479\n      jump\t// in\n    tag_746:\n        /* \"#utility.yul\":20026:20109   */\n      swap5\n      pop\n      swap5\n      pop\n        /* \"#utility.yul\":19821:20119   */\n      pop\n        /* \"#utility.yul\":20186:20188   */\n      0x40\n        /* \"#utility.yul\":20175:20184   */\n      dup8\n        /* \"#utility.yul\":20171:20189   */\n      add\n        /* \"#utility.yul\":20158:20190   */\n      calldataload\n        /* \"#utility.yul\":20217:20235   */\n      0xffffffffffffffff\n        /* \"#utility.yul\":20209:20215   */\n      dup2\n        /* \"#utility.yul\":20206:20236   */\n      gt\n        /* \"#utility.yul\":20203:20320   */\n      iszero\n      tag_747\n      jumpi\n        /* \"#utility.yul\":20239:20318   */\n      tag_748\n      tag_468\n      jump\t// in\n    tag_748:\n        /* \"#utility.yul\":20203:20320   */\n    tag_747:\n        /* \"#utility.yul\":20352:20417   */\n      tag_749\n        /* \"#utility.yul\":20409:20416   */\n      dup10\n        /* \"#utility.yul\":20400:20406   */\n      dup3\n        /* \"#utility.yul\":20389:20398   */\n      dup11\n        /* \"#utility.yul\":20385:20407   */\n      add\n        /* \"#utility.yul\":20352:20417   */\n      tag_479\n      jump\t// in\n    tag_749:\n        /* \"#utility.yul\":20334:20417   */\n      swap3\n      pop\n      swap3\n      pop\n        /* \"#utility.yul\":20129:20427   */\n      pop\n        /* \"#utility.yul\":19215:20434   */\n      swap3\n      swap6\n      pop\n      swap3\n      swap6\n      pop\n      swap3\n      swap6\n      jump\t// out\n        /* \"#utility.yul\":20440:20767   */\n    tag_97:\n        /* \"#utility.yul\":20498:20504   */\n      0x00\n        /* \"#utility.yul\":20547:20549   */\n      0x20\n        /* \"#utility.yul\":20535:20544   */\n      dup3\n        /* \"#utility.yul\":20526:20533   */\n      dup5\n        /* \"#utility.yul\":20522:20545   */\n      sub\n        /* \"#utility.yul\":20518:20550   */\n      slt\n        /* \"#utility.yul\":20515:20634   */\n      iszero\n      tag_751\n      jumpi\n        /* \"#utility.yul\":20553:20632   */\n      tag_752\n      tag_467\n      jump\t// in\n    tag_752:\n        /* \"#utility.yul\":20515:20634   */\n    tag_751:\n        /* \"#utility.yul\":20673:20674   */\n      0x00\n        /* \"#utility.yul\":20698:20750   */\n      tag_753\n        /* \"#utility.yul\":20742:20749   */\n      dup5\n        /* \"#utility.yul\":20733:20739   */\n      dup3\n        /* \"#utility.yul\":20722:20731   */\n      dup6\n        /* \"#utility.yul\":20718:20740   */\n      add\n        /* \"#utility.yul\":20698:20750   */\n      tag_491\n      jump\t// in\n    tag_753:\n        /* \"#utility.yul\":20688:20750   */\n      swap2\n      pop\n        /* \"#utility.yul\":20644:20760   */\n      pop\n        /* \"#utility.yul\":20440:20767   */\n      swap3\n      swap2\n      pop\n      pop\n      jump\t// out\n        /* \"#utility.yul\":20773:20911   */\n    tag_507:\n        /* \"#utility.yul\":20864:20870   */\n      0x00\n        /* \"#utility.yul\":20898:20903   */\n      dup2\n        /* \"#utility.yul\":20892:20904   */\n      mload\n        /* \"#utility.yul\":20882:20904   */\n      swap1\n      pop\n        /* \"#utility.yul\":20773:20911   */\n      swap2\n      swap1\n      pop\n      jump\t// out\n        /* \"#utility.yul\":20917:21125   */\n    tag_508:\n        /* \"#utility.yul\":21040:21051   */\n      0x00\n        /* \"#utility.yul\":21074:21080   */\n      dup3\n        /* \"#utility.yul\":21069:21072   */\n      dup3\n        /* \"#utility.yul\":21062:21081   */\n      mstore\n        /* \"#utility.yul\":21114:21118   */\n      0x20\n        /* \"#utility.yul\":21109:21112   */\n      dup3\n        /* \"#utility.yul\":21105:21119   */\n      add\n        /* \"#utility.yul\":21090:21119   */\n      swap1\n      pop\n        /* \"#utility.yul\":20917:21125   */\n      swap3\n      swap2\n      pop\n      pop\n      jump\t// out\n        /* \"#utility.yul\":21131:21287   */\n    tag_509:\n        /* \"#utility.yul\":21222:21226   */\n      0x00\n        /* \"#utility.yul\":21245:21248   */\n      dup2\n        /* \"#utility.yul\":21237:21248   */\n      swap1\n      pop\n        /* \"#utility.yul\":21275:21279   */\n      0x20\n        /* \"#utility.yul\":21270:21273   */\n      dup3\n        /* \"#utility.yul\":21266:21280   */\n      add\n        /* \"#utility.yul\":21258:21280   */\n      swap1\n      pop\n        /* \"#utility.yul\":21131:21287   */\n      swap2\n      swap1\n      pop\n      jump\t// out\n        /* \"#utility.yul\":21293:21452   */\n    tag_510:\n        /* \"#utility.yul\":21367:21378   */\n      0x00\n        /* \"#utility.yul\":21401:21407   */\n      dup3\n        /* \"#utility.yul\":21396:21399   */\n      dup3\n        /* \"#utility.yul\":21389:21408   */\n      mstore\n        /* \"#utility.yul\":21441:21445   */\n      0x20\n        /* \"#utility.yul\":21436:21439   */\n      dup3\n        /* \"#utility.yul\":21432:21446   */\n      add\n        /* \"#utility.yul\":21417:21446   */\n      swap1\n      pop\n        /* \"#utility.yul\":21293:21452   */\n      swap3\n      swap2\n      pop\n      pop\n      jump\t// out\n        /* \"#utility.yul\":21458:21815   */\n    tag_511:\n        /* \"#utility.yul\":21536:21539   */\n      0x00\n        /* \"#utility.yul\":21564:21603   */\n      tag_759\n        /* \"#utility.yul\":21597:21602   */\n      dup3\n        /* \"#utility.yul\":21564:21603   */\n      tag_461\n      jump\t// in\n    tag_759:\n        /* \"#utility.yul\":21619:21680   */\n      tag_760\n        /* \"#utility.yul\":21673:21679   */\n      dup2\n        /* \"#utility.yul\":21668:21671   */\n      dup6\n        /* \"#utility.yul\":21619:21680   */\n      tag_510\n      jump\t// in\n    tag_760:\n        /* \"#utility.yul\":21612:21680   */\n      swap4\n      pop\n        /* \"#utility.yul\":21689:21754   */\n      tag_761\n        /* \"#utility.yul\":21747:21753   */\n      dup2\n        /* \"#utility.yul\":21742:21745   */\n      dup6\n        /* \"#utility.yul\":21735:21739   */\n      0x20\n        /* \"#utility.yul\":21728:21733   */\n      dup7\n        /* \"#utility.yul\":21724:21740   */\n      add\n        /* \"#utility.yul\":21689:21754   */\n      tag_463\n      jump\t// in\n    tag_761:\n        /* \"#utility.yul\":21779:21808   */\n      tag_762\n        /* \"#utility.yul\":21801:21807   */\n      dup2\n        /* \"#utility.yul\":21779:21808   */\n      tag_464\n      jump\t// in\n    tag_762:\n        /* \"#utility.yul\":21774:21777   */\n      dup5\n        /* \"#utility.yul\":21770:21809   */\n      add\n        /* \"#utility.yul\":21763:21809   */\n      swap2\n      pop\n        /* \"#utility.yul\":21540:21815   */\n      pop\n        /* \"#utility.yul\":21458:21815   */\n      swap3\n      swap2\n      pop\n      pop\n      jump\t// out\n        /* \"#utility.yul\":21907:22566   */\n    tag_512:\n        /* \"#utility.yul\":22034:22038   */\n      0x60\n        /* \"#utility.yul\":22029:22032   */\n      dup3\n        /* \"#utility.yul\":22025:22039   */\n      add\n        /* \"#utility.yul\":22120:22124   */\n      0x00\n        /* \"#utility.yul\":22113:22118   */\n      dup3\n        /* \"#utility.yul\":22109:22125   */\n      add\n        /* \"#utility.yul\":22103:22126   */\n      mload\n        /* \"#utility.yul\":22139:22202   */\n      tag_764\n        /* \"#utility.yul\":22196:22200   */\n      0x00\n        /* \"#utility.yul\":22191:22194   */\n      dup6\n        /* \"#utility.yul\":22187:22201   */\n      add\n        /* \"#utility.yul\":22173:22185   */\n      dup3\n        /* \"#utility.yul\":22139:22202   */\n      tag_502\n      jump\t// in\n    tag_764:\n        /* \"#utility.yul\":22049:22212   */\n      pop\n        /* \"#utility.yul\":22295:22299   */\n      0x20\n        /* \"#utility.yul\":22288:22293   */\n      dup3\n        /* \"#utility.yul\":22284:22300   */\n      add\n        /* \"#utility.yul\":22278:22301   */\n      mload\n        /* \"#utility.yul\":22314:22375   */\n      tag_765\n        /* \"#utility.yul\":22369:22373   */\n      0x20\n        /* \"#utility.yul\":22364:22367   */\n      dup6\n        /* \"#utility.yul\":22360:22374   */\n      add\n        /* \"#utility.yul\":22346:22358   */\n      dup3\n        /* \"#utility.yul\":22314:22375   */\n      tag_495\n      jump\t// in\n    tag_765:\n        /* \"#utility.yul\":22222:22385   */\n      pop\n        /* \"#utility.yul\":22467:22471   */\n      0x40\n        /* \"#utility.yul\":22460:22465   */\n      dup3\n        /* \"#utility.yul\":22456:22472   */\n      add\n        /* \"#utility.yul\":22450:22473   */\n      mload\n        /* \"#utility.yul\":22486:22549   */\n      tag_766\n        /* \"#utility.yul\":22543:22547   */\n      0x40\n        /* \"#utility.yul\":22538:22541   */\n      dup6\n        /* \"#utility.yul\":22534:22548   */\n      add\n        /* \"#utility.yul\":22520:22532   */\n      dup3\n        /* \"#utility.yul\":22486:22549   */\n      tag_502\n      jump\t// in\n    tag_766:\n        /* \"#utility.yul\":22395:22559   */\n      pop\n        /* \"#utility.yul\":22003:22566   */\n      pop\n        /* \"#utility.yul\":21907:22566   */\n      pop\n      pop\n      jump\t// out\n        /* \"#utility.yul\":22666:24710   */\n    tag_513:\n        /* \"#utility.yul\":22773:22776   */\n      0x00\n        /* \"#utility.yul\":22809:22815   */\n      0x01c0\n        /* \"#utility.yul\":22804:22807   */\n      dup4\n        /* \"#utility.yul\":22800:22816   */\n      add\n        /* \"#utility.yul\":22903:22907   */\n      0x00\n        /* \"#utility.yul\":22896:22901   */\n      dup4\n        /* \"#utility.yul\":22892:22908   */\n      add\n        /* \"#utility.yul\":22886:22909   */\n      mload\n        /* \"#utility.yul\":22956:22959   */\n      dup5\n        /* \"#utility.yul\":22950:22954   */\n      dup3\n        /* \"#utility.yul\":22946:22960   */\n      sub\n        /* \"#utility.yul\":22939:22943   */\n      0x00\n        /* \"#utility.yul\":22934:22937   */\n      dup7\n        /* \"#utility.yul\":22930:22944   */\n      add\n        /* \"#utility.yul\":22923:22961   */\n      mstore\n        /* \"#utility.yul\":22982:23055   */\n      tag_768\n        /* \"#utility.yul\":23050:23054   */\n      dup3\n        /* \"#utility.yul\":23036:23048   */\n      dup3\n        /* \"#utility.yul\":22982:23055   */\n      tag_511\n      jump\t// in\n    tag_768:\n        /* \"#utility.yul\":22974:23055   */\n      swap2\n      pop\n        /* \"#utility.yul\":22826:23066   */\n      pop\n        /* \"#utility.yul\":23156:23160   */\n      0x20\n        /* \"#utility.yul\":23149:23154   */\n      dup4\n        /* \"#utility.yul\":23145:23161   */\n      add\n        /* \"#utility.yul\":23139:23162   */\n      mload\n        /* \"#utility.yul\":23209:23212   */\n      dup5\n        /* \"#utility.yul\":23203:23207   */\n      dup3\n        /* \"#utility.yul\":23199:23213   */\n      sub\n        /* \"#utility.yul\":23192:23196   */\n      0x20\n        /* \"#utility.yul\":23187:23190   */\n      dup7\n        /* \"#utility.yul\":23183:23197   */\n      add\n        /* \"#utility.yul\":23176:23214   */\n      mstore\n        /* \"#utility.yul\":23235:23308   */\n      tag_769\n        /* \"#utility.yul\":23303:23307   */\n      dup3\n        /* \"#utility.yul\":23289:23301   */\n      dup3\n        /* \"#utility.yul\":23235:23308   */\n      tag_511\n      jump\t// in\n    tag_769:\n        /* \"#utility.yul\":23227:23308   */\n      swap2\n      pop\n        /* \"#utility.yul\":23076:23319   */\n      pop\n        /* \"#utility.yul\":23405:23409   */\n      0x40\n        /* \"#utility.yul\":23398:23403   */\n      dup4\n        /* \"#utility.yul\":23394:23410   */\n      add\n        /* \"#utility.yul\":23388:23411   */\n      mload\n        /* \"#utility.yul\":23458:23461   */\n      dup5\n        /* \"#utility.yul\":23452:23456   */\n      dup3\n        /* \"#utility.yul\":23448:23462   */\n      sub\n        /* \"#utility.yul\":23441:23445   */\n      0x40\n        /* \"#utility.yul\":23436:23439   */\n      dup7\n        /* \"#utility.yul\":23432:23446   */\n      add\n        /* \"#utility.yul\":23425:23463   */\n      mstore\n        /* \"#utility.yul\":23484:23557   */\n      tag_770\n        /* \"#utility.yul\":23552:23556   */\n      dup3\n        /* \"#utility.yul\":23538:23550   */\n      dup3\n        /* \"#utility.yul\":23484:23557   */\n      tag_511\n      jump\t// in\n    tag_770:\n        /* \"#utility.yul\":23476:23557   */\n      swap2\n      pop\n        /* \"#utility.yul\":23329:23568   */\n      pop\n        /* \"#utility.yul\":23667:23671   */\n      0x60\n        /* \"#utility.yul\":23660:23665   */\n      dup4\n        /* \"#utility.yul\":23656:23672   */\n      add\n        /* \"#utility.yul\":23650:23673   */\n      mload\n        /* \"#utility.yul\":23686:23749   */\n      tag_771\n        /* \"#utility.yul\":23743:23747   */\n      0x60\n        /* \"#utility.yul\":23738:23741   */\n      dup7\n        /* \"#utility.yul\":23734:23748   */\n      add\n        /* \"#utility.yul\":23720:23732   */\n      dup3\n        /* \"#utility.yul\":23686:23749   */\n      tag_502\n      jump\t// in\n    tag_771:\n        /* \"#utility.yul\":23578:23759   */\n      pop\n        /* \"#utility.yul\":23850:23854   */\n      0x80\n        /* \"#utility.yul\":23843:23848   */\n      dup4\n        /* \"#utility.yul\":23839:23855   */\n      add\n        /* \"#utility.yul\":23833:23856   */\n      mload\n        /* \"#utility.yul\":23869:23972   */\n      tag_772\n        /* \"#utility.yul\":23966:23970   */\n      0x80\n        /* \"#utility.yul\":23961:23964   */\n      dup7\n        /* \"#utility.yul\":23957:23971   */\n      add\n        /* \"#utility.yul\":23943:23955   */\n      dup3\n        /* \"#utility.yul\":23869:23972   */\n      tag_512\n      jump\t// in\n    tag_772:\n        /* \"#utility.yul\":23769:23982   */\n      pop\n        /* \"#utility.yul\":24082:24086   */\n      0xa0\n        /* \"#utility.yul\":24075:24080   */\n      dup4\n        /* \"#utility.yul\":24071:24087   */\n      add\n        /* \"#utility.yul\":24065:24088   */\n      mload\n        /* \"#utility.yul\":24135:24138   */\n      dup5\n        /* \"#utility.yul\":24129:24133   */\n      dup3\n        /* \"#utility.yul\":24125:24139   */\n      sub\n        /* \"#utility.yul\":24118:24122   */\n      0xe0\n        /* \"#utility.yul\":24113:24116   */\n      dup7\n        /* \"#utility.yul\":24109:24123   */\n      add\n        /* \"#utility.yul\":24102:24140   */\n      mstore\n        /* \"#utility.yul\":24161:24234   */\n      tag_773\n        /* \"#utility.yul\":24229:24233   */\n      dup3\n        /* \"#utility.yul\":24215:24227   */\n      dup3\n        /* \"#utility.yul\":24161:24234   */\n      tag_511\n      jump\t// in\n    tag_773:\n        /* \"#utility.yul\":24153:24234   */\n      swap2\n      pop\n        /* \"#utility.yul\":23992:24245   */\n      pop\n        /* \"#utility.yul\":24330:24334   */\n      0xc0\n        /* \"#utility.yul\":24323:24328   */\n      dup4\n        /* \"#utility.yul\":24319:24335   */\n      add\n        /* \"#utility.yul\":24313:24336   */\n      mload\n        /* \"#utility.yul\":24349:24454   */\n      tag_774\n        /* \"#utility.yul\":24446:24452   */\n      0x0100\n        /* \"#utility.yul\":24441:24444   */\n      dup7\n        /* \"#utility.yul\":24437:24453   */\n      add\n        /* \"#utility.yul\":24423:24435   */\n      dup3\n        /* \"#utility.yul\":24349:24454   */\n      tag_512\n      jump\t// in\n    tag_774:\n        /* \"#utility.yul\":24255:24464   */\n      pop\n        /* \"#utility.yul\":24549:24553   */\n      0xe0\n        /* \"#utility.yul\":24542:24547   */\n      dup4\n        /* \"#utility.yul\":24538:24554   */\n      add\n        /* \"#utility.yul\":24532:24555   */\n      mload\n        /* \"#utility.yul\":24568:24673   */\n      tag_775\n        /* \"#utility.yul\":24665:24671   */\n      0x0160\n        /* \"#utility.yul\":24660:24663   */\n      dup7\n        /* \"#utility.yul\":24656:24672   */\n      add\n        /* \"#utility.yul\":24642:24654   */\n      dup3\n        /* \"#utility.yul\":24568:24673   */\n      tag_512\n      jump\t// in\n    tag_775:\n        /* \"#utility.yul\":24474:24683   */\n      pop\n        /* \"#utility.yul\":24700:24704   */\n      dup1\n        /* \"#utility.yul\":24693:24704   */\n      swap2\n      pop\n        /* \"#utility.yul\":22778:24710   */\n      pop\n        /* \"#utility.yul\":22666:24710   */\n      swap3\n      swap2\n      pop\n      pop\n      jump\t// out\n        /* \"#utility.yul\":24716:24968   */\n    tag_514:\n        /* \"#utility.yul\":24833:24843   */\n      0x00\n        /* \"#utility.yul\":24868:24962   */\n      tag_777\n        /* \"#utility.yul\":24958:24961   */\n      dup4\n        /* \"#utility.yul\":24950:24956   */\n      dup4\n        /* \"#utility.yul\":24868:24962   */\n      tag_513\n      jump\t// in\n    tag_777:\n        /* \"#utility.yul\":24854:24962   */\n      swap1\n      pop\n        /* \"#utility.yul\":24716:24968   */\n      swap3\n      swap2\n      pop\n      pop\n      jump\t// out\n        /* \"#utility.yul\":24974:25111   */\n    tag_515:\n        /* \"#utility.yul\":25068:25072   */\n      0x00\n        /* \"#utility.yul\":25100:25104   */\n      0x20\n        /* \"#utility.yul\":25095:25098   */\n      dup3\n        /* \"#utility.yul\":25091:25105   */\n      add\n        /* \"#utility.yul\":25083:25105   */\n      swap1\n      pop\n        /* \"#utility.yul\":24974:25111   */\n      swap2\n      swap1\n      pop\n      jump\t// out\n        /* \"#utility.yul\":25215:26318   */\n    tag_516:\n        /* \"#utility.yul\":25382:25385   */\n      0x00\n        /* \"#utility.yul\":25411:25489   */\n      tag_780\n        /* \"#utility.yul\":25483:25488   */\n      dup3\n        /* \"#utility.yul\":25411:25489   */\n      tag_507\n      jump\t// in\n    tag_780:\n        /* \"#utility.yul\":25505:25615   */\n      tag_781\n        /* \"#utility.yul\":25608:25614   */\n      dup2\n        /* \"#utility.yul\":25603:25606   */\n      dup6\n        /* \"#utility.yul\":25505:25615   */\n      tag_508\n      jump\t// in\n    tag_781:\n        /* \"#utility.yul\":25498:25615   */\n      swap4\n      pop\n        /* \"#utility.yul\":25641:25644   */\n      dup4\n        /* \"#utility.yul\":25686:25690   */\n      0x20\n        /* \"#utility.yul\":25678:25684   */\n      dup3\n        /* \"#utility.yul\":25674:25691   */\n      mul\n        /* \"#utility.yul\":25669:25672   */\n      dup6\n        /* \"#utility.yul\":25665:25692   */\n      add\n        /* \"#utility.yul\":25716:25796   */\n      tag_782\n        /* \"#utility.yul\":25790:25795   */\n      dup6\n        /* \"#utility.yul\":25716:25796   */\n      tag_509\n      jump\t// in\n    tag_782:\n        /* \"#utility.yul\":25819:25826   */\n      dup1\n        /* \"#utility.yul\":25850:25851   */\n      0x00\n        /* \"#utility.yul\":25835:26273   */\n    tag_783:\n        /* \"#utility.yul\":25860:25866   */\n      dup6\n        /* \"#utility.yul\":25857:25858   */\n      dup2\n        /* \"#utility.yul\":25854:25867   */\n      lt\n        /* \"#utility.yul\":25835:26273   */\n      iszero\n      tag_785\n      jumpi\n        /* \"#utility.yul\":25931:25940   */\n      dup5\n        /* \"#utility.yul\":25925:25929   */\n      dup5\n        /* \"#utility.yul\":25921:25941   */\n      sub\n        /* \"#utility.yul\":25916:25919   */\n      dup10\n        /* \"#utility.yul\":25909:25942   */\n      mstore\n        /* \"#utility.yul\":25982:25988   */\n      dup2\n        /* \"#utility.yul\":25976:25989   */\n      mload\n        /* \"#utility.yul\":26010:26122   */\n      tag_786\n        /* \"#utility.yul\":26117:26121   */\n      dup6\n        /* \"#utility.yul\":26102:26115   */\n      dup3\n        /* \"#utility.yul\":26010:26122   */\n      tag_514\n      jump\t// in\n    tag_786:\n        /* \"#utility.yul\":26002:26122   */\n      swap5\n      pop\n        /* \"#utility.yul\":26145:26229   */\n      tag_787\n        /* \"#utility.yul\":26222:26228   */\n      dup4\n        /* \"#utility.yul\":26145:26229   */\n      tag_515\n      jump\t// in\n    tag_787:\n        /* \"#utility.yul\":26135:26229   */\n      swap3\n      pop\n        /* \"#utility.yul\":26258:26262   */\n      0x20\n        /* \"#utility.yul\":26253:26256   */\n      dup11\n        /* \"#utility.yul\":26249:26263   */\n      add\n        /* \"#utility.yul\":26242:26263   */\n      swap10\n      pop\n        /* \"#utility.yul\":25895:26273   */\n      pop\n        /* \"#utility.yul\":25882:25883   */\n      0x01\n        /* \"#utility.yul\":25879:25880   */\n      dup2\n        /* \"#utility.yul\":25875:25884   */\n      add\n        /* \"#utility.yul\":25870:25884   */\n      swap1\n      pop\n        /* \"#utility.yul\":25835:26273   */\n      jump(tag_783)\n    tag_785:\n        /* \"#utility.yul\":25839:25853   */\n      pop\n        /* \"#utility.yul\":26289:26293   */\n      dup3\n        /* \"#utility.yul\":26282:26293   */\n      swap8\n      pop\n        /* \"#utility.yul\":26309:26312   */\n      dup8\n        /* \"#utility.yul\":26302:26312   */\n      swap6\n      pop\n        /* \"#utility.yul\":25387:26318   */\n      pop\n      pop\n      pop\n      pop\n      pop\n        /* \"#utility.yul\":25215:26318   */\n      swap3\n      swap2\n      pop\n      pop\n      jump\t// out\n        /* \"#utility.yul\":26324:26793   */\n    tag_104:\n        /* \"#utility.yul\":26515:26519   */\n      0x00\n        /* \"#utility.yul\":26553:26555   */\n      0x20\n        /* \"#utility.yul\":26542:26551   */\n      dup3\n        /* \"#utility.yul\":26538:26556   */\n      add\n        /* \"#utility.yul\":26530:26556   */\n      swap1\n      pop\n        /* \"#utility.yul\":26602:26611   */\n      dup2\n        /* \"#utility.yul\":26596:26600   */\n      dup2\n        /* \"#utility.yul\":26592:26612   */\n      sub\n        /* \"#utility.yul\":26588:26589   */\n      0x00\n        /* \"#utility.yul\":26577:26586   */\n      dup4\n        /* \"#utility.yul\":26573:26590   */\n      add\n        /* \"#utility.yul\":26566:26613   */\n      mstore\n        /* \"#utility.yul\":26630:26786   */\n      tag_789\n        /* \"#utility.yul\":26781:26785   */\n      dup2\n        /* \"#utility.yul\":26772:26778   */\n      dup5\n        /* \"#utility.yul\":26630:26786   */\n      tag_516\n      jump\t// in\n    tag_789:\n        /* \"#utility.yul\":26622:26786   */\n      swap1\n      pop\n        /* \"#utility.yul\":26324:26793   */\n      swap3\n      swap2\n      pop\n      pop\n      jump\t// out\n        /* \"#utility.yul\":26799:26979   */\n    tag_517:\n        /* \"#utility.yul\":26847:26924   */\n      0x4e487b7100000000000000000000000000000000000000000000000000000000\n        /* \"#utility.yul\":26844:26845   */\n      0x00\n        /* \"#utility.yul\":26837:26925   */\n      mstore\n        /* \"#utility.yul\":26944:26948   */\n      0x22\n        /* \"#utility.yul\":26941:26942   */\n      0x04\n        /* \"#utility.yul\":26934:26949   */\n      mstore\n        /* \"#utility.yul\":26968:26972   */\n      0x24\n        /* \"#utility.yul\":26965:26966   */\n      0x00\n        /* \"#utility.yul\":26958:26973   */\n      revert\n        /* \"#utility.yul\":26985:27305   */\n    tag_106:\n        /* \"#utility.yul\":27029:27035   */\n      0x00\n        /* \"#utility.yul\":27066:27067   */\n      0x02\n        /* \"#utility.yul\":27060:27064   */\n      dup3\n        /* \"#utility.yul\":27056:27068   */\n      div\n        /* \"#utility.yul\":27046:27068   */\n      swap1\n      pop\n        /* \"#utility.yul\":27113:27114   */\n      0x01\n        /* \"#utility.yul\":27107:27111   */\n      dup3\n        /* \"#utility.yul\":27103:27115   */\n      and\n        /* \"#utility.yul\":27134:27152   */\n      dup1\n        /* \"#utility.yul\":27124:27205   */\n      tag_792\n      jumpi\n        /* \"#utility.yul\":27190:27194   */\n      0x7f\n        /* \"#utility.yul\":27182:27188   */\n      dup3\n        /* \"#utility.yul\":27178:27195   */\n      and\n        /* \"#utility.yul\":27168:27195   */\n      swap2\n      pop\n        /* \"#utility.yul\":27124:27205   */\n    tag_792:\n        /* \"#utility.yul\":27252:27254   */\n      0x20\n        /* \"#utility.yul\":27244:27250   */\n      dup3\n        /* \"#utility.yul\":27241:27255   */\n      lt\n        /* \"#utility.yul\":27221:27239   */\n      dup2\n        /* \"#utility.yul\":27218:27256   */\n      sub\n        /* \"#utility.yul\":27215:27299   */\n      tag_793\n      jumpi\n        /* \"#utility.yul\":27271:27289   */\n      tag_794\n      tag_517\n      jump\t// in\n    tag_794:\n        /* \"#utility.yul\":27215:27299   */\n    tag_793:\n        /* \"#utility.yul\":27036:27305   */\n      pop\n        /* \"#utility.yul\":26985:27305   */\n      swap2\n      swap1\n      pop\n      jump\t// out\n        /* \"#utility.yul\":27311:27491   */\n    tag_118:\n        /* \"#utility.yul\":27359:27436   */\n      0x4e487b7100000000000000000000000000000000000000000000000000000000\n        /* \"#utility.yul\":27356:27357   */\n      0x00\n        /* \"#utility.yul\":27349:27437   */\n      mstore\n        /* \"#utility.yul\":27456:27460   */\n      0x32\n        /* \"#utility.yul\":27453:27454   */\n      0x04\n        /* \"#utility.yul\":27446:27461   */\n      mstore\n        /* \"#utility.yul\":27480:27484   */\n      0x24\n        /* \"#utility.yul\":27477:27478   */\n      0x00\n        /* \"#utility.yul\":27470:27485   */\n      revert\n        /* \"#utility.yul\":27497:27614   */\n    tag_518:\n        /* \"#utility.yul\":27606:27607   */\n      0x00\n        /* \"#utility.yul\":27603:27604   */\n      dup1\n        /* \"#utility.yul\":27596:27608   */\n      revert\n        /* \"#utility.yul\":27788:28517   */\n    tag_520:\n        /* \"#utility.yul\":27857:27862   */\n      0x00\n        /* \"#utility.yul\":27901:27905   */\n      0x60\n        /* \"#utility.yul\":27889:27898   */\n      dup3\n        /* \"#utility.yul\":27884:27887   */\n      dup5\n        /* \"#utility.yul\":27880:27899   */\n      sub\n        /* \"#utility.yul\":27876:27906   */\n      slt\n        /* \"#utility.yul\":27873:27990   */\n      iszero\n      tag_799\n      jumpi\n        /* \"#utility.yul\":27909:27988   */\n      tag_800\n      tag_518\n      jump\t// in\n    tag_800:\n        /* \"#utility.yul\":27873:27990   */\n    tag_799:\n        /* \"#utility.yul\":28008:28029   */\n      tag_801\n        /* \"#utility.yul\":28024:28028   */\n      0x60\n        /* \"#utility.yul\":28008:28029   */\n      tag_472\n      jump\t// in\n    tag_801:\n        /* \"#utility.yul\":27999:28029   */\n      swap1\n      pop\n        /* \"#utility.yul\":28087:28088   */\n      0x00\n        /* \"#utility.yul\":28127:28176   */\n      tag_802\n        /* \"#utility.yul\":28172:28175   */\n      dup5\n        /* \"#utility.yul\":28163:28169   */\n      dup3\n        /* \"#utility.yul\":28152:28161   */\n      dup6\n        /* \"#utility.yul\":28148:28170   */\n      add\n        /* \"#utility.yul\":28127:28176   */\n      tag_482\n      jump\t// in\n    tag_802:\n        /* \"#utility.yul\":28120:28124   */\n      0x00\n        /* \"#utility.yul\":28113:28118   */\n      dup4\n        /* \"#utility.yul\":28109:28125   */\n      add\n        /* \"#utility.yul\":28102:28177   */\n      mstore\n        /* \"#utility.yul\":28039:28188   */\n      pop\n        /* \"#utility.yul\":28248:28250   */\n      0x20\n        /* \"#utility.yul\":28289:28337   */\n      tag_803\n        /* \"#utility.yul\":28333:28336   */\n      dup5\n        /* \"#utility.yul\":28324:28330   */\n      dup3\n        /* \"#utility.yul\":28313:28322   */\n      dup6\n        /* \"#utility.yul\":28309:28331   */\n      add\n        /* \"#utility.yul\":28289:28337   */\n      tag_491\n      jump\t// in\n    tag_803:\n        /* \"#utility.yul\":28282:28286   */\n      0x20\n        /* \"#utility.yul\":28275:28280   */\n      dup4\n        /* \"#utility.yul\":28271:28287   */\n      add\n        /* \"#utility.yul\":28264:28338   */\n      mstore\n        /* \"#utility.yul\":28198:28349   */\n      pop\n        /* \"#utility.yul\":28408:28410   */\n      0x40\n        /* \"#utility.yul\":28449:28498   */\n      tag_804\n        /* \"#utility.yul\":28494:28497   */\n      dup5\n        /* \"#utility.yul\":28485:28491   */\n      dup3\n        /* \"#utility.yul\":28474:28483   */\n      dup6\n        /* \"#utility.yul\":28470:28492   */\n      add\n        /* \"#utility.yul\":28449:28498   */\n      tag_482\n      jump\t// in\n    tag_804:\n        /* \"#utility.yul\":28442:28446   */\n      0x40\n        /* \"#utility.yul\":28435:28440   */\n      dup4\n        /* \"#utility.yul\":28431:28447   */\n      add\n        /* \"#utility.yul\":28424:28499   */\n      mstore\n        /* \"#utility.yul\":28359:28510   */\n      pop\n        /* \"#utility.yul\":27788:28517   */\n      swap3\n      swap2\n      pop\n      pop\n      jump\t// out\n        /* \"#utility.yul\":28523:28892   */\n    tag_137:\n        /* \"#utility.yul\":28602:28608   */\n      0x00\n        /* \"#utility.yul\":28651:28653   */\n      0x60\n        /* \"#utility.yul\":28639:28648   */\n      dup3\n        /* \"#utility.yul\":28630:28637   */\n      dup5\n        /* \"#utility.yul\":28626:28649   */\n      sub\n        /* \"#utility.yul\":28622:28654   */\n      slt\n        /* \"#utility.yul\":28619:28738   */\n      iszero\n      tag_806\n      jumpi\n        /* \"#utility.yul\":28657:28736   */\n      tag_807\n      tag_467\n      jump\t// in\n    tag_807:\n        /* \"#utility.yul\":28619:28738   */\n    tag_806:\n        /* \"#utility.yul\":28777:28778   */\n      0x00\n        /* \"#utility.yul\":28802:28875   */\n      tag_808\n        /* \"#utility.yul\":28867:28874   */\n      dup5\n        /* \"#utility.yul\":28858:28864   */\n      dup3\n        /* \"#utility.yul\":28847:28856   */\n      dup6\n        /* \"#utility.yul\":28843:28865   */\n      add\n        /* \"#utility.yul\":28802:28875   */\n      tag_520\n      jump\t// in\n    tag_808:\n        /* \"#utility.yul\":28792:28875   */\n      swap2\n      pop\n        /* \"#utility.yul\":28748:28885   */\n      pop\n        /* \"#utility.yul\":28523:28892   */\n      swap3\n      swap2\n      pop\n      pop\n      jump\t// out\n        /* \"#utility.yul\":28898:29039   */\n    tag_521:\n        /* \"#utility.yul\":28947:28951   */\n      0x00\n        /* \"#utility.yul\":28970:28973   */\n      dup2\n        /* \"#utility.yul\":28962:28973   */\n      swap1\n      pop\n        /* \"#utility.yul\":28993:28996   */\n      dup2\n        /* \"#utility.yul\":28990:28991   */\n      0x00\n        /* \"#utility.yul\":28983:28997   */\n      mstore\n        /* \"#utility.yul\":29027:29031   */\n      0x20\n        /* \"#utility.yul\":29024:29025   */\n      0x00\n        /* \"#utility.yul\":29014:29032   */\n      keccak256\n        /* \"#utility.yul\":29006:29032   */\n      swap1\n      pop\n        /* \"#utility.yul\":28898:29039   */\n      swap2\n      swap1\n      pop\n      jump\t// out\n        /* \"#utility.yul\":29045:29138   */\n    tag_522:\n        /* \"#utility.yul\":29082:29088   */\n      0x00\n        /* \"#utility.yul\":29129:29131   */\n      0x20\n        /* \"#utility.yul\":29124:29126   */\n      0x1f\n        /* \"#utility.yul\":29117:29122   */\n      dup4\n        /* \"#utility.yul\":29113:29127   */\n      add\n        /* \"#utility.yul\":29109:29132   */\n      div\n        /* \"#utility.yul\":29099:29132   */\n      swap1\n      pop\n        /* \"#utility.yul\":29045:29138   */\n      swap2\n      swap1\n      pop\n      jump\t// out\n        /* \"#utility.yul\":29144:29251   */\n    tag_523:\n        /* \"#utility.yul\":29188:29196   */\n      0x00\n        /* \"#utility.yul\":29238:29243   */\n      dup3\n        /* \"#utility.yul\":29232:29236   */\n      dup3\n        /* \"#utility.yul\":29228:29244   */\n      shl\n        /* \"#utility.yul\":29207:29244   */\n      swap1\n      pop\n        /* \"#utility.yul\":29144:29251   */\n      swap3\n      swap2\n      pop\n      pop\n      jump\t// out\n        /* \"#utility.yul\":29257:29650   */\n    tag_524:\n        /* \"#utility.yul\":29326:29332   */\n      0x00\n        /* \"#utility.yul\":29376:29377   */\n      0x08\n        /* \"#utility.yul\":29364:29374   */\n      dup4\n        /* \"#utility.yul\":29360:29378   */\n      mul\n        /* \"#utility.yul\":29399:29496   */\n      tag_813\n        /* \"#utility.yul\":29429:29495   */\n      0xffffffffffffffffffffffffffffffffffffffffffffffffffffffffffffffff\n        /* \"#utility.yul\":29418:29427   */\n      dup3\n        /* \"#utility.yul\":29399:29496   */\n      tag_523\n      jump\t// in\n    tag_813:\n        /* \"#utility.yul\":29517:29556   */\n      tag_814\n        /* \"#utility.yul\":29547:29555   */\n      dup7\n        /* \"#utility.yul\":29536:29545   */\n      dup4\n        /* \"#utility.yul\":29517:29556   */\n      tag_523\n      jump\t// in\n    tag_814:\n        /* \"#utility.yul\":29505:29556   */\n      swap6\n      pop\n        /* \"#utility.yul\":29589:29593   */\n      dup1\n        /* \"#utility.yul\":29585:29594   */\n      not\n        /* \"#utility.yul\":29578:29583   */\n      dup5\n        /* \"#utility.yul\":29574:29595   */\n      and\n        /* \"#utility.yul\":29565:29595   */\n      swap4\n      pop\n        /* \"#utility.yul\":29638:29642   */\n      dup1\n        /* \"#utility.yul\":29628:29636   */\n      dup7\n        /* \"#utility.yul\":29624:29643   */\n      and\n        /* \"#utility.yul\":29617:29622   */\n      dup5\n        /* \"#utility.yul\":29614:29644   */\n      or\n        /* \"#utility.yul\":29604:29644   */\n      swap3\n      pop\n        /* \"#utility.yul\":29333:29650   */\n      pop\n      pop\n        /* \"#utility.yul\":29257:29650   */\n      swap4\n      swap3\n      pop\n      pop\n      pop\n      jump\t// out\n        /* \"#utility.yul\":29656:29716   */\n    tag_525:\n        /* \"#utility.yul\":29684:29687   */\n      0x00\n        /* \"#utility.yul\":29705:29710   */\n      dup2\n        /* \"#utility.yul\":29698:29710   */\n      swap1\n      pop\n        /* \"#utility.yul\":29656:29716   */\n      swap2\n      swap1\n      pop\n      jump\t// out\n        /* \"#utility.yul\":29722:29864   */\n    tag_526:\n        /* \"#utility.yul\":29772:29781   */\n      0x00\n        /* \"#utility.yul\":29805:29858   */\n      tag_817\n        /* \"#utility.yul\":29823:29857   */\n      tag_818\n        /* \"#utility.yul\":29832:29856   */\n      tag_819\n        /* \"#utility.yul\":29850:29855   */\n      dup5\n        /* \"#utility.yul\":29832:29856   */\n      tag_480\n      jump\t// in\n    tag_819:\n        /* \"#utility.yul\":29823:29857   */\n      tag_525\n      jump\t// in\n    tag_818:\n        /* \"#utility.yul\":29805:29858   */\n      tag_480\n      jump\t// in\n    tag_817:\n        /* \"#utility.yul\":29792:29858   */\n      swap1\n      pop\n        /* \"#utility.yul\":29722:29864   */\n      swap2\n      swap1\n      pop\n      jump\t// out\n        /* \"#utility.yul\":29870:29945   */\n    tag_527:\n        /* \"#utility.yul\":29913:29916   */\n      0x00\n        /* \"#utility.yul\":29934:29939   */\n      dup2\n        /* \"#utility.yul\":29927:29939   */\n      swap1\n      pop\n        /* \"#utility.yul\":29870:29945   */\n      swap2\n      swap1\n      pop\n      jump\t// out\n        /* \"#utility.yul\":29951:30220   */\n    tag_528:\n        /* \"#utility.yul\":30061:30100   */\n      tag_822\n        /* \"#utility.yul\":30092:30099   */\n      dup4\n        /* \"#utility.yul\":30061:30100   */\n      tag_526\n      jump\t// in\n    tag_822:\n        /* \"#utility.yul\":30122:30213   */\n      tag_823\n        /* \"#utility.yul\":30171:30212   */\n      tag_824\n        /* \"#utility.yul\":30195:30211   */\n      dup3\n        /* \"#utility.yul\":30171:30212   */\n      tag_527\n      jump\t// in\n    tag_824:\n        /* \"#utility.yul\":30163:30169   */\n      dup5\n        /* \"#utility.yul\":30156:30160   */\n      dup5\n        /* \"#utility.yul\":30150:30161   */\n      sload\n        /* \"#utility.yul\":30122:30213   */\n      tag_524\n      jump\t// in\n    tag_823:\n        /* \"#utility.yul\":30116:30120   */\n      dup3\n        /* \"#utility.yul\":30109:30214   */\n      sstore\n        /* \"#utility.yul\":30027:30220   */\n      pop\n        /* \"#utility.yul\":29951:30220   */\n      pop\n      pop\n      pop\n      jump\t// out\n        /* \"#utility.yul\":30226:30299   */\n    tag_529:\n        /* \"#utility.yul\":30271:30274   */\n      0x00\n        /* \"#utility.yul\":30226:30299   */\n      swap1\n      jump\t// out\n        /* \"#utility.yul\":30305:30494   */\n    tag_530:\n        /* \"#utility.yul\":30382:30414   */\n      tag_827\n      tag_529\n      jump\t// in\n    tag_827:\n        /* \"#utility.yul\":30423:30488   */\n      tag_828\n        /* \"#utility.yul\":30481:30487   */\n      dup2\n        /* \"#utility.yul\":30473:30479   */\n      dup5\n        /* \"#utility.yul\":30467:30471   */\n      dup5\n        /* \"#utility.yul\":30423:30488   */\n      tag_528\n      jump\t// in\n    tag_828:\n        /* \"#utility.yul\":30358:30494   */\n      pop\n        /* \"#utility.yul\":30305:30494   */\n      pop\n      pop\n      jump\t// out\n        /* \"#utility.yul\":30500:30686   */\n    tag_531:\n        /* \"#utility.yul\":30560:30680   */\n    tag_830:\n        /* \"#utility.yul\":30577:30580   */\n      dup2\n        /* \"#utility.yul\":30570:30575   */\n      dup2\n        /* \"#utility.yul\":30567:30581   */\n      lt\n        /* \"#utility.yul\":30560:30680   */\n      iszero\n      tag_832\n      jumpi\n        /* \"#utility.yul\":30631:30670   */\n      tag_833\n        /* \"#utility.yul\":30668:30669   */\n      0x00\n        /* \"#utility.yul\":30661:30666   */\n      dup3\n        /* \"#utility.yul\":30631:30670   */\n      tag_530\n      jump\t// in\n    tag_833:\n        /* \"#utility.yul\":30604:30605   */\n      0x01\n        /* \"#utility.yul\":30597:30602   */\n      dup2\n        /* \"#utility.yul\":30593:30606   */\n      add\n        /* \"#utility.yul\":30584:30606   */\n      swap1\n      pop\n        /* \"#utility.yul\":30560:30680   */\n      jump(tag_830)\n    tag_832:\n        /* \"#utility.yul\":30500:30686   */\n      pop\n      pop\n      jump\t// out\n        /* \"#utility.yul\":30692:31235   */\n    tag_532:\n        /* \"#utility.yul\":30793:30795   */\n      0x1f\n        /* \"#utility.yul\":30788:30791   */\n      dup3\n        /* \"#utility.yul\":30785:30796   */\n      gt\n        /* \"#utility.yul\":30782:31228   */\n      iszero\n      tag_835\n      jumpi\n        /* \"#utility.yul\":30827:30865   */\n      tag_836\n        /* \"#utility.yul\":30859:30864   */\n      dup2\n        /* \"#utility.yul\":30827:30865   */\n      tag_521\n      jump\t// in\n    tag_836:\n        /* \"#utility.yul\":30911:30940   */\n      tag_837\n        /* \"#utility.yul\":30929:30939   */\n      dup5\n        /* \"#utility.yul\":30911:30940   */\n      tag_522\n      jump\t// in\n    tag_837:\n        /* \"#utility.yul\":30901:30909   */\n      dup2\n        /* \"#utility.yul\":30897:30941   */\n      add\n        /* \"#utility.yul\":31094:31096   */\n      0x20\n        /* \"#utility.yul\":31082:31092   */\n      dup6\n        /* \"#utility.yul\":31079:31097   */\n      lt\n        /* \"#utility.yul\":31076:31125   */\n      iszero\n      tag_838\n      jumpi\n        /* \"#utility.yul\":31115:31123   */\n      dup2\n        /* \"#utility.yul\":31100:31123   */\n      swap1\n      pop\n        /* \"#utility.yul\":31076:31125   */\n    tag_838:\n        /* \"#utility.yul\":31138:31218   */\n      tag_839\n        /* \"#utility.yul\":31194:31216   */\n      tag_840\n        /* \"#utility.yul\":31212:31215   */\n      dup6\n        /* \"#utility.yul\":31194:31216   */\n      tag_522\n      jump\t// in\n    tag_840:\n        /* \"#utility.yul\":31184:31192   */\n      dup4\n        /* \"#utility.yul\":31180:31217   */\n      add\n        /* \"#utility.yul\":31167:31178   */\n      dup3\n        /* \"#utility.yul\":31138:31218   */\n      tag_531\n      jump\t// in\n    tag_839:\n        /* \"#utility.yul\":30797:31228   */\n      pop\n      pop\n        /* \"#utility.yul\":30782:31228   */\n    tag_835:\n        /* \"#utility.yul\":30692:31235   */\n      pop\n      pop\n      pop\n      jump\t// out\n        /* \"#utility.yul\":31241:31358   */\n    tag_533:\n        /* \"#utility.yul\":31295:31303   */\n      0x00\n        /* \"#utility.yul\":31345:31350   */\n      dup3\n        /* \"#utility.yul\":31339:31343   */\n      dup3\n        /* \"#utility.yul\":31335:31351   */\n      shr\n        /* \"#utility.yul\":31314:31351   */\n      swap1\n      pop\n        /* \"#utility.yul\":31241:31358   */\n      swap3\n      swap2\n      pop\n      pop\n      jump\t// out\n        /* \"#utility.yul\":31364:31533   */\n    tag_534:\n        /* \"#utility.yul\":31408:31414   */\n      0x00\n        /* \"#utility.yul\":31441:31492   */\n      tag_843\n        /* \"#utility.yul\":31489:31490   */\n      0x00\n        /* \"#utility.yul\":31485:31491   */\n      not\n        /* \"#utility.yul\":31477:31482   */\n      dup5\n        /* \"#utility.yul\":31474:31475   */\n      0x08\n        /* \"#utility.yul\":31470:31483   */\n      mul\n        /* \"#utility.yul\":31441:31492   */\n      tag_533\n      jump\t// in\n    tag_843:\n        /* \"#utility.yul\":31437:31493   */\n      not\n        /* \"#utility.yul\":31522:31526   */\n      dup1\n        /* \"#utility.yul\":31516:31520   */\n      dup4\n        /* \"#utility.yul\":31512:31527   */\n      and\n        /* \"#utility.yul\":31502:31527   */\n      swap2\n      pop\n        /* \"#utility.yul\":31415:31533   */\n      pop\n        /* \"#utility.yul\":31364:31533   */\n      swap3\n      swap2\n      pop\n      pop\n      jump\t// out\n        /* \"#utility.yul\":31538:31833   */\n    tag_535:\n        /* \"#utility.yul\":31614:31618   */\n      0x00\n        /* \"#utility.yul\":31760:31789   */\n      tag_845\n        /* \"#utility.yul\":31785:31788   */\n      dup4\n        /* \"#utility.yul\":31779:31783   */\n      dup4\n        /* \"#utility.yul\":31760:31789   */\n      tag_534\n      jump\t// in\n    tag_845:\n        /* \"#utility.yul\":31752:31789   */\n      swap2\n      pop\n        /* \"#utility.yul\":31822:31825   */\n      dup3\n        /* \"#utility.yul\":31819:31820   */\n      0x02\n        /* \"#utility.yul\":31815:31826   */\n      mul\n        /* \"#utility.yul\":31809:31813   */\n      dup3\n        /* \"#utility.yul\":31806:31827   */\n      or\n        /* \"#utility.yul\":31798:31827   */\n      swap1\n      pop\n        /* \"#utility.yul\":31538:31833   */\n      swap3\n      swap2\n      pop\n      pop\n      jump\t// out\n        /* \"#utility.yul\":31838:33233   */\n    tag_155:\n        /* \"#utility.yul\":31955:31992   */\n      tag_847\n        /* \"#utility.yul\":31988:31991   */\n      dup3\n        /* \"#utility.yul\":31955:31992   */\n      tag_461\n      jump\t// in\n    tag_847:\n        /* \"#utility.yul\":32057:32075   */\n      0xffffffffffffffff\n        /* \"#utility.yul\":32049:32055   */\n      dup2\n        /* \"#utility.yul\":32046:32076   */\n      gt\n        /* \"#utility.yul\":32043:32099   */\n      iszero\n      tag_848\n      jumpi\n        /* \"#utility.yul\":32079:32097   */\n      tag_849\n      tag_199\n      jump\t// in\n    tag_849:\n        /* \"#utility.yul\":32043:32099   */\n    tag_848:\n        /* \"#utility.yul\":32123:32161   */\n      tag_850\n        /* \"#utility.yul\":32155:32159   */\n      dup3\n        /* \"#utility.yul\":32149:32160   */\n      sload\n        /* \"#utility.yul\":32123:32161   */\n      tag_106\n      jump\t// in\n    tag_850:\n        /* \"#utility.yul\":32208:32275   */\n      tag_851\n        /* \"#utility.yul\":32268:32274   */\n      dup3\n        /* \"#utility.yul\":32260:32266   */\n      dup3\n        /* \"#utility.yul\":32254:32258   */\n      dup6\n        /* \"#utility.yul\":32208:32275   */\n      tag_532\n      jump\t// in\n    tag_851:\n        /* \"#utility.yul\":32302:32303   */\n      0x00\n        /* \"#utility.yul\":32326:32330   */\n      0x20\n        /* \"#utility.yul\":32313:32330   */\n      swap1\n      pop\n        /* \"#utility.yul\":32358:32360   */\n      0x1f\n        /* \"#utility.yul\":32350:32356   */\n      dup4\n        /* \"#utility.yul\":32347:32361   */\n      gt\n        /* \"#utility.yul\":32375:32376   */\n      0x01\n        /* \"#utility.yul\":32370:32988   */\n      dup2\n      eq\n      tag_853\n      jumpi\n        /* \"#utility.yul\":33032:33033   */\n      0x00\n        /* \"#utility.yul\":33049:33055   */\n      dup5\n        /* \"#utility.yul\":33046:33123   */\n      iszero\n      tag_854\n      jumpi\n        /* \"#utility.yul\":33098:33107   */\n      dup3\n        /* \"#utility.yul\":33093:33096   */\n      dup8\n        /* \"#utility.yul\":33089:33108   */\n      add\n        /* \"#utility.yul\":33083:33109   */\n      mload\n        /* \"#utility.yul\":33074:33109   */\n      swap1\n      pop\n        /* \"#utility.yul\":33046:33123   */\n    tag_854:\n        /* \"#utility.yul\":33149:33216   */\n      tag_855\n        /* \"#utility.yul\":33209:33215   */\n      dup6\n        /* \"#utility.yul\":33202:33207   */\n      dup3\n        /* \"#utility.yul\":33149:33216   */\n      tag_535\n      jump\t// in\n    tag_855:\n        /* \"#utility.yul\":33143:33147   */\n      dup7\n        /* \"#utility.yul\":33136:33217   */\n      sstore\n        /* \"#utility.yul\":33005:33227   */\n      pop\n        /* \"#utility.yul\":32340:33227   */\n      jump(tag_852)\n        /* \"#utility.yul\":32370:32988   */\n    tag_853:\n        /* \"#utility.yul\":32422:32426   */\n      0x1f\n        /* \"#utility.yul\":32418:32427   */\n      not\n        /* \"#utility.yul\":32410:32416   */\n      dup5\n        /* \"#utility.yul\":32406:32428   */\n      and\n        /* \"#utility.yul\":32456:32493   */\n      tag_856\n        /* \"#utility.yul\":32488:32492   */\n      dup7\n        /* \"#utility.yul\":32456:32493   */\n      tag_521\n      jump\t// in\n    tag_856:\n        /* \"#utility.yul\":32515:32516   */\n      0x00\n        /* \"#utility.yul\":32529:32737   */\n    tag_857:\n        /* \"#utility.yul\":32543:32550   */\n      dup3\n        /* \"#utility.yul\":32540:32541   */\n      dup2\n        /* \"#utility.yul\":32537:32551   */\n      lt\n        /* \"#utility.yul\":32529:32737   */\n      iszero\n      tag_859\n      jumpi\n        /* \"#utility.yul\":32622:32631   */\n      dup5\n        /* \"#utility.yul\":32617:32620   */\n      dup10\n        /* \"#utility.yul\":32613:32632   */\n      add\n        /* \"#utility.yul\":32607:32633   */\n      mload\n        /* \"#utility.yul\":32599:32605   */\n      dup3\n        /* \"#utility.yul\":32592:32634   */\n      sstore\n        /* \"#utility.yul\":32673:32674   */\n      0x01\n        /* \"#utility.yul\":32665:32671   */\n      dup3\n        /* \"#utility.yul\":32661:32675   */\n      add\n        /* \"#utility.yul\":32651:32675   */\n      swap2\n      pop\n        /* \"#utility.yul\":32720:32722   */\n      0x20\n        /* \"#utility.yul\":32709:32718   */\n      dup6\n        /* \"#utility.yul\":32705:32723   */\n      add\n        /* \"#utility.yul\":32692:32723   */\n      swap5\n      pop\n        /* \"#utility.yul\":32566:32570   */\n      0x20\n        /* \"#utility.yul\":32563:32564   */\n      dup2\n        /* \"#utility.yul\":32559:32571   */\n      add\n        /* \"#utility.yul\":32554:32571   */\n      swap1\n      pop\n        /* \"#utility.yul\":32529:32737   */\n      jump(tag_857)\n    tag_859:\n        /* \"#utility.yul\":32765:32771   */\n      dup7\n        /* \"#utility.yul\":32756:32763   */\n      dup4\n        /* \"#utility.yul\":32753:32772   */\n      lt\n        /* \"#utility.yul\":32750:32929   */\n      iszero\n      tag_860\n      jumpi\n        /* \"#utility.yul\":32823:32832   */\n      dup5\n        /* \"#utility.yul\":32818:32821   */\n      dup10\n        /* \"#utility.yul\":32814:32833   */\n      add\n        /* \"#utility.yul\":32808:32834   */\n      mload\n        /* \"#utility.yul\":32866:32914   */\n      tag_861\n        /* \"#utility.yul\":32908:32912   */\n      0x1f\n        /* \"#utility.yul\":32900:32906   */\n      dup10\n        /* \"#utility.yul\":32896:32913   */\n      and\n        /* \"#utility.yul\":32885:32894   */\n      dup3\n        /* \"#utility.yul\":32866:32914   */\n      tag_534\n      jump\t// in\n    tag_861:\n        /* \"#utility.yul\":32858:32864   */\n      dup4\n        /* \"#utility.yul\":32851:32915   */\n      sstore\n        /* \"#utility.yul\":32773:32929   */\n      pop\n        /* \"#utility.yul\":32750:32929   */\n    tag_860:\n        /* \"#utility.yul\":32975:32976   */\n      0x01\n        /* \"#utility.yul\":32971:32972   */\n      0x02\n        /* \"#utility.yul\":32963:32969   */\n      dup9\n        /* \"#utility.yul\":32959:32973   */\n      mul\n        /* \"#utility.yul\":32955:32977   */\n      add\n        /* \"#utility.yul\":32949:32953   */\n      dup9\n        /* \"#utility.yul\":32942:32978   */\n      sstore\n        /* \"#utility.yul\":32377:32988   */\n      pop\n      pop\n      pop\n        /* \"#utility.yul\":32340:33227   */\n    tag_852:\n      pop\n        /* \"#utility.yul\":31930:33233   */\n      pop\n      pop\n      pop\n        /* \"#utility.yul\":31838:33233   */\n      pop\n      pop\n      jump\t// out\n        /* \"#utility.yul\":33239:33318   */\n    tag_536:\n        /* \"#utility.yul\":33278:33285   */\n      0x00\n        /* \"#utility.yul\":33307:33312   */\n      dup2\n        /* \"#utility.yul\":33296:33312   */\n      swap1\n      pop\n        /* \"#utility.yul\":33239:33318   */\n      swap2\n      swap1\n      pop\n      jump\t// out\n        /* \"#utility.yul\":33324:33481   */\n    tag_537:\n        /* \"#utility.yul\":33429:33474   */\n      tag_864\n        /* \"#utility.yul\":33449:33473   */\n      tag_865\n        /* \"#utility.yul\":33467:33472   */\n      dup3\n        /* \"#utility.yul\":33449:33473   */\n      tag_480\n      jump\t// in\n    tag_865:\n        /* \"#utility.yul\":33429:33474   */\n      tag_536\n      jump\t// in\n    tag_864:\n        /* \"#utility.yul\":33424:33427   */\n      dup3\n        /* \"#utility.yul\":33417:33475   */\n      mstore\n        /* \"#utility.yul\":33324:33481   */\n      pop\n      pop\n      jump\t// out\n        /* \"#utility.yul\":33487:33613   */\n    tag_538:\n        /* \"#utility.yul\":33524:33531   */\n      0x00\n        /* \"#utility.yul\":33564:33606   */\n      0xffffffffffffffffffffffffffffffffffffffff\n        /* \"#utility.yul\":33557:33562   */\n      dup3\n        /* \"#utility.yul\":33553:33607   */\n      and\n        /* \"#utility.yul\":33542:33607   */\n      swap1\n      pop\n        /* \"#utility.yul\":33487:33613   */\n      swap2\n      swap1\n      pop\n      jump\t// out\n        /* \"#utility.yul\":33619:33715   */\n    tag_539:\n        /* \"#utility.yul\":33656:33663   */\n      0x00\n        /* \"#utility.yul\":33685:33709   */\n      tag_868\n        /* \"#utility.yul\":33703:33708   */\n      dup3\n        /* \"#utility.yul\":33685:33709   */\n      tag_538\n      jump\t// in\n    tag_868:\n        /* \"#utility.yul\":33674:33709   */\n      swap1\n      pop\n        /* \"#utility.yul\":33619:33715   */\n      swap2\n      swap1\n      pop\n      jump\t// out\n        /* \"#utility.yul\":33721:33815   */\n    tag_540:\n        /* \"#utility.yul\":33754:33762   */\n      0x00\n        /* \"#utility.yul\":33802:33807   */\n      dup2\n        /* \"#utility.yul\":33798:33800   */\n      0x60\n        /* \"#utility.yul\":33794:33808   */\n      shl\n        /* \"#utility.yul\":33773:33808   */\n      swap1\n      pop\n        /* \"#utility.yul\":33721:33815   */\n      swap2\n      swap1\n      pop\n      jump\t// out\n        /* \"#utility.yul\":33821:33915   */\n    tag_541:\n        /* \"#utility.yul\":33860:33867   */\n      0x00\n        /* \"#utility.yul\":33889:33909   */\n      tag_871\n        /* \"#utility.yul\":33903:33908   */\n      dup3\n        /* \"#utility.yul\":33889:33909   */\n      tag_540\n      jump\t// in\n    tag_871:\n        /* \"#utility.yul\":33878:33909   */\n      swap1\n      pop\n        /* \"#utility.yul\":33821:33915   */\n      swap2\n      swap1\n      pop\n      jump\t// out\n        /* \"#utility.yul\":33921:34021   */\n    tag_542:\n        /* \"#utility.yul\":33960:33967   */\n      0x00\n        /* \"#utility.yul\":33989:34015   */\n      tag_873\n        /* \"#utility.yul\":34009:34014   */\n      dup3\n        /* \"#utility.yul\":33989:34015   */\n      tag_541\n      jump\t// in\n    tag_873:\n        /* \"#utility.yul\":33978:34015   */\n      swap1\n      pop\n        /* \"#utility.yul\":33921:34021   */\n      swap2\n      swap1\n      pop\n      jump\t// out\n        /* \"#utility.yul\":34027:34184   */\n    tag_543:\n        /* \"#utility.yul\":34132:34177   */\n      tag_875\n        /* \"#utility.yul\":34152:34176   */\n      tag_876\n        /* \"#utility.yul\":34170:34175   */\n      dup3\n        /* \"#utility.yul\":34152:34176   */\n      tag_539\n      jump\t// in\n    tag_876:\n        /* \"#utility.yul\":34132:34177   */\n      tag_542\n      jump\t// in\n    tag_875:\n        /* \"#utility.yul\":34127:34130   */\n      dup3\n        /* \"#utility.yul\":34120:34178   */\n      mstore\n        /* \"#utility.yul\":34027:34184   */\n      pop\n      pop\n      jump\t// out\n        /* \"#utility.yul\":34190:34728   */\n    tag_161:\n        /* \"#utility.yul\":34358:34361   */\n      0x00\n        /* \"#utility.yul\":34373:34448   */\n      tag_878\n        /* \"#utility.yul\":34444:34447   */\n      dup3\n        /* \"#utility.yul\":34435:34441   */\n      dup7\n        /* \"#utility.yul\":34373:34448   */\n      tag_537\n      jump\t// in\n    tag_878:\n        /* \"#utility.yul\":34473:34475   */\n      0x20\n        /* \"#utility.yul\":34468:34471   */\n      dup3\n        /* \"#utility.yul\":34464:34476   */\n      add\n        /* \"#utility.yul\":34457:34476   */\n      swap2\n      pop\n        /* \"#utility.yul\":34486:34561   */\n      tag_879\n        /* \"#utility.yul\":34557:34560   */\n      dup3\n        /* \"#utility.yul\":34548:34554   */\n      dup6\n        /* \"#utility.yul\":34486:34561   */\n      tag_543\n      jump\t// in\n    tag_879:\n        /* \"#utility.yul\":34586:34588   */\n      0x14\n        /* \"#utility.yul\":34581:34584   */\n      dup3\n        /* \"#utility.yul\":34577:34589   */\n      add\n        /* \"#utility.yul\":34570:34589   */\n      swap2\n      pop\n        /* \"#utility.yul\":34599:34674   */\n      tag_880\n        /* \"#utility.yul\":34670:34673   */\n      dup3\n        /* \"#utility.yul\":34661:34667   */\n      dup5\n        /* \"#utility.yul\":34599:34674   */\n      tag_537\n      jump\t// in\n    tag_880:\n        /* \"#utility.yul\":34699:34701   */\n      0x20\n        /* \"#utility.yul\":34694:34697   */\n      dup3\n        /* \"#utility.yul\":34690:34702   */\n      add\n        /* \"#utility.yul\":34683:34702   */\n      swap2\n      pop\n        /* \"#utility.yul\":34719:34722   */\n      dup2\n        /* \"#utility.yul\":34712:34722   */\n      swap1\n      pop\n        /* \"#utility.yul\":34190:34728   */\n      swap5\n      swap4\n      pop\n      pop\n      pop\n      pop\n      jump\t// out\n        /* \"#utility.yul\":34734:34914   */\n    tag_544:\n        /* \"#utility.yul\":34782:34859   */\n      0x4e487b7100000000000000000000000000000000000000000000000000000000\n        /* \"#utility.yul\":34779:34780   */\n      0x00\n        /* \"#utility.yul\":34772:34860   */\n      mstore\n        /* \"#utility.yul\":34879:34883   */\n      0x12\n        /* \"#utility.yul\":34876:34877   */\n      0x04\n        /* \"#utility.yul\":34869:34884   */\n      mstore\n        /* \"#utility.yul\":34903:34907   */\n      0x24\n        /* \"#utility.yul\":34900:34901   */\n      0x00\n        /* \"#utility.yul\":34893:34908   */\n      revert\n        /* \"#utility.yul\":34920:35096   */\n    tag_163:\n        /* \"#utility.yul\":34952:34953   */\n      0x00\n        /* \"#utility.yul\":34969:34989   */\n      tag_883\n        /* \"#utility.yul\":34987:34988   */\n      dup3\n        /* \"#utility.yul\":34969:34989   */\n      tag_480\n      jump\t// in\n    tag_883:\n        /* \"#utility.yul\":34964:34989   */\n      swap2\n      pop\n        /* \"#utility.yul\":35003:35023   */\n      tag_884\n        /* \"#utility.yul\":35021:35022   */\n      dup4\n        /* \"#utility.yul\":35003:35023   */\n      tag_480\n      jump\t// in\n    tag_884:\n        /* \"#utility.yul\":34998:35023   */\n      swap3\n      pop\n        /* \"#utility.yul\":35042:35043   */\n      dup3\n        /* \"#utility.yul\":35032:35067   */\n      tag_885\n      jumpi\n        /* \"#utility.yul\":35047:35065   */\n      tag_886\n      tag_544\n      jump\t// in\n    tag_886:\n        /* \"#utility.yul\":35032:35067   */\n    tag_885:\n        /* \"#utility.yul\":35088:35089   */\n      dup3\n        /* \"#utility.yul\":35085:35086   */\n      dup3\n        /* \"#utility.yul\":35081:35090   */\n      mod\n        /* \"#utility.yul\":35076:35090   */\n      swap1\n      pop\n        /* \"#utility.yul\":34920:35096   */\n      swap3\n      swap2\n      pop\n      pop\n      jump\t// out\n        /* \"#utility.yul\":35102:35282   */\n    tag_545:\n        /* \"#utility.yul\":35150:35227   */\n      0x4e487b7100000000000000000000000000000000000000000000000000000000\n        /* \"#utility.yul\":35147:35148   */\n      0x00\n        /* \"#utility.yul\":35140:35228   */\n      mstore\n        /* \"#utility.yul\":35247:35251   */\n      0x11\n        /* \"#utility.yul\":35244:35245   */\n      0x04\n        /* \"#utility.yul\":35237:35252   */\n      mstore\n        /* \"#utility.yul\":35271:35275   */\n      0x24\n        /* \"#utility.yul\":35268:35269   */\n      0x00\n        /* \"#utility.yul\":35261:35276   */\n      revert\n        /* \"#utility.yul\":35288:35521   */\n    tag_166:\n        /* \"#utility.yul\":35327:35330   */\n      0x00\n        /* \"#utility.yul\":35350:35374   */\n      tag_889\n        /* \"#utility.yul\":35368:35373   */\n      dup3\n        /* \"#utility.yul\":35350:35374   */\n      tag_480\n      jump\t// in\n    tag_889:\n        /* \"#utility.yul\":35341:35374   */\n      swap2\n      pop\n        /* \"#utility.yul\":35396:35462   */\n      0xffffffffffffffffffffffffffffffffffffffffffffffffffffffffffffffff\n        /* \"#utility.yul\":35389:35394   */\n      dup3\n        /* \"#utility.yul\":35386:35463   */\n      sub\n        /* \"#utility.yul\":35383:35486   */\n      tag_890\n      jumpi\n        /* \"#utility.yul\":35466:35484   */\n      tag_891\n      tag_545\n      jump\t// in\n    tag_891:\n        /* \"#utility.yul\":35383:35486   */\n    tag_890:\n        /* \"#utility.yul\":35513:35514   */\n      0x01\n        /* \"#utility.yul\":35506:35511   */\n      dup3\n        /* \"#utility.yul\":35502:35515   */\n      add\n        /* \"#utility.yul\":35495:35515   */\n      swap1\n      pop\n        /* \"#utility.yul\":35288:35521   */\n      swap2\n      swap1\n      pop\n      jump\t// out\n        /* \"#utility.yul\":35527:36206   */\n    tag_168:\n        /* \"#utility.yul\":35723:35726   */\n      0x00\n        /* \"#utility.yul\":35738:35813   */\n      tag_893\n        /* \"#utility.yul\":35809:35812   */\n      dup3\n        /* \"#utility.yul\":35800:35806   */\n      dup8\n        /* \"#utility.yul\":35738:35813   */\n      tag_537\n      jump\t// in\n    tag_893:\n        /* \"#utility.yul\":35838:35840   */\n      0x20\n        /* \"#utility.yul\":35833:35836   */\n      dup3\n        /* \"#utility.yul\":35829:35841   */\n      add\n        /* \"#utility.yul\":35822:35841   */\n      swap2\n      pop\n        /* \"#utility.yul\":35851:35926   */\n      tag_894\n        /* \"#utility.yul\":35922:35925   */\n      dup3\n        /* \"#utility.yul\":35913:35919   */\n      dup7\n        /* \"#utility.yul\":35851:35926   */\n      tag_537\n      jump\t// in\n    tag_894:\n        /* \"#utility.yul\":35951:35953   */\n      0x20\n        /* \"#utility.yul\":35946:35949   */\n      dup3\n        /* \"#utility.yul\":35942:35954   */\n      add\n        /* \"#utility.yul\":35935:35954   */\n      swap2\n      pop\n        /* \"#utility.yul\":35964:36039   */\n      tag_895\n        /* \"#utility.yul\":36035:36038   */\n      dup3\n        /* \"#utility.yul\":36026:36032   */\n      dup6\n        /* \"#utility.yul\":35964:36039   */\n      tag_543\n      jump\t// in\n    tag_895:\n        /* \"#utility.yul\":36064:36066   */\n      0x14\n        /* \"#utility.yul\":36059:36062   */\n      dup3\n        /* \"#utility.yul\":36055:36067   */\n      add\n        /* \"#utility.yul\":36048:36067   */\n      swap2\n      pop\n        /* \"#utility.yul\":36077:36152   */\n      tag_896\n        /* \"#utility.yul\":36148:36151   */\n      dup3\n        /* \"#utility.yul\":36139:36145   */\n      dup5\n        /* \"#utility.yul\":36077:36152   */\n      tag_537\n      jump\t// in\n    tag_896:\n        /* \"#utility.yul\":36177:36179   */\n      0x20\n        /* \"#utility.yul\":36172:36175   */\n      dup3\n        /* \"#utility.yul\":36168:36180   */\n      add\n        /* \"#utility.yul\":36161:36180   */\n      swap2\n      pop\n        /* \"#utility.yul\":36197:36200   */\n      dup2\n        /* \"#utility.yul\":36190:36200   */\n      swap1\n      pop\n        /* \"#utility.yul\":35527:36206   */\n      swap6\n      swap5\n      pop\n      pop\n      pop\n      pop\n      pop\n      jump\t// out\n        /* \"#utility.yul\":36212:36584   */\n    tag_194:\n        /* \"#utility.yul\":36251:36255   */\n      0x00\n        /* \"#utility.yul\":36271:36290   */\n      tag_898\n        /* \"#utility.yul\":36288:36289   */\n      dup3\n        /* \"#utility.yul\":36271:36290   */\n      tag_485\n      jump\t// in\n    tag_898:\n        /* \"#utility.yul\":36266:36290   */\n      swap2\n      pop\n        /* \"#utility.yul\":36304:36323   */\n      tag_899\n        /* \"#utility.yul\":36321:36322   */\n      dup4\n        /* \"#utility.yul\":36304:36323   */\n      tag_485\n      jump\t// in\n    tag_899:\n        /* \"#utility.yul\":36299:36323   */\n      swap3\n      pop\n        /* \"#utility.yul\":36347:36348   */\n      dup3\n        /* \"#utility.yul\":36344:36345   */\n      dup3\n        /* \"#utility.yul\":36340:36349   */\n      sub\n        /* \"#utility.yul\":36332:36349   */\n      swap1\n      pop\n        /* \"#utility.yul\":36541:36542   */\n      dup2\n        /* \"#utility.yul\":36535:36539   */\n      dup2\n        /* \"#utility.yul\":36531:36543   */\n      slt\n        /* \"#utility.yul\":36527:36528   */\n      0x00\n        /* \"#utility.yul\":36524:36525   */\n      dup5\n        /* \"#utility.yul\":36520:36529   */\n      slt\n        /* \"#utility.yul\":36516:36544   */\n      and\n        /* \"#utility.yul\":36499:36500   */\n      dup3\n        /* \"#utility.yul\":36493:36497   */\n      dup3\n        /* \"#utility.yul\":36489:36501   */\n      sgt\n        /* \"#utility.yul\":36484:36485   */\n      0x00\n        /* \"#utility.yul\":36481:36482   */\n      dup6\n        /* \"#utility.yul\":36477:36486   */\n      slt\n        /* \"#utility.yul\":36470:36487   */\n      iszero\n        /* \"#utility.yul\":36466:36502   */\n      and\n        /* \"#utility.yul\":36450:36554   */\n      or\n        /* \"#utility.yul\":36447:36577   */\n      iszero\n      tag_900\n      jumpi\n        /* \"#utility.yul\":36557:36575   */\n      tag_901\n      tag_545\n      jump\t// in\n    tag_901:\n        /* \"#utility.yul\":36447:36577   */\n    tag_900:\n        /* \"#utility.yul\":36212:36584   */\n      swap3\n      swap2\n      pop\n      pop\n      jump\t// out\n        /* \"#utility.yul\":36590:36965   */\n    tag_196:\n        /* \"#utility.yul\":36629:36632   */\n      0x00\n        /* \"#utility.yul\":36648:36667   */\n      tag_903\n        /* \"#utility.yul\":36665:36666   */\n      dup3\n        /* \"#utility.yul\":36648:36667   */\n      tag_485\n      jump\t// in\n    tag_903:\n        /* \"#utility.yul\":36643:36667   */\n      swap2\n      pop\n        /* \"#utility.yul\":36681:36700   */\n      tag_904\n        /* \"#utility.yul\":36698:36699   */\n      dup4\n        /* \"#utility.yul\":36681:36700   */\n      tag_485\n      jump\t// in\n    tag_904:\n        /* \"#utility.yul\":36676:36700   */\n      swap3\n      pop\n        /* \"#utility.yul\":36723:36724   */\n      dup3\n        /* \"#utility.yul\":36720:36721   */\n      dup3\n        /* \"#utility.yul\":36716:36725   */\n      add\n        /* \"#utility.yul\":36709:36725   */\n      swap1\n      pop\n        /* \"#utility.yul\":36921:36922   */\n      dup3\n        /* \"#utility.yul\":36916:36919   */\n      dup2\n        /* \"#utility.yul\":36912:36923   */\n      slt\n        /* \"#utility.yul\":36905:36924   */\n      iszero\n        /* \"#utility.yul\":36901:36902   */\n      0x00\n        /* \"#utility.yul\":36898:36899   */\n      dup4\n        /* \"#utility.yul\":36894:36903   */\n      slt\n        /* \"#utility.yul\":36890:36925   */\n      and\n        /* \"#utility.yul\":36873:36874   */\n      dup4\n        /* \"#utility.yul\":36868:36871   */\n      dup3\n        /* \"#utility.yul\":36864:36875   */\n      slt\n        /* \"#utility.yul\":36859:36860   */\n      0x00\n        /* \"#utility.yul\":36856:36857   */\n      dup5\n        /* \"#utility.yul\":36852:36861   */\n      slt\n        /* \"#utility.yul\":36845:36862   */\n      iszero\n        /* \"#utility.yul\":36841:36876   */\n      and\n        /* \"#utility.yul\":36825:36935   */\n      or\n        /* \"#utility.yul\":36822:36958   */\n      iszero\n      tag_905\n      jumpi\n        /* \"#utility.yul\":36938:36956   */\n      tag_906\n      tag_545\n      jump\t// in\n    tag_906:\n        /* \"#utility.yul\":36822:36958   */\n    tag_905:\n        /* \"#utility.yul\":36590:36965   */\n      swap3\n      swap2\n      pop\n      pop\n      jump\t// out\n        /* \"#utility.yul\":36971:37202   */\n    tag_240:\n        /* \"#utility.yul\":37009:37012   */\n      0x00\n        /* \"#utility.yul\":37032:37055   */\n      tag_908\n        /* \"#utility.yul\":37049:37054   */\n      dup3\n        /* \"#utility.yul\":37032:37055   */\n      tag_485\n      jump\t// in\n    tag_908:\n        /* \"#utility.yul\":37023:37055   */\n      swap2\n      pop\n        /* \"#utility.yul\":37077:37143   */\n      0x7fffffffffffffffffffffffffffffffffffffffffffffffffffffffffffffff\n        /* \"#utility.yul\":37070:37075   */\n      dup3\n        /* \"#utility.yul\":37067:37144   */\n      sub\n        /* \"#utility.yul\":37064:37167   */\n      tag_909\n      jumpi\n        /* \"#utility.yul\":37147:37165   */\n      tag_910\n      tag_545\n      jump\t// in\n    tag_910:\n        /* \"#utility.yul\":37064:37167   */\n    tag_909:\n        /* \"#utility.yul\":37194:37195   */\n      0x01\n        /* \"#utility.yul\":37187:37192   */\n      dup3\n        /* \"#utility.yul\":37183:37196   */\n      add\n        /* \"#utility.yul\":37176:37196   */\n      swap1\n      pop\n        /* \"#utility.yul\":36971:37202   */\n      swap2\n      swap1\n      pop\n      jump\t// out\n        /* \"#utility.yul\":37208:37593   */\n    tag_242:\n        /* \"#utility.yul\":37247:37248   */\n      0x00\n        /* \"#utility.yul\":37264:37283   */\n      tag_912\n        /* \"#utility.yul\":37281:37282   */\n      dup3\n        /* \"#utility.yul\":37264:37283   */\n      tag_485\n      jump\t// in\n    tag_912:\n        /* \"#utility.yul\":37259:37283   */\n      swap2\n      pop\n        /* \"#utility.yul\":37297:37316   */\n      tag_913\n        /* \"#utility.yul\":37314:37315   */\n      dup4\n        /* \"#utility.yul\":37297:37316   */\n      tag_485\n      jump\t// in\n    tag_913:\n        /* \"#utility.yul\":37292:37316   */\n      swap3\n      pop\n        /* \"#utility.yul\":37335:37336   */\n      dup3\n        /* \"#utility.yul\":37325:37360   */\n      tag_914\n      jumpi\n        /* \"#utility.yul\":37340:37358   */\n      tag_915\n      tag_544\n      jump\t// in\n    tag_915:\n        /* \"#utility.yul\":37325:37360   */\n    tag_914:\n        /* \"#utility.yul\":37526:37527   */\n      0x01\n        /* \"#utility.yul\":37523:37524   */\n      0x00\n        /* \"#utility.yul\":37519:37528   */\n      sub\n        /* \"#utility.yul\":37516:37517   */\n      dup4\n        /* \"#utility.yul\":37513:37529   */\n      eq\n        /* \"#utility.yul\":37432:37498   */\n      0x8000000000000000000000000000000000000000000000000000000000000000\n        /* \"#utility.yul\":37429:37430   */\n      dup4\n        /* \"#utility.yul\":37426:37499   */\n      eq\n        /* \"#utility.yul\":37409:37539   */\n      and\n        /* \"#utility.yul\":37406:37562   */\n      iszero\n      tag_916\n      jumpi\n        /* \"#utility.yul\":37542:37560   */\n      tag_917\n      tag_545\n      jump\t// in\n    tag_917:\n        /* \"#utility.yul\":37406:37562   */\n    tag_916:\n        /* \"#utility.yul\":37585:37586   */\n      dup3\n        /* \"#utility.yul\":37582:37583   */\n      dup3\n        /* \"#utility.yul\":37577:37587   */\n      sdiv\n        /* \"#utility.yul\":37572:37587   */\n      swap1\n      pop\n        /* \"#utility.yul\":37208:37593   */\n      swap3\n      swap2\n      pop\n      pop\n      jump\t// out\n        /* \"#utility.yul\":37599:37790   */\n    tag_287:\n        /* \"#utility.yul\":37639:37642   */\n      0x00\n        /* \"#utility.yul\":37658:37678   */\n      tag_919\n        /* \"#utility.yul\":37676:37677   */\n      dup3\n        /* \"#utility.yul\":37658:37678   */\n      tag_480\n      jump\t// in\n    tag_919:\n        /* \"#utility.yul\":37653:37678   */\n      swap2\n      pop\n        /* \"#utility.yul\":37692:37712   */\n      tag_920\n        /* \"#utility.yul\":37710:37711   */\n      dup4\n        /* \"#utility.yul\":37692:37712   */\n      tag_480\n      jump\t// in\n    tag_920:\n        /* \"#utility.yul\":37687:37712   */\n      swap3\n      pop\n        /* \"#utility.yul\":37735:37736   */\n      dup3\n        /* \"#utility.yul\":37732:37733   */\n      dup3\n        /* \"#utility.yul\":37728:37737   */\n      add\n        /* \"#utility.yul\":37721:37737   */\n      swap1\n      pop\n        /* \"#utility.yul\":37756:37759   */\n      dup1\n        /* \"#utility.yul\":37753:37754   */\n      dup3\n        /* \"#utility.yul\":37750:37760   */\n      gt\n        /* \"#utility.yul\":37747:37783   */\n      iszero\n      tag_921\n      jumpi\n        /* \"#utility.yul\":37763:37781   */\n      tag_922\n      tag_545\n      jump\t// in\n    tag_922:\n        /* \"#utility.yul\":37747:37783   */\n    tag_921:\n        /* \"#utility.yul\":37599:37790   */\n      swap3\n      swap2\n      pop\n      pop\n      jump\t// out\n        /* \"#utility.yul\":37796:37981   */\n    tag_290:\n        /* \"#utility.yul\":37836:37837   */\n      0x00\n        /* \"#utility.yul\":37853:37873   */\n      tag_924\n        /* \"#utility.yul\":37871:37872   */\n      dup3\n        /* \"#utility.yul\":37853:37873   */\n      tag_480\n      jump\t// in\n    tag_924:\n        /* \"#utility.yul\":37848:37873   */\n      swap2\n      pop\n        /* \"#utility.yul\":37887:37907   */\n      tag_925\n        /* \"#utility.yul\":37905:37906   */\n      dup4\n        /* \"#utility.yul\":37887:37907   */\n      tag_480\n      jump\t// in\n    tag_925:\n        /* \"#utility.yul\":37882:37907   */\n      swap3\n      pop\n        /* \"#utility.yul\":37926:37927   */\n      dup3\n        /* \"#utility.yul\":37916:37951   */\n      tag_926\n      jumpi\n        /* \"#utility.yul\":37931:37949   */\n      tag_927\n      tag_544\n      jump\t// in\n    tag_927:\n        /* \"#utility.yul\":37916:37951   */\n    tag_926:\n        /* \"#utility.yul\":37973:37974   */\n      dup3\n        /* \"#utility.yul\":37970:37971   */\n      dup3\n        /* \"#utility.yul\":37966:37975   */\n      div\n        /* \"#utility.yul\":37961:37975   */\n      swap1\n      pop\n        /* \"#utility.yul\":37796:37981   */\n      swap3\n      swap2\n      pop\n      pop\n      jump\t// out\n        /* \"#utility.yul\":37987:38543   */\n    tag_312:\n        /* \"#utility.yul\":38026:38033   */\n      0x00\n        /* \"#utility.yul\":38049:38068   */\n      tag_929\n        /* \"#utility.yul\":38066:38067   */\n      dup3\n        /* \"#utility.yul\":38049:38068   */\n      tag_485\n      jump\t// in\n    tag_929:\n        /* \"#utility.yul\":38044:38068   */\n      swap2\n      pop\n        /* \"#utility.yul\":38082:38101   */\n      tag_930\n        /* \"#utility.yul\":38099:38100   */\n      dup4\n        /* \"#utility.yul\":38082:38101   */\n      tag_485\n      jump\t// in\n    tag_930:\n        /* \"#utility.yul\":38077:38101   */\n      swap3\n      pop\n        /* \"#utility.yul\":38136:38137   */\n      dup3\n        /* \"#utility.yul\":38133:38134   */\n      dup3\n        /* \"#utility.yul\":38129:38138   */\n      mul\n        /* \"#utility.yul\":38158:38187   */\n      tag_931\n        /* \"#utility.yul\":38175:38186   */\n      dup2\n        /* \"#utility.yul\":38158:38187   */\n      tag_485\n      jump\t// in\n    tag_931:\n        /* \"#utility.yul\":38147:38187   */\n      swap2\n      pop\n        /* \"#utility.yul\":38245:38311   */\n      0x8000000000000000000000000000000000000000000000000000000000000000\n        /* \"#utility.yul\":38242:38243   */\n      dup5\n        /* \"#utility.yul\":38239:38312   */\n      eq\n        /* \"#utility.yul\":38235:38236   */\n      0x00\n        /* \"#utility.yul\":38232:38233   */\n      dup5\n        /* \"#utility.yul\":38228:38237   */\n      slt\n        /* \"#utility.yul\":38224:38313   */\n      and\n        /* \"#utility.yul\":38221:38336   */\n      iszero\n      tag_932\n      jumpi\n        /* \"#utility.yul\":38316:38334   */\n      tag_933\n      tag_545\n      jump\t// in\n    tag_933:\n        /* \"#utility.yul\":38221:38336   */\n    tag_932:\n        /* \"#utility.yul\":38486:38487   */\n      dup3\n        /* \"#utility.yul\":38477:38484   */\n      dup3\n        /* \"#utility.yul\":38472:38488   */\n      sdiv\n        /* \"#utility.yul\":38469:38470   */\n      dup5\n        /* \"#utility.yul\":38466:38489   */\n      eq\n        /* \"#utility.yul\":38446:38447   */\n      dup4\n        /* \"#utility.yul\":38439:38448   */\n      iszero\n        /* \"#utility.yul\":38419:38503   */\n      or\n        /* \"#utility.yul\":38396:38536   */\n      tag_934\n      jumpi\n        /* \"#utility.yul\":38516:38534   */\n      tag_935\n      tag_545\n      jump\t// in\n    tag_935:\n        /* \"#utility.yul\":38396:38536   */\n    tag_934:\n        /* \"#utility.yul\":38034:38543   */\n      pop\n        /* \"#utility.yul\":37987:38543   */\n      swap3\n      swap2\n      pop\n      pop\n      jump\t// out\n        /* \"#utility.yul\":38549:38697   */\n    tag_546:\n        /* \"#utility.yul\":38651:38662   */\n      0x00\n        /* \"#utility.yul\":38688:38691   */\n      dup2\n        /* \"#utility.yul\":38673:38691   */\n      swap1\n      pop\n        /* \"#utility.yul\":38549:38697   */\n      swap3\n      swap2\n      pop\n      pop\n      jump\t// out\n        /* \"#utility.yul\":38703:39093   */\n    tag_547:\n        /* \"#utility.yul\":38809:38812   */\n      0x00\n        /* \"#utility.yul\":38837:38876   */\n      tag_938\n        /* \"#utility.yul\":38870:38875   */\n      dup3\n        /* \"#utility.yul\":38837:38876   */\n      tag_461\n      jump\t// in\n    tag_938:\n        /* \"#utility.yul\":38892:38981   */\n      tag_939\n        /* \"#utility.yul\":38974:38980   */\n      dup2\n        /* \"#utility.yul\":38969:38972   */\n      dup6\n        /* \"#utility.yul\":38892:38981   */\n      tag_546\n      jump\t// in\n    tag_939:\n        /* \"#utility.yul\":38885:38981   */\n      swap4\n      pop\n        /* \"#utility.yul\":38990:39055   */\n      tag_940\n        /* \"#utility.yul\":39048:39054   */\n      dup2\n        /* \"#utility.yul\":39043:39046   */\n      dup6\n        /* \"#utility.yul\":39036:39040   */\n      0x20\n        /* \"#utility.yul\":39029:39034   */\n      dup7\n        /* \"#utility.yul\":39025:39041   */\n      add\n        /* \"#utility.yul\":38990:39055   */\n      tag_463\n      jump\t// in\n    tag_940:\n        /* \"#utility.yul\":39080:39086   */\n      dup1\n        /* \"#utility.yul\":39075:39078   */\n      dup5\n        /* \"#utility.yul\":39071:39087   */\n      add\n        /* \"#utility.yul\":39064:39087   */\n      swap2\n      pop\n        /* \"#utility.yul\":38813:39093   */\n      pop\n        /* \"#utility.yul\":38703:39093   */\n      swap3\n      swap2\n      pop\n      pop\n      jump\t// out\n        /* \"#utility.yul\":39099:39374   */\n    tag_382:\n        /* \"#utility.yul\":39231:39234   */\n      0x00\n        /* \"#utility.yul\":39253:39348   */\n      tag_942\n        /* \"#utility.yul\":39344:39347   */\n      dup3\n        /* \"#utility.yul\":39335:39341   */\n      dup5\n        /* \"#utility.yul\":39253:39348   */\n      tag_547\n      jump\t// in\n    tag_942:\n        /* \"#utility.yul\":39246:39348   */\n      swap2\n      pop\n        /* \"#utility.yul\":39365:39368   */\n      dup2\n        /* \"#utility.yul\":39358:39368   */\n      swap1\n      pop\n        /* \"#utility.yul\":39099:39374   */\n      swap3\n      swap2\n      pop\n      pop\n      jump\t// out\n    stop\n    data_aea4f6927ea33467ca61411b72c5beee6f8d359515a97019be07e038950b279f 6162636465666768696a6b6c6d6e6f707172737475767778797a313233343536373839\n\n    auxdata: 0xa26469706673582212200b32fc35eb9b7d6c576ebfc4eba9e0cb4093cb051f89e61de6ae7d8917458f1164736f6c63430008180033\n}\n",
				"bytecode": {
					"linkReferences": {},
					"object": "608060405260006002556040518060400160405280601a81526020017f6162636465666768696a6b6c6d6e6f707172737475767778797a000000000000815250600390816200004f9190620002e3565b5060016004553480156200006257600080fd5b50620003ca565b600081519050919050565b7f4e487b7100000000000000000000000000000000000000000000000000000000600052604160045260246000fd5b7f4e487b7100000000000000000000000000000000000000000000000000000000600052602260045260246000fd5b60006002820490506001821680620000eb57607f821691505b602082108103620001015762000100620000a3565b5b50919050565b60008190508160005260206000209050919050565b60006020601f8301049050919050565b600082821b905092915050565b6000600883026200016b7fffffffffffffffffffffffffffffffffffffffffffffffffffffffffffffffff826200012c565b6200017786836200012c565b95508019841693508086168417925050509392505050565b6000819050919050565b6000819050919050565b6000620001c4620001be620001b8846200018f565b62000199565b6200018f565b9050919050565b6000819050919050565b620001e083620001a3565b620001f8620001ef82620001cb565b84845462000139565b825550505050565b600090565b6200020f62000200565b6200021c818484620001d5565b505050565b5b8181101562000244576200023860008262000205565b60018101905062000222565b5050565b601f82111562000293576200025d8162000107565b62000268846200011c565b8101602085101562000278578190505b6200029062000287856200011c565b83018262000221565b50505b505050565b600082821c905092915050565b6000620002b86000198460080262000298565b1980831691505092915050565b6000620002d38383620002a5565b9150826002028217905092915050565b620002ee8262000069565b67ffffffffffffffff8111156200030a576200030962000074565b5b620003168254620000d2565b6200032382828562000248565b600060209050601f8311600181146200035b576000841562000346578287015190505b620003528582620002c5565b865550620003c2565b601f1984166200036b8662000107565b60005b8281101562000395578489015182556001820191506020850194506020810190506200036e565b86831015620003b55784890151620003b1601f891682620002a5565b8355505b6001600288020188555050505b505050505050565b6136cb80620003da6000396000f3fe6080604052600436106100e85760003560e01c80638cb856231161008a578063c85e766d11610059578063c85e766d1461033c578063d637dcfa14610380578063e8b16603146103bd578063f8a8fd6d146103fa576100e8565b80638cb856231461026757806398a5f87c146102a4578063bafcd678146102e1578063bed34bba146102ff576100e8565b80635ec01e4d116100c65780635ec01e4d1461019257806361b299d5146101bd57806362e9f4a2146101ed5780636817329f1461022a576100e8565b80632040a465146100ed57806320987a6514610118578063585e330514610155575b600080fd5b3480156100f957600080fd5b50610102610425565b60405161010f919061228e565b60405180910390f35b34801561012457600080fd5b5061013f600480360381019061013a91906123f9565b6104b3565b60405161014c919061228e565b60405180910390f35b34801561016157600080fd5b5061017c600480360381019061017791906124fc565b610683565b6040516101899190612615565b60405180910390f35b34801561019e57600080fd5b506101a76109ef565b6040516101b4919061263f565b60405180910390f35b6101d760048036038101906101d2919061265a565b610a35565b6040516101e4919061263f565b60405180910390f35b3480156101f957600080fd5b50610214600480360381019061020f91906123f9565b610a93565b60405161022191906126a2565b60405180910390f35b34801561023657600080fd5b50610251600480360381019061024c91906126e9565b610c50565b60405161025e919061285a565b60405180910390f35b34801561027357600080fd5b5061028e6004803603810190610289919061287c565b610f69565b60405161029b91906129d9565b60405180910390f35b3480156102b057600080fd5b506102cb60048036038101906102c691906126e9565b61124b565b6040516102d8919061285a565b60405180910390f35b6102e9611668565b6040516102f6919061228e565b60405180910390f35b34801561030b57600080fd5b50610326600480360381019061032191906129fb565b6117bf565b60405161033391906126a2565b60405180910390f35b34801561034857600080fd5b50610363600480360381019061035e919061265a565b611818565b604051610377989796959493929190612ab5565b60405180910390f35b34801561038c57600080fd5b506103a760048036038101906103a29190612b51565b611b08565b6040516103b4919061228e565b60405180910390f35b3480156103c957600080fd5b506103e460048036038101906103df9190612c05565b611e13565b6040516103f19190612615565b60405180910390f35b34801561040657600080fd5b5061040f611e59565b60405161041c9190612e47565b60405180910390f35b6003805461043290612e98565b80601f016020809104026020016040519081016040528092919081815260200182805461045e90612e98565b80156104ab5780601f10610480576101008083540402835291602001916104ab565b820191906000526020600020905b81548152906001019060200180831161048e57829003601f168201915b505050505081565b606060005b6000805490508110156106445761057c83600083815481106104dd576104dc612ec9565b5b906000526020600020906004020160000180546104f990612e98565b80601f016020809104026020016040519081016040528092919081815260200182805461052590612e98565b80156105725780601f1061054757610100808354040283529160200191610572565b820191906000526020600020905b81548152906001019060200180831161055557829003601f168201915b50505050506117bf565b15610637576000818154811061059557610594612ec9565b5b906000526020600020906004020160030180546105b190612e98565b80601f01602080910402602001604051908101604052809291908181526020018280546105dd90612e98565b801561062a5780601f106105ff5761010080835404028352916020019161062a565b820191906000526020600020905b81548152906001019060200180831161060d57829003601f168201915b505050505091505061067e565b80806001019150506104b8565b506040518060400160405280600881526020017f52657461696c657200000000000000000000000000000000000000000000000081525090505b919050565b6000806106d387878080601f016020809104026020016040519081016040528093929190818152602001838380828437600081840152601f19601f820116905080830192505050505050506104b3565b905060006040518061010001604052808d81526020018c8c8080601f016020809104026020016040519081016040528093929190818152602001838380828437600081840152601f19601f82011690508083019250505050505050815260200189898080601f016020809104026020016040519081016040528093929190818152602001838380828437600081840152601f19601f8201169050808301925050505050505081526020018a8152602001878036038101906107949190612f61565b8152602001838152602001868036038101906107b09190612f61565b8152602001858036038101906107c69190612f61565b815250905060005b6001805490508110156108cf57610892600182815481106107f2576107f1612ec9565b5b90600052602060002090600e0201600001805461080e90612e98565b80601f016020809104026020016040519081016040528092919081815260200182805461083a90612e98565b80156108875780601f1061085c57610100808354040283529160200191610887565b820191906000526020600020905b81548152906001019060200180831161086a57829003601f168201915b50505050508e6117bf565b156108c2577fffffffffffffffffffffffffffffffffffffffffffffffffffffffffffffffff93505050506109e2565b80806001019150506107ce565b5060018190806001815401808255809150506001900390600052602060002090600e02016000909190919091506000820151816000019081610911919061313a565b506020820151816001019081610927919061313a565b50604082015181600201908161093d919061313a565b5060608201518160030155608082015181600401600082015181600001556020820151816001015560408201518160020155505060a0820151816007019081610986919061313a565b5060c082015181600801600082015181600001556020820151816001015560408201518160020155505060e082015181600b01600082015181600001556020820151816001015560408201518160020155505050506001925050505b9998505050505050505050565b6000806064423344604051602001610a09939291906132a7565b6040516020818303038152906040528051906020012060001c610a2c9190613313565b90508091505090565b600060046000815480929190610a4a90613373565b919050555081424433600454604051602001610a6994939291906133bb565b6040516020818303038152906040528051906020012060001c610a8c9190613313565b9050919050565b600080600090505b600180549050811015610c4557610b5f60018281548110610abf57610abe612ec9565b5b90600052602060002090600e02016000018054610adb90612e98565b80601f0160208091040260200160405190810160405280929190818152602001828054610b0790612e98565b8015610b545780601f10610b2957610100808354040283529160200191610b54565b820191906000526020600020905b815481529060010190602001808311610b3757829003601f168201915b5050505050846117bf565b15610c385760018181548110610b7857610b77612ec9565b5b90600052602060002090600e020160008082016000610b9791906121a1565b600182016000610ba791906121a1565b600282016000610bb791906121a1565b600382016000905560048201600080820160009055600182016000905560028201600090555050600782016000610bee91906121a1565b60088201600080820160009055600182016000905560028201600090555050600b820160008082016000905560018201600090556002820160009055505050506001915050610c4b565b8080600101915050610a9b565b50600090505b919050565b6060600060018686610c629190613409565b610c6c919061344c565b67ffffffffffffffff811115610c8557610c846122ce565b5b604051908082528060200260200182016040528015610cb35781602001602082028036833780820191505090505b509050600c8712610cc75780915050610f60565b60008690505b858113610f5a5760008060005b600180549050811015610f08576000610d258560018481548110610d0157610d00612ec9565b5b90600052602060002090600e020160040160010154610d209190613409565b611e13565b905060018015610de85750610de760018381548110610d4757610d46612ec9565b5b90600052602060002090600e02016001018054610d6390612e98565b80601f0160208091040260200160405190810160405280929190818152602001828054610d8f90612e98565b8015610ddc5780601f10610db157610100808354040283529160200191610ddc565b820191906000526020600020905b815481529060010190602001808311610dbf57829003601f168201915b50505050508a6117bf565b5b8015610ea75750610ea68860018481548110610e0757610e06612ec9565b5b90600052602060002090600e02016007018054610e2390612e98565b80601f0160208091040260200160405190810160405280929190818152602001828054610e4f90612e98565b8015610e9c5780601f10610e7157610100808354040283529160200191610e9c565b820191906000526020600020905b815481529060010190602001808311610e7f57829003601f168201915b50505050506117bf565b5b8015610eb357508b8113155b15610efa5760018281548110610ecc57610ecb612ec9565b5b90600052602060002090600e02016003015484610ee9919061344c565b93508280610ef690613490565b9350505b508080600101915050610cda565b5060008183610f1791906134d8565b905080858b86610f279190613409565b81518110610f3857610f37612ec9565b5b6020026020010181815250505050508080610f5290613490565b915050610ccd565b50809150505b95945050505050565b6060600060018686610f7b9190613409565b610f85919061344c565b67ffffffffffffffff811115610f9e57610f9d6122ce565b5b604051908082528060200260200182016040528015610fcc5781602001602082028036833780820191505090505b50905060008690505b85811361123e5760008060005b6001805490508110156111ec57836001828154811061100457611003612ec9565b5b90600052602060002090600e0201600401600101541480156110d957506110d8886001838154811061103957611038612ec9565b5b90600052602060002090600e0201600101805461105590612e98565b80601f016020809104026020016040519081016040528092919081815260200182805461108190612e98565b80156110ce5780601f106110a3576101008083540402835291602001916110ce565b820191906000526020600020905b8154815290600101906020018083116110b157829003601f168201915b50505050506117bf565b5b8015611198575061119787600183815481106110f8576110f7612ec9565b5b90600052602060002090600e0201600701805461111490612e98565b80601f016020809104026020016040519081016040528092919081815260200182805461114090612e98565b801561118d5780601f106111625761010080835404028352916020019161118d565b820191906000526020600020905b81548152906001019060200180831161117057829003601f168201915b50505050506117bf565b5b156111df57600181815481106111b1576111b0612ec9565b5b90600052602060002090600e020160030154836111ce9190613542565b925081806111db90613373565b9250505b8080600101915050610fe2565b50600081836111fb9190613576565b905080858b8661120b9190613409565b8151811061121c5761121b612ec9565b5b602002602001018181525050505050808061123690613490565b915050610fd5565b5080915050949350505050565b606060006001868661125d9190613409565b611267919061344c565b67ffffffffffffffff8111156112805761127f6122ce565b5b6040519080825280602002602001820160405280156112ae5781602001602082028036833780820191505090505b5090506000600b67ffffffffffffffff8111156112ce576112cd6122ce565b5b6040519080825280602002602001820160405280156112fc5781602001602082028036833780820191505090505b509050600c881261131157819250505061165f565b60005b600b81121561136d5760018161132a919061344c565b600182611337919061344c565b61134191906135a7565b82828151811061135457611353612ec9565b5b6020026020010181815250508080600101915050611314565b5060008790505b8681136116585760008060005b6001805490508110156116065760006113cc85600184815481106113a8576113a7612ec9565b5b90600052602060002090600e0201600401600101546113c79190613409565b611e13565b90508c81131580156113dc575060015b801561149b575061149a600183815481106113fa576113f9612ec9565b5b90600052602060002090600e0201600101805461141690612e98565b80601f016020809104026020016040519081016040528092919081815260200182805461144290612e98565b801561148f5780601f106114645761010080835404028352916020019161148f565b820191906000526020600020905b81548152906001019060200180831161147257829003601f168201915b50505050508b6117bf565b5b801561155a575061155989600184815481106114ba576114b9612ec9565b5b90600052602060002090600e020160070180546114d690612e98565b80601f016020809104026020016040519081016040528092919081815260200182805461150290612e98565b801561154f5780601f106115245761010080835404028352916020019161154f565b820191906000526020600020905b81548152906001019060200180831161153257829003601f168201915b50505050506117bf565b5b156115f8576001828154811061157357611572612ec9565b5b90600052602060002090600e0201600301548682600a6115939190613409565b815181106115a4576115a3612ec9565b5b60200260200101516115b691906135a7565b846115c1919061344c565b93508581600a6115d19190613409565b815181106115e2576115e1612ec9565b5b6020026020010151836115f5919061344c565b92505b508080600101915050611381565b506000818361161591906134d8565b905080868c866116259190613409565b8151811061163657611635612ec9565b5b602002602001018181525050505050808061165090613490565b915050611374565b5081925050505b95945050505050565b60606000600a905060008167ffffffffffffffff81111561168c5761168b6122ce565b5b6040519080825280601f01601f1916602001820160405280156116be5781602001600182028036833780820191505090505b5090506000602367ffffffffffffffff8111156116de576116dd6122ce565b5b6040519080825280601f01601f1916602001820160405280156117105781602001600182028036833780820191505090505b50905060405180606001604052806023815260200161367360239139905060005b838110156117b55760006117456023610a35565b905082818151811061175a57611759612ec9565b5b602001015160f81c60f81b84838151811061177857611777612ec9565b5b60200101907effffffffffffffffffffffffffffffffffffffffffffffffffffffffffffff1916908160001a905350508080600101915050611731565b5081935050505090565b6000816040516020016117d2919061365b565b60405160208183030381529060405280519060200120836040516020016117f9919061365b565b6040516020818303038152906040528051906020012014905092915050565b6001818154811061182857600080fd5b90600052602060002090600e020160009150905080600001805461184b90612e98565b80601f016020809104026020016040519081016040528092919081815260200182805461187790612e98565b80156118c45780601f10611899576101008083540402835291602001916118c4565b820191906000526020600020905b8154815290600101906020018083116118a757829003601f168201915b5050505050908060010180546118d990612e98565b80601f016020809104026020016040519081016040528092919081815260200182805461190590612e98565b80156119525780601f1061192757610100808354040283529160200191611952565b820191906000526020600020905b81548152906001019060200180831161193557829003601f168201915b50505050509080600201805461196790612e98565b80601f016020809104026020016040519081016040528092919081815260200182805461199390612e98565b80156119e05780601f106119b5576101008083540402835291602001916119e0565b820191906000526020600020905b8154815290600101906020018083116119c357829003601f168201915b50505050509080600301549080600401604051806060016040529081600082015481526020016001820154815260200160028201548152505090806007018054611a2990612e98565b80601f0160208091040260200160405190810160405280929190818152602001828054611a5590612e98565b8015611aa25780601f10611a7757610100808354040283529160200191611aa2565b820191906000526020600020905b815481529060010190602001808311611a8557829003601f168201915b5050505050908060080160405180606001604052908160008201548152602001600182015481526020016002820154815250509080600b016040518060600160405290816000820154815260200160018201548152602001600282015481525050905088565b60606000611b14611668565b9050600060405180608001604052808381526020018a8a8080601f016020809104026020016040519081016040528093929190818152602001838380828437600081840152601f19601f82011690508083019250505050505050815260200188888080601f016020809104026020016040519081016040528093929190818152602001838380828437600081840152601f19601f82011690508083019250505050505050815260200186868080601f016020809104026020016040519081016040528093929190818152602001838380828437600081840152601f19601f82011690508083019250505050505050815250905060006002819055505b6000805490506002541015611d7d57611d1c600060025481548110611c3857611c37612ec9565b5b90600052602060002090600402016001018054611c5490612e98565b80601f0160208091040260200160405190810160405280929190818152602001828054611c8090612e98565b8015611ccd5780601f10611ca257610100808354040283529160200191611ccd565b820191906000526020600020905b815481529060010190602001808311611cb057829003601f168201915b50505050508a8a8080601f016020809104026020016040519081016040528093929190818152602001838380828437600081840152601f19601f820116905080830192505050505050506117bf565b15611d60576040518060400160405280600e81526020017f416c72656164792045786973747300000000000000000000000000000000000081525092505050611e09565b60026000815480929190611d7390613373565b9190505550611c10565b60008190806001815401808255809150506001900390600052602060002090600402016000909190919091506000820151816000019081611dbe919061313a565b506020820151816001019081611dd4919061313a565b506040820151816002019081611dea919061313a565b506060820151816003019081611e00919061313a565b50505081925050505b9695505050505050565b600080821215611e50577fffffffffffffffffffffffffffffffffffffffffffffffffffffffffffffffff82611e4991906135a7565b9050611e54565b8190505b919050565b60606001805480602002602001604051908101604052809291908181526020016000905b8282101561219857838290600052602060002090600e020160405180610100016040529081600082018054611eb190612e98565b80601f0160208091040260200160405190810160405280929190818152602001828054611edd90612e98565b8015611f2a5780601f10611eff57610100808354040283529160200191611f2a565b820191906000526020600020905b815481529060010190602001808311611f0d57829003601f168201915b50505050508152602001600182018054611f4390612e98565b80601f0160208091040260200160405190810160405280929190818152602001828054611f6f90612e98565b8015611fbc5780601f10611f9157610100808354040283529160200191611fbc565b820191906000526020600020905b815481529060010190602001808311611f9f57829003601f168201915b50505050508152602001600282018054611fd590612e98565b80601f016020809104026020016040519081016040528092919081815260200182805461200190612e98565b801561204e5780601f106120235761010080835404028352916020019161204e565b820191906000526020600020905b81548152906001019060200180831161203157829003601f168201915b505050505081526020016003820154815260200160048201604051806060016040529081600082015481526020016001820154815260200160028201548152505081526020016007820180546120a390612e98565b80601f01602080910402602001604051908101604052809291908181526020018280546120cf90612e98565b801561211c5780601f106120f15761010080835404028352916020019161211c565b820191906000526020600020905b8154815290600101906020018083116120ff57829003601f168201915b505050505081526020016008820160405180606001604052908160008201548152602001600182015481526020016002820154815250508152602001600b820160405180606001604052908160008201548152602001600182015481526020016002820154815250508152505081526020019060010190611e7d565b50505050905090565b5080546121ad90612e98565b6000825580601f106121bf57506121de565b601f0160209004906000526020600020908101906121dd91906121e1565b5b50565b5b808211156121fa5760008160009055506001016121e2565b5090565b600081519050919050565b600082825260208201905092915050565b60005b8381101561223857808201518184015260208101905061221d565b60008484015250505050565b6000601f19601f8301169050919050565b6000612260826121fe565b61226a8185612209565b935061227a81856020860161221a565b61228381612244565b840191505092915050565b600060208201905081810360008301526122a88184612255565b905092915050565b6000604051905090565b600080fd5b600080fd5b600080fd5b600080fd5b7f4e487b7100000000000000000000000000000000000000000000000000000000600052604160045260246000fd5b61230682612244565b810181811067ffffffffffffffff82111715612325576123246122ce565b5b80604052505050565b60006123386122b0565b905061234482826122fd565b919050565b600067ffffffffffffffff821115612364576123636122ce565b5b61236d82612244565b9050602081019050919050565b82818337600083830152505050565b600061239c61239784612349565b61232e565b9050828152602081018484840111156123b8576123b76122c9565b5b6123c384828561237a565b509392505050565b600082601f8301126123e0576123df6122c4565b5b81356123f0848260208601612389565b91505092915050565b60006020828403121561240f5761240e6122ba565b5b600082013567ffffffffffffffff81111561242d5761242c6122bf565b5b612439848285016123cb565b91505092915050565b600080fd5b600080fd5b60008083601f840112612462576124616122c4565b5b8235905067ffffffffffffffff81111561247f5761247e612442565b5b60208301915083600182028301111561249b5761249a612447565b5b9250929050565b6000819050919050565b6124b5816124a2565b81146124c057600080fd5b50565b6000813590506124d2816124ac565b92915050565b600080fd5b6000606082840312156124f3576124f26124d8565b5b81905092915050565b60008060008060008060008060006101a08a8c03121561251f5761251e6122ba565b5b60008a013567ffffffffffffffff81111561253d5761253c6122bf565b5b6125498c828d016123cb565b99505060208a013567ffffffffffffffff81111561256a576125696122bf565b5b6125768c828d0161244c565b985098505060406125898c828d016124c3565b96505060608a013567ffffffffffffffff8111156125aa576125a96122bf565b5b6125b68c828d0161244c565b955095505060806125c98c828d016124dd565b93505060e06125da8c828d016124dd565b9250506101406125ec8c828d016124dd565b9150509295985092959850929598565b6000819050919050565b61260f816125fc565b82525050565b600060208201905061262a6000830184612606565b92915050565b612639816124a2565b82525050565b60006020820190506126546000830184612630565b92915050565b6000602082840312156126705761266f6122ba565b5b600061267e848285016124c3565b91505092915050565b60008115159050919050565b61269c81612687565b82525050565b60006020820190506126b76000830184612693565b92915050565b6126c6816125fc565b81146126d157600080fd5b50565b6000813590506126e3816126bd565b92915050565b600080600080600060a08688031215612705576127046122ba565b5b6000612713888289016126d4565b9550506020612724888289016126d4565b9450506040612735888289016126d4565b935050606086013567ffffffffffffffff811115612756576127556122bf565b5b612762888289016123cb565b925050608086013567ffffffffffffffff811115612783576127826122bf565b5b61278f888289016123cb565b9150509295509295909350565b600081519050919050565b600082825260208201905092915050565b6000819050602082019050919050565b6127d1816125fc565b82525050565b60006127e383836127c8565b60208301905092915050565b6000602082019050919050565b60006128078261279c565b61281181856127a7565b935061281c836127b8565b8060005b8381101561284d57815161283488826127d7565b975061283f836127ef565b925050600181019050612820565b5085935050505092915050565b6000602082019050818103600083015261287481846127fc565b905092915050565b60008060008060808587031215612896576128956122ba565b5b60006128a4878288016126d4565b94505060206128b5878288016126d4565b935050604085013567ffffffffffffffff8111156128d6576128d56122bf565b5b6128e2878288016123cb565b925050606085013567ffffffffffffffff811115612903576129026122bf565b5b61290f878288016123cb565b91505092959194509250565b600081519050919050565b600082825260208201905092915050565b6000819050602082019050919050565b612950816124a2565b82525050565b60006129628383612947565b60208301905092915050565b6000602082019050919050565b60006129868261291b565b6129908185612926565b935061299b83612937565b8060005b838110156129cc5781516129b38882612956565b97506129be8361296e565b92505060018101905061299f565b5085935050505092915050565b600060208201905081810360008301526129f3818461297b565b905092915050565b60008060408385031215612a1257612a116122ba565b5b600083013567ffffffffffffffff811115612a3057612a2f6122bf565b5b612a3c858286016123cb565b925050602083013567ffffffffffffffff811115612a5d57612a5c6122bf565b5b612a69858286016123cb565b9150509250929050565b606082016000820151612a896000850182612947565b506020820151612a9c60208501826127c8565b506040820151612aaf6040850182612947565b50505050565b60006101c0820190508181036000830152612ad0818b612255565b90508181036020830152612ae4818a612255565b90508181036040830152612af88189612255565b9050612b076060830188612630565b612b146080830187612a73565b81810360e0830152612b268186612255565b9050612b36610100830185612a73565b612b44610160830184612a73565b9998505050505050505050565b60008060008060008060608789031215612b6e57612b6d6122ba565b5b600087013567ffffffffffffffff811115612b8c57612b8b6122bf565b5b612b9889828a0161244c565b9650965050602087013567ffffffffffffffff811115612bbb57612bba6122bf565b5b612bc789828a0161244c565b9450945050604087013567ffffffffffffffff811115612bea57612be96122bf565b5b612bf689828a0161244c565b92509250509295509295509295565b600060208284031215612c1b57612c1a6122ba565b5b6000612c29848285016126d4565b91505092915050565b600081519050919050565b600082825260208201905092915050565b6000819050602082019050919050565b600082825260208201905092915050565b6000612c7a826121fe565b612c848185612c5e565b9350612c9481856020860161221a565b612c9d81612244565b840191505092915050565b606082016000820151612cbe6000850182612947565b506020820151612cd160208501826127c8565b506040820151612ce46040850182612947565b50505050565b60006101c0830160008301518482036000860152612d088282612c6f565b91505060208301518482036020860152612d228282612c6f565b91505060408301518482036040860152612d3c8282612c6f565b9150506060830151612d516060860182612947565b506080830151612d646080860182612ca8565b5060a083015184820360e0860152612d7c8282612c6f565b91505060c0830151612d92610100860182612ca8565b5060e0830151612da6610160860182612ca8565b508091505092915050565b6000612dbd8383612cea565b905092915050565b6000602082019050919050565b6000612ddd82612c32565b612de78185612c3d565b935083602082028501612df985612c4e565b8060005b85811015612e355784840389528151612e168582612db1565b9450612e2183612dc5565b925060208a01995050600181019050612dfd565b50829750879550505050505092915050565b60006020820190508181036000830152612e618184612dd2565b905092915050565b7f4e487b7100000000000000000000000000000000000000000000000000000000600052602260045260246000fd5b60006002820490506001821680612eb057607f821691505b602082108103612ec357612ec2612e69565b5b50919050565b7f4e487b7100000000000000000000000000000000000000000000000000000000600052603260045260246000fd5b600080fd5b600060608284031215612f1357612f12612ef8565b5b612f1d606061232e565b90506000612f2d848285016124c3565b6000830152506020612f41848285016126d4565b6020830152506040612f55848285016124c3565b60408301525092915050565b600060608284031215612f7757612f766122ba565b5b6000612f8584828501612efd565b91505092915050565b60008190508160005260206000209050919050565b60006020601f8301049050919050565b600082821b905092915050565b600060088302612ff07fffffffffffffffffffffffffffffffffffffffffffffffffffffffffffffffff82612fb3565b612ffa8683612fb3565b95508019841693508086168417925050509392505050565b6000819050919050565b600061303761303261302d846124a2565b613012565b6124a2565b9050919050565b6000819050919050565b6130518361301c565b61306561305d8261303e565b848454612fc0565b825550505050565b600090565b61307a61306d565b613085818484613048565b505050565b5b818110156130a95761309e600082613072565b60018101905061308b565b5050565b601f8211156130ee576130bf81612f8e565b6130c884612fa3565b810160208510156130d7578190505b6130eb6130e385612fa3565b83018261308a565b50505b505050565b600082821c905092915050565b6000613111600019846008026130f3565b1980831691505092915050565b600061312a8383613100565b9150826002028217905092915050565b613143826121fe565b67ffffffffffffffff81111561315c5761315b6122ce565b5b6131668254612e98565b6131718282856130ad565b600060209050601f8311600181146131a45760008415613192578287015190505b61319c858261311e565b865550613204565b601f1984166131b286612f8e565b60005b828110156131da578489015182556001820191506020850194506020810190506131b5565b868310156131f757848901516131f3601f891682613100565b8355505b6001600288020188555050505b505050505050565b6000819050919050565b613227613222826124a2565b61320c565b82525050565b600073ffffffffffffffffffffffffffffffffffffffff82169050919050565b60006132588261322d565b9050919050565b60008160601b9050919050565b60006132778261325f565b9050919050565b60006132898261326c565b9050919050565b6132a161329c8261324d565b61327e565b82525050565b60006132b38286613216565b6020820191506132c38285613290565b6014820191506132d38284613216565b602082019150819050949350505050565b7f4e487b7100000000000000000000000000000000000000000000000000000000600052601260045260246000fd5b600061331e826124a2565b9150613329836124a2565b925082613339576133386132e4565b5b828206905092915050565b7f4e487b7100000000000000000000000000000000000000000000000000000000600052601160045260246000fd5b600061337e826124a2565b91507fffffffffffffffffffffffffffffffffffffffffffffffffffffffffffffffff82036133b0576133af613344565b5b600182019050919050565b60006133c78287613216565b6020820191506133d78286613216565b6020820191506133e78285613290565b6014820191506133f78284613216565b60208201915081905095945050505050565b6000613414826125fc565b915061341f836125fc565b925082820390508181126000841216828213600085121516171561344657613445613344565b5b92915050565b6000613457826125fc565b9150613462836125fc565b92508282019050828112156000831216838212600084121516171561348a57613489613344565b5b92915050565b600061349b826125fc565b91507f7fffffffffffffffffffffffffffffffffffffffffffffffffffffffffffffff82036134cd576134cc613344565b5b600182019050919050565b60006134e3826125fc565b91506134ee836125fc565b9250826134fe576134fd6132e4565b5b600160000383147f80000000000000000000000000000000000000000000000000000000000000008314161561353757613536613344565b5b828205905092915050565b600061354d826124a2565b9150613558836124a2565b92508282019050808211156135705761356f613344565b5b92915050565b6000613581826124a2565b915061358c836124a2565b92508261359c5761359b6132e4565b5b828204905092915050565b60006135b2826125fc565b91506135bd836125fc565b92508282026135cb816125fc565b91507f8000000000000000000000000000000000000000000000000000000000000000841460008412161561360357613602613344565b5b828205841483151761361857613617613344565b5b5092915050565b600081905092915050565b6000613635826121fe565b61363f818561361f565b935061364f81856020860161221a565b80840191505092915050565b6000613667828461362a565b91508190509291505056fe6162636465666768696a6b6c6d6e6f707172737475767778797a313233343536373839a26469706673582212200b32fc35eb9b7d6c576ebfc4eba9e0cb4093cb051f89e61de6ae7d8917458f1164736f6c63430008180033",
					"opcodes": "PUSH1 0x80 PUSH1 0x40 MSTORE PUSH1 0x0 PUSH1 0x2 SSTORE PUSH1 0x40 MLOAD DUP1 PUSH1 0x40 ADD PUSH1 0x40 MSTORE DUP1 PUSH1 0x1A DUP2 MSTORE PUSH1 0x20 ADD PUSH32 0x6162636465666768696A6B6C6D6E6F707172737475767778797A000000000000 DUP2 MSTORE POP PUSH1 0x3 SWAP1 DUP2 PUSH3 0x4F SWAP2 SWAP1 PUSH3 0x2E3 JUMP JUMPDEST POP PUSH1 0x1 PUSH1 0x4 SSTORE CALLVALUE DUP1 ISZERO PUSH3 0x62 JUMPI PUSH1 0x0 DUP1 REVERT JUMPDEST POP PUSH3 0x3CA JUMP JUMPDEST PUSH1 0x0 DUP2 MLOAD SWAP1 POP SWAP2 SWAP1 POP JUMP JUMPDEST PUSH32 0x4E487B7100000000000000000000000000000000000000000000000000000000 PUSH1 0x0 MSTORE PUSH1 0x41 PUSH1 0x4 MSTORE PUSH1 0x24 PUSH1 0x0 REVERT JUMPDEST PUSH32 0x4E487B7100000000000000000000000000000000000000000000000000000000 PUSH1 0x0 MSTORE PUSH1 0x22 PUSH1 0x4 MSTORE PUSH1 0x24 PUSH1 0x0 REVERT JUMPDEST PUSH1 0x0 PUSH1 0x2 DUP3 DIV SWAP1 POP PUSH1 0x1 DUP3 AND DUP1 PUSH3 0xEB JUMPI PUSH1 0x7F DUP3 AND SWAP2 POP JUMPDEST PUSH1 0x20 DUP3 LT DUP2 SUB PUSH3 0x101 JUMPI PUSH3 0x100 PUSH3 0xA3 JUMP JUMPDEST JUMPDEST POP SWAP2 SWAP1 POP JUMP JUMPDEST PUSH1 0x0 DUP2 SWAP1 POP DUP2 PUSH1 0x0 MSTORE PUSH1 0x20 PUSH1 0x0 KECCAK256 SWAP1 POP SWAP2 SWAP1 POP JUMP JUMPDEST PUSH1 0x0 PUSH1 0x20 PUSH1 0x1F DUP4 ADD DIV SWAP1 POP SWAP2 SWAP1 POP JUMP JUMPDEST PUSH1 0x0 DUP3 DUP3 SHL SWAP1 POP SWAP3 SWAP2 POP POP JUMP JUMPDEST PUSH1 0x0 PUSH1 0x8 DUP4 MUL PUSH3 0x16B PUSH32 0xFFFFFFFFFFFFFFFFFFFFFFFFFFFFFFFFFFFFFFFFFFFFFFFFFFFFFFFFFFFFFFFF DUP3 PUSH3 0x12C JUMP JUMPDEST PUSH3 0x177 DUP7 DUP4 PUSH3 0x12C JUMP JUMPDEST SWAP6 POP DUP1 NOT DUP5 AND SWAP4 POP DUP1 DUP7 AND DUP5 OR SWAP3 POP POP POP SWAP4 SWAP3 POP POP POP JUMP JUMPDEST PUSH1 0x0 DUP2 SWAP1 POP SWAP2 SWAP1 POP JUMP JUMPDEST PUSH1 0x0 DUP2 SWAP1 POP SWAP2 SWAP1 POP JUMP JUMPDEST PUSH1 0x0 PUSH3 0x1C4 PUSH3 0x1BE PUSH3 0x1B8 DUP5 PUSH3 0x18F JUMP JUMPDEST PUSH3 0x199 JUMP JUMPDEST PUSH3 0x18F JUMP JUMPDEST SWAP1 POP SWAP2 SWAP1 POP JUMP JUMPDEST PUSH1 0x0 DUP2 SWAP1 POP SWAP2 SWAP1 POP JUMP JUMPDEST PUSH3 0x1E0 DUP4 PUSH3 0x1A3 JUMP JUMPDEST PUSH3 0x1F8 PUSH3 0x1EF DUP3 PUSH3 0x1CB JUMP JUMPDEST DUP5 DUP5 SLOAD PUSH3 0x139 JUMP JUMPDEST DUP3 SSTORE POP POP POP POP JUMP JUMPDEST PUSH1 0x0 SWAP1 JUMP JUMPDEST PUSH3 0x20F PUSH3 0x200 JUMP JUMPDEST PUSH3 0x21C DUP2 DUP5 DUP5 PUSH3 0x1D5 JUMP JUMPDEST POP POP POP JUMP JUMPDEST JUMPDEST DUP2 DUP2 LT ISZERO PUSH3 0x244 JUMPI PUSH3 0x238 PUSH1 0x0 DUP3 PUSH3 0x205 JUMP JUMPDEST PUSH1 0x1 DUP2 ADD SWAP1 POP PUSH3 0x222 JUMP JUMPDEST POP POP JUMP JUMPDEST PUSH1 0x1F DUP3 GT ISZERO PUSH3 0x293 JUMPI PUSH3 0x25D DUP2 PUSH3 0x107 JUMP JUMPDEST PUSH3 0x268 DUP5 PUSH3 0x11C JUMP JUMPDEST DUP2 ADD PUSH1 0x20 DUP6 LT ISZERO PUSH3 0x278 JUMPI DUP2 SWAP1 POP JUMPDEST PUSH3 0x290 PUSH3 0x287 DUP6 PUSH3 0x11C JUMP JUMPDEST DUP4 ADD DUP3 PUSH3 0x221 JUMP JUMPDEST POP POP JUMPDEST POP POP POP JUMP JUMPDEST PUSH1 0x0 DUP3 DUP3 SHR SWAP1 POP SWAP3 SWAP2 POP POP JUMP JUMPDEST PUSH1 0x0 PUSH3 0x2B8 PUSH1 0x0 NOT DUP5 PUSH1 0x8 MUL PUSH3 0x298 JUMP JUMPDEST NOT DUP1 DUP4 AND SWAP2 POP POP SWAP3 SWAP2 POP POP JUMP JUMPDEST PUSH1 0x0 PUSH3 0x2D3 DUP4 DUP4 PUSH3 0x2A5 JUMP JUMPDEST SWAP2 POP DUP3 PUSH1 0x2 MUL DUP3 OR SWAP1 POP SWAP3 SWAP2 POP POP JUMP JUMPDEST PUSH3 0x2EE DUP3 PUSH3 0x69 JUMP JUMPDEST PUSH8 0xFFFFFFFFFFFFFFFF DUP2 GT ISZERO PUSH3 0x30A JUMPI PUSH3 0x309 PUSH3 0x74 JUMP JUMPDEST JUMPDEST PUSH3 0x316 DUP3 SLOAD PUSH3 0xD2 JUMP JUMPDEST PUSH3 0x323 DUP3 DUP3 DUP6 PUSH3 0x248 JUMP JUMPDEST PUSH1 0x0 PUSH1 0x20 SWAP1 POP PUSH1 0x1F DUP4 GT PUSH1 0x1 DUP2 EQ PUSH3 0x35B JUMPI PUSH1 0x0 DUP5 ISZERO PUSH3 0x346 JUMPI DUP3 DUP8 ADD MLOAD SWAP1 POP JUMPDEST PUSH3 0x352 DUP6 DUP3 PUSH3 0x2C5 JUMP JUMPDEST DUP7 SSTORE POP PUSH3 0x3C2 JUMP JUMPDEST PUSH1 0x1F NOT DUP5 AND PUSH3 0x36B DUP7 PUSH3 0x107 JUMP JUMPDEST PUSH1 0x0 JUMPDEST DUP3 DUP2 LT ISZERO PUSH3 0x395 JUMPI DUP5 DUP10 ADD MLOAD DUP3 SSTORE PUSH1 0x1 DUP3 ADD SWAP2 POP PUSH1 0x20 DUP6 ADD SWAP5 POP PUSH1 0x20 DUP2 ADD SWAP1 POP PUSH3 0x36E JUMP JUMPDEST DUP7 DUP4 LT ISZERO PUSH3 0x3B5 JUMPI DUP5 DUP10 ADD MLOAD PUSH3 0x3B1 PUSH1 0x1F DUP10 AND DUP3 PUSH3 0x2A5 JUMP JUMPDEST DUP4 SSTORE POP JUMPDEST PUSH1 0x1 PUSH1 0x2 DUP9 MUL ADD DUP9 SSTORE POP POP POP JUMPDEST POP POP POP POP POP POP JUMP JUMPDEST PUSH2 0x36CB DUP1 PUSH3 0x3DA PUSH1 0x0 CODECOPY PUSH1 0x0 RETURN INVALID PUSH1 0x80 PUSH1 0x40 MSTORE PUSH1 0x4 CALLDATASIZE LT PUSH2 0xE8 JUMPI PUSH1 0x0 CALLDATALOAD PUSH1 0xE0 SHR DUP1 PUSH4 0x8CB85623 GT PUSH2 0x8A JUMPI DUP1 PUSH4 0xC85E766D GT PUSH2 0x59 JUMPI DUP1 PUSH4 0xC85E766D EQ PUSH2 0x33C JUMPI DUP1 PUSH4 0xD637DCFA EQ PUSH2 0x380 JUMPI DUP1 PUSH4 0xE8B16603 EQ PUSH2 0x3BD JUMPI DUP1 PUSH4 0xF8A8FD6D EQ PUSH2 0x3FA JUMPI PUSH2 0xE8 JUMP JUMPDEST DUP1 PUSH4 0x8CB85623 EQ PUSH2 0x267 JUMPI DUP1 PUSH4 0x98A5F87C EQ PUSH2 0x2A4 JUMPI DUP1 PUSH4 0xBAFCD678 EQ PUSH2 0x2E1 JUMPI DUP1 PUSH4 0xBED34BBA EQ PUSH2 0x2FF JUMPI PUSH2 0xE8 JUMP JUMPDEST DUP1 PUSH4 0x5EC01E4D GT PUSH2 0xC6 JUMPI DUP1 PUSH4 0x5EC01E4D EQ PUSH2 0x192 JUMPI DUP1 PUSH4 0x61B299D5 EQ PUSH2 0x1BD JUMPI DUP1 PUSH4 0x62E9F4A2 EQ PUSH2 0x1ED JUMPI DUP1 PUSH4 0x6817329F EQ PUSH2 0x22A JUMPI PUSH2 0xE8 JUMP JUMPDEST DUP1 PUSH4 0x2040A465 EQ PUSH2 0xED JUMPI DUP1 PUSH4 0x20987A65 EQ PUSH2 0x118 JUMPI DUP1 PUSH4 0x585E3305 EQ PUSH2 0x155 JUMPI JUMPDEST PUSH1 0x0 DUP1 REVERT JUMPDEST CALLVALUE DUP1 ISZERO PUSH2 0xF9 JUMPI PUSH1 0x0 DUP1 REVERT JUMPDEST POP PUSH2 0x102 PUSH2 0x425 JUMP JUMPDEST PUSH1 0x40 MLOAD PUSH2 0x10F SWAP2 SWAP1 PUSH2 0x228E JUMP JUMPDEST PUSH1 0x40 MLOAD DUP1 SWAP2 SUB SWAP1 RETURN JUMPDEST CALLVALUE DUP1 ISZERO PUSH2 0x124 JUMPI PUSH1 0x0 DUP1 REVERT JUMPDEST POP PUSH2 0x13F PUSH1 0x4 DUP1 CALLDATASIZE SUB DUP2 ADD SWAP1 PUSH2 0x13A SWAP2 SWAP1 PUSH2 0x23F9 JUMP JUMPDEST PUSH2 0x4B3 JUMP JUMPDEST PUSH1 0x40 MLOAD PUSH2 0x14C SWAP2 SWAP1 PUSH2 0x228E JUMP JUMPDEST PUSH1 0x40 MLOAD DUP1 SWAP2 SUB SWAP1 RETURN JUMPDEST CALLVALUE DUP1 ISZERO PUSH2 0x161 JUMPI PUSH1 0x0 DUP1 REVERT JUMPDEST POP PUSH2 0x17C PUSH1 0x4 DUP1 CALLDATASIZE SUB DUP2 ADD SWAP1 PUSH2 0x177 SWAP2 SWAP1 PUSH2 0x24FC JUMP JUMPDEST PUSH2 0x683 JUMP JUMPDEST PUSH1 0x40 MLOAD PUSH2 0x189 SWAP2 SWAP1 PUSH2 0x2615 JUMP JUMPDEST PUSH1 0x40 MLOAD DUP1 SWAP2 SUB SWAP1 RETURN JUMPDEST CALLVALUE DUP1 ISZERO PUSH2 0x19E JUMPI PUSH1 0x0 DUP1 REVERT JUMPDEST POP PUSH2 0x1A7 PUSH2 0x9EF JUMP JUMPDEST PUSH1 0x40 MLOAD PUSH2 0x1B4 SWAP2 SWAP1 PUSH2 0x263F JUMP JUMPDEST PUSH1 0x40 MLOAD DUP1 SWAP2 SUB SWAP1 RETURN JUMPDEST PUSH2 0x1D7 PUSH1 0x4 DUP1 CALLDATASIZE SUB DUP2 ADD SWAP1 PUSH2 0x1D2 SWAP2 SWAP1 PUSH2 0x265A JUMP JUMPDEST PUSH2 0xA35 JUMP JUMPDEST PUSH1 0x40 MLOAD PUSH2 0x1E4 SWAP2 SWAP1 PUSH2 0x263F JUMP JUMPDEST PUSH1 0x40 MLOAD DUP1 SWAP2 SUB SWAP1 RETURN JUMPDEST CALLVALUE DUP1 ISZERO PUSH2 0x1F9 JUMPI PUSH1 0x0 DUP1 REVERT JUMPDEST POP PUSH2 0x214 PUSH1 0x4 DUP1 CALLDATASIZE SUB DUP2 ADD SWAP1 PUSH2 0x20F SWAP2 SWAP1 PUSH2 0x23F9 JUMP JUMPDEST PUSH2 0xA93 JUMP JUMPDEST PUSH1 0x40 MLOAD PUSH2 0x221 SWAP2 SWAP1 PUSH2 0x26A2 JUMP JUMPDEST PUSH1 0x40 MLOAD DUP1 SWAP2 SUB SWAP1 RETURN JUMPDEST CALLVALUE DUP1 ISZERO PUSH2 0x236 JUMPI PUSH1 0x0 DUP1 REVERT JUMPDEST POP PUSH2 0x251 PUSH1 0x4 DUP1 CALLDATASIZE SUB DUP2 ADD SWAP1 PUSH2 0x24C SWAP2 SWAP1 PUSH2 0x26E9 JUMP JUMPDEST PUSH2 0xC50 JUMP JUMPDEST PUSH1 0x40 MLOAD PUSH2 0x25E SWAP2 SWAP1 PUSH2 0x285A JUMP JUMPDEST PUSH1 0x40 MLOAD DUP1 SWAP2 SUB SWAP1 RETURN JUMPDEST CALLVALUE DUP1 ISZERO PUSH2 0x273 JUMPI PUSH1 0x0 DUP1 REVERT JUMPDEST POP PUSH2 0x28E PUSH1 0x4 DUP1 CALLDATASIZE SUB DUP2 ADD SWAP1 PUSH2 0x289 SWAP2 SWAP1 PUSH2 0x287C JUMP JUMPDEST PUSH2 0xF69 JUMP JUMPDEST PUSH1 0x40 MLOAD PUSH2 0x29B SWAP2 SWAP1 PUSH2 0x29D9 JUMP JUMPDEST PUSH1 0x40 MLOAD DUP1 SWAP2 SUB SWAP1 RETURN JUMPDEST CALLVALUE DUP1 ISZERO PUSH2 0x2B0 JUMPI PUSH1 0x0 DUP1 REVERT JUMPDEST POP PUSH2 0x2CB PUSH1 0x4 DUP1 CALLDATASIZE SUB DUP2 ADD SWAP1 PUSH2 0x2C6 SWAP2 SWAP1 PUSH2 0x26E9 JUMP JUMPDEST PUSH2 0x124B JUMP JUMPDEST PUSH1 0x40 MLOAD PUSH2 0x2D8 SWAP2 SWAP1 PUSH2 0x285A JUMP JUMPDEST PUSH1 0x40 MLOAD DUP1 SWAP2 SUB SWAP1 RETURN JUMPDEST PUSH2 0x2E9 PUSH2 0x1668 JUMP JUMPDEST PUSH1 0x40 MLOAD PUSH2 0x2F6 SWAP2 SWAP1 PUSH2 0x228E JUMP JUMPDEST PUSH1 0x40 MLOAD DUP1 SWAP2 SUB SWAP1 RETURN JUMPDEST CALLVALUE DUP1 ISZERO PUSH2 0x30B JUMPI PUSH1 0x0 DUP1 REVERT JUMPDEST POP PUSH2 0x326 PUSH1 0x4 DUP1 CALLDATASIZE SUB DUP2 ADD SWAP1 PUSH2 0x321 SWAP2 SWAP1 PUSH2 0x29FB JUMP JUMPDEST PUSH2 0x17BF JUMP JUMPDEST PUSH1 0x40 MLOAD PUSH2 0x333 SWAP2 SWAP1 PUSH2 0x26A2 JUMP JUMPDEST PUSH1 0x40 MLOAD DUP1 SWAP2 SUB SWAP1 RETURN JUMPDEST CALLVALUE DUP1 ISZERO PUSH2 0x348 JUMPI PUSH1 0x0 DUP1 REVERT JUMPDEST POP PUSH2 0x363 PUSH1 0x4 DUP1 CALLDATASIZE SUB DUP2 ADD SWAP1 PUSH2 0x35E SWAP2 SWAP1 PUSH2 0x265A JUMP JUMPDEST PUSH2 0x1818 JUMP JUMPDEST PUSH1 0x40 MLOAD PUSH2 0x377 SWAP9 SWAP8 SWAP7 SWAP6 SWAP5 SWAP4 SWAP3 SWAP2 SWAP1 PUSH2 0x2AB5 JUMP JUMPDEST PUSH1 0x40 MLOAD DUP1 SWAP2 SUB SWAP1 RETURN JUMPDEST CALLVALUE DUP1 ISZERO PUSH2 0x38C JUMPI PUSH1 0x0 DUP1 REVERT JUMPDEST POP PUSH2 0x3A7 PUSH1 0x4 DUP1 CALLDATASIZE SUB DUP2 ADD SWAP1 PUSH2 0x3A2 SWAP2 SWAP1 PUSH2 0x2B51 JUMP JUMPDEST PUSH2 0x1B08 JUMP JUMPDEST PUSH1 0x40 MLOAD PUSH2 0x3B4 SWAP2 SWAP1 PUSH2 0x228E JUMP JUMPDEST PUSH1 0x40 MLOAD DUP1 SWAP2 SUB SWAP1 RETURN JUMPDEST CALLVALUE DUP1 ISZERO PUSH2 0x3C9 JUMPI PUSH1 0x0 DUP1 REVERT JUMPDEST POP PUSH2 0x3E4 PUSH1 0x4 DUP1 CALLDATASIZE SUB DUP2 ADD SWAP1 PUSH2 0x3DF SWAP2 SWAP1 PUSH2 0x2C05 JUMP JUMPDEST PUSH2 0x1E13 JUMP JUMPDEST PUSH1 0x40 MLOAD PUSH2 0x3F1 SWAP2 SWAP1 PUSH2 0x2615 JUMP JUMPDEST PUSH1 0x40 MLOAD DUP1 SWAP2 SUB SWAP1 RETURN JUMPDEST CALLVALUE DUP1 ISZERO PUSH2 0x406 JUMPI PUSH1 0x0 DUP1 REVERT JUMPDEST POP PUSH2 0x40F PUSH2 0x1E59 JUMP JUMPDEST PUSH1 0x40 MLOAD PUSH2 0x41C SWAP2 SWAP1 PUSH2 0x2E47 JUMP JUMPDEST PUSH1 0x40 MLOAD DUP1 SWAP2 SUB SWAP1 RETURN JUMPDEST PUSH1 0x3 DUP1 SLOAD PUSH2 0x432 SWAP1 PUSH2 0x2E98 JUMP JUMPDEST DUP1 PUSH1 0x1F ADD PUSH1 0x20 DUP1 SWAP2 DIV MUL PUSH1 0x20 ADD PUSH1 0x40 MLOAD SWAP1 DUP2 ADD PUSH1 0x40 MSTORE DUP1 SWAP3 SWAP2 SWAP1 DUP2 DUP2 MSTORE PUSH1 0x20 ADD DUP3 DUP1 SLOAD PUSH2 0x45E SWAP1 PUSH2 0x2E98 JUMP JUMPDEST DUP1 ISZERO PUSH2 0x4AB JUMPI DUP1 PUSH1 0x1F LT PUSH2 0x480 JUMPI PUSH2 0x100 DUP1 DUP4 SLOAD DIV MUL DUP4 MSTORE SWAP2 PUSH1 0x20 ADD SWAP2 PUSH2 0x4AB JUMP JUMPDEST DUP3 ADD SWAP2 SWAP1 PUSH1 0x0 MSTORE PUSH1 0x20 PUSH1 0x0 KECCAK256 SWAP1 JUMPDEST DUP2 SLOAD DUP2 MSTORE SWAP1 PUSH1 0x1 ADD SWAP1 PUSH1 0x20 ADD DUP1 DUP4 GT PUSH2 0x48E JUMPI DUP3 SWAP1 SUB PUSH1 0x1F AND DUP3 ADD SWAP2 JUMPDEST POP POP POP POP POP DUP2 JUMP JUMPDEST PUSH1 0x60 PUSH1 0x0 JUMPDEST PUSH1 0x0 DUP1 SLOAD SWAP1 POP DUP2 LT ISZERO PUSH2 0x644 JUMPI PUSH2 0x57C DUP4 PUSH1 0x0 DUP4 DUP2 SLOAD DUP2 LT PUSH2 0x4DD JUMPI PUSH2 0x4DC PUSH2 0x2EC9 JUMP JUMPDEST JUMPDEST SWAP1 PUSH1 0x0 MSTORE PUSH1 0x20 PUSH1 0x0 KECCAK256 SWAP1 PUSH1 0x4 MUL ADD PUSH1 0x0 ADD DUP1 SLOAD PUSH2 0x4F9 SWAP1 PUSH2 0x2E98 JUMP JUMPDEST DUP1 PUSH1 0x1F ADD PUSH1 0x20 DUP1 SWAP2 DIV MUL PUSH1 0x20 ADD PUSH1 0x40 MLOAD SWAP1 DUP2 ADD PUSH1 0x40 MSTORE DUP1 SWAP3 SWAP2 SWAP1 DUP2 DUP2 MSTORE PUSH1 0x20 ADD DUP3 DUP1 SLOAD PUSH2 0x525 SWAP1 PUSH2 0x2E98 JUMP JUMPDEST DUP1 ISZERO PUSH2 0x572 JUMPI DUP1 PUSH1 0x1F LT PUSH2 0x547 JUMPI PUSH2 0x100 DUP1 DUP4 SLOAD DIV MUL DUP4 MSTORE SWAP2 PUSH1 0x20 ADD SWAP2 PUSH2 0x572 JUMP JUMPDEST DUP3 ADD SWAP2 SWAP1 PUSH1 0x0 MSTORE PUSH1 0x20 PUSH1 0x0 KECCAK256 SWAP1 JUMPDEST DUP2 SLOAD DUP2 MSTORE SWAP1 PUSH1 0x1 ADD SWAP1 PUSH1 0x20 ADD DUP1 DUP4 GT PUSH2 0x555 JUMPI DUP3 SWAP1 SUB PUSH1 0x1F AND DUP3 ADD SWAP2 JUMPDEST POP POP POP POP POP PUSH2 0x17BF JUMP JUMPDEST ISZERO PUSH2 0x637 JUMPI PUSH1 0x0 DUP2 DUP2 SLOAD DUP2 LT PUSH2 0x595 JUMPI PUSH2 0x594 PUSH2 0x2EC9 JUMP JUMPDEST JUMPDEST SWAP1 PUSH1 0x0 MSTORE PUSH1 0x20 PUSH1 0x0 KECCAK256 SWAP1 PUSH1 0x4 MUL ADD PUSH1 0x3 ADD DUP1 SLOAD PUSH2 0x5B1 SWAP1 PUSH2 0x2E98 JUMP JUMPDEST DUP1 PUSH1 0x1F ADD PUSH1 0x20 DUP1 SWAP2 DIV MUL PUSH1 0x20 ADD PUSH1 0x40 MLOAD SWAP1 DUP2 ADD PUSH1 0x40 MSTORE DUP1 SWAP3 SWAP2 SWAP1 DUP2 DUP2 MSTORE PUSH1 0x20 ADD DUP3 DUP1 SLOAD PUSH2 0x5DD SWAP1 PUSH2 0x2E98 JUMP JUMPDEST DUP1 ISZERO PUSH2 0x62A JUMPI DUP1 PUSH1 0x1F LT PUSH2 0x5FF JUMPI PUSH2 0x100 DUP1 DUP4 SLOAD DIV MUL DUP4 MSTORE SWAP2 PUSH1 0x20 ADD SWAP2 PUSH2 0x62A JUMP JUMPDEST DUP3 ADD SWAP2 SWAP1 PUSH1 0x0 MSTORE PUSH1 0x20 PUSH1 0x0 KECCAK256 SWAP1 JUMPDEST DUP2 SLOAD DUP2 MSTORE SWAP1 PUSH1 0x1 ADD SWAP1 PUSH1 0x20 ADD DUP1 DUP4 GT PUSH2 0x60D JUMPI DUP3 SWAP1 SUB PUSH1 0x1F AND DUP3 ADD SWAP2 JUMPDEST POP POP POP POP POP SWAP2 POP POP PUSH2 0x67E JUMP JUMPDEST DUP1 DUP1 PUSH1 0x1 ADD SWAP2 POP POP PUSH2 0x4B8 JUMP JUMPDEST POP PUSH1 0x40 MLOAD DUP1 PUSH1 0x40 ADD PUSH1 0x40 MSTORE DUP1 PUSH1 0x8 DUP2 MSTORE PUSH1 0x20 ADD PUSH32 0x52657461696C6572000000000000000000000000000000000000000000000000 DUP2 MSTORE POP SWAP1 POP JUMPDEST SWAP2 SWAP1 POP JUMP JUMPDEST PUSH1 0x0 DUP1 PUSH2 0x6D3 DUP8 DUP8 DUP1 DUP1 PUSH1 0x1F ADD PUSH1 0x20 DUP1 SWAP2 DIV MUL PUSH1 0x20 ADD PUSH1 0x40 MLOAD SWAP1 DUP2 ADD PUSH1 0x40 MSTORE DUP1 SWAP4 SWAP3 SWAP2 SWAP1 DUP2 DUP2 MSTORE PUSH1 0x20 ADD DUP4 DUP4 DUP1 DUP3 DUP5 CALLDATACOPY PUSH1 0x0 DUP2 DUP5 ADD MSTORE PUSH1 0x1F NOT PUSH1 0x1F DUP3 ADD AND SWAP1 POP DUP1 DUP4 ADD SWAP3 POP POP POP POP POP POP POP PUSH2 0x4B3 JUMP JUMPDEST SWAP1 POP PUSH1 0x0 PUSH1 0x40 MLOAD DUP1 PUSH2 0x100 ADD PUSH1 0x40 MSTORE DUP1 DUP14 DUP2 MSTORE PUSH1 0x20 ADD DUP13 DUP13 DUP1 DUP1 PUSH1 0x1F ADD PUSH1 0x20 DUP1 SWAP2 DIV MUL PUSH1 0x20 ADD PUSH1 0x40 MLOAD SWAP1 DUP2 ADD PUSH1 0x40 MSTORE DUP1 SWAP4 SWAP3 SWAP2 SWAP1 DUP2 DUP2 MSTORE PUSH1 0x20 ADD DUP4 DUP4 DUP1 DUP3 DUP5 CALLDATACOPY PUSH1 0x0 DUP2 DUP5 ADD MSTORE PUSH1 0x1F NOT PUSH1 0x1F DUP3 ADD AND SWAP1 POP DUP1 DUP4 ADD SWAP3 POP POP POP POP POP POP POP DUP2 MSTORE PUSH1 0x20 ADD DUP10 DUP10 DUP1 DUP1 PUSH1 0x1F ADD PUSH1 0x20 DUP1 SWAP2 DIV MUL PUSH1 0x20 ADD PUSH1 0x40 MLOAD SWAP1 DUP2 ADD PUSH1 0x40 MSTORE DUP1 SWAP4 SWAP3 SWAP2 SWAP1 DUP2 DUP2 MSTORE PUSH1 0x20 ADD DUP4 DUP4 DUP1 DUP3 DUP5 CALLDATACOPY PUSH1 0x0 DUP2 DUP5 ADD MSTORE PUSH1 0x1F NOT PUSH1 0x1F DUP3 ADD AND SWAP1 POP DUP1 DUP4 ADD SWAP3 POP POP POP POP POP POP POP DUP2 MSTORE PUSH1 0x20 ADD DUP11 DUP2 MSTORE PUSH1 0x20 ADD DUP8 DUP1 CALLDATASIZE SUB DUP2 ADD SWAP1 PUSH2 0x794 SWAP2 SWAP1 PUSH2 0x2F61 JUMP JUMPDEST DUP2 MSTORE PUSH1 0x20 ADD DUP4 DUP2 MSTORE PUSH1 0x20 ADD DUP7 DUP1 CALLDATASIZE SUB DUP2 ADD SWAP1 PUSH2 0x7B0 SWAP2 SWAP1 PUSH2 0x2F61 JUMP JUMPDEST DUP2 MSTORE PUSH1 0x20 ADD DUP6 DUP1 CALLDATASIZE SUB DUP2 ADD SWAP1 PUSH2 0x7C6 SWAP2 SWAP1 PUSH2 0x2F61 JUMP JUMPDEST DUP2 MSTORE POP SWAP1 POP PUSH1 0x0 JUMPDEST PUSH1 0x1 DUP1 SLOAD SWAP1 POP DUP2 LT ISZERO PUSH2 0x8CF JUMPI PUSH2 0x892 PUSH1 0x1 DUP3 DUP2 SLOAD DUP2 LT PUSH2 0x7F2 JUMPI PUSH2 0x7F1 PUSH2 0x2EC9 JUMP JUMPDEST JUMPDEST SWAP1 PUSH1 0x0 MSTORE PUSH1 0x20 PUSH1 0x0 KECCAK256 SWAP1 PUSH1 0xE MUL ADD PUSH1 0x0 ADD DUP1 SLOAD PUSH2 0x80E SWAP1 PUSH2 0x2E98 JUMP JUMPDEST DUP1 PUSH1 0x1F ADD PUSH1 0x20 DUP1 SWAP2 DIV MUL PUSH1 0x20 ADD PUSH1 0x40 MLOAD SWAP1 DUP2 ADD PUSH1 0x40 MSTORE DUP1 SWAP3 SWAP2 SWAP1 DUP2 DUP2 MSTORE PUSH1 0x20 ADD DUP3 DUP1 SLOAD PUSH2 0x83A SWAP1 PUSH2 0x2E98 JUMP JUMPDEST DUP1 ISZERO PUSH2 0x887 JUMPI DUP1 PUSH1 0x1F LT PUSH2 0x85C JUMPI PUSH2 0x100 DUP1 DUP4 SLOAD DIV MUL DUP4 MSTORE SWAP2 PUSH1 0x20 ADD SWAP2 PUSH2 0x887 JUMP JUMPDEST DUP3 ADD SWAP2 SWAP1 PUSH1 0x0 MSTORE PUSH1 0x20 PUSH1 0x0 KECCAK256 SWAP1 JUMPDEST DUP2 SLOAD DUP2 MSTORE SWAP1 PUSH1 0x1 ADD SWAP1 PUSH1 0x20 ADD DUP1 DUP4 GT PUSH2 0x86A JUMPI DUP3 SWAP1 SUB PUSH1 0x1F AND DUP3 ADD SWAP2 JUMPDEST POP POP POP POP POP DUP15 PUSH2 0x17BF JUMP JUMPDEST ISZERO PUSH2 0x8C2 JUMPI PUSH32 0xFFFFFFFFFFFFFFFFFFFFFFFFFFFFFFFFFFFFFFFFFFFFFFFFFFFFFFFFFFFFFFFF SWAP4 POP POP POP POP PUSH2 0x9E2 JUMP JUMPDEST DUP1 DUP1 PUSH1 0x1 ADD SWAP2 POP POP PUSH2 0x7CE JUMP JUMPDEST POP PUSH1 0x1 DUP2 SWAP1 DUP1 PUSH1 0x1 DUP2 SLOAD ADD DUP1 DUP3 SSTORE DUP1 SWAP2 POP POP PUSH1 0x1 SWAP1 SUB SWAP1 PUSH1 0x0 MSTORE PUSH1 0x20 PUSH1 0x0 KECCAK256 SWAP1 PUSH1 0xE MUL ADD PUSH1 0x0 SWAP1 SWAP2 SWAP1 SWAP2 SWAP1 SWAP2 POP PUSH1 0x0 DUP3 ADD MLOAD DUP2 PUSH1 0x0 ADD SWAP1 DUP2 PUSH2 0x911 SWAP2 SWAP1 PUSH2 0x313A JUMP JUMPDEST POP PUSH1 0x20 DUP3 ADD MLOAD DUP2 PUSH1 0x1 ADD SWAP1 DUP2 PUSH2 0x927 SWAP2 SWAP1 PUSH2 0x313A JUMP JUMPDEST POP PUSH1 0x40 DUP3 ADD MLOAD DUP2 PUSH1 0x2 ADD SWAP1 DUP2 PUSH2 0x93D SWAP2 SWAP1 PUSH2 0x313A JUMP JUMPDEST POP PUSH1 0x60 DUP3 ADD MLOAD DUP2 PUSH1 0x3 ADD SSTORE PUSH1 0x80 DUP3 ADD MLOAD DUP2 PUSH1 0x4 ADD PUSH1 0x0 DUP3 ADD MLOAD DUP2 PUSH1 0x0 ADD SSTORE PUSH1 0x20 DUP3 ADD MLOAD DUP2 PUSH1 0x1 ADD SSTORE PUSH1 0x40 DUP3 ADD MLOAD DUP2 PUSH1 0x2 ADD SSTORE POP POP PUSH1 0xA0 DUP3 ADD MLOAD DUP2 PUSH1 0x7 ADD SWAP1 DUP2 PUSH2 0x986 SWAP2 SWAP1 PUSH2 0x313A JUMP JUMPDEST POP PUSH1 0xC0 DUP3 ADD MLOAD DUP2 PUSH1 0x8 ADD PUSH1 0x0 DUP3 ADD MLOAD DUP2 PUSH1 0x0 ADD SSTORE PUSH1 0x20 DUP3 ADD MLOAD DUP2 PUSH1 0x1 ADD SSTORE PUSH1 0x40 DUP3 ADD MLOAD DUP2 PUSH1 0x2 ADD SSTORE POP POP PUSH1 0xE0 DUP3 ADD MLOAD DUP2 PUSH1 0xB ADD PUSH1 0x0 DUP3 ADD MLOAD DUP2 PUSH1 0x0 ADD SSTORE PUSH1 0x20 DUP3 ADD MLOAD DUP2 PUSH1 0x1 ADD SSTORE PUSH1 0x40 DUP3 ADD MLOAD DUP2 PUSH1 0x2 ADD SSTORE POP POP POP POP PUSH1 0x1 SWAP3 POP POP POP JUMPDEST SWAP10 SWAP9 POP POP POP POP POP POP POP POP POP JUMP JUMPDEST PUSH1 0x0 DUP1 PUSH1 0x64 TIMESTAMP CALLER PREVRANDAO PUSH1 0x40 MLOAD PUSH1 0x20 ADD PUSH2 0xA09 SWAP4 SWAP3 SWAP2 SWAP1 PUSH2 0x32A7 JUMP JUMPDEST PUSH1 0x40 MLOAD PUSH1 0x20 DUP2 DUP4 SUB SUB DUP2 MSTORE SWAP1 PUSH1 0x40 MSTORE DUP1 MLOAD SWAP1 PUSH1 0x20 ADD KECCAK256 PUSH1 0x0 SHR PUSH2 0xA2C SWAP2 SWAP1 PUSH2 0x3313 JUMP JUMPDEST SWAP1 POP DUP1 SWAP2 POP POP SWAP1 JUMP JUMPDEST PUSH1 0x0 PUSH1 0x4 PUSH1 0x0 DUP2 SLOAD DUP1 SWAP3 SWAP2 SWAP1 PUSH2 0xA4A SWAP1 PUSH2 0x3373 JUMP JUMPDEST SWAP2 SWAP1 POP SSTORE POP DUP2 TIMESTAMP PREVRANDAO CALLER PUSH1 0x4 SLOAD PUSH1 0x40 MLOAD PUSH1 0x20 ADD PUSH2 0xA69 SWAP5 SWAP4 SWAP3 SWAP2 SWAP1 PUSH2 0x33BB JUMP JUMPDEST PUSH1 0x40 MLOAD PUSH1 0x20 DUP2 DUP4 SUB SUB DUP2 MSTORE SWAP1 PUSH1 0x40 MSTORE DUP1 MLOAD SWAP1 PUSH1 0x20 ADD KECCAK256 PUSH1 0x0 SHR PUSH2 0xA8C SWAP2 SWAP1 PUSH2 0x3313 JUMP JUMPDEST SWAP1 POP SWAP2 SWAP1 POP JUMP JUMPDEST PUSH1 0x0 DUP1 PUSH1 0x0 SWAP1 POP JUMPDEST PUSH1 0x1 DUP1 SLOAD SWAP1 POP DUP2 LT ISZERO PUSH2 0xC45 JUMPI PUSH2 0xB5F PUSH1 0x1 DUP3 DUP2 SLOAD DUP2 LT PUSH2 0xABF JUMPI PUSH2 0xABE PUSH2 0x2EC9 JUMP JUMPDEST JUMPDEST SWAP1 PUSH1 0x0 MSTORE PUSH1 0x20 PUSH1 0x0 KECCAK256 SWAP1 PUSH1 0xE MUL ADD PUSH1 0x0 ADD DUP1 SLOAD PUSH2 0xADB SWAP1 PUSH2 0x2E98 JUMP JUMPDEST DUP1 PUSH1 0x1F ADD PUSH1 0x20 DUP1 SWAP2 DIV MUL PUSH1 0x20 ADD PUSH1 0x40 MLOAD SWAP1 DUP2 ADD PUSH1 0x40 MSTORE DUP1 SWAP3 SWAP2 SWAP1 DUP2 DUP2 MSTORE PUSH1 0x20 ADD DUP3 DUP1 SLOAD PUSH2 0xB07 SWAP1 PUSH2 0x2E98 JUMP JUMPDEST DUP1 ISZERO PUSH2 0xB54 JUMPI DUP1 PUSH1 0x1F LT PUSH2 0xB29 JUMPI PUSH2 0x100 DUP1 DUP4 SLOAD DIV MUL DUP4 MSTORE SWAP2 PUSH1 0x20 ADD SWAP2 PUSH2 0xB54 JUMP JUMPDEST DUP3 ADD SWAP2 SWAP1 PUSH1 0x0 MSTORE PUSH1 0x20 PUSH1 0x0 KECCAK256 SWAP1 JUMPDEST DUP2 SLOAD DUP2 MSTORE SWAP1 PUSH1 0x1 ADD SWAP1 PUSH1 0x20 ADD DUP1 DUP4 GT PUSH2 0xB37 JUMPI DUP3 SWAP1 SUB PUSH1 0x1F AND DUP3 ADD SWAP2 JUMPDEST POP POP POP POP POP DUP5 PUSH2 0x17BF JUMP JUMPDEST ISZERO PUSH2 0xC38 JUMPI PUSH1 0x1 DUP2 DUP2 SLOAD DUP2 LT PUSH2 0xB78 JUMPI PUSH2 0xB77 PUSH2 0x2EC9 JUMP JUMPDEST JUMPDEST SWAP1 PUSH1 0x0 MSTORE PUSH1 0x20 PUSH1 0x0 KECCAK256 SWAP1 PUSH1 0xE MUL ADD PUSH1 0x0 DUP1 DUP3 ADD PUSH1 0x0 PUSH2 0xB97 SWAP2 SWAP1 PUSH2 0x21A1 JUMP JUMPDEST PUSH1 0x1 DUP3 ADD PUSH1 0x0 PUSH2 0xBA7 SWAP2 SWAP1 PUSH2 0x21A1 JUMP JUMPDEST PUSH1 0x2 DUP3 ADD PUSH1 0x0 PUSH2 0xBB7 SWAP2 SWAP1 PUSH2 0x21A1 JUMP JUMPDEST PUSH1 0x3 DUP3 ADD PUSH1 0x0 SWAP1 SSTORE PUSH1 0x4 DUP3 ADD PUSH1 0x0 DUP1 DUP3 ADD PUSH1 0x0 SWAP1 SSTORE PUSH1 0x1 DUP3 ADD PUSH1 0x0 SWAP1 SSTORE PUSH1 0x2 DUP3 ADD PUSH1 0x0 SWAP1 SSTORE POP POP PUSH1 0x7 DUP3 ADD PUSH1 0x0 PUSH2 0xBEE SWAP2 SWAP1 PUSH2 0x21A1 JUMP JUMPDEST PUSH1 0x8 DUP3 ADD PUSH1 0x0 DUP1 DUP3 ADD PUSH1 0x0 SWAP1 SSTORE PUSH1 0x1 DUP3 ADD PUSH1 0x0 SWAP1 SSTORE PUSH1 0x2 DUP3 ADD PUSH1 0x0 SWAP1 SSTORE POP POP PUSH1 0xB DUP3 ADD PUSH1 0x0 DUP1 DUP3 ADD PUSH1 0x0 SWAP1 SSTORE PUSH1 0x1 DUP3 ADD PUSH1 0x0 SWAP1 SSTORE PUSH1 0x2 DUP3 ADD PUSH1 0x0 SWAP1 SSTORE POP POP POP POP PUSH1 0x1 SWAP2 POP POP PUSH2 0xC4B JUMP JUMPDEST DUP1 DUP1 PUSH1 0x1 ADD SWAP2 POP POP PUSH2 0xA9B JUMP JUMPDEST POP PUSH1 0x0 SWAP1 POP JUMPDEST SWAP2 SWAP1 POP JUMP JUMPDEST PUSH1 0x60 PUSH1 0x0 PUSH1 0x1 DUP7 DUP7 PUSH2 0xC62 SWAP2 SWAP1 PUSH2 0x3409 JUMP JUMPDEST PUSH2 0xC6C SWAP2 SWAP1 PUSH2 0x344C JUMP JUMPDEST PUSH8 0xFFFFFFFFFFFFFFFF DUP2 GT ISZERO PUSH2 0xC85 JUMPI PUSH2 0xC84 PUSH2 0x22CE JUMP JUMPDEST JUMPDEST PUSH1 0x40 MLOAD SWAP1 DUP1 DUP3 MSTORE DUP1 PUSH1 0x20 MUL PUSH1 0x20 ADD DUP3 ADD PUSH1 0x40 MSTORE DUP1 ISZERO PUSH2 0xCB3 JUMPI DUP2 PUSH1 0x20 ADD PUSH1 0x20 DUP3 MUL DUP1 CALLDATASIZE DUP4 CALLDATACOPY DUP1 DUP3 ADD SWAP2 POP POP SWAP1 POP JUMPDEST POP SWAP1 POP PUSH1 0xC DUP8 SLT PUSH2 0xCC7 JUMPI DUP1 SWAP2 POP POP PUSH2 0xF60 JUMP JUMPDEST PUSH1 0x0 DUP7 SWAP1 POP JUMPDEST DUP6 DUP2 SGT PUSH2 0xF5A JUMPI PUSH1 0x0 DUP1 PUSH1 0x0 JUMPDEST PUSH1 0x1 DUP1 SLOAD SWAP1 POP DUP2 LT ISZERO PUSH2 0xF08 JUMPI PUSH1 0x0 PUSH2 0xD25 DUP6 PUSH1 0x1 DUP5 DUP2 SLOAD DUP2 LT PUSH2 0xD01 JUMPI PUSH2 0xD00 PUSH2 0x2EC9 JUMP JUMPDEST JUMPDEST SWAP1 PUSH1 0x0 MSTORE PUSH1 0x20 PUSH1 0x0 KECCAK256 SWAP1 PUSH1 0xE MUL ADD PUSH1 0x4 ADD PUSH1 0x1 ADD SLOAD PUSH2 0xD20 SWAP2 SWAP1 PUSH2 0x3409 JUMP JUMPDEST PUSH2 0x1E13 JUMP JUMPDEST SWAP1 POP PUSH1 0x1 DUP1 ISZERO PUSH2 0xDE8 JUMPI POP PUSH2 0xDE7 PUSH1 0x1 DUP4 DUP2 SLOAD DUP2 LT PUSH2 0xD47 JUMPI PUSH2 0xD46 PUSH2 0x2EC9 JUMP JUMPDEST JUMPDEST SWAP1 PUSH1 0x0 MSTORE PUSH1 0x20 PUSH1 0x0 KECCAK256 SWAP1 PUSH1 0xE MUL ADD PUSH1 0x1 ADD DUP1 SLOAD PUSH2 0xD63 SWAP1 PUSH2 0x2E98 JUMP JUMPDEST DUP1 PUSH1 0x1F ADD PUSH1 0x20 DUP1 SWAP2 DIV MUL PUSH1 0x20 ADD PUSH1 0x40 MLOAD SWAP1 DUP2 ADD PUSH1 0x40 MSTORE DUP1 SWAP3 SWAP2 SWAP1 DUP2 DUP2 MSTORE PUSH1 0x20 ADD DUP3 DUP1 SLOAD PUSH2 0xD8F SWAP1 PUSH2 0x2E98 JUMP JUMPDEST DUP1 ISZERO PUSH2 0xDDC JUMPI DUP1 PUSH1 0x1F LT PUSH2 0xDB1 JUMPI PUSH2 0x100 DUP1 DUP4 SLOAD DIV MUL DUP4 MSTORE SWAP2 PUSH1 0x20 ADD SWAP2 PUSH2 0xDDC JUMP JUMPDEST DUP3 ADD SWAP2 SWAP1 PUSH1 0x0 MSTORE PUSH1 0x20 PUSH1 0x0 KECCAK256 SWAP1 JUMPDEST DUP2 SLOAD DUP2 MSTORE SWAP1 PUSH1 0x1 ADD SWAP1 PUSH1 0x20 ADD DUP1 DUP4 GT PUSH2 0xDBF JUMPI DUP3 SWAP1 SUB PUSH1 0x1F AND DUP3 ADD SWAP2 JUMPDEST POP POP POP POP POP DUP11 PUSH2 0x17BF JUMP JUMPDEST JUMPDEST DUP1 ISZERO PUSH2 0xEA7 JUMPI POP PUSH2 0xEA6 DUP9 PUSH1 0x1 DUP5 DUP2 SLOAD DUP2 LT PUSH2 0xE07 JUMPI PUSH2 0xE06 PUSH2 0x2EC9 JUMP JUMPDEST JUMPDEST SWAP1 PUSH1 0x0 MSTORE PUSH1 0x20 PUSH1 0x0 KECCAK256 SWAP1 PUSH1 0xE MUL ADD PUSH1 0x7 ADD DUP1 SLOAD PUSH2 0xE23 SWAP1 PUSH2 0x2E98 JUMP JUMPDEST DUP1 PUSH1 0x1F ADD PUSH1 0x20 DUP1 SWAP2 DIV MUL PUSH1 0x20 ADD PUSH1 0x40 MLOAD SWAP1 DUP2 ADD PUSH1 0x40 MSTORE DUP1 SWAP3 SWAP2 SWAP1 DUP2 DUP2 MSTORE PUSH1 0x20 ADD DUP3 DUP1 SLOAD PUSH2 0xE4F SWAP1 PUSH2 0x2E98 JUMP JUMPDEST DUP1 ISZERO PUSH2 0xE9C JUMPI DUP1 PUSH1 0x1F LT PUSH2 0xE71 JUMPI PUSH2 0x100 DUP1 DUP4 SLOAD DIV MUL DUP4 MSTORE SWAP2 PUSH1 0x20 ADD SWAP2 PUSH2 0xE9C JUMP JUMPDEST DUP3 ADD SWAP2 SWAP1 PUSH1 0x0 MSTORE PUSH1 0x20 PUSH1 0x0 KECCAK256 SWAP1 JUMPDEST DUP2 SLOAD DUP2 MSTORE SWAP1 PUSH1 0x1 ADD SWAP1 PUSH1 0x20 ADD DUP1 DUP4 GT PUSH2 0xE7F JUMPI DUP3 SWAP1 SUB PUSH1 0x1F AND DUP3 ADD SWAP2 JUMPDEST POP POP POP POP POP PUSH2 0x17BF JUMP JUMPDEST JUMPDEST DUP1 ISZERO PUSH2 0xEB3 JUMPI POP DUP12 DUP2 SGT ISZERO JUMPDEST ISZERO PUSH2 0xEFA JUMPI PUSH1 0x1 DUP3 DUP2 SLOAD DUP2 LT PUSH2 0xECC JUMPI PUSH2 0xECB PUSH2 0x2EC9 JUMP JUMPDEST JUMPDEST SWAP1 PUSH1 0x0 MSTORE PUSH1 0x20 PUSH1 0x0 KECCAK256 SWAP1 PUSH1 0xE MUL ADD PUSH1 0x3 ADD SLOAD DUP5 PUSH2 0xEE9 SWAP2 SWAP1 PUSH2 0x344C JUMP JUMPDEST SWAP4 POP DUP3 DUP1 PUSH2 0xEF6 SWAP1 PUSH2 0x3490 JUMP JUMPDEST SWAP4 POP POP JUMPDEST POP DUP1 DUP1 PUSH1 0x1 ADD SWAP2 POP POP PUSH2 0xCDA JUMP JUMPDEST POP PUSH1 0x0 DUP2 DUP4 PUSH2 0xF17 SWAP2 SWAP1 PUSH2 0x34D8 JUMP JUMPDEST SWAP1 POP DUP1 DUP6 DUP12 DUP7 PUSH2 0xF27 SWAP2 SWAP1 PUSH2 0x3409 JUMP JUMPDEST DUP2 MLOAD DUP2 LT PUSH2 0xF38 JUMPI PUSH2 0xF37 PUSH2 0x2EC9 JUMP JUMPDEST JUMPDEST PUSH1 0x20 MUL PUSH1 0x20 ADD ADD DUP2 DUP2 MSTORE POP POP POP POP POP DUP1 DUP1 PUSH2 0xF52 SWAP1 PUSH2 0x3490 JUMP JUMPDEST SWAP2 POP POP PUSH2 0xCCD JUMP JUMPDEST POP DUP1 SWAP2 POP POP JUMPDEST SWAP6 SWAP5 POP POP POP POP POP JUMP JUMPDEST PUSH1 0x60 PUSH1 0x0 PUSH1 0x1 DUP7 DUP7 PUSH2 0xF7B SWAP2 SWAP1 PUSH2 0x3409 JUMP JUMPDEST PUSH2 0xF85 SWAP2 SWAP1 PUSH2 0x344C JUMP JUMPDEST PUSH8 0xFFFFFFFFFFFFFFFF DUP2 GT ISZERO PUSH2 0xF9E JUMPI PUSH2 0xF9D PUSH2 0x22CE JUMP JUMPDEST JUMPDEST PUSH1 0x40 MLOAD SWAP1 DUP1 DUP3 MSTORE DUP1 PUSH1 0x20 MUL PUSH1 0x20 ADD DUP3 ADD PUSH1 0x40 MSTORE DUP1 ISZERO PUSH2 0xFCC JUMPI DUP2 PUSH1 0x20 ADD PUSH1 0x20 DUP3 MUL DUP1 CALLDATASIZE DUP4 CALLDATACOPY DUP1 DUP3 ADD SWAP2 POP POP SWAP1 POP JUMPDEST POP SWAP1 POP PUSH1 0x0 DUP7 SWAP1 POP JUMPDEST DUP6 DUP2 SGT PUSH2 0x123E JUMPI PUSH1 0x0 DUP1 PUSH1 0x0 JUMPDEST PUSH1 0x1 DUP1 SLOAD SWAP1 POP DUP2 LT ISZERO PUSH2 0x11EC JUMPI DUP4 PUSH1 0x1 DUP3 DUP2 SLOAD DUP2 LT PUSH2 0x1004 JUMPI PUSH2 0x1003 PUSH2 0x2EC9 JUMP JUMPDEST JUMPDEST SWAP1 PUSH1 0x0 MSTORE PUSH1 0x20 PUSH1 0x0 KECCAK256 SWAP1 PUSH1 0xE MUL ADD PUSH1 0x4 ADD PUSH1 0x1 ADD SLOAD EQ DUP1 ISZERO PUSH2 0x10D9 JUMPI POP PUSH2 0x10D8 DUP9 PUSH1 0x1 DUP4 DUP2 SLOAD DUP2 LT PUSH2 0x1039 JUMPI PUSH2 0x1038 PUSH2 0x2EC9 JUMP JUMPDEST JUMPDEST SWAP1 PUSH1 0x0 MSTORE PUSH1 0x20 PUSH1 0x0 KECCAK256 SWAP1 PUSH1 0xE MUL ADD PUSH1 0x1 ADD DUP1 SLOAD PUSH2 0x1055 SWAP1 PUSH2 0x2E98 JUMP JUMPDEST DUP1 PUSH1 0x1F ADD PUSH1 0x20 DUP1 SWAP2 DIV MUL PUSH1 0x20 ADD PUSH1 0x40 MLOAD SWAP1 DUP2 ADD PUSH1 0x40 MSTORE DUP1 SWAP3 SWAP2 SWAP1 DUP2 DUP2 MSTORE PUSH1 0x20 ADD DUP3 DUP1 SLOAD PUSH2 0x1081 SWAP1 PUSH2 0x2E98 JUMP JUMPDEST DUP1 ISZERO PUSH2 0x10CE JUMPI DUP1 PUSH1 0x1F LT PUSH2 0x10A3 JUMPI PUSH2 0x100 DUP1 DUP4 SLOAD DIV MUL DUP4 MSTORE SWAP2 PUSH1 0x20 ADD SWAP2 PUSH2 0x10CE JUMP JUMPDEST DUP3 ADD SWAP2 SWAP1 PUSH1 0x0 MSTORE PUSH1 0x20 PUSH1 0x0 KECCAK256 SWAP1 JUMPDEST DUP2 SLOAD DUP2 MSTORE SWAP1 PUSH1 0x1 ADD SWAP1 PUSH1 0x20 ADD DUP1 DUP4 GT PUSH2 0x10B1 JUMPI DUP3 SWAP1 SUB PUSH1 0x1F AND DUP3 ADD SWAP2 JUMPDEST POP POP POP POP POP PUSH2 0x17BF JUMP JUMPDEST JUMPDEST DUP1 ISZERO PUSH2 0x1198 JUMPI POP PUSH2 0x1197 DUP8 PUSH1 0x1 DUP4 DUP2 SLOAD DUP2 LT PUSH2 0x10F8 JUMPI PUSH2 0x10F7 PUSH2 0x2EC9 JUMP JUMPDEST JUMPDEST SWAP1 PUSH1 0x0 MSTORE PUSH1 0x20 PUSH1 0x0 KECCAK256 SWAP1 PUSH1 0xE MUL ADD PUSH1 0x7 ADD DUP1 SLOAD PUSH2 0x1114 SWAP1 PUSH2 0x2E98 JUMP JUMPDEST DUP1 PUSH1 0x1F ADD PUSH1 0x20 DUP1 SWAP2 DIV MUL PUSH1 0x20 ADD PUSH1 0x40 MLOAD SWAP1 DUP2 ADD PUSH1 0x40 MSTORE DUP1 SWAP3 SWAP2 SWAP1 DUP2 DUP2 MSTORE PUSH1 0x20 ADD DUP3 DUP1 SLOAD PUSH2 0x1140 SWAP1 PUSH2 0x2E98 JUMP JUMPDEST DUP1 ISZERO PUSH2 0x118D JUMPI DUP1 PUSH1 0x1F LT PUSH2 0x1162 JUMPI PUSH2 0x100 DUP1 DUP4 SLOAD DIV MUL DUP4 MSTORE SWAP2 PUSH1 0x20 ADD SWAP2 PUSH2 0x118D JUMP JUMPDEST DUP3 ADD SWAP2 SWAP1 PUSH1 0x0 MSTORE PUSH1 0x20 PUSH1 0x0 KECCAK256 SWAP1 JUMPDEST DUP2 SLOAD DUP2 MSTORE SWAP1 PUSH1 0x1 ADD SWAP1 PUSH1 0x20 ADD DUP1 DUP4 GT PUSH2 0x1170 JUMPI DUP3 SWAP1 SUB PUSH1 0x1F AND DUP3 ADD SWAP2 JUMPDEST POP POP POP POP POP PUSH2 0x17BF JUMP JUMPDEST JUMPDEST ISZERO PUSH2 0x11DF JUMPI PUSH1 0x1 DUP2 DUP2 SLOAD DUP2 LT PUSH2 0x11B1 JUMPI PUSH2 0x11B0 PUSH2 0x2EC9 JUMP JUMPDEST JUMPDEST SWAP1 PUSH1 0x0 MSTORE PUSH1 0x20 PUSH1 0x0 KECCAK256 SWAP1 PUSH1 0xE MUL ADD PUSH1 0x3 ADD SLOAD DUP4 PUSH2 0x11CE SWAP2 SWAP1 PUSH2 0x3542 JUMP JUMPDEST SWAP3 POP DUP2 DUP1 PUSH2 0x11DB SWAP1 PUSH2 0x3373 JUMP JUMPDEST SWAP3 POP POP JUMPDEST DUP1 DUP1 PUSH1 0x1 ADD SWAP2 POP POP PUSH2 0xFE2 JUMP JUMPDEST POP PUSH1 0x0 DUP2 DUP4 PUSH2 0x11FB SWAP2 SWAP1 PUSH2 0x3576 JUMP JUMPDEST SWAP1 POP DUP1 DUP6 DUP12 DUP7 PUSH2 0x120B SWAP2 SWAP1 PUSH2 0x3409 JUMP JUMPDEST DUP2 MLOAD DUP2 LT PUSH2 0x121C JUMPI PUSH2 0x121B PUSH2 0x2EC9 JUMP JUMPDEST JUMPDEST PUSH1 0x20 MUL PUSH1 0x20 ADD ADD DUP2 DUP2 MSTORE POP POP POP POP POP DUP1 DUP1 PUSH2 0x1236 SWAP1 PUSH2 0x3490 JUMP JUMPDEST SWAP2 POP POP PUSH2 0xFD5 JUMP JUMPDEST POP DUP1 SWAP2 POP POP SWAP5 SWAP4 POP POP POP POP JUMP JUMPDEST PUSH1 0x60 PUSH1 0x0 PUSH1 0x1 DUP7 DUP7 PUSH2 0x125D SWAP2 SWAP1 PUSH2 0x3409 JUMP JUMPDEST PUSH2 0x1267 SWAP2 SWAP1 PUSH2 0x344C JUMP JUMPDEST PUSH8 0xFFFFFFFFFFFFFFFF DUP2 GT ISZERO PUSH2 0x1280 JUMPI PUSH2 0x127F PUSH2 0x22CE JUMP JUMPDEST JUMPDEST PUSH1 0x40 MLOAD SWAP1 DUP1 DUP3 MSTORE DUP1 PUSH1 0x20 MUL PUSH1 0x20 ADD DUP3 ADD PUSH1 0x40 MSTORE DUP1 ISZERO PUSH2 0x12AE JUMPI DUP2 PUSH1 0x20 ADD PUSH1 0x20 DUP3 MUL DUP1 CALLDATASIZE DUP4 CALLDATACOPY DUP1 DUP3 ADD SWAP2 POP POP SWAP1 POP JUMPDEST POP SWAP1 POP PUSH1 0x0 PUSH1 0xB PUSH8 0xFFFFFFFFFFFFFFFF DUP2 GT ISZERO PUSH2 0x12CE JUMPI PUSH2 0x12CD PUSH2 0x22CE JUMP JUMPDEST JUMPDEST PUSH1 0x40 MLOAD SWAP1 DUP1 DUP3 MSTORE DUP1 PUSH1 0x20 MUL PUSH1 0x20 ADD DUP3 ADD PUSH1 0x40 MSTORE DUP1 ISZERO PUSH2 0x12FC JUMPI DUP2 PUSH1 0x20 ADD PUSH1 0x20 DUP3 MUL DUP1 CALLDATASIZE DUP4 CALLDATACOPY DUP1 DUP3 ADD SWAP2 POP POP SWAP1 POP JUMPDEST POP SWAP1 POP PUSH1 0xC DUP9 SLT PUSH2 0x1311 JUMPI DUP2 SWAP3 POP POP POP PUSH2 0x165F JUMP JUMPDEST PUSH1 0x0 JUMPDEST PUSH1 0xB DUP2 SLT ISZERO PUSH2 0x136D JUMPI PUSH1 0x1 DUP2 PUSH2 0x132A SWAP2 SWAP1 PUSH2 0x344C JUMP JUMPDEST PUSH1 0x1 DUP3 PUSH2 0x1337 SWAP2 SWAP1 PUSH2 0x344C JUMP JUMPDEST PUSH2 0x1341 SWAP2 SWAP1 PUSH2 0x35A7 JUMP JUMPDEST DUP3 DUP3 DUP2 MLOAD DUP2 LT PUSH2 0x1354 JUMPI PUSH2 0x1353 PUSH2 0x2EC9 JUMP JUMPDEST JUMPDEST PUSH1 0x20 MUL PUSH1 0x20 ADD ADD DUP2 DUP2 MSTORE POP POP DUP1 DUP1 PUSH1 0x1 ADD SWAP2 POP POP PUSH2 0x1314 JUMP JUMPDEST POP PUSH1 0x0 DUP8 SWAP1 POP JUMPDEST DUP7 DUP2 SGT PUSH2 0x1658 JUMPI PUSH1 0x0 DUP1 PUSH1 0x0 JUMPDEST PUSH1 0x1 DUP1 SLOAD SWAP1 POP DUP2 LT ISZERO PUSH2 0x1606 JUMPI PUSH1 0x0 PUSH2 0x13CC DUP6 PUSH1 0x1 DUP5 DUP2 SLOAD DUP2 LT PUSH2 0x13A8 JUMPI PUSH2 0x13A7 PUSH2 0x2EC9 JUMP JUMPDEST JUMPDEST SWAP1 PUSH1 0x0 MSTORE PUSH1 0x20 PUSH1 0x0 KECCAK256 SWAP1 PUSH1 0xE MUL ADD PUSH1 0x4 ADD PUSH1 0x1 ADD SLOAD PUSH2 0x13C7 SWAP2 SWAP1 PUSH2 0x3409 JUMP JUMPDEST PUSH2 0x1E13 JUMP JUMPDEST SWAP1 POP DUP13 DUP2 SGT ISZERO DUP1 ISZERO PUSH2 0x13DC JUMPI POP PUSH1 0x1 JUMPDEST DUP1 ISZERO PUSH2 0x149B JUMPI POP PUSH2 0x149A PUSH1 0x1 DUP4 DUP2 SLOAD DUP2 LT PUSH2 0x13FA JUMPI PUSH2 0x13F9 PUSH2 0x2EC9 JUMP JUMPDEST JUMPDEST SWAP1 PUSH1 0x0 MSTORE PUSH1 0x20 PUSH1 0x0 KECCAK256 SWAP1 PUSH1 0xE MUL ADD PUSH1 0x1 ADD DUP1 SLOAD PUSH2 0x1416 SWAP1 PUSH2 0x2E98 JUMP JUMPDEST DUP1 PUSH1 0x1F ADD PUSH1 0x20 DUP1 SWAP2 DIV MUL PUSH1 0x20 ADD PUSH1 0x40 MLOAD SWAP1 DUP2 ADD PUSH1 0x40 MSTORE DUP1 SWAP3 SWAP2 SWAP1 DUP2 DUP2 MSTORE PUSH1 0x20 ADD DUP3 DUP1 SLOAD PUSH2 0x1442 SWAP1 PUSH2 0x2E98 JUMP JUMPDEST DUP1 ISZERO PUSH2 0x148F JUMPI DUP1 PUSH1 0x1F LT PUSH2 0x1464 JUMPI PUSH2 0x100 DUP1 DUP4 SLOAD DIV MUL DUP4 MSTORE SWAP2 PUSH1 0x20 ADD SWAP2 PUSH2 0x148F JUMP JUMPDEST DUP3 ADD SWAP2 SWAP1 PUSH1 0x0 MSTORE PUSH1 0x20 PUSH1 0x0 KECCAK256 SWAP1 JUMPDEST DUP2 SLOAD DUP2 MSTORE SWAP1 PUSH1 0x1 ADD SWAP1 PUSH1 0x20 ADD DUP1 DUP4 GT PUSH2 0x1472 JUMPI DUP3 SWAP1 SUB PUSH1 0x1F AND DUP3 ADD SWAP2 JUMPDEST POP POP POP POP POP DUP12 PUSH2 0x17BF JUMP JUMPDEST JUMPDEST DUP1 ISZERO PUSH2 0x155A JUMPI POP PUSH2 0x1559 DUP10 PUSH1 0x1 DUP5 DUP2 SLOAD DUP2 LT PUSH2 0x14BA JUMPI PUSH2 0x14B9 PUSH2 0x2EC9 JUMP JUMPDEST JUMPDEST SWAP1 PUSH1 0x0 MSTORE PUSH1 0x20 PUSH1 0x0 KECCAK256 SWAP1 PUSH1 0xE MUL ADD PUSH1 0x7 ADD DUP1 SLOAD PUSH2 0x14D6 SWAP1 PUSH2 0x2E98 JUMP JUMPDEST DUP1 PUSH1 0x1F ADD PUSH1 0x20 DUP1 SWAP2 DIV MUL PUSH1 0x20 ADD PUSH1 0x40 MLOAD SWAP1 DUP2 ADD PUSH1 0x40 MSTORE DUP1 SWAP3 SWAP2 SWAP1 DUP2 DUP2 MSTORE PUSH1 0x20 ADD DUP3 DUP1 SLOAD PUSH2 0x1502 SWAP1 PUSH2 0x2E98 JUMP JUMPDEST DUP1 ISZERO PUSH2 0x154F JUMPI DUP1 PUSH1 0x1F LT PUSH2 0x1524 JUMPI PUSH2 0x100 DUP1 DUP4 SLOAD DIV MUL DUP4 MSTORE SWAP2 PUSH1 0x20 ADD SWAP2 PUSH2 0x154F JUMP JUMPDEST DUP3 ADD SWAP2 SWAP1 PUSH1 0x0 MSTORE PUSH1 0x20 PUSH1 0x0 KECCAK256 SWAP1 JUMPDEST DUP2 SLOAD DUP2 MSTORE SWAP1 PUSH1 0x1 ADD SWAP1 PUSH1 0x20 ADD DUP1 DUP4 GT PUSH2 0x1532 JUMPI DUP3 SWAP1 SUB PUSH1 0x1F AND DUP3 ADD SWAP2 JUMPDEST POP POP POP POP POP PUSH2 0x17BF JUMP JUMPDEST JUMPDEST ISZERO PUSH2 0x15F8 JUMPI PUSH1 0x1 DUP3 DUP2 SLOAD DUP2 LT PUSH2 0x1573 JUMPI PUSH2 0x1572 PUSH2 0x2EC9 JUMP JUMPDEST JUMPDEST SWAP1 PUSH1 0x0 MSTORE PUSH1 0x20 PUSH1 0x0 KECCAK256 SWAP1 PUSH1 0xE MUL ADD PUSH1 0x3 ADD SLOAD DUP7 DUP3 PUSH1 0xA PUSH2 0x1593 SWAP2 SWAP1 PUSH2 0x3409 JUMP JUMPDEST DUP2 MLOAD DUP2 LT PUSH2 0x15A4 JUMPI PUSH2 0x15A3 PUSH2 0x2EC9 JUMP JUMPDEST JUMPDEST PUSH1 0x20 MUL PUSH1 0x20 ADD ADD MLOAD PUSH2 0x15B6 SWAP2 SWAP1 PUSH2 0x35A7 JUMP JUMPDEST DUP5 PUSH2 0x15C1 SWAP2 SWAP1 PUSH2 0x344C JUMP JUMPDEST SWAP4 POP DUP6 DUP2 PUSH1 0xA PUSH2 0x15D1 SWAP2 SWAP1 PUSH2 0x3409 JUMP JUMPDEST DUP2 MLOAD DUP2 LT PUSH2 0x15E2 JUMPI PUSH2 0x15E1 PUSH2 0x2EC9 JUMP JUMPDEST JUMPDEST PUSH1 0x20 MUL PUSH1 0x20 ADD ADD MLOAD DUP4 PUSH2 0x15F5 SWAP2 SWAP1 PUSH2 0x344C JUMP JUMPDEST SWAP3 POP JUMPDEST POP DUP1 DUP1 PUSH1 0x1 ADD SWAP2 POP POP PUSH2 0x1381 JUMP JUMPDEST POP PUSH1 0x0 DUP2 DUP4 PUSH2 0x1615 SWAP2 SWAP1 PUSH2 0x34D8 JUMP JUMPDEST SWAP1 POP DUP1 DUP7 DUP13 DUP7 PUSH2 0x1625 SWAP2 SWAP1 PUSH2 0x3409 JUMP JUMPDEST DUP2 MLOAD DUP2 LT PUSH2 0x1636 JUMPI PUSH2 0x1635 PUSH2 0x2EC9 JUMP JUMPDEST JUMPDEST PUSH1 0x20 MUL PUSH1 0x20 ADD ADD DUP2 DUP2 MSTORE POP POP POP POP POP DUP1 DUP1 PUSH2 0x1650 SWAP1 PUSH2 0x3490 JUMP JUMPDEST SWAP2 POP POP PUSH2 0x1374 JUMP JUMPDEST POP DUP2 SWAP3 POP POP POP JUMPDEST SWAP6 SWAP5 POP POP POP POP POP JUMP JUMPDEST PUSH1 0x60 PUSH1 0x0 PUSH1 0xA SWAP1 POP PUSH1 0x0 DUP2 PUSH8 0xFFFFFFFFFFFFFFFF DUP2 GT ISZERO PUSH2 0x168C JUMPI PUSH2 0x168B PUSH2 0x22CE JUMP JUMPDEST JUMPDEST PUSH1 0x40 MLOAD SWAP1 DUP1 DUP3 MSTORE DUP1 PUSH1 0x1F ADD PUSH1 0x1F NOT AND PUSH1 0x20 ADD DUP3 ADD PUSH1 0x40 MSTORE DUP1 ISZERO PUSH2 0x16BE JUMPI DUP2 PUSH1 0x20 ADD PUSH1 0x1 DUP3 MUL DUP1 CALLDATASIZE DUP4 CALLDATACOPY DUP1 DUP3 ADD SWAP2 POP POP SWAP1 POP JUMPDEST POP SWAP1 POP PUSH1 0x0 PUSH1 0x23 PUSH8 0xFFFFFFFFFFFFFFFF DUP2 GT ISZERO PUSH2 0x16DE JUMPI PUSH2 0x16DD PUSH2 0x22CE JUMP JUMPDEST JUMPDEST PUSH1 0x40 MLOAD SWAP1 DUP1 DUP3 MSTORE DUP1 PUSH1 0x1F ADD PUSH1 0x1F NOT AND PUSH1 0x20 ADD DUP3 ADD PUSH1 0x40 MSTORE DUP1 ISZERO PUSH2 0x1710 JUMPI DUP2 PUSH1 0x20 ADD PUSH1 0x1 DUP3 MUL DUP1 CALLDATASIZE DUP4 CALLDATACOPY DUP1 DUP3 ADD SWAP2 POP POP SWAP1 POP JUMPDEST POP SWAP1 POP PUSH1 0x40 MLOAD DUP1 PUSH1 0x60 ADD PUSH1 0x40 MSTORE DUP1 PUSH1 0x23 DUP2 MSTORE PUSH1 0x20 ADD PUSH2 0x3673 PUSH1 0x23 SWAP2 CODECOPY SWAP1 POP PUSH1 0x0 JUMPDEST DUP4 DUP2 LT ISZERO PUSH2 0x17B5 JUMPI PUSH1 0x0 PUSH2 0x1745 PUSH1 0x23 PUSH2 0xA35 JUMP JUMPDEST SWAP1 POP DUP3 DUP2 DUP2 MLOAD DUP2 LT PUSH2 0x175A JUMPI PUSH2 0x1759 PUSH2 0x2EC9 JUMP JUMPDEST JUMPDEST PUSH1 0x20 ADD ADD MLOAD PUSH1 0xF8 SHR PUSH1 0xF8 SHL DUP5 DUP4 DUP2 MLOAD DUP2 LT PUSH2 0x1778 JUMPI PUSH2 0x1777 PUSH2 0x2EC9 JUMP JUMPDEST JUMPDEST PUSH1 0x20 ADD ADD SWAP1 PUSH31 0xFFFFFFFFFFFFFFFFFFFFFFFFFFFFFFFFFFFFFFFFFFFFFFFFFFFFFFFFFFFFFF NOT AND SWAP1 DUP2 PUSH1 0x0 BYTE SWAP1 MSTORE8 POP POP DUP1 DUP1 PUSH1 0x1 ADD SWAP2 POP POP PUSH2 0x1731 JUMP JUMPDEST POP DUP2 SWAP4 POP POP POP POP SWAP1 JUMP JUMPDEST PUSH1 0x0 DUP2 PUSH1 0x40 MLOAD PUSH1 0x20 ADD PUSH2 0x17D2 SWAP2 SWAP1 PUSH2 0x365B JUMP JUMPDEST PUSH1 0x40 MLOAD PUSH1 0x20 DUP2 DUP4 SUB SUB DUP2 MSTORE SWAP1 PUSH1 0x40 MSTORE DUP1 MLOAD SWAP1 PUSH1 0x20 ADD KECCAK256 DUP4 PUSH1 0x40 MLOAD PUSH1 0x20 ADD PUSH2 0x17F9 SWAP2 SWAP1 PUSH2 0x365B JUMP JUMPDEST PUSH1 0x40 MLOAD PUSH1 0x20 DUP2 DUP4 SUB SUB DUP2 MSTORE SWAP1 PUSH1 0x40 MSTORE DUP1 MLOAD SWAP1 PUSH1 0x20 ADD KECCAK256 EQ SWAP1 POP SWAP3 SWAP2 POP POP JUMP JUMPDEST PUSH1 0x1 DUP2 DUP2 SLOAD DUP2 LT PUSH2 0x1828 JUMPI PUSH1 0x0 DUP1 REVERT JUMPDEST SWAP1 PUSH1 0x0 MSTORE PUSH1 0x20 PUSH1 0x0 KECCAK256 SWAP1 PUSH1 0xE MUL ADD PUSH1 0x0 SWAP2 POP SWAP1 POP DUP1 PUSH1 0x0 ADD DUP1 SLOAD PUSH2 0x184B SWAP1 PUSH2 0x2E98 JUMP JUMPDEST DUP1 PUSH1 0x1F ADD PUSH1 0x20 DUP1 SWAP2 DIV MUL PUSH1 0x20 ADD PUSH1 0x40 MLOAD SWAP1 DUP2 ADD PUSH1 0x40 MSTORE DUP1 SWAP3 SWAP2 SWAP1 DUP2 DUP2 MSTORE PUSH1 0x20 ADD DUP3 DUP1 SLOAD PUSH2 0x1877 SWAP1 PUSH2 0x2E98 JUMP JUMPDEST DUP1 ISZERO PUSH2 0x18C4 JUMPI DUP1 PUSH1 0x1F LT PUSH2 0x1899 JUMPI PUSH2 0x100 DUP1 DUP4 SLOAD DIV MUL DUP4 MSTORE SWAP2 PUSH1 0x20 ADD SWAP2 PUSH2 0x18C4 JUMP JUMPDEST DUP3 ADD SWAP2 SWAP1 PUSH1 0x0 MSTORE PUSH1 0x20 PUSH1 0x0 KECCAK256 SWAP1 JUMPDEST DUP2 SLOAD DUP2 MSTORE SWAP1 PUSH1 0x1 ADD SWAP1 PUSH1 0x20 ADD DUP1 DUP4 GT PUSH2 0x18A7 JUMPI DUP3 SWAP1 SUB PUSH1 0x1F AND DUP3 ADD SWAP2 JUMPDEST POP POP POP POP POP SWAP1 DUP1 PUSH1 0x1 ADD DUP1 SLOAD PUSH2 0x18D9 SWAP1 PUSH2 0x2E98 JUMP JUMPDEST DUP1 PUSH1 0x1F ADD PUSH1 0x20 DUP1 SWAP2 DIV MUL PUSH1 0x20 ADD PUSH1 0x40 MLOAD SWAP1 DUP2 ADD PUSH1 0x40 MSTORE DUP1 SWAP3 SWAP2 SWAP1 DUP2 DUP2 MSTORE PUSH1 0x20 ADD DUP3 DUP1 SLOAD PUSH2 0x1905 SWAP1 PUSH2 0x2E98 JUMP JUMPDEST DUP1 ISZERO PUSH2 0x1952 JUMPI DUP1 PUSH1 0x1F LT PUSH2 0x1927 JUMPI PUSH2 0x100 DUP1 DUP4 SLOAD DIV MUL DUP4 MSTORE SWAP2 PUSH1 0x20 ADD SWAP2 PUSH2 0x1952 JUMP JUMPDEST DUP3 ADD SWAP2 SWAP1 PUSH1 0x0 MSTORE PUSH1 0x20 PUSH1 0x0 KECCAK256 SWAP1 JUMPDEST DUP2 SLOAD DUP2 MSTORE SWAP1 PUSH1 0x1 ADD SWAP1 PUSH1 0x20 ADD DUP1 DUP4 GT PUSH2 0x1935 JUMPI DUP3 SWAP1 SUB PUSH1 0x1F AND DUP3 ADD SWAP2 JUMPDEST POP POP POP POP POP SWAP1 DUP1 PUSH1 0x2 ADD DUP1 SLOAD PUSH2 0x1967 SWAP1 PUSH2 0x2E98 JUMP JUMPDEST DUP1 PUSH1 0x1F ADD PUSH1 0x20 DUP1 SWAP2 DIV MUL PUSH1 0x20 ADD PUSH1 0x40 MLOAD SWAP1 DUP2 ADD PUSH1 0x40 MSTORE DUP1 SWAP3 SWAP2 SWAP1 DUP2 DUP2 MSTORE PUSH1 0x20 ADD DUP3 DUP1 SLOAD PUSH2 0x1993 SWAP1 PUSH2 0x2E98 JUMP JUMPDEST DUP1 ISZERO PUSH2 0x19E0 JUMPI DUP1 PUSH1 0x1F LT PUSH2 0x19B5 JUMPI PUSH2 0x100 DUP1 DUP4 SLOAD DIV MUL DUP4 MSTORE SWAP2 PUSH1 0x20 ADD SWAP2 PUSH2 0x19E0 JUMP JUMPDEST DUP3 ADD SWAP2 SWAP1 PUSH1 0x0 MSTORE PUSH1 0x20 PUSH1 0x0 KECCAK256 SWAP1 JUMPDEST DUP2 SLOAD DUP2 MSTORE SWAP1 PUSH1 0x1 ADD SWAP1 PUSH1 0x20 ADD DUP1 DUP4 GT PUSH2 0x19C3 JUMPI DUP3 SWAP1 SUB PUSH1 0x1F AND DUP3 ADD SWAP2 JUMPDEST POP POP POP POP POP SWAP1 DUP1 PUSH1 0x3 ADD SLOAD SWAP1 DUP1 PUSH1 0x4 ADD PUSH1 0x40 MLOAD DUP1 PUSH1 0x60 ADD PUSH1 0x40 MSTORE SWAP1 DUP2 PUSH1 0x0 DUP3 ADD SLOAD DUP2 MSTORE PUSH1 0x20 ADD PUSH1 0x1 DUP3 ADD SLOAD DUP2 MSTORE PUSH1 0x20 ADD PUSH1 0x2 DUP3 ADD SLOAD DUP2 MSTORE POP POP SWAP1 DUP1 PUSH1 0x7 ADD DUP1 SLOAD PUSH2 0x1A29 SWAP1 PUSH2 0x2E98 JUMP JUMPDEST DUP1 PUSH1 0x1F ADD PUSH1 0x20 DUP1 SWAP2 DIV MUL PUSH1 0x20 ADD PUSH1 0x40 MLOAD SWAP1 DUP2 ADD PUSH1 0x40 MSTORE DUP1 SWAP3 SWAP2 SWAP1 DUP2 DUP2 MSTORE PUSH1 0x20 ADD DUP3 DUP1 SLOAD PUSH2 0x1A55 SWAP1 PUSH2 0x2E98 JUMP JUMPDEST DUP1 ISZERO PUSH2 0x1AA2 JUMPI DUP1 PUSH1 0x1F LT PUSH2 0x1A77 JUMPI PUSH2 0x100 DUP1 DUP4 SLOAD DIV MUL DUP4 MSTORE SWAP2 PUSH1 0x20 ADD SWAP2 PUSH2 0x1AA2 JUMP JUMPDEST DUP3 ADD SWAP2 SWAP1 PUSH1 0x0 MSTORE PUSH1 0x20 PUSH1 0x0 KECCAK256 SWAP1 JUMPDEST DUP2 SLOAD DUP2 MSTORE SWAP1 PUSH1 0x1 ADD SWAP1 PUSH1 0x20 ADD DUP1 DUP4 GT PUSH2 0x1A85 JUMPI DUP3 SWAP1 SUB PUSH1 0x1F AND DUP3 ADD SWAP2 JUMPDEST POP POP POP POP POP SWAP1 DUP1 PUSH1 0x8 ADD PUSH1 0x40 MLOAD DUP1 PUSH1 0x60 ADD PUSH1 0x40 MSTORE SWAP1 DUP2 PUSH1 0x0 DUP3 ADD SLOAD DUP2 MSTORE PUSH1 0x20 ADD PUSH1 0x1 DUP3 ADD SLOAD DUP2 MSTORE PUSH1 0x20 ADD PUSH1 0x2 DUP3 ADD SLOAD DUP2 MSTORE POP POP SWAP1 DUP1 PUSH1 0xB ADD PUSH1 0x40 MLOAD DUP1 PUSH1 0x60 ADD PUSH1 0x40 MSTORE SWAP1 DUP2 PUSH1 0x0 DUP3 ADD SLOAD DUP2 MSTORE PUSH1 0x20 ADD PUSH1 0x1 DUP3 ADD SLOAD DUP2 MSTORE PUSH1 0x20 ADD PUSH1 0x2 DUP3 ADD SLOAD DUP2 MSTORE POP POP SWAP1 POP DUP9 JUMP JUMPDEST PUSH1 0x60 PUSH1 0x0 PUSH2 0x1B14 PUSH2 0x1668 JUMP JUMPDEST SWAP1 POP PUSH1 0x0 PUSH1 0x40 MLOAD DUP1 PUSH1 0x80 ADD PUSH1 0x40 MSTORE DUP1 DUP4 DUP2 MSTORE PUSH1 0x20 ADD DUP11 DUP11 DUP1 DUP1 PUSH1 0x1F ADD PUSH1 0x20 DUP1 SWAP2 DIV MUL PUSH1 0x20 ADD PUSH1 0x40 MLOAD SWAP1 DUP2 ADD PUSH1 0x40 MSTORE DUP1 SWAP4 SWAP3 SWAP2 SWAP1 DUP2 DUP2 MSTORE PUSH1 0x20 ADD DUP4 DUP4 DUP1 DUP3 DUP5 CALLDATACOPY PUSH1 0x0 DUP2 DUP5 ADD MSTORE PUSH1 0x1F NOT PUSH1 0x1F DUP3 ADD AND SWAP1 POP DUP1 DUP4 ADD SWAP3 POP POP POP POP POP POP POP DUP2 MSTORE PUSH1 0x20 ADD DUP9 DUP9 DUP1 DUP1 PUSH1 0x1F ADD PUSH1 0x20 DUP1 SWAP2 DIV MUL PUSH1 0x20 ADD PUSH1 0x40 MLOAD SWAP1 DUP2 ADD PUSH1 0x40 MSTORE DUP1 SWAP4 SWAP3 SWAP2 SWAP1 DUP2 DUP2 MSTORE PUSH1 0x20 ADD DUP4 DUP4 DUP1 DUP3 DUP5 CALLDATACOPY PUSH1 0x0 DUP2 DUP5 ADD MSTORE PUSH1 0x1F NOT PUSH1 0x1F DUP3 ADD AND SWAP1 POP DUP1 DUP4 ADD SWAP3 POP POP POP POP POP POP POP DUP2 MSTORE PUSH1 0x20 ADD DUP7 DUP7 DUP1 DUP1 PUSH1 0x1F ADD PUSH1 0x20 DUP1 SWAP2 DIV MUL PUSH1 0x20 ADD PUSH1 0x40 MLOAD SWAP1 DUP2 ADD PUSH1 0x40 MSTORE DUP1 SWAP4 SWAP3 SWAP2 SWAP1 DUP2 DUP2 MSTORE PUSH1 0x20 ADD DUP4 DUP4 DUP1 DUP3 DUP5 CALLDATACOPY PUSH1 0x0 DUP2 DUP5 ADD MSTORE PUSH1 0x1F NOT PUSH1 0x1F DUP3 ADD AND SWAP1 POP DUP1 DUP4 ADD SWAP3 POP POP POP POP POP POP POP DUP2 MSTORE POP SWAP1 POP PUSH1 0x0 PUSH1 0x2 DUP2 SWAP1 SSTORE POP JUMPDEST PUSH1 0x0 DUP1 SLOAD SWAP1 POP PUSH1 0x2 SLOAD LT ISZERO PUSH2 0x1D7D JUMPI PUSH2 0x1D1C PUSH1 0x0 PUSH1 0x2 SLOAD DUP2 SLOAD DUP2 LT PUSH2 0x1C38 JUMPI PUSH2 0x1C37 PUSH2 0x2EC9 JUMP JUMPDEST JUMPDEST SWAP1 PUSH1 0x0 MSTORE PUSH1 0x20 PUSH1 0x0 KECCAK256 SWAP1 PUSH1 0x4 MUL ADD PUSH1 0x1 ADD DUP1 SLOAD PUSH2 0x1C54 SWAP1 PUSH2 0x2E98 JUMP JUMPDEST DUP1 PUSH1 0x1F ADD PUSH1 0x20 DUP1 SWAP2 DIV MUL PUSH1 0x20 ADD PUSH1 0x40 MLOAD SWAP1 DUP2 ADD PUSH1 0x40 MSTORE DUP1 SWAP3 SWAP2 SWAP1 DUP2 DUP2 MSTORE PUSH1 0x20 ADD DUP3 DUP1 SLOAD PUSH2 0x1C80 SWAP1 PUSH2 0x2E98 JUMP JUMPDEST DUP1 ISZERO PUSH2 0x1CCD JUMPI DUP1 PUSH1 0x1F LT PUSH2 0x1CA2 JUMPI PUSH2 0x100 DUP1 DUP4 SLOAD DIV MUL DUP4 MSTORE SWAP2 PUSH1 0x20 ADD SWAP2 PUSH2 0x1CCD JUMP JUMPDEST DUP3 ADD SWAP2 SWAP1 PUSH1 0x0 MSTORE PUSH1 0x20 PUSH1 0x0 KECCAK256 SWAP1 JUMPDEST DUP2 SLOAD DUP2 MSTORE SWAP1 PUSH1 0x1 ADD SWAP1 PUSH1 0x20 ADD DUP1 DUP4 GT PUSH2 0x1CB0 JUMPI DUP3 SWAP1 SUB PUSH1 0x1F AND DUP3 ADD SWAP2 JUMPDEST POP POP POP POP POP DUP11 DUP11 DUP1 DUP1 PUSH1 0x1F ADD PUSH1 0x20 DUP1 SWAP2 DIV MUL PUSH1 0x20 ADD PUSH1 0x40 MLOAD SWAP1 DUP2 ADD PUSH1 0x40 MSTORE DUP1 SWAP4 SWAP3 SWAP2 SWAP1 DUP2 DUP2 MSTORE PUSH1 0x20 ADD DUP4 DUP4 DUP1 DUP3 DUP5 CALLDATACOPY PUSH1 0x0 DUP2 DUP5 ADD MSTORE PUSH1 0x1F NOT PUSH1 0x1F DUP3 ADD AND SWAP1 POP DUP1 DUP4 ADD SWAP3 POP POP POP POP POP POP POP PUSH2 0x17BF JUMP JUMPDEST ISZERO PUSH2 0x1D60 JUMPI PUSH1 0x40 MLOAD DUP1 PUSH1 0x40 ADD PUSH1 0x40 MSTORE DUP1 PUSH1 0xE DUP2 MSTORE PUSH1 0x20 ADD PUSH32 0x416C726561647920457869737473000000000000000000000000000000000000 DUP2 MSTORE POP SWAP3 POP POP POP PUSH2 0x1E09 JUMP JUMPDEST PUSH1 0x2 PUSH1 0x0 DUP2 SLOAD DUP1 SWAP3 SWAP2 SWAP1 PUSH2 0x1D73 SWAP1 PUSH2 0x3373 JUMP JUMPDEST SWAP2 SWAP1 POP SSTORE POP PUSH2 0x1C10 JUMP JUMPDEST PUSH1 0x0 DUP2 SWAP1 DUP1 PUSH1 0x1 DUP2 SLOAD ADD DUP1 DUP3 SSTORE DUP1 SWAP2 POP POP PUSH1 0x1 SWAP1 SUB SWAP1 PUSH1 0x0 MSTORE PUSH1 0x20 PUSH1 0x0 KECCAK256 SWAP1 PUSH1 0x4 MUL ADD PUSH1 0x0 SWAP1 SWAP2 SWAP1 SWAP2 SWAP1 SWAP2 POP PUSH1 0x0 DUP3 ADD MLOAD DUP2 PUSH1 0x0 ADD SWAP1 DUP2 PUSH2 0x1DBE SWAP2 SWAP1 PUSH2 0x313A JUMP JUMPDEST POP PUSH1 0x20 DUP3 ADD MLOAD DUP2 PUSH1 0x1 ADD SWAP1 DUP2 PUSH2 0x1DD4 SWAP2 SWAP1 PUSH2 0x313A JUMP JUMPDEST POP PUSH1 0x40 DUP3 ADD MLOAD DUP2 PUSH1 0x2 ADD SWAP1 DUP2 PUSH2 0x1DEA SWAP2 SWAP1 PUSH2 0x313A JUMP JUMPDEST POP PUSH1 0x60 DUP3 ADD MLOAD DUP2 PUSH1 0x3 ADD SWAP1 DUP2 PUSH2 0x1E00 SWAP2 SWAP1 PUSH2 0x313A JUMP JUMPDEST POP POP POP DUP2 SWAP3 POP POP POP JUMPDEST SWAP7 SWAP6 POP POP POP POP POP POP JUMP JUMPDEST PUSH1 0x0 DUP1 DUP3 SLT ISZERO PUSH2 0x1E50 JUMPI PUSH32 0xFFFFFFFFFFFFFFFFFFFFFFFFFFFFFFFFFFFFFFFFFFFFFFFFFFFFFFFFFFFFFFFF DUP3 PUSH2 0x1E49 SWAP2 SWAP1 PUSH2 0x35A7 JUMP JUMPDEST SWAP1 POP PUSH2 0x1E54 JUMP JUMPDEST DUP2 SWAP1 POP JUMPDEST SWAP2 SWAP1 POP JUMP JUMPDEST PUSH1 0x60 PUSH1 0x1 DUP1 SLOAD DUP1 PUSH1 0x20 MUL PUSH1 0x20 ADD PUSH1 0x40 MLOAD SWAP1 DUP2 ADD PUSH1 0x40 MSTORE DUP1 SWAP3 SWAP2 SWAP1 DUP2 DUP2 MSTORE PUSH1 0x20 ADD PUSH1 0x0 SWAP1 JUMPDEST DUP3 DUP3 LT ISZERO PUSH2 0x2198 JUMPI DUP4 DUP3 SWAP1 PUSH1 0x0 MSTORE PUSH1 0x20 PUSH1 0x0 KECCAK256 SWAP1 PUSH1 0xE MUL ADD PUSH1 0x40 MLOAD DUP1 PUSH2 0x100 ADD PUSH1 0x40 MSTORE SWAP1 DUP2 PUSH1 0x0 DUP3 ADD DUP1 SLOAD PUSH2 0x1EB1 SWAP1 PUSH2 0x2E98 JUMP JUMPDEST DUP1 PUSH1 0x1F ADD PUSH1 0x20 DUP1 SWAP2 DIV MUL PUSH1 0x20 ADD PUSH1 0x40 MLOAD SWAP1 DUP2 ADD PUSH1 0x40 MSTORE DUP1 SWAP3 SWAP2 SWAP1 DUP2 DUP2 MSTORE PUSH1 0x20 ADD DUP3 DUP1 SLOAD PUSH2 0x1EDD SWAP1 PUSH2 0x2E98 JUMP JUMPDEST DUP1 ISZERO PUSH2 0x1F2A JUMPI DUP1 PUSH1 0x1F LT PUSH2 0x1EFF JUMPI PUSH2 0x100 DUP1 DUP4 SLOAD DIV MUL DUP4 MSTORE SWAP2 PUSH1 0x20 ADD SWAP2 PUSH2 0x1F2A JUMP JUMPDEST DUP3 ADD SWAP2 SWAP1 PUSH1 0x0 MSTORE PUSH1 0x20 PUSH1 0x0 KECCAK256 SWAP1 JUMPDEST DUP2 SLOAD DUP2 MSTORE SWAP1 PUSH1 0x1 ADD SWAP1 PUSH1 0x20 ADD DUP1 DUP4 GT PUSH2 0x1F0D JUMPI DUP3 SWAP1 SUB PUSH1 0x1F AND DUP3 ADD SWAP2 JUMPDEST POP POP POP POP POP DUP2 MSTORE PUSH1 0x20 ADD PUSH1 0x1 DUP3 ADD DUP1 SLOAD PUSH2 0x1F43 SWAP1 PUSH2 0x2E98 JUMP JUMPDEST DUP1 PUSH1 0x1F ADD PUSH1 0x20 DUP1 SWAP2 DIV MUL PUSH1 0x20 ADD PUSH1 0x40 MLOAD SWAP1 DUP2 ADD PUSH1 0x40 MSTORE DUP1 SWAP3 SWAP2 SWAP1 DUP2 DUP2 MSTORE PUSH1 0x20 ADD DUP3 DUP1 SLOAD PUSH2 0x1F6F SWAP1 PUSH2 0x2E98 JUMP JUMPDEST DUP1 ISZERO PUSH2 0x1FBC JUMPI DUP1 PUSH1 0x1F LT PUSH2 0x1F91 JUMPI PUSH2 0x100 DUP1 DUP4 SLOAD DIV MUL DUP4 MSTORE SWAP2 PUSH1 0x20 ADD SWAP2 PUSH2 0x1FBC JUMP JUMPDEST DUP3 ADD SWAP2 SWAP1 PUSH1 0x0 MSTORE PUSH1 0x20 PUSH1 0x0 KECCAK256 SWAP1 JUMPDEST DUP2 SLOAD DUP2 MSTORE SWAP1 PUSH1 0x1 ADD SWAP1 PUSH1 0x20 ADD DUP1 DUP4 GT PUSH2 0x1F9F JUMPI DUP3 SWAP1 SUB PUSH1 0x1F AND DUP3 ADD SWAP2 JUMPDEST POP POP POP POP POP DUP2 MSTORE PUSH1 0x20 ADD PUSH1 0x2 DUP3 ADD DUP1 SLOAD PUSH2 0x1FD5 SWAP1 PUSH2 0x2E98 JUMP JUMPDEST DUP1 PUSH1 0x1F ADD PUSH1 0x20 DUP1 SWAP2 DIV MUL PUSH1 0x20 ADD PUSH1 0x40 MLOAD SWAP1 DUP2 ADD PUSH1 0x40 MSTORE DUP1 SWAP3 SWAP2 SWAP1 DUP2 DUP2 MSTORE PUSH1 0x20 ADD DUP3 DUP1 SLOAD PUSH2 0x2001 SWAP1 PUSH2 0x2E98 JUMP JUMPDEST DUP1 ISZERO PUSH2 0x204E JUMPI DUP1 PUSH1 0x1F LT PUSH2 0x2023 JUMPI PUSH2 0x100 DUP1 DUP4 SLOAD DIV MUL DUP4 MSTORE SWAP2 PUSH1 0x20 ADD SWAP2 PUSH2 0x204E JUMP JUMPDEST DUP3 ADD SWAP2 SWAP1 PUSH1 0x0 MSTORE PUSH1 0x20 PUSH1 0x0 KECCAK256 SWAP1 JUMPDEST DUP2 SLOAD DUP2 MSTORE SWAP1 PUSH1 0x1 ADD SWAP1 PUSH1 0x20 ADD DUP1 DUP4 GT PUSH2 0x2031 JUMPI DUP3 SWAP1 SUB PUSH1 0x1F AND DUP3 ADD SWAP2 JUMPDEST POP POP POP POP POP DUP2 MSTORE PUSH1 0x20 ADD PUSH1 0x3 DUP3 ADD SLOAD DUP2 MSTORE PUSH1 0x20 ADD PUSH1 0x4 DUP3 ADD PUSH1 0x40 MLOAD DUP1 PUSH1 0x60 ADD PUSH1 0x40 MSTORE SWAP1 DUP2 PUSH1 0x0 DUP3 ADD SLOAD DUP2 MSTORE PUSH1 0x20 ADD PUSH1 0x1 DUP3 ADD SLOAD DUP2 MSTORE PUSH1 0x20 ADD PUSH1 0x2 DUP3 ADD SLOAD DUP2 MSTORE POP POP DUP2 MSTORE PUSH1 0x20 ADD PUSH1 0x7 DUP3 ADD DUP1 SLOAD PUSH2 0x20A3 SWAP1 PUSH2 0x2E98 JUMP JUMPDEST DUP1 PUSH1 0x1F ADD PUSH1 0x20 DUP1 SWAP2 DIV MUL PUSH1 0x20 ADD PUSH1 0x40 MLOAD SWAP1 DUP2 ADD PUSH1 0x40 MSTORE DUP1 SWAP3 SWAP2 SWAP1 DUP2 DUP2 MSTORE PUSH1 0x20 ADD DUP3 DUP1 SLOAD PUSH2 0x20CF SWAP1 PUSH2 0x2E98 JUMP JUMPDEST DUP1 ISZERO PUSH2 0x211C JUMPI DUP1 PUSH1 0x1F LT PUSH2 0x20F1 JUMPI PUSH2 0x100 DUP1 DUP4 SLOAD DIV MUL DUP4 MSTORE SWAP2 PUSH1 0x20 ADD SWAP2 PUSH2 0x211C JUMP JUMPDEST DUP3 ADD SWAP2 SWAP1 PUSH1 0x0 MSTORE PUSH1 0x20 PUSH1 0x0 KECCAK256 SWAP1 JUMPDEST DUP2 SLOAD DUP2 MSTORE SWAP1 PUSH1 0x1 ADD SWAP1 PUSH1 0x20 ADD DUP1 DUP4 GT PUSH2 0x20FF JUMPI DUP3 SWAP1 SUB PUSH1 0x1F AND DUP3 ADD SWAP2 JUMPDEST POP POP POP POP POP DUP2 MSTORE PUSH1 0x20 ADD PUSH1 0x8 DUP3 ADD PUSH1 0x40 MLOAD DUP1 PUSH1 0x60 ADD PUSH1 0x40 MSTORE SWAP1 DUP2 PUSH1 0x0 DUP3 ADD SLOAD DUP2 MSTORE PUSH1 0x20 ADD PUSH1 0x1 DUP3 ADD SLOAD DUP2 MSTORE PUSH1 0x20 ADD PUSH1 0x2 DUP3 ADD SLOAD DUP2 MSTORE POP POP DUP2 MSTORE PUSH1 0x20 ADD PUSH1 0xB DUP3 ADD PUSH1 0x40 MLOAD DUP1 PUSH1 0x60 ADD PUSH1 0x40 MSTORE SWAP1 DUP2 PUSH1 0x0 DUP3 ADD SLOAD DUP2 MSTORE PUSH1 0x20 ADD PUSH1 0x1 DUP3 ADD SLOAD DUP2 MSTORE PUSH1 0x20 ADD PUSH1 0x2 DUP3 ADD SLOAD DUP2 MSTORE POP POP DUP2 MSTORE POP POP DUP2 MSTORE PUSH1 0x20 ADD SWAP1 PUSH1 0x1 ADD SWAP1 PUSH2 0x1E7D JUMP JUMPDEST POP POP POP POP SWAP1 POP SWAP1 JUMP JUMPDEST POP DUP1 SLOAD PUSH2 0x21AD SWAP1 PUSH2 0x2E98 JUMP JUMPDEST PUSH1 0x0 DUP3 SSTORE DUP1 PUSH1 0x1F LT PUSH2 0x21BF JUMPI POP PUSH2 0x21DE JUMP JUMPDEST PUSH1 0x1F ADD PUSH1 0x20 SWAP1 DIV SWAP1 PUSH1 0x0 MSTORE PUSH1 0x20 PUSH1 0x0 KECCAK256 SWAP1 DUP2 ADD SWAP1 PUSH2 0x21DD SWAP2 SWAP1 PUSH2 0x21E1 JUMP JUMPDEST JUMPDEST POP JUMP JUMPDEST JUMPDEST DUP1 DUP3 GT ISZERO PUSH2 0x21FA JUMPI PUSH1 0x0 DUP2 PUSH1 0x0 SWAP1 SSTORE POP PUSH1 0x1 ADD PUSH2 0x21E2 JUMP JUMPDEST POP SWAP1 JUMP JUMPDEST PUSH1 0x0 DUP2 MLOAD SWAP1 POP SWAP2 SWAP1 POP JUMP JUMPDEST PUSH1 0x0 DUP3 DUP3 MSTORE PUSH1 0x20 DUP3 ADD SWAP1 POP SWAP3 SWAP2 POP POP JUMP JUMPDEST PUSH1 0x0 JUMPDEST DUP4 DUP2 LT ISZERO PUSH2 0x2238 JUMPI DUP1 DUP3 ADD MLOAD DUP2 DUP5 ADD MSTORE PUSH1 0x20 DUP2 ADD SWAP1 POP PUSH2 0x221D JUMP JUMPDEST PUSH1 0x0 DUP5 DUP5 ADD MSTORE POP POP POP POP JUMP JUMPDEST PUSH1 0x0 PUSH1 0x1F NOT PUSH1 0x1F DUP4 ADD AND SWAP1 POP SWAP2 SWAP1 POP JUMP JUMPDEST PUSH1 0x0 PUSH2 0x2260 DUP3 PUSH2 0x21FE JUMP JUMPDEST PUSH2 0x226A DUP2 DUP6 PUSH2 0x2209 JUMP JUMPDEST SWAP4 POP PUSH2 0x227A DUP2 DUP6 PUSH1 0x20 DUP7 ADD PUSH2 0x221A JUMP JUMPDEST PUSH2 0x2283 DUP2 PUSH2 0x2244 JUMP JUMPDEST DUP5 ADD SWAP2 POP POP SWAP3 SWAP2 POP POP JUMP JUMPDEST PUSH1 0x0 PUSH1 0x20 DUP3 ADD SWAP1 POP DUP2 DUP2 SUB PUSH1 0x0 DUP4 ADD MSTORE PUSH2 0x22A8 DUP2 DUP5 PUSH2 0x2255 JUMP JUMPDEST SWAP1 POP SWAP3 SWAP2 POP POP JUMP JUMPDEST PUSH1 0x0 PUSH1 0x40 MLOAD SWAP1 POP SWAP1 JUMP JUMPDEST PUSH1 0x0 DUP1 REVERT JUMPDEST PUSH1 0x0 DUP1 REVERT JUMPDEST PUSH1 0x0 DUP1 REVERT JUMPDEST PUSH1 0x0 DUP1 REVERT JUMPDEST PUSH32 0x4E487B7100000000000000000000000000000000000000000000000000000000 PUSH1 0x0 MSTORE PUSH1 0x41 PUSH1 0x4 MSTORE PUSH1 0x24 PUSH1 0x0 REVERT JUMPDEST PUSH2 0x2306 DUP3 PUSH2 0x2244 JUMP JUMPDEST DUP2 ADD DUP2 DUP2 LT PUSH8 0xFFFFFFFFFFFFFFFF DUP3 GT OR ISZERO PUSH2 0x2325 JUMPI PUSH2 0x2324 PUSH2 0x22CE JUMP JUMPDEST JUMPDEST DUP1 PUSH1 0x40 MSTORE POP POP POP JUMP JUMPDEST PUSH1 0x0 PUSH2 0x2338 PUSH2 0x22B0 JUMP JUMPDEST SWAP1 POP PUSH2 0x2344 DUP3 DUP3 PUSH2 0x22FD JUMP JUMPDEST SWAP2 SWAP1 POP JUMP JUMPDEST PUSH1 0x0 PUSH8 0xFFFFFFFFFFFFFFFF DUP3 GT ISZERO PUSH2 0x2364 JUMPI PUSH2 0x2363 PUSH2 0x22CE JUMP JUMPDEST JUMPDEST PUSH2 0x236D DUP3 PUSH2 0x2244 JUMP JUMPDEST SWAP1 POP PUSH1 0x20 DUP2 ADD SWAP1 POP SWAP2 SWAP1 POP JUMP JUMPDEST DUP3 DUP2 DUP4 CALLDATACOPY PUSH1 0x0 DUP4 DUP4 ADD MSTORE POP POP POP JUMP JUMPDEST PUSH1 0x0 PUSH2 0x239C PUSH2 0x2397 DUP5 PUSH2 0x2349 JUMP JUMPDEST PUSH2 0x232E JUMP JUMPDEST SWAP1 POP DUP3 DUP2 MSTORE PUSH1 0x20 DUP2 ADD DUP5 DUP5 DUP5 ADD GT ISZERO PUSH2 0x23B8 JUMPI PUSH2 0x23B7 PUSH2 0x22C9 JUMP JUMPDEST JUMPDEST PUSH2 0x23C3 DUP5 DUP3 DUP6 PUSH2 0x237A JUMP JUMPDEST POP SWAP4 SWAP3 POP POP POP JUMP JUMPDEST PUSH1 0x0 DUP3 PUSH1 0x1F DUP4 ADD SLT PUSH2 0x23E0 JUMPI PUSH2 0x23DF PUSH2 0x22C4 JUMP JUMPDEST JUMPDEST DUP2 CALLDATALOAD PUSH2 0x23F0 DUP5 DUP3 PUSH1 0x20 DUP7 ADD PUSH2 0x2389 JUMP JUMPDEST SWAP2 POP POP SWAP3 SWAP2 POP POP JUMP JUMPDEST PUSH1 0x0 PUSH1 0x20 DUP3 DUP5 SUB SLT ISZERO PUSH2 0x240F JUMPI PUSH2 0x240E PUSH2 0x22BA JUMP JUMPDEST JUMPDEST PUSH1 0x0 DUP3 ADD CALLDATALOAD PUSH8 0xFFFFFFFFFFFFFFFF DUP2 GT ISZERO PUSH2 0x242D JUMPI PUSH2 0x242C PUSH2 0x22BF JUMP JUMPDEST JUMPDEST PUSH2 0x2439 DUP5 DUP3 DUP6 ADD PUSH2 0x23CB JUMP JUMPDEST SWAP2 POP POP SWAP3 SWAP2 POP POP JUMP JUMPDEST PUSH1 0x0 DUP1 REVERT JUMPDEST PUSH1 0x0 DUP1 REVERT JUMPDEST PUSH1 0x0 DUP1 DUP4 PUSH1 0x1F DUP5 ADD SLT PUSH2 0x2462 JUMPI PUSH2 0x2461 PUSH2 0x22C4 JUMP JUMPDEST JUMPDEST DUP3 CALLDATALOAD SWAP1 POP PUSH8 0xFFFFFFFFFFFFFFFF DUP2 GT ISZERO PUSH2 0x247F JUMPI PUSH2 0x247E PUSH2 0x2442 JUMP JUMPDEST JUMPDEST PUSH1 0x20 DUP4 ADD SWAP2 POP DUP4 PUSH1 0x1 DUP3 MUL DUP4 ADD GT ISZERO PUSH2 0x249B JUMPI PUSH2 0x249A PUSH2 0x2447 JUMP JUMPDEST JUMPDEST SWAP3 POP SWAP3 SWAP1 POP JUMP JUMPDEST PUSH1 0x0 DUP2 SWAP1 POP SWAP2 SWAP1 POP JUMP JUMPDEST PUSH2 0x24B5 DUP2 PUSH2 0x24A2 JUMP JUMPDEST DUP2 EQ PUSH2 0x24C0 JUMPI PUSH1 0x0 DUP1 REVERT JUMPDEST POP JUMP JUMPDEST PUSH1 0x0 DUP2 CALLDATALOAD SWAP1 POP PUSH2 0x24D2 DUP2 PUSH2 0x24AC JUMP JUMPDEST SWAP3 SWAP2 POP POP JUMP JUMPDEST PUSH1 0x0 DUP1 REVERT JUMPDEST PUSH1 0x0 PUSH1 0x60 DUP3 DUP5 SUB SLT ISZERO PUSH2 0x24F3 JUMPI PUSH2 0x24F2 PUSH2 0x24D8 JUMP JUMPDEST JUMPDEST DUP2 SWAP1 POP SWAP3 SWAP2 POP POP JUMP JUMPDEST PUSH1 0x0 DUP1 PUSH1 0x0 DUP1 PUSH1 0x0 DUP1 PUSH1 0x0 DUP1 PUSH1 0x0 PUSH2 0x1A0 DUP11 DUP13 SUB SLT ISZERO PUSH2 0x251F JUMPI PUSH2 0x251E PUSH2 0x22BA JUMP JUMPDEST JUMPDEST PUSH1 0x0 DUP11 ADD CALLDATALOAD PUSH8 0xFFFFFFFFFFFFFFFF DUP2 GT ISZERO PUSH2 0x253D JUMPI PUSH2 0x253C PUSH2 0x22BF JUMP JUMPDEST JUMPDEST PUSH2 0x2549 DUP13 DUP3 DUP14 ADD PUSH2 0x23CB JUMP JUMPDEST SWAP10 POP POP PUSH1 0x20 DUP11 ADD CALLDATALOAD PUSH8 0xFFFFFFFFFFFFFFFF DUP2 GT ISZERO PUSH2 0x256A JUMPI PUSH2 0x2569 PUSH2 0x22BF JUMP JUMPDEST JUMPDEST PUSH2 0x2576 DUP13 DUP3 DUP14 ADD PUSH2 0x244C JUMP JUMPDEST SWAP9 POP SWAP9 POP POP PUSH1 0x40 PUSH2 0x2589 DUP13 DUP3 DUP14 ADD PUSH2 0x24C3 JUMP JUMPDEST SWAP7 POP POP PUSH1 0x60 DUP11 ADD CALLDATALOAD PUSH8 0xFFFFFFFFFFFFFFFF DUP2 GT ISZERO PUSH2 0x25AA JUMPI PUSH2 0x25A9 PUSH2 0x22BF JUMP JUMPDEST JUMPDEST PUSH2 0x25B6 DUP13 DUP3 DUP14 ADD PUSH2 0x244C JUMP JUMPDEST SWAP6 POP SWAP6 POP POP PUSH1 0x80 PUSH2 0x25C9 DUP13 DUP3 DUP14 ADD PUSH2 0x24DD JUMP JUMPDEST SWAP4 POP POP PUSH1 0xE0 PUSH2 0x25DA DUP13 DUP3 DUP14 ADD PUSH2 0x24DD JUMP JUMPDEST SWAP3 POP POP PUSH2 0x140 PUSH2 0x25EC DUP13 DUP3 DUP14 ADD PUSH2 0x24DD JUMP JUMPDEST SWAP2 POP POP SWAP3 SWAP6 SWAP9 POP SWAP3 SWAP6 SWAP9 POP SWAP3 SWAP6 SWAP9 JUMP JUMPDEST PUSH1 0x0 DUP2 SWAP1 POP SWAP2 SWAP1 POP JUMP JUMPDEST PUSH2 0x260F DUP2 PUSH2 0x25FC JUMP JUMPDEST DUP3 MSTORE POP POP JUMP JUMPDEST PUSH1 0x0 PUSH1 0x20 DUP3 ADD SWAP1 POP PUSH2 0x262A PUSH1 0x0 DUP4 ADD DUP5 PUSH2 0x2606 JUMP JUMPDEST SWAP3 SWAP2 POP POP JUMP JUMPDEST PUSH2 0x2639 DUP2 PUSH2 0x24A2 JUMP JUMPDEST DUP3 MSTORE POP POP JUMP JUMPDEST PUSH1 0x0 PUSH1 0x20 DUP3 ADD SWAP1 POP PUSH2 0x2654 PUSH1 0x0 DUP4 ADD DUP5 PUSH2 0x2630 JUMP JUMPDEST SWAP3 SWAP2 POP POP JUMP JUMPDEST PUSH1 0x0 PUSH1 0x20 DUP3 DUP5 SUB SLT ISZERO PUSH2 0x2670 JUMPI PUSH2 0x266F PUSH2 0x22BA JUMP JUMPDEST JUMPDEST PUSH1 0x0 PUSH2 0x267E DUP5 DUP3 DUP6 ADD PUSH2 0x24C3 JUMP JUMPDEST SWAP2 POP POP SWAP3 SWAP2 POP POP JUMP JUMPDEST PUSH1 0x0 DUP2 ISZERO ISZERO SWAP1 POP SWAP2 SWAP1 POP JUMP JUMPDEST PUSH2 0x269C DUP2 PUSH2 0x2687 JUMP JUMPDEST DUP3 MSTORE POP POP JUMP JUMPDEST PUSH1 0x0 PUSH1 0x20 DUP3 ADD SWAP1 POP PUSH2 0x26B7 PUSH1 0x0 DUP4 ADD DUP5 PUSH2 0x2693 JUMP JUMPDEST SWAP3 SWAP2 POP POP JUMP JUMPDEST PUSH2 0x26C6 DUP2 PUSH2 0x25FC JUMP JUMPDEST DUP2 EQ PUSH2 0x26D1 JUMPI PUSH1 0x0 DUP1 REVERT JUMPDEST POP JUMP JUMPDEST PUSH1 0x0 DUP2 CALLDATALOAD SWAP1 POP PUSH2 0x26E3 DUP2 PUSH2 0x26BD JUMP JUMPDEST SWAP3 SWAP2 POP POP JUMP JUMPDEST PUSH1 0x0 DUP1 PUSH1 0x0 DUP1 PUSH1 0x0 PUSH1 0xA0 DUP7 DUP9 SUB SLT ISZERO PUSH2 0x2705 JUMPI PUSH2 0x2704 PUSH2 0x22BA JUMP JUMPDEST JUMPDEST PUSH1 0x0 PUSH2 0x2713 DUP9 DUP3 DUP10 ADD PUSH2 0x26D4 JUMP JUMPDEST SWAP6 POP POP PUSH1 0x20 PUSH2 0x2724 DUP9 DUP3 DUP10 ADD PUSH2 0x26D4 JUMP JUMPDEST SWAP5 POP POP PUSH1 0x40 PUSH2 0x2735 DUP9 DUP3 DUP10 ADD PUSH2 0x26D4 JUMP JUMPDEST SWAP4 POP POP PUSH1 0x60 DUP7 ADD CALLDATALOAD PUSH8 0xFFFFFFFFFFFFFFFF DUP2 GT ISZERO PUSH2 0x2756 JUMPI PUSH2 0x2755 PUSH2 0x22BF JUMP JUMPDEST JUMPDEST PUSH2 0x2762 DUP9 DUP3 DUP10 ADD PUSH2 0x23CB JUMP JUMPDEST SWAP3 POP POP PUSH1 0x80 DUP7 ADD CALLDATALOAD PUSH8 0xFFFFFFFFFFFFFFFF DUP2 GT ISZERO PUSH2 0x2783 JUMPI PUSH2 0x2782 PUSH2 0x22BF JUMP JUMPDEST JUMPDEST PUSH2 0x278F DUP9 DUP3 DUP10 ADD PUSH2 0x23CB JUMP JUMPDEST SWAP2 POP POP SWAP3 SWAP6 POP SWAP3 SWAP6 SWAP1 SWAP4 POP JUMP JUMPDEST PUSH1 0x0 DUP2 MLOAD SWAP1 POP SWAP2 SWAP1 POP JUMP JUMPDEST PUSH1 0x0 DUP3 DUP3 MSTORE PUSH1 0x20 DUP3 ADD SWAP1 POP SWAP3 SWAP2 POP POP JUMP JUMPDEST PUSH1 0x0 DUP2 SWAP1 POP PUSH1 0x20 DUP3 ADD SWAP1 POP SWAP2 SWAP1 POP JUMP JUMPDEST PUSH2 0x27D1 DUP2 PUSH2 0x25FC JUMP JUMPDEST DUP3 MSTORE POP POP JUMP JUMPDEST PUSH1 0x0 PUSH2 0x27E3 DUP4 DUP4 PUSH2 0x27C8 JUMP JUMPDEST PUSH1 0x20 DUP4 ADD SWAP1 POP SWAP3 SWAP2 POP POP JUMP JUMPDEST PUSH1 0x0 PUSH1 0x20 DUP3 ADD SWAP1 POP SWAP2 SWAP1 POP JUMP JUMPDEST PUSH1 0x0 PUSH2 0x2807 DUP3 PUSH2 0x279C JUMP JUMPDEST PUSH2 0x2811 DUP2 DUP6 PUSH2 0x27A7 JUMP JUMPDEST SWAP4 POP PUSH2 0x281C DUP4 PUSH2 0x27B8 JUMP JUMPDEST DUP1 PUSH1 0x0 JUMPDEST DUP4 DUP2 LT ISZERO PUSH2 0x284D JUMPI DUP2 MLOAD PUSH2 0x2834 DUP9 DUP3 PUSH2 0x27D7 JUMP JUMPDEST SWAP8 POP PUSH2 0x283F DUP4 PUSH2 0x27EF JUMP JUMPDEST SWAP3 POP POP PUSH1 0x1 DUP2 ADD SWAP1 POP PUSH2 0x2820 JUMP JUMPDEST POP DUP6 SWAP4 POP POP POP POP SWAP3 SWAP2 POP POP JUMP JUMPDEST PUSH1 0x0 PUSH1 0x20 DUP3 ADD SWAP1 POP DUP2 DUP2 SUB PUSH1 0x0 DUP4 ADD MSTORE PUSH2 0x2874 DUP2 DUP5 PUSH2 0x27FC JUMP JUMPDEST SWAP1 POP SWAP3 SWAP2 POP POP JUMP JUMPDEST PUSH1 0x0 DUP1 PUSH1 0x0 DUP1 PUSH1 0x80 DUP6 DUP8 SUB SLT ISZERO PUSH2 0x2896 JUMPI PUSH2 0x2895 PUSH2 0x22BA JUMP JUMPDEST JUMPDEST PUSH1 0x0 PUSH2 0x28A4 DUP8 DUP3 DUP9 ADD PUSH2 0x26D4 JUMP JUMPDEST SWAP5 POP POP PUSH1 0x20 PUSH2 0x28B5 DUP8 DUP3 DUP9 ADD PUSH2 0x26D4 JUMP JUMPDEST SWAP4 POP POP PUSH1 0x40 DUP6 ADD CALLDATALOAD PUSH8 0xFFFFFFFFFFFFFFFF DUP2 GT ISZERO PUSH2 0x28D6 JUMPI PUSH2 0x28D5 PUSH2 0x22BF JUMP JUMPDEST JUMPDEST PUSH2 0x28E2 DUP8 DUP3 DUP9 ADD PUSH2 0x23CB JUMP JUMPDEST SWAP3 POP POP PUSH1 0x60 DUP6 ADD CALLDATALOAD PUSH8 0xFFFFFFFFFFFFFFFF DUP2 GT ISZERO PUSH2 0x2903 JUMPI PUSH2 0x2902 PUSH2 0x22BF JUMP JUMPDEST JUMPDEST PUSH2 0x290F DUP8 DUP3 DUP9 ADD PUSH2 0x23CB JUMP JUMPDEST SWAP2 POP POP SWAP3 SWAP6 SWAP2 SWAP5 POP SWAP3 POP JUMP JUMPDEST PUSH1 0x0 DUP2 MLOAD SWAP1 POP SWAP2 SWAP1 POP JUMP JUMPDEST PUSH1 0x0 DUP3 DUP3 MSTORE PUSH1 0x20 DUP3 ADD SWAP1 POP SWAP3 SWAP2 POP POP JUMP JUMPDEST PUSH1 0x0 DUP2 SWAP1 POP PUSH1 0x20 DUP3 ADD SWAP1 POP SWAP2 SWAP1 POP JUMP JUMPDEST PUSH2 0x2950 DUP2 PUSH2 0x24A2 JUMP JUMPDEST DUP3 MSTORE POP POP JUMP JUMPDEST PUSH1 0x0 PUSH2 0x2962 DUP4 DUP4 PUSH2 0x2947 JUMP JUMPDEST PUSH1 0x20 DUP4 ADD SWAP1 POP SWAP3 SWAP2 POP POP JUMP JUMPDEST PUSH1 0x0 PUSH1 0x20 DUP3 ADD SWAP1 POP SWAP2 SWAP1 POP JUMP JUMPDEST PUSH1 0x0 PUSH2 0x2986 DUP3 PUSH2 0x291B JUMP JUMPDEST PUSH2 0x2990 DUP2 DUP6 PUSH2 0x2926 JUMP JUMPDEST SWAP4 POP PUSH2 0x299B DUP4 PUSH2 0x2937 JUMP JUMPDEST DUP1 PUSH1 0x0 JUMPDEST DUP4 DUP2 LT ISZERO PUSH2 0x29CC JUMPI DUP2 MLOAD PUSH2 0x29B3 DUP9 DUP3 PUSH2 0x2956 JUMP JUMPDEST SWAP8 POP PUSH2 0x29BE DUP4 PUSH2 0x296E JUMP JUMPDEST SWAP3 POP POP PUSH1 0x1 DUP2 ADD SWAP1 POP PUSH2 0x299F JUMP JUMPDEST POP DUP6 SWAP4 POP POP POP POP SWAP3 SWAP2 POP POP JUMP JUMPDEST PUSH1 0x0 PUSH1 0x20 DUP3 ADD SWAP1 POP DUP2 DUP2 SUB PUSH1 0x0 DUP4 ADD MSTORE PUSH2 0x29F3 DUP2 DUP5 PUSH2 0x297B JUMP JUMPDEST SWAP1 POP SWAP3 SWAP2 POP POP JUMP JUMPDEST PUSH1 0x0 DUP1 PUSH1 0x40 DUP4 DUP6 SUB SLT ISZERO PUSH2 0x2A12 JUMPI PUSH2 0x2A11 PUSH2 0x22BA JUMP JUMPDEST JUMPDEST PUSH1 0x0 DUP4 ADD CALLDATALOAD PUSH8 0xFFFFFFFFFFFFFFFF DUP2 GT ISZERO PUSH2 0x2A30 JUMPI PUSH2 0x2A2F PUSH2 0x22BF JUMP JUMPDEST JUMPDEST PUSH2 0x2A3C DUP6 DUP3 DUP7 ADD PUSH2 0x23CB JUMP JUMPDEST SWAP3 POP POP PUSH1 0x20 DUP4 ADD CALLDATALOAD PUSH8 0xFFFFFFFFFFFFFFFF DUP2 GT ISZERO PUSH2 0x2A5D JUMPI PUSH2 0x2A5C PUSH2 0x22BF JUMP JUMPDEST JUMPDEST PUSH2 0x2A69 DUP6 DUP3 DUP7 ADD PUSH2 0x23CB JUMP JUMPDEST SWAP2 POP POP SWAP3 POP SWAP3 SWAP1 POP JUMP JUMPDEST PUSH1 0x60 DUP3 ADD PUSH1 0x0 DUP3 ADD MLOAD PUSH2 0x2A89 PUSH1 0x0 DUP6 ADD DUP3 PUSH2 0x2947 JUMP JUMPDEST POP PUSH1 0x20 DUP3 ADD MLOAD PUSH2 0x2A9C PUSH1 0x20 DUP6 ADD DUP3 PUSH2 0x27C8 JUMP JUMPDEST POP PUSH1 0x40 DUP3 ADD MLOAD PUSH2 0x2AAF PUSH1 0x40 DUP6 ADD DUP3 PUSH2 0x2947 JUMP JUMPDEST POP POP POP POP JUMP JUMPDEST PUSH1 0x0 PUSH2 0x1C0 DUP3 ADD SWAP1 POP DUP2 DUP2 SUB PUSH1 0x0 DUP4 ADD MSTORE PUSH2 0x2AD0 DUP2 DUP12 PUSH2 0x2255 JUMP JUMPDEST SWAP1 POP DUP2 DUP2 SUB PUSH1 0x20 DUP4 ADD MSTORE PUSH2 0x2AE4 DUP2 DUP11 PUSH2 0x2255 JUMP JUMPDEST SWAP1 POP DUP2 DUP2 SUB PUSH1 0x40 DUP4 ADD MSTORE PUSH2 0x2AF8 DUP2 DUP10 PUSH2 0x2255 JUMP JUMPDEST SWAP1 POP PUSH2 0x2B07 PUSH1 0x60 DUP4 ADD DUP9 PUSH2 0x2630 JUMP JUMPDEST PUSH2 0x2B14 PUSH1 0x80 DUP4 ADD DUP8 PUSH2 0x2A73 JUMP JUMPDEST DUP2 DUP2 SUB PUSH1 0xE0 DUP4 ADD MSTORE PUSH2 0x2B26 DUP2 DUP7 PUSH2 0x2255 JUMP JUMPDEST SWAP1 POP PUSH2 0x2B36 PUSH2 0x100 DUP4 ADD DUP6 PUSH2 0x2A73 JUMP JUMPDEST PUSH2 0x2B44 PUSH2 0x160 DUP4 ADD DUP5 PUSH2 0x2A73 JUMP JUMPDEST SWAP10 SWAP9 POP POP POP POP POP POP POP POP POP JUMP JUMPDEST PUSH1 0x0 DUP1 PUSH1 0x0 DUP1 PUSH1 0x0 DUP1 PUSH1 0x60 DUP8 DUP10 SUB SLT ISZERO PUSH2 0x2B6E JUMPI PUSH2 0x2B6D PUSH2 0x22BA JUMP JUMPDEST JUMPDEST PUSH1 0x0 DUP8 ADD CALLDATALOAD PUSH8 0xFFFFFFFFFFFFFFFF DUP2 GT ISZERO PUSH2 0x2B8C JUMPI PUSH2 0x2B8B PUSH2 0x22BF JUMP JUMPDEST JUMPDEST PUSH2 0x2B98 DUP10 DUP3 DUP11 ADD PUSH2 0x244C JUMP JUMPDEST SWAP7 POP SWAP7 POP POP PUSH1 0x20 DUP8 ADD CALLDATALOAD PUSH8 0xFFFFFFFFFFFFFFFF DUP2 GT ISZERO PUSH2 0x2BBB JUMPI PUSH2 0x2BBA PUSH2 0x22BF JUMP JUMPDEST JUMPDEST PUSH2 0x2BC7 DUP10 DUP3 DUP11 ADD PUSH2 0x244C JUMP JUMPDEST SWAP5 POP SWAP5 POP POP PUSH1 0x40 DUP8 ADD CALLDATALOAD PUSH8 0xFFFFFFFFFFFFFFFF DUP2 GT ISZERO PUSH2 0x2BEA JUMPI PUSH2 0x2BE9 PUSH2 0x22BF JUMP JUMPDEST JUMPDEST PUSH2 0x2BF6 DUP10 DUP3 DUP11 ADD PUSH2 0x244C JUMP JUMPDEST SWAP3 POP SWAP3 POP POP SWAP3 SWAP6 POP SWAP3 SWAP6 POP SWAP3 SWAP6 JUMP JUMPDEST PUSH1 0x0 PUSH1 0x20 DUP3 DUP5 SUB SLT ISZERO PUSH2 0x2C1B JUMPI PUSH2 0x2C1A PUSH2 0x22BA JUMP JUMPDEST JUMPDEST PUSH1 0x0 PUSH2 0x2C29 DUP5 DUP3 DUP6 ADD PUSH2 0x26D4 JUMP JUMPDEST SWAP2 POP POP SWAP3 SWAP2 POP POP JUMP JUMPDEST PUSH1 0x0 DUP2 MLOAD SWAP1 POP SWAP2 SWAP1 POP JUMP JUMPDEST PUSH1 0x0 DUP3 DUP3 MSTORE PUSH1 0x20 DUP3 ADD SWAP1 POP SWAP3 SWAP2 POP POP JUMP JUMPDEST PUSH1 0x0 DUP2 SWAP1 POP PUSH1 0x20 DUP3 ADD SWAP1 POP SWAP2 SWAP1 POP JUMP JUMPDEST PUSH1 0x0 DUP3 DUP3 MSTORE PUSH1 0x20 DUP3 ADD SWAP1 POP SWAP3 SWAP2 POP POP JUMP JUMPDEST PUSH1 0x0 PUSH2 0x2C7A DUP3 PUSH2 0x21FE JUMP JUMPDEST PUSH2 0x2C84 DUP2 DUP6 PUSH2 0x2C5E JUMP JUMPDEST SWAP4 POP PUSH2 0x2C94 DUP2 DUP6 PUSH1 0x20 DUP7 ADD PUSH2 0x221A JUMP JUMPDEST PUSH2 0x2C9D DUP2 PUSH2 0x2244 JUMP JUMPDEST DUP5 ADD SWAP2 POP POP SWAP3 SWAP2 POP POP JUMP JUMPDEST PUSH1 0x60 DUP3 ADD PUSH1 0x0 DUP3 ADD MLOAD PUSH2 0x2CBE PUSH1 0x0 DUP6 ADD DUP3 PUSH2 0x2947 JUMP JUMPDEST POP PUSH1 0x20 DUP3 ADD MLOAD PUSH2 0x2CD1 PUSH1 0x20 DUP6 ADD DUP3 PUSH2 0x27C8 JUMP JUMPDEST POP PUSH1 0x40 DUP3 ADD MLOAD PUSH2 0x2CE4 PUSH1 0x40 DUP6 ADD DUP3 PUSH2 0x2947 JUMP JUMPDEST POP POP POP POP JUMP JUMPDEST PUSH1 0x0 PUSH2 0x1C0 DUP4 ADD PUSH1 0x0 DUP4 ADD MLOAD DUP5 DUP3 SUB PUSH1 0x0 DUP7 ADD MSTORE PUSH2 0x2D08 DUP3 DUP3 PUSH2 0x2C6F JUMP JUMPDEST SWAP2 POP POP PUSH1 0x20 DUP4 ADD MLOAD DUP5 DUP3 SUB PUSH1 0x20 DUP7 ADD MSTORE PUSH2 0x2D22 DUP3 DUP3 PUSH2 0x2C6F JUMP JUMPDEST SWAP2 POP POP PUSH1 0x40 DUP4 ADD MLOAD DUP5 DUP3 SUB PUSH1 0x40 DUP7 ADD MSTORE PUSH2 0x2D3C DUP3 DUP3 PUSH2 0x2C6F JUMP JUMPDEST SWAP2 POP POP PUSH1 0x60 DUP4 ADD MLOAD PUSH2 0x2D51 PUSH1 0x60 DUP7 ADD DUP3 PUSH2 0x2947 JUMP JUMPDEST POP PUSH1 0x80 DUP4 ADD MLOAD PUSH2 0x2D64 PUSH1 0x80 DUP7 ADD DUP3 PUSH2 0x2CA8 JUMP JUMPDEST POP PUSH1 0xA0 DUP4 ADD MLOAD DUP5 DUP3 SUB PUSH1 0xE0 DUP7 ADD MSTORE PUSH2 0x2D7C DUP3 DUP3 PUSH2 0x2C6F JUMP JUMPDEST SWAP2 POP POP PUSH1 0xC0 DUP4 ADD MLOAD PUSH2 0x2D92 PUSH2 0x100 DUP7 ADD DUP3 PUSH2 0x2CA8 JUMP JUMPDEST POP PUSH1 0xE0 DUP4 ADD MLOAD PUSH2 0x2DA6 PUSH2 0x160 DUP7 ADD DUP3 PUSH2 0x2CA8 JUMP JUMPDEST POP DUP1 SWAP2 POP POP SWAP3 SWAP2 POP POP JUMP JUMPDEST PUSH1 0x0 PUSH2 0x2DBD DUP4 DUP4 PUSH2 0x2CEA JUMP JUMPDEST SWAP1 POP SWAP3 SWAP2 POP POP JUMP JUMPDEST PUSH1 0x0 PUSH1 0x20 DUP3 ADD SWAP1 POP SWAP2 SWAP1 POP JUMP JUMPDEST PUSH1 0x0 PUSH2 0x2DDD DUP3 PUSH2 0x2C32 JUMP JUMPDEST PUSH2 0x2DE7 DUP2 DUP6 PUSH2 0x2C3D JUMP JUMPDEST SWAP4 POP DUP4 PUSH1 0x20 DUP3 MUL DUP6 ADD PUSH2 0x2DF9 DUP6 PUSH2 0x2C4E JUMP JUMPDEST DUP1 PUSH1 0x0 JUMPDEST DUP6 DUP2 LT ISZERO PUSH2 0x2E35 JUMPI DUP5 DUP5 SUB DUP10 MSTORE DUP2 MLOAD PUSH2 0x2E16 DUP6 DUP3 PUSH2 0x2DB1 JUMP JUMPDEST SWAP5 POP PUSH2 0x2E21 DUP4 PUSH2 0x2DC5 JUMP JUMPDEST SWAP3 POP PUSH1 0x20 DUP11 ADD SWAP10 POP POP PUSH1 0x1 DUP2 ADD SWAP1 POP PUSH2 0x2DFD JUMP JUMPDEST POP DUP3 SWAP8 POP DUP8 SWAP6 POP POP POP POP POP POP SWAP3 SWAP2 POP POP JUMP JUMPDEST PUSH1 0x0 PUSH1 0x20 DUP3 ADD SWAP1 POP DUP2 DUP2 SUB PUSH1 0x0 DUP4 ADD MSTORE PUSH2 0x2E61 DUP2 DUP5 PUSH2 0x2DD2 JUMP JUMPDEST SWAP1 POP SWAP3 SWAP2 POP POP JUMP JUMPDEST PUSH32 0x4E487B7100000000000000000000000000000000000000000000000000000000 PUSH1 0x0 MSTORE PUSH1 0x22 PUSH1 0x4 MSTORE PUSH1 0x24 PUSH1 0x0 REVERT JUMPDEST PUSH1 0x0 PUSH1 0x2 DUP3 DIV SWAP1 POP PUSH1 0x1 DUP3 AND DUP1 PUSH2 0x2EB0 JUMPI PUSH1 0x7F DUP3 AND SWAP2 POP JUMPDEST PUSH1 0x20 DUP3 LT DUP2 SUB PUSH2 0x2EC3 JUMPI PUSH2 0x2EC2 PUSH2 0x2E69 JUMP JUMPDEST JUMPDEST POP SWAP2 SWAP1 POP JUMP JUMPDEST PUSH32 0x4E487B7100000000000000000000000000000000000000000000000000000000 PUSH1 0x0 MSTORE PUSH1 0x32 PUSH1 0x4 MSTORE PUSH1 0x24 PUSH1 0x0 REVERT JUMPDEST PUSH1 0x0 DUP1 REVERT JUMPDEST PUSH1 0x0 PUSH1 0x60 DUP3 DUP5 SUB SLT ISZERO PUSH2 0x2F13 JUMPI PUSH2 0x2F12 PUSH2 0x2EF8 JUMP JUMPDEST JUMPDEST PUSH2 0x2F1D PUSH1 0x60 PUSH2 0x232E JUMP JUMPDEST SWAP1 POP PUSH1 0x0 PUSH2 0x2F2D DUP5 DUP3 DUP6 ADD PUSH2 0x24C3 JUMP JUMPDEST PUSH1 0x0 DUP4 ADD MSTORE POP PUSH1 0x20 PUSH2 0x2F41 DUP5 DUP3 DUP6 ADD PUSH2 0x26D4 JUMP JUMPDEST PUSH1 0x20 DUP4 ADD MSTORE POP PUSH1 0x40 PUSH2 0x2F55 DUP5 DUP3 DUP6 ADD PUSH2 0x24C3 JUMP JUMPDEST PUSH1 0x40 DUP4 ADD MSTORE POP SWAP3 SWAP2 POP POP JUMP JUMPDEST PUSH1 0x0 PUSH1 0x60 DUP3 DUP5 SUB SLT ISZERO PUSH2 0x2F77 JUMPI PUSH2 0x2F76 PUSH2 0x22BA JUMP JUMPDEST JUMPDEST PUSH1 0x0 PUSH2 0x2F85 DUP5 DUP3 DUP6 ADD PUSH2 0x2EFD JUMP JUMPDEST SWAP2 POP POP SWAP3 SWAP2 POP POP JUMP JUMPDEST PUSH1 0x0 DUP2 SWAP1 POP DUP2 PUSH1 0x0 MSTORE PUSH1 0x20 PUSH1 0x0 KECCAK256 SWAP1 POP SWAP2 SWAP1 POP JUMP JUMPDEST PUSH1 0x0 PUSH1 0x20 PUSH1 0x1F DUP4 ADD DIV SWAP1 POP SWAP2 SWAP1 POP JUMP JUMPDEST PUSH1 0x0 DUP3 DUP3 SHL SWAP1 POP SWAP3 SWAP2 POP POP JUMP JUMPDEST PUSH1 0x0 PUSH1 0x8 DUP4 MUL PUSH2 0x2FF0 PUSH32 0xFFFFFFFFFFFFFFFFFFFFFFFFFFFFFFFFFFFFFFFFFFFFFFFFFFFFFFFFFFFFFFFF DUP3 PUSH2 0x2FB3 JUMP JUMPDEST PUSH2 0x2FFA DUP7 DUP4 PUSH2 0x2FB3 JUMP JUMPDEST SWAP6 POP DUP1 NOT DUP5 AND SWAP4 POP DUP1 DUP7 AND DUP5 OR SWAP3 POP POP POP SWAP4 SWAP3 POP POP POP JUMP JUMPDEST PUSH1 0x0 DUP2 SWAP1 POP SWAP2 SWAP1 POP JUMP JUMPDEST PUSH1 0x0 PUSH2 0x3037 PUSH2 0x3032 PUSH2 0x302D DUP5 PUSH2 0x24A2 JUMP JUMPDEST PUSH2 0x3012 JUMP JUMPDEST PUSH2 0x24A2 JUMP JUMPDEST SWAP1 POP SWAP2 SWAP1 POP JUMP JUMPDEST PUSH1 0x0 DUP2 SWAP1 POP SWAP2 SWAP1 POP JUMP JUMPDEST PUSH2 0x3051 DUP4 PUSH2 0x301C JUMP JUMPDEST PUSH2 0x3065 PUSH2 0x305D DUP3 PUSH2 0x303E JUMP JUMPDEST DUP5 DUP5 SLOAD PUSH2 0x2FC0 JUMP JUMPDEST DUP3 SSTORE POP POP POP POP JUMP JUMPDEST PUSH1 0x0 SWAP1 JUMP JUMPDEST PUSH2 0x307A PUSH2 0x306D JUMP JUMPDEST PUSH2 0x3085 DUP2 DUP5 DUP5 PUSH2 0x3048 JUMP JUMPDEST POP POP POP JUMP JUMPDEST JUMPDEST DUP2 DUP2 LT ISZERO PUSH2 0x30A9 JUMPI PUSH2 0x309E PUSH1 0x0 DUP3 PUSH2 0x3072 JUMP JUMPDEST PUSH1 0x1 DUP2 ADD SWAP1 POP PUSH2 0x308B JUMP JUMPDEST POP POP JUMP JUMPDEST PUSH1 0x1F DUP3 GT ISZERO PUSH2 0x30EE JUMPI PUSH2 0x30BF DUP2 PUSH2 0x2F8E JUMP JUMPDEST PUSH2 0x30C8 DUP5 PUSH2 0x2FA3 JUMP JUMPDEST DUP2 ADD PUSH1 0x20 DUP6 LT ISZERO PUSH2 0x30D7 JUMPI DUP2 SWAP1 POP JUMPDEST PUSH2 0x30EB PUSH2 0x30E3 DUP6 PUSH2 0x2FA3 JUMP JUMPDEST DUP4 ADD DUP3 PUSH2 0x308A JUMP JUMPDEST POP POP JUMPDEST POP POP POP JUMP JUMPDEST PUSH1 0x0 DUP3 DUP3 SHR SWAP1 POP SWAP3 SWAP2 POP POP JUMP JUMPDEST PUSH1 0x0 PUSH2 0x3111 PUSH1 0x0 NOT DUP5 PUSH1 0x8 MUL PUSH2 0x30F3 JUMP JUMPDEST NOT DUP1 DUP4 AND SWAP2 POP POP SWAP3 SWAP2 POP POP JUMP JUMPDEST PUSH1 0x0 PUSH2 0x312A DUP4 DUP4 PUSH2 0x3100 JUMP JUMPDEST SWAP2 POP DUP3 PUSH1 0x2 MUL DUP3 OR SWAP1 POP SWAP3 SWAP2 POP POP JUMP JUMPDEST PUSH2 0x3143 DUP3 PUSH2 0x21FE JUMP JUMPDEST PUSH8 0xFFFFFFFFFFFFFFFF DUP2 GT ISZERO PUSH2 0x315C JUMPI PUSH2 0x315B PUSH2 0x22CE JUMP JUMPDEST JUMPDEST PUSH2 0x3166 DUP3 SLOAD PUSH2 0x2E98 JUMP JUMPDEST PUSH2 0x3171 DUP3 DUP3 DUP6 PUSH2 0x30AD JUMP JUMPDEST PUSH1 0x0 PUSH1 0x20 SWAP1 POP PUSH1 0x1F DUP4 GT PUSH1 0x1 DUP2 EQ PUSH2 0x31A4 JUMPI PUSH1 0x0 DUP5 ISZERO PUSH2 0x3192 JUMPI DUP3 DUP8 ADD MLOAD SWAP1 POP JUMPDEST PUSH2 0x319C DUP6 DUP3 PUSH2 0x311E JUMP JUMPDEST DUP7 SSTORE POP PUSH2 0x3204 JUMP JUMPDEST PUSH1 0x1F NOT DUP5 AND PUSH2 0x31B2 DUP7 PUSH2 0x2F8E JUMP JUMPDEST PUSH1 0x0 JUMPDEST DUP3 DUP2 LT ISZERO PUSH2 0x31DA JUMPI DUP5 DUP10 ADD MLOAD DUP3 SSTORE PUSH1 0x1 DUP3 ADD SWAP2 POP PUSH1 0x20 DUP6 ADD SWAP5 POP PUSH1 0x20 DUP2 ADD SWAP1 POP PUSH2 0x31B5 JUMP JUMPDEST DUP7 DUP4 LT ISZERO PUSH2 0x31F7 JUMPI DUP5 DUP10 ADD MLOAD PUSH2 0x31F3 PUSH1 0x1F DUP10 AND DUP3 PUSH2 0x3100 JUMP JUMPDEST DUP4 SSTORE POP JUMPDEST PUSH1 0x1 PUSH1 0x2 DUP9 MUL ADD DUP9 SSTORE POP POP POP JUMPDEST POP POP POP POP POP POP JUMP JUMPDEST PUSH1 0x0 DUP2 SWAP1 POP SWAP2 SWAP1 POP JUMP JUMPDEST PUSH2 0x3227 PUSH2 0x3222 DUP3 PUSH2 0x24A2 JUMP JUMPDEST PUSH2 0x320C JUMP JUMPDEST DUP3 MSTORE POP POP JUMP JUMPDEST PUSH1 0x0 PUSH20 0xFFFFFFFFFFFFFFFFFFFFFFFFFFFFFFFFFFFFFFFF DUP3 AND SWAP1 POP SWAP2 SWAP1 POP JUMP JUMPDEST PUSH1 0x0 PUSH2 0x3258 DUP3 PUSH2 0x322D JUMP JUMPDEST SWAP1 POP SWAP2 SWAP1 POP JUMP JUMPDEST PUSH1 0x0 DUP2 PUSH1 0x60 SHL SWAP1 POP SWAP2 SWAP1 POP JUMP JUMPDEST PUSH1 0x0 PUSH2 0x3277 DUP3 PUSH2 0x325F JUMP JUMPDEST SWAP1 POP SWAP2 SWAP1 POP JUMP JUMPDEST PUSH1 0x0 PUSH2 0x3289 DUP3 PUSH2 0x326C JUMP JUMPDEST SWAP1 POP SWAP2 SWAP1 POP JUMP JUMPDEST PUSH2 0x32A1 PUSH2 0x329C DUP3 PUSH2 0x324D JUMP JUMPDEST PUSH2 0x327E JUMP JUMPDEST DUP3 MSTORE POP POP JUMP JUMPDEST PUSH1 0x0 PUSH2 0x32B3 DUP3 DUP7 PUSH2 0x3216 JUMP JUMPDEST PUSH1 0x20 DUP3 ADD SWAP2 POP PUSH2 0x32C3 DUP3 DUP6 PUSH2 0x3290 JUMP JUMPDEST PUSH1 0x14 DUP3 ADD SWAP2 POP PUSH2 0x32D3 DUP3 DUP5 PUSH2 0x3216 JUMP JUMPDEST PUSH1 0x20 DUP3 ADD SWAP2 POP DUP2 SWAP1 POP SWAP5 SWAP4 POP POP POP POP JUMP JUMPDEST PUSH32 0x4E487B7100000000000000000000000000000000000000000000000000000000 PUSH1 0x0 MSTORE PUSH1 0x12 PUSH1 0x4 MSTORE PUSH1 0x24 PUSH1 0x0 REVERT JUMPDEST PUSH1 0x0 PUSH2 0x331E DUP3 PUSH2 0x24A2 JUMP JUMPDEST SWAP2 POP PUSH2 0x3329 DUP4 PUSH2 0x24A2 JUMP JUMPDEST SWAP3 POP DUP3 PUSH2 0x3339 JUMPI PUSH2 0x3338 PUSH2 0x32E4 JUMP JUMPDEST JUMPDEST DUP3 DUP3 MOD SWAP1 POP SWAP3 SWAP2 POP POP JUMP JUMPDEST PUSH32 0x4E487B7100000000000000000000000000000000000000000000000000000000 PUSH1 0x0 MSTORE PUSH1 0x11 PUSH1 0x4 MSTORE PUSH1 0x24 PUSH1 0x0 REVERT JUMPDEST PUSH1 0x0 PUSH2 0x337E DUP3 PUSH2 0x24A2 JUMP JUMPDEST SWAP2 POP PUSH32 0xFFFFFFFFFFFFFFFFFFFFFFFFFFFFFFFFFFFFFFFFFFFFFFFFFFFFFFFFFFFFFFFF DUP3 SUB PUSH2 0x33B0 JUMPI PUSH2 0x33AF PUSH2 0x3344 JUMP JUMPDEST JUMPDEST PUSH1 0x1 DUP3 ADD SWAP1 POP SWAP2 SWAP1 POP JUMP JUMPDEST PUSH1 0x0 PUSH2 0x33C7 DUP3 DUP8 PUSH2 0x3216 JUMP JUMPDEST PUSH1 0x20 DUP3 ADD SWAP2 POP PUSH2 0x33D7 DUP3 DUP7 PUSH2 0x3216 JUMP JUMPDEST PUSH1 0x20 DUP3 ADD SWAP2 POP PUSH2 0x33E7 DUP3 DUP6 PUSH2 0x3290 JUMP JUMPDEST PUSH1 0x14 DUP3 ADD SWAP2 POP PUSH2 0x33F7 DUP3 DUP5 PUSH2 0x3216 JUMP JUMPDEST PUSH1 0x20 DUP3 ADD SWAP2 POP DUP2 SWAP1 POP SWAP6 SWAP5 POP POP POP POP POP JUMP JUMPDEST PUSH1 0x0 PUSH2 0x3414 DUP3 PUSH2 0x25FC JUMP JUMPDEST SWAP2 POP PUSH2 0x341F DUP4 PUSH2 0x25FC JUMP JUMPDEST SWAP3 POP DUP3 DUP3 SUB SWAP1 POP DUP2 DUP2 SLT PUSH1 0x0 DUP5 SLT AND DUP3 DUP3 SGT PUSH1 0x0 DUP6 SLT ISZERO AND OR ISZERO PUSH2 0x3446 JUMPI PUSH2 0x3445 PUSH2 0x3344 JUMP JUMPDEST JUMPDEST SWAP3 SWAP2 POP POP JUMP JUMPDEST PUSH1 0x0 PUSH2 0x3457 DUP3 PUSH2 0x25FC JUMP JUMPDEST SWAP2 POP PUSH2 0x3462 DUP4 PUSH2 0x25FC JUMP JUMPDEST SWAP3 POP DUP3 DUP3 ADD SWAP1 POP DUP3 DUP2 SLT ISZERO PUSH1 0x0 DUP4 SLT AND DUP4 DUP3 SLT PUSH1 0x0 DUP5 SLT ISZERO AND OR ISZERO PUSH2 0x348A JUMPI PUSH2 0x3489 PUSH2 0x3344 JUMP JUMPDEST JUMPDEST SWAP3 SWAP2 POP POP JUMP JUMPDEST PUSH1 0x0 PUSH2 0x349B DUP3 PUSH2 0x25FC JUMP JUMPDEST SWAP2 POP PUSH32 0x7FFFFFFFFFFFFFFFFFFFFFFFFFFFFFFFFFFFFFFFFFFFFFFFFFFFFFFFFFFFFFFF DUP3 SUB PUSH2 0x34CD JUMPI PUSH2 0x34CC PUSH2 0x3344 JUMP JUMPDEST JUMPDEST PUSH1 0x1 DUP3 ADD SWAP1 POP SWAP2 SWAP1 POP JUMP JUMPDEST PUSH1 0x0 PUSH2 0x34E3 DUP3 PUSH2 0x25FC JUMP JUMPDEST SWAP2 POP PUSH2 0x34EE DUP4 PUSH2 0x25FC JUMP JUMPDEST SWAP3 POP DUP3 PUSH2 0x34FE JUMPI PUSH2 0x34FD PUSH2 0x32E4 JUMP JUMPDEST JUMPDEST PUSH1 0x1 PUSH1 0x0 SUB DUP4 EQ PUSH32 0x8000000000000000000000000000000000000000000000000000000000000000 DUP4 EQ AND ISZERO PUSH2 0x3537 JUMPI PUSH2 0x3536 PUSH2 0x3344 JUMP JUMPDEST JUMPDEST DUP3 DUP3 SDIV SWAP1 POP SWAP3 SWAP2 POP POP JUMP JUMPDEST PUSH1 0x0 PUSH2 0x354D DUP3 PUSH2 0x24A2 JUMP JUMPDEST SWAP2 POP PUSH2 0x3558 DUP4 PUSH2 0x24A2 JUMP JUMPDEST SWAP3 POP DUP3 DUP3 ADD SWAP1 POP DUP1 DUP3 GT ISZERO PUSH2 0x3570 JUMPI PUSH2 0x356F PUSH2 0x3344 JUMP JUMPDEST JUMPDEST SWAP3 SWAP2 POP POP JUMP JUMPDEST PUSH1 0x0 PUSH2 0x3581 DUP3 PUSH2 0x24A2 JUMP JUMPDEST SWAP2 POP PUSH2 0x358C DUP4 PUSH2 0x24A2 JUMP JUMPDEST SWAP3 POP DUP3 PUSH2 0x359C JUMPI PUSH2 0x359B PUSH2 0x32E4 JUMP JUMPDEST JUMPDEST DUP3 DUP3 DIV SWAP1 POP SWAP3 SWAP2 POP POP JUMP JUMPDEST PUSH1 0x0 PUSH2 0x35B2 DUP3 PUSH2 0x25FC JUMP JUMPDEST SWAP2 POP PUSH2 0x35BD DUP4 PUSH2 0x25FC JUMP JUMPDEST SWAP3 POP DUP3 DUP3 MUL PUSH2 0x35CB DUP2 PUSH2 0x25FC JUMP JUMPDEST SWAP2 POP PUSH32 0x8000000000000000000000000000000000000000000000000000000000000000 DUP5 EQ PUSH1 0x0 DUP5 SLT AND ISZERO PUSH2 0x3603 JUMPI PUSH2 0x3602 PUSH2 0x3344 JUMP JUMPDEST JUMPDEST DUP3 DUP3 SDIV DUP5 EQ DUP4 ISZERO OR PUSH2 0x3618 JUMPI PUSH2 0x3617 PUSH2 0x3344 JUMP JUMPDEST JUMPDEST POP SWAP3 SWAP2 POP POP JUMP JUMPDEST PUSH1 0x0 DUP2 SWAP1 POP SWAP3 SWAP2 POP POP JUMP JUMPDEST PUSH1 0x0 PUSH2 0x3635 DUP3 PUSH2 0x21FE JUMP JUMPDEST PUSH2 0x363F DUP2 DUP6 PUSH2 0x361F JUMP JUMPDEST SWAP4 POP PUSH2 0x364F DUP2 DUP6 PUSH1 0x20 DUP7 ADD PUSH2 0x221A JUMP JUMPDEST DUP1 DUP5 ADD SWAP2 POP POP SWAP3 SWAP2 POP POP JUMP JUMPDEST PUSH1 0x0 PUSH2 0x3667 DUP3 DUP5 PUSH2 0x362A JUMP JUMPDEST SWAP2 POP DUP2 SWAP1 POP SWAP3 SWAP2 POP POP JUMP INVALID PUSH2 0x6263 PUSH5 0x6566676869 PUSH11 0x6B6C6D6E6F707172737475 PUSH23 0x7778797A313233343536373839A2646970667358221220 SIGNEXTEND ORIGIN 0xFC CALLDATALOAD 0xEB SWAP12 PUSH30 0x6C576EBFC4EBA9E0CB4093CB051F89E61DE6AE7D8917458F1164736F6C63 NUMBER STOP ADDMOD XOR STOP CALLER "
				},
				"gasEstimates": {
					"creation": {
						"codeDepositCost": "2805400",
						"executionCost": "infinite",
						"totalCost": "infinite"
					},
					"external": {
						"ABS(int256)": "infinite",
						"addMedicine(string,string,uint256,string,(uint256,int256,uint256),(uint256,int256,uint256),(uint256,int256,uint256))": "infinite",
						"compareStrings(string,string)": "infinite",
						"deleteMedicine(string)": "infinite",
						"findStakeHolderByUserID(string)": "infinite",
						"getMovingAvgForecast(int256,int256,int256,string,string)": "infinite",
						"getSeasonalForecast(int256,int256,string,string)": "infinite",
						"letters()": "infinite",
						"medicines(uint256)": "infinite",
						"random()": "infinite",
						"random2(uint256)": "infinite",
						"randomString()": "infinite",
						"registerUser(string,string,string)": "infinite",
						"test()": "infinite",
						"weightedMovingAverageMethod(int256,int256,int256,string,string)": "infinite"
					}
				},
				"methodIdentifiers": {
					"ABS(int256)": "e8b16603",
					"addMedicine(string,string,uint256,string,(uint256,int256,uint256),(uint256,int256,uint256),(uint256,int256,uint256))": "585e3305",
					"compareStrings(string,string)": "bed34bba",
					"deleteMedicine(string)": "62e9f4a2",
					"findStakeHolderByUserID(string)": "20987a65",
					"getMovingAvgForecast(int256,int256,int256,string,string)": "6817329f",
					"getSeasonalForecast(int256,int256,string,string)": "8cb85623",
					"letters()": "2040a465",
					"medicines(uint256)": "c85e766d",
					"random()": "5ec01e4d",
					"random2(uint256)": "61b299d5",
					"randomString()": "bafcd678",
					"registerUser(string,string,string)": "d637dcfa",
					"test()": "f8a8fd6d",
					"weightedMovingAverageMethod(int256,int256,int256,string,string)": "98a5f87c"
				}
			},
			"storageLayout": {
				"storage": [
					{
						"astId": 53,
						"contract": "contracts/SupplyChainDataManagement.sol:SupplyChainDataManagement",
						"label": "users",
						"offset": 0,
						"slot": "0",
						"type": "t_array(t_struct(User)10_storage)dyn_storage"
					},
					{
						"astId": 57,
						"contract": "contracts/SupplyChainDataManagement.sol:SupplyChainDataManagement",
						"label": "medicines",
						"offset": 0,
						"slot": "1",
						"type": "t_array(t_struct(Medicine)37_storage)dyn_storage"
					},
					{
						"astId": 60,
						"contract": "contracts/SupplyChainDataManagement.sol:SupplyChainDataManagement",
						"label": "i",
						"offset": 0,
						"slot": "2",
						"type": "t_uint256"
					},
					{
						"astId": 75,
						"contract": "contracts/SupplyChainDataManagement.sol:SupplyChainDataManagement",
						"label": "letters",
						"offset": 0,
						"slot": "3",
						"type": "t_string_storage"
					},
					{
						"astId": 78,
						"contract": "contracts/SupplyChainDataManagement.sol:SupplyChainDataManagement",
						"label": "counter",
						"offset": 0,
						"slot": "4",
						"type": "t_uint256"
					}
				],
				"types": {
					"t_array(t_struct(Medicine)37_storage)dyn_storage": {
						"base": "t_struct(Medicine)37_storage",
						"encoding": "dynamic_array",
						"label": "struct SupplyChainDataManagement.Medicine[]",
						"numberOfBytes": "32"
					},
					"t_array(t_struct(User)10_storage)dyn_storage": {
						"base": "t_struct(User)10_storage",
						"encoding": "dynamic_array",
						"label": "struct SupplyChainDataManagement.User[]",
						"numberOfBytes": "32"
					},
					"t_int256": {
						"encoding": "inplace",
						"label": "int256",
						"numberOfBytes": "32"
					},
					"t_string_storage": {
						"encoding": "bytes",
						"label": "string",
						"numberOfBytes": "32"
					},
					"t_struct(Medicine)37_storage": {
						"encoding": "inplace",
						"label": "struct SupplyChainDataManagement.Medicine",
						"members": [
							{
								"astId": 19,
								"contract": "contracts/SupplyChainDataManagement.sol:SupplyChainDataManagement",
								"label": "batchCode",
								"offset": 0,
								"slot": "0",
								"type": "t_string_storage"
							},
							{
								"astId": 21,
								"contract": "contracts/SupplyChainDataManagement.sol:SupplyChainDataManagement",
								"label": "medicineName",
								"offset": 0,
								"slot": "1",
								"type": "t_string_storage"
							},
							{
								"astId": 23,
								"contract": "contracts/SupplyChainDataManagement.sol:SupplyChainDataManagement",
								"label": "idOfUser",
								"offset": 0,
								"slot": "2",
								"type": "t_string_storage"
							},
							{
								"astId": 25,
								"contract": "contracts/SupplyChainDataManagement.sol:SupplyChainDataManagement",
								"label": "quantitySoldInNumbers",
								"offset": 0,
								"slot": "3",
								"type": "t_uint256"
							},
							{
								"astId": 28,
								"contract": "contracts/SupplyChainDataManagement.sol:SupplyChainDataManagement",
								"label": "timeOfSelling",
								"offset": 0,
								"slot": "4",
								"type": "t_struct(Time)17_storage"
							},
							{
								"astId": 30,
								"contract": "contracts/SupplyChainDataManagement.sol:SupplyChainDataManagement",
								"label": "addedByStakeHolderType",
								"offset": 0,
								"slot": "7",
								"type": "t_string_storage"
							},
							{
								"astId": 33,
								"contract": "contracts/SupplyChainDataManagement.sol:SupplyChainDataManagement",
								"label": "mfdDate",
								"offset": 0,
								"slot": "8",
								"type": "t_struct(Time)17_storage"
							},
							{
								"astId": 36,
								"contract": "contracts/SupplyChainDataManagement.sol:SupplyChainDataManagement",
								"label": "expDate",
								"offset": 0,
								"slot": "11",
								"type": "t_struct(Time)17_storage"
							}
						],
						"numberOfBytes": "448"
					},
					"t_struct(Time)17_storage": {
						"encoding": "inplace",
						"label": "struct SupplyChainDataManagement.Time",
						"members": [
							{
								"astId": 12,
								"contract": "contracts/SupplyChainDataManagement.sol:SupplyChainDataManagement",
								"label": "day",
								"offset": 0,
								"slot": "0",
								"type": "t_uint256"
							},
							{
								"astId": 14,
								"contract": "contracts/SupplyChainDataManagement.sol:SupplyChainDataManagement",
								"label": "month",
								"offset": 0,
								"slot": "1",
								"type": "t_int256"
							},
							{
								"astId": 16,
								"contract": "contracts/SupplyChainDataManagement.sol:SupplyChainDataManagement",
								"label": "year",
								"offset": 0,
								"slot": "2",
								"type": "t_uint256"
							}
						],
						"numberOfBytes": "96"
					},
					"t_struct(User)10_storage": {
						"encoding": "inplace",
						"label": "struct SupplyChainDataManagement.User",
						"members": [
							{
								"astId": 3,
								"contract": "contracts/SupplyChainDataManagement.sol:SupplyChainDataManagement",
								"label": "userID",
								"offset": 0,
								"slot": "0",
								"type": "t_string_storage"
							},
							{
								"astId": 5,
								"contract": "contracts/SupplyChainDataManagement.sol:SupplyChainDataManagement",
								"label": "aadharID",
								"offset": 0,
								"slot": "1",
								"type": "t_string_storage"
							},
							{
								"astId": 7,
								"contract": "contracts/SupplyChainDataManagement.sol:SupplyChainDataManagement",
								"label": "name",
								"offset": 0,
								"slot": "2",
								"type": "t_string_storage"
							},
							{
								"astId": 9,
								"contract": "contracts/SupplyChainDataManagement.sol:SupplyChainDataManagement",
								"label": "stakeholderType",
								"offset": 0,
								"slot": "3",
								"type": "t_string_storage"
							}
						],
						"numberOfBytes": "128"
					},
					"t_uint256": {
						"encoding": "inplace",
						"label": "uint256",
						"numberOfBytes": "32"
					}
				}
			},
			"userdoc": {
				"kind": "user",
				"methods": {},
				"version": 1
			}
		}
	}
}